:100000000C946C260C949D260C949D260C949D2695
:100010000C949D260C949D260C949D260C949D2654
:100020000C949D260C949D260C949D260C949D2644
:100030000C949D260C949D260C949D260C949D2634
:100040000C949D260D9471780C949D260C949D26FD
:100050000C949D260C949D260C94EDF10D94A831E2
:100060000C949D260C94E15A0C94D75A0C949D261E
:100070000C949D260C949D260C949D260C949D26F4
:100080000C949D260C949D260C949D260C949D26E4
:100090000C949D260C949D260C949D260C949D26D4
:1000A0000C949D260C949D260C949D260C949D26C4
:1000B0000C949D260C949D260C949D260C949D26B4
:1000C0000C949D260C949D260C949D260C949D26A4
:1000D0000C949D260C949D260C949D260C949D2694
:1000E0000C949D26AF4AB64A694B714CBF4DC84D22
:1000F000D84D175B295B3B5B4C5B545B875B585B64
:10010000875B5C5B605B875B645B685B6C5B755BA0
:10011000875B805BDF023B025101BF027102F3018A
:10012000EB017B02D501BD01E3028F016501AD0248
:10013000E301CF01AB012F0219027B0169019D018F
:10014000BB01B1013B0189022F021D024B01A1023B
:10015000A902DB026B0299016F023502C101ED01B8
:10016000FF019F01D1028102850115023502A30220
:1001700097028B02084AD73B3BCE016E84BCBFFD81
:10018000C12F3D6C74319ABD56833DDA3D00C77F67
:1001900011BED9E4BB4C3E916BAAAABE0000008000
:1001A0003F05A84CCDB2D44EB93836A9020C50B98F
:1001B000918688083CA6AAAA2ABE000000803F07B4
:1001C000634236B79BD8A71A39685618AEBAAB55F2
:1001D0008C1D3CB7CC5763BD6DEDFD753EF61772B7
:1001E00031BF000000803F08000000BE9224491289
:1001F0003EABAAAA2ABECDCCCC4C3E00000080BEAD
:10020000ABAAAAAA3E00000000BF000000803F0089
:1002100000000000084178D3BB4387D1133D190E7D
:100220003CC3BD4282AD2B3E68EC8276BED98FE1E5
:10023000A93E4C80EFFFBE01C4FF7F3F00000000DD
:1002400000000C94CFB30C9467C10D94B4640D946A
:1002500020520C946BD30D940E520C9423BE0C942C
:10026000DBD10C94F76F0C946CC00C9400BC0C9414
:10027000E7BB0D9413310D9445740C9436F10D9435
:1002800044520D9459460C9440BC0C94647C0C94DC
:10029000F8BC0C942CFC0D9453740C946C5B0D9472
:1002A000922A0D94E9300D9435520D94CE510C9450
:1002B000755B0C94956D0C94694B0C9460B50C9423
:1002C00079CF0C9413C10C9463B80D9422740D94DF
:1002D0005D460D9433740D941F530C94DA6D0D9498
:1002E0007E2A0D9487610C9487BC0D947C290D9413
:1002F000D01F0C9431C10D942D740C94AF4A0C9402
:100300009FB60C9409CD0C9422B70D9439750C94BA
:100310007CC50C94837C0C9454C50C94C36D0D94D3
:10032000FB300C941DBD0C94175B0C94BF4D0D94C9
:100330008D610D94E8740C9428B50D9437740D9468
:1003400016750D9425540C94805B0D94A14E0D945C
:100350009E2A0D943D310D941C740C9490730D9451
:100360002B520D9441740C9422C10D9499550D9407
:100370001A520C94D6D10D943B740D940B310C94FD
:1003800053BE0D94FC740C948BC00D94F3450D94E6
:10039000BF280C94D4BB0C9441BE0D948E2A0D94AE
:1003A00018740C943B5B0C942FBE0D94F5300C9498
:1003B000585B0D943F520C948B7C0C94627F0C9490
:1003C0003BBE0D94E8580D9414740C944C5B0C9443
:1003D0009ABC0D9426520D94F2300D9404750C9431
:1003E000F36D0C94B3BC0D94EF300C9474BC0C946E
:1003F000645B0C947ABE0C9442B20C94AC6D0D9478
:100400000C750C9411BD0D941F290D9448460D9444
:1004100068520D94D8510D944A310C94F16D0C949E
:100420006BBE0D94962A0C9400C20D9443750D94E6
:1004300079310D9429740D9426530D944F740D94B5
:100440003A520D9444460D94E0560C94545B0C942F
:100450007D790C940EBC0C94875B0D94A22A0D94AC
:100460005C740C94605B0D944B2C0D946B750C9428
:1004700029B90C94647F0D94E6300C94B64A0D941F
:1004800030520C9459BE0C9443B60C942FD30C9458
:10049000DFBC0C94BFC50D94862A0D949A2A0C9447
:1004A00027BC0C9447BE0D9449520C9405B40C948F
:1004B000607F0C94FEBD0C94C84D0D94A98D0C94D6
:1004C0000ABE0D9400290C940AD30C9465BE0C94BA
:1004D000857C0C940CC20D94DE740C9457D10D9451
:1004E000F2740D94EC300D9412840C948FB60C942D
:1004F0005C5B0D9473290D94FE300C941DBE0C941E
:100500000CCB0D942A750C94A0770C9443C00D94D9
:10051000822A0D9449740D9461750C9463C50D94F1
:10052000A62A0C9464C00C94FB6F0D94D44D0D94CA
:1005300057750C94F4C00C944DBE0C941ABA0C94DC
:1005400040C10D9457740D944D750D94C8510C9481
:100550005EC10D94D4740C94714C0D9425740D945B
:1005600014520C94685B0C9432D00C94897C0C94DB
:10057000295B0D948A2A0C94947A0C94D17D0D9465
:1005800010310C94F4C10D948A610C9418620C948F
:10059000877C0C94E0D10D942F200C94D84D0D94B1
:1005A000C1510D9420750D940D4E0D94FE280C94A0
:1005B0005FBE0C9451D00D94D9740C941FB20D945D
:1005C0000D310D94D0510D94F8300C9459BC0C940D
:1005D00000D70C9435BE0C944FC10C94C6BC0D943E
:1005E0005E310C947DCE0C9429BE0C94F56D0D9467
:1005F000CF1F0C9420B70C94F2B24E414E494E4995
:100600005459494E46CDCCCC3D0AD7233C17B7D1DF
:100610003877CC2B329595E6241FB14F0A00002085
:10062000410000C84200401C4620BCBE4CCA1B0E04
:100630005AAEC59D7400407A10F35A00A0724E184D
:10064000090010A5D4E80000E87648170000E40B84
:1006500054020000CA9A3B000000E1F5050000804A
:10066000969800000040420F000000A086010000A4
:1006700000102700000000E80300000000640000F4
:100680000000000A00000000000100000000002C33
:1006900076D888DC674F0823DFC1DFAE59E1B1B7F8
:1006A00096E5E3E453C63AE651997696E8E6C284C5
:1006B00026EB898C9B62ED407C6FFCEFBC9C9F40DD
:1006C000F2BAA56FA5F490055A2AF75C936B6CF902
:1006D000676DC11BFCE0E40D47FEF520E6B500D0D8
:1006E000ED902E0300943577050080841E080000ED
:1006F000204E0A000000C80C333333330F986E12BB
:10070000831141EF8D2114893BE65516CFFEE6DBC0
:1007100018D1844B381BF77C1D901DA4BBE424200A
:100720003284725E228100C9F124ECA1E53D274CA0
:100730004556454C494E4700434F4D4D554E494354
:100740004154494F4E0044525952554E0045525261
:100750004F5253004543484F0047322F47332062E2
:10076000616420706172616D65746572730A005313
:100770006C6565702E2E2E00205A3A200020593AC2
:10078000200042656420583A20004D65736820704F
:100790006F696E74206F7574206F662072616E676A
:1007A000650A004D302053746F70004D3120537432
:1007B0006F7000436C69636B20746F2052657375B2
:1007C0006D652E2E2E004E6F204D6F76652E0045E6
:1007D0006E642066696C65206C6973740A004265FA
:1007E00067696E2066696C65206C6973740A004ED7
:1007F0006F206D656469610A00526573756D696E7D
:1008000067205344007061757365005061757365AE
:1008100020534400286E6F2066696C65290043757B
:100820007272656E742066696C653A2000534420CC
:100830007072696E74696E67206279746520004E0B
:100840006F74205344207072696E74696E670A0079
:1008500044656C6574696F6E206661696C65642CB3
:100860002046696C653A200046696C652064656CB9
:10087000657465643A0025697920256964202569D5
:10088000682025696D20256973005072696E742097
:1008900074696D653A200045202553004445425552
:1008A000473A004D31313320530042656420436F95
:1008B0006F6C696E672E2E2E00426564204865615C
:1008C00074696E672E2E2E005369646577696E64B5
:1008D0006572205831204F46462E002F2F20004DA4
:1008E00031343520533C696E6465783E206F7574F1
:1008F000206F662072616E67652028302D31290ACD
:1009000000416363656C65726174696F6E3A205073
:10091000005741524E494E4721204C6F77205A20B4
:100920004A65726B206D6179206C65616420746F1B
:1009300020756E77616E7465642070617573657380
:100940002E0A0020204D61783A200020204D696E4B
:100950003A2000536F667420656E6473746F707311
:100960003A200046523A0020466C6F773A20002029
:10097000643A0020693A0020703A006469730043C9
:10098000290A0061626C656420286D696E207465B7
:100990006D702000436F6C642065787472756465B7
:1009A0007320617265200046696C616D656E74200C
:1009B00072756E6F757420004D34323120696E632C
:1009C0006F727265637420706172616D65746572B7
:1009D0002075736167650A004F66667365747320DE
:1009E0004170706C696564004572723A20546F6F93
:1009F000206661722100546F6F20666172206672FA
:100A00006F6D207265666572656E636520706F69D3
:100A10006E740A00454550524F4D204F4B0A00203E
:100A200028302D313029002076616C7565206F7576
:100A300074206F662072616E676500416476616E36
:100A40006365204B3D005072696E7420446F6E6583
:100A500000446F6E65207072696E74696E672066FF
:100A6000696C650A004D3737004D33310054076318
:100A70000E4D07460738072F073F3F3F2059696B48
:100A800065732120204E414E20696E206765745F9A
:100A90007A5F636F7272656374696F6E28002920D4
:100AA0003D200020726177206765745F7A5F636F15
:100AB0007272656374696F6E2800203A202E2E2EA4
:100AC0004E6F77204F4E0A00203A204C6576656CB9
:100AD000696E67204F46460A00203A202E2E2E4E81
:100AE0006F77204F46460A00203A204C6576656CA9
:100AF000696E67204F4E0A00204A0020204D343294
:100B000031204900202047323920493939390A003B
:100B10006163746976650A002053797374656D208A
:100B200076312E303120002020207C0A004E414EAC
:100B30000020202E20202000207C004C43443A0A34
:100B4000004353563A0A0020666F7220003A0A0AA0
:100B5000000A42656420546F706F67726170687933
:100B6000205265706F7274002044697363726570FF
:100B7000616E63793A00326E642050726F62652054
:100B80005A3A00534C4F57003173742050726F62C1
:100B900065205A3A00464153540050726F62653ADC
:100BA0003A72756E5F7A5F70726F62650050726F35
:100BB00062696E67204661696C65640A0050726FF5
:100BC00062696E67204661696C656400506F736985
:100BD00074696F6E204E6F74205265616368616244
:100BE0006C650A005F72656C6174697665290A003C
:100BF00050726F62653A3A70726F62655F61745FDE
:100C0000706F696E7400446F6E652E0A003F496E06
:100C100076616C69642073746F7261676520736CB0
:100C20006F742E0A3F557365203020746F20004783
:100C300032392050322066696E69736865642E0A05
:100C4000005859206F757473696465207072696EFD
:100C50007461626C65207261646975732E0A003F6D
:100C60004572726F7220696E20427573696E65738A
:100C7000732043617264206D6561737572656D6583
:100C80006E742E0A004D616E75616C6C7920707205
:100C90006F62696E6720756E726561636861626C10
:100CA0006520706F696E74732E0A0050726F6269EE
:100CB0006E672061726F756E642028004D657368E1
:100CC00020696E76616C6964617465642E2050726F
:100CD0006F62696E67206D6573682E0A004D6573DB
:100CE00068207A65726F65642E0A004465666175D6
:100CF0006C742073746F7261676520736C6F7420FD
:100D0000302073656C65637465642E0A004C6F61F6
:100D100064696E6720746573745F70617474657262
:100D20006E2076616C7565732E0A0A00496E7661D5
:100D30006C696420746573745F7061747465726E3D
:100D40002076616C75652E20282D3120746F20323D
:100D5000290A0A004C6F636174696F6E7320696EB3
:100D600076616C6964617465642E0A0A00456E746C
:100D7000697265204D65736820696E76616C69647F
:100D8000617465642E0A0A0050726F74656374653D
:100D9000642050696E0A005A5F6D6F76655F636FFD
:100DA0006D700A003E3E3E207365745F6178697322
:100DB0005F6E657665725F686F6D656428003C3CA8
:100DC0003C207365745F617869735F6E65766572E8
:100DD0005F686F6D656428005072696E746572207B
:100DE00073746F707065642064756520746F20651E
:100DF00072726F72732E2046697820746865206560
:100E000072726F7220616E6420757365204D39397E
:100E10003920746F20726573746172742E202854A7
:100E2000656D706572617475726520697320726595
:100E30007365742E2053657420697420616674652F
:100E4000722072657374617274696E67290A005545
:100E50004E4B4E4F574E2053544154450047434F3D
:100E600044455F494E464F004C43445F5041555303
:100E7000455F524553554D450046494C414D454E01
:100E8000545F52554E4F55545F434F4E54494E5543
:100E9000450046494C414D454E545F52554E4F55C5
:100EA00054004D38373620526573706F6E64696E2A
:100EB000672050524F4D50545F004572726F722040
:100EC00077726974696E6720746F20454550524F80
:100ED0004D210A0053544F505045442E20004E6F70
:100EE00020436865636B73756D2077697468206C47
:100EF000696E65206E756D6265722C204C6173742D
:100F0000204C696E653A2000636865636B73756D8C
:100F1000206D69736D617463682C204C617374205B
:100F20004C696E653A20004C696E65204E756D62A5
:100F30006572206973206E6F74204C617374204C4D
:100F4000696E65204E756D6265722B312C204C6187
:100F50007374204C696E653A20004D313130005376
:100F6000442072656164206572726F720A002121EB
:100F7000204B494C4C206361757365642062792075
:100F80004B494C4C20627574746F6E2F70696E0AF9
:100F9000002121204B494C4C20636175736564200E
:100FA000627920746F6F206D75636820696E61636C
:100FB000746976652074696D65202D206375727281
:100FC000656E7420636F6D6D616E643A20006275AA
:100FD00073793A2070617573656420666F72206959
:100FE0006E7075740A00627573793A20706175735A
:100FF000656420666F7220757365720A006275738E
:10100000793A2070726F63657373696E670A004D79
:10101000656469612052656D6F766564004D656435
:10102000696120496E736572746564004D363030B5
:10103000002066696C616D656E745F72756E6F75A8
:1010400074200066696C616D656E745F72756E6F99
:10105000757420540046696C616D656E7452756ECE
:101060006F7574205400506C656173652052657310
:101070006574005052494E5445522048414C5445E5
:10108000440025533A20255300706F7765726F66D0
:1010900066004B494C4C45442E20005072696E74DA
:1010A00065722068616C7465642E206B696C6C28B5
:1010B000292063616C6C6564210A006563686F3A7E
:1010C000004572726F723A002C79693D002C7831BC
:1010D0005F693D00206F7574206F6620626F756ECA
:1010E000647320696E207A5F636F727265637469DE
:1010F0006F6E5F666F725F785F6F6E5F686F726949
:101100007A6F6E74616C5F6D6573685F6C696E6534
:10111000287278303D0078315F69007969002C20B1
:1011200079315F693D002C2078693D00206F75742E
:10113000206F6620626F756E647320696E207A5F1F
:10114000636F7272656374696F6E5F666F725F79E9
:101150005F6F6E5F766572746963616C5F6D6573F6
:10116000685F6C696E65287279303D007869007936
:10117000315F69002F2F616374696F6E3A00737479
:1011800061727400626567696E00656E64007072FA
:101190006F6D70745F0073686F770044697361628C
:1011A0006C6552756E6F75740050757267654D6F22
:1011B000726500486F74656E6420746F6F20636F92
:1011C0006C640A004732362048656174696E672096
:1011D0004E6F7A7A6C6500473236204865617469D3
:1011E0006E67204265640057616974696E672066A6
:1011F0006F72206865617475702E0A0046697865A3
:1012000064204C656E677468205072696D65004497
:101210006F6E65205072696D696E67004D616E7505
:10122000616C207072696D696E672E2E2E004732D8
:10123000362043616E63656C6564004C6561766958
:101240006E6720473236003F537065636966696593
:101250006420582C5920636F6F7264696E617465E5
:10126000206F7574206F6620626F756E64732E0A2E
:10127000003F28522965706561742076616C756540
:10128000206E6F7420706C61757369626C653B20B1
:101290006D757374206265206174206C6561737470
:1012A00020312E0A003F53706563696669656420CA
:1012B0006E6F7A7A6C652074656D70657261747595
:1012C0007265206E6F7420706C61757369626C65F5
:1012D0002E0A003F5370656369666965642066691C
:1012E0006C616D656E742073697A65206E6F742011
:1012F000706C61757369626C652E0A003F5370658E
:10130000636966696564207072696D65206C656EDD
:10131000677468206E6F7420706C61757369626C9D
:10132000652E0A003F537065636966696564206EC7
:101330006F7A7A6C652073697A65206E6F7420709D
:101340006C61757369626C652E0A003F5265747238
:10135000616374696F6E204D756C7469706C69653A
:1013600072206D75737420626520737065636966A1
:101370006965642E0A003F53706563696669656438
:101380002052657472616374696F6E204D756C7460
:1013900069706C696572206E6F7420706C61757312
:1013A00069626C652E0A003F537065636966696502
:1013B00064206C6179657220686569676874206E65
:1013C0006F7420706C61757369626C652E0A0043DE
:1013D000292E0A003F53706563696669656420625F
:1013E00065642074656D7065726174757265206ED8
:1013F0006F7420706C61757369626C65202834307D
:101400002D00473236207374617274696E672E2E18
:101410002E0A004C6F6164206D6D00556E6C6F611B
:1014200064206D6D0046696C2E204469612E004574
:1014300020696E206D6DC2B3004D333033205531BD
:101440002045256920532569005049442041757481
:101450006F74756E65202A005049442D44202A007F
:101460005049442D49202A005049442D50202A003B
:1014700020022046616374002002204D6178002024
:1014800002204D696E004175746F74656D70005671
:1014900054726176204D696E00566D696E00566D0E
:1014A0006178204500566D6178205A00566D61784C
:1014B000205900566D6178205800416D61782045B3
:1014C00000416D6178205A00416D617820590041DA
:1014D0006D6178205800412D54726176656C004131
:1014E0002D5265747261637400416363656C0056CC
:1014F000652D4A65726B00565A2D4A65726B00560F
:10150000592D4A65726B0056582D4A65726B005012
:10151000726F62652059204F666673657400507261
:101520006F62652058204F666673657400452073AE
:10153000746570732F6D6D005A2053746570732F2E
:101540006D6D00592053746570732F6D6D005820B8
:1015500053746570732F6D6D00496E6974004D345E
:1015600032380050726F6265204F6666736574731F
:1015700000416363656C65726174696F6E005665E6
:101580006C6F636974790053657420486F6D6520D2
:101590004F6666736574730050726F6265204F66A4
:1015A000667365742058007D007D7D2C776F726BAB
:1015B0003A7B6D696E3A7B783A007D2C6D61783AA2
:1015C0007B783A002C7A3A002C793A006172656196
:1015D0003A7B66756C6C3A7B6D696E3A7B783A0043
:1015E0004348414D4245525F54454D504552415448
:1015F00055524500424142595354455050494E4777
:101600000041524353004D4F54494F4E5F4D4F449C
:10161000455300544845524D414C5F50524F54453C
:101620004354494F4E004C4F4E475F46494C454E40
:10163000414D45004155544F5245504F52545F5310
:10164000445F535441545553005344434152440062
:1016500050524F4D50545F535550504F52540045C7
:101660004D455247454E43595F50415253455200F4
:10167000434153455F4C494748545F4252494748AC
:10168000544E45535300544F47474C455F4C4947D0
:1016900048545300534F4654574152455F504F579B
:1016A0004552004255494C445F50455243454E54C3
:1016B000004C4556454C494E475F44415441005A01
:1016C0005F50524F4245004155544F4C4556454C92
:1016D000005052494E545F4A4F420050524F4752B9
:1016E000455353004155544F5245504F52545F5447
:1016F000454D5000564F4C554D45545249430042BC
:10170000494E4152595F46494C455F5452414E53F0
:101710004645520053455249414C5F584F4E5F5821
:101720004F4646004649524D574152455F4E414D46
:10173000453A4D61726C696E20322E302E372E3252
:1017400020284F6374203230203230323020313044
:101750003A31323A33362920534F555243455F438D
:101760004F44455F55524C3A68747470733A2F2F4A
:101770006769746875622E636F6D2F4D61726C6955
:101780006E4669726D776172652F4D61726C696E1C
:101790002050524F544F434F4C5F56455253494F80
:1017A0004E3A312E30204D414348494E455F545901
:1017B00050453A5369646577696E646572205831A3
:1017C0002045585452554445525F434F554E543A64
:1017D0003120555549443A38356534393866302D0D
:1017E000633663332D343864352D396633362D65D1
:1017F00038383332326439306362310A003F5A205C
:101800006F7574206F662072616E67652028003FD7
:1018100059206F7574206F662072616E676520288D
:101820002D003F58206F7574206F662072616E67BF
:101830006520282D00656E7175657565696E672078
:1018400022006F6B00526573656E643A200023645A
:101850006566696E652044454641554C545F004BB2
:101860006420004B6920004B702000504944204107
:1018700075746F74756E652066696E6973686564EA
:10188000212050757420746865206C617374204B3E
:10189000702C204B6920616E64204B6420636F6E56
:1018A0007374616E74732066726F6D2062656C6F05
:1018B0007720696E746F20436F6E66696775726119
:1018C00074696F6E2E680A00504944204175746F28
:1018D00074756E65206661696C6564212074696D3C
:1018E000656F75740A000A20436C61737369632025
:1018F000504944200A00204B643A2000204B693AAA
:101900002000204B703A20000A204E6F206F766531
:101910007273686F6F740A002054753A2000204B70
:10192000753A2000206D61783A2000206D696E3A8A
:10193000200020643A200020626961733A20005040
:101940004944204175746F74756E652073746172BB
:10195000740A00504944204175746F74756E652097
:101960006661696C6564212054656D70657261748F
:1019700075726520746F6F20686967680A00504946
:1019800044204175746F74756E6500504944204160
:1019900075746F74756E65206661696C656421206D
:1019A000426164206578747275646572206E756D2D
:1019B0006265720A00A10000006900A200000063D5
:1019C00000B00000000900C10000004100C200009A
:1019D000004100C30000004100C40000004100C5F8
:1019E0000000004100C60000004145C70000004360
:1019F00000C80000004500C90000004500CD0000FF
:101A0000004900D10000004E00D50000004F00D674
:101A10000000004F00D70000007800DC00000055F7
:101A200000DD0000005900E00000006100E100005E
:101A3000006100E20000006100E30000006100E4DA
:101A40000000006100E50000006100E600000061A8
:101A500065E70000006300E80000006500E90000A1
:101A6000006500EA0000006500EB0000006500EC86
:101A70000000006900ED0000006900EE0000006950
:101A800000EF0000006900F10000006E00F20000AD
:101A9000006F00F30000006F00F40000006F00F51D
:101AA0000000006F00F60000006F00F80000006FFB
:101AB00000F90000007500FA0000007500FB00004E
:101AC000007500FC0000007500FD0000007900FFBB
:101AD00000000079000401000041000501000061E0
:101AE000000601000043000701000063000C010034
:101AF0000043000D01000063000E01000044000FD0
:101B0000010000640011010000640019010000657B
:101B1000001A01000045001B01000065001F0100C4
:101B200000670030010000490031010000690041F8
:101B30000100004C00420100006C00430100004E17
:101B400000440100006E00480100006E00580100D2
:101B50000052005901000072005A01000053005B5E
:101B600001000073005F010000730060010000537A
:101B7000006101000073006501000074006F010046
:101B80000075007C0100007A007D0100005A007E93
:101B90000100007A00920100006600E30200007874
:101BA00000222000002E001E21000050782221007B
:101BB00000544D902100003C2D922100002D3EB09C
:101BC0002100000300BB21000004003C2200007E35
:101BD00000482200007E3D60220000213D6122007D
:101BE000003D00642200003C3D652200003E3DF1C6
:101BF0002300000700A03000003D0021F301000297
:101C000000C2F401000500A2000000EC00B00000DA
:101C100000DF00E4000000E100F6000000EF00F744
:101C2000000000FD00FC000000F500E3020000EBF6
:101C30000087030000A5008F030000F40098030054
:101C400000F2009E030000E300A3030000F600A9D9
:101C5000030000F400AC030000E000AD030000E36B
:101C600000B1030000E000B2030000E200B5030091
:101C700000E300B8030000F200BC030000E400BE73
:101C8000030000E300C0030000F700C1030000E60A
:101C900000C3030000E500902100007F00922100B6
:101CA000007E001A220000E8001E220000F30088D7
:101CB000250000FF0002300000A1000C300000A24F
:101CC000000D300000A3009B300000DE009C3000BF
:101CD00000DF00A03000003D00A1300000A700A2FE
:101CE000300000B100A3300000A800A4300000B212
:101CF00000A5300000A900A6300000B300A7300006
:101D000000AA00A8300000B400A9300000AB00AA6F
:101D1000300000B500AB300000B600AC300000B6BB
:101D2000DEAD300000B700AE300000B7DEAF3000EF
:101D300000B800B0300000B8DEB1300000B900B229
:101D4000300000B9DEB3300000BA00B4300000BA91
:101D5000DEB5300000BB00B6300000BBDEB730009F
:101D600000BC00B8300000BCDEB9300000BD00BAD5
:101D7000300000BDDEBB300000BE00BC300000BE45
:101D8000DEBD300000BF00BE300000BFDEBF30004F
:101D900000C000C0300000C0DEC1300000C100C281
:101DA000300000C1DEC3300000AF00C4300000C20C
:101DB00000C5300000C2DEC6300000C300C73000DE
:101DC00000C3DEC8300000C400C9300000C4DECA51
:101DD000300000C500CB300000C600CC300000C78A
:101DE00000CD300000C800CE300000C900CF300068
:101DF00000CA00D0300000CADED1300000CADFD2F5
:101E0000300000CB00D3300000CBDED4300000CB5C
:101E1000DFD5300000CC00D6300000CCDED730005B
:101E200000CCDFD8300000CD00D9300000CDDEDAA4
:101E3000300000CDDFDB300000CE00DC300000CE13
:101E4000DEDD300000CEDFDE300000CF00DF30000E
:101E500000D000E0300000D100E1300000D200E20C
:101E6000300000D300E3300000AC00E4300000D4C8
:101E700000E5300000AD00E6300000D500E730009E
:101E800000AE00E8300000D600E9300000D700EADC
:101E9000300000D800EB300000D900EC300000DA50
:101EA00000ED300000DB00EF300000DC00F230001D
:101EB00000A600F3300000DD00F4300000B3DEF7D0
:101EC000300000DCDEFA300000A6DEFB300000A5AA
:101ED00000FC300000B000FD300000A400074E0000
:101EE00000FB0086510000FC0043530000FA006430
:101EF000FF0000A40065FF0000A50066FF0000A62B
:101F00000067FF0000A70068FF0000A80069FF004D
:101F100000A9006AFF0000AA006BFF0000AB006C84
:101F2000FF0000AC006DFF0000AD006EFF0000AED2
:101F3000006FFF0000AF0070FF0000B00071FF00F5
:101F400000B10072FF0000B20073FF0000B3007424
:101F5000FF0000B40075FF0000B50076FF0000B67A
:101F60000077FF0000B70078FF0000B80079FF009D
:101F700000B9007AFF0000BA007BFF0000BB007CC4
:101F8000FF0000BC007DFF0000BD007EFF0000BE22
:101F9000007FFF0000BF0080FF0000C00081FF0045
:101FA00000C10082FF0000C20083FF0000C3008464
:101FB000FF0000C40085FF0000C50086FF0000C6CA
:101FC0000087FF0000C70088FF0000C80089FF00ED
:101FD00000C9008AFF0000CA008BFF0000CB008C04
:101FE000FF0000CC008DFF0000CD008EFF0000CE72
:101FF000008FFF0000CF0090FF0000D00091FF0095
:1020000000D10092FF0000D20093FF0000D30094A3
:10201000FF0000D40095FF0000D50096FF0000D619
:102020000097FF0000D70098FF0000D80099FF003C
:1020300000D9009AFF0000DA009BFF0000DB009C43
:10204000FF0000DC009DFF0000DD009EFF0000DEC1
:10205000009FFF0000DF00E5FF00005C002E2E2E39
:102060002800486F6D696E67204661696C65640081
:102070006F70656E005452494747455245440066AB
:10208000696C616D656E74007A5F6D696E00795F71
:102090006D696E00785F6D696E005265706F727465
:1020A000696E6720656E6473746F702073746174F9
:1020B00075730A00203A2073796E635F706C616EED
:1020C0005F706F736974696F6E0A00646F5F626C32
:1020D0006F636B696E675F6D6F76655F746F0048E5
:1020E0006F6D65202573257325732046697273749F
:1020F000005D002C2000646F5F686F6D696E675F24
:102100006D6F7665000600000701000500070100FD
:1021100007060000000700050014210F210A210511
:10212000210000803FABAA4A42ABAAC84200001679
:1021300043ABAA4743565579430080954325532026
:1021400025692F2569002020443D002020423D00C4
:102150004C534620526573756C747320413D007278
:102160006F746174696F6E206D61747269783A0A78
:1021700000616674657220726F746174696F6E209D
:102180003D205B005D2020202D2D2D3E200062652E
:10219000666F726520726F746174696F6E203D2086
:1021A0005B005D0A0062656420706C616E65206E84
:1021B0006F726D616C203D205B00436F756C642015
:1021C0006E6F7420636F6D706C657465204C534640
:1021D000210020202066696E616C203E3E3E2D2D40
:1021E0002D3E2000202020636F7272656374696F3A
:1021F0006E3A2000292020206D6561737572656438
:102200003A2000292020206C6F676963616C3A20B6
:10221000280054696C74696E67206D65736820705E
:102220006F696E7420003F4572726F722070726F1A
:1022300062696E6720706F696E742E2041626F72E2
:1022400074696E67206F7065726174696F6E2E0AB3
:1022500000255320332F330054696C74696E672056
:102260006D6573682028332F33290A0025532032E7
:102270002F330054696C74696E67206D6573682034
:1022800028322F33290A00436F72726563746564C4
:102290005F5A3D0054696C74696E6720506F696EB7
:1022A0007400255320312F330054696C74696E67B4
:1022B000206D6573682028312F33290A00646F6E02
:1022C000650A00496E73756666696369656E742098
:1022D000646174610A004578747261706F6C617436
:1022E000696E67206D6573682E2E2E0041647661DD
:1022F0006E6365204B0046616E2053706565640017
:102300004D61696E004261627973746570205A0094
:10231000466C6F77005A2056616C756500473238FD
:102320000A4D313930205325690A4D313039205357
:1023300025690A47323920503100426564205465CE
:102340006D7000486F74656E642054656D70004751
:1023500032392050362043202D0048656967687463
:1023600020416D6F756E740041646A757374204D01
:10237000657368204865696768740046696E652002
:1023800054756E6520436C6F736573740047323902
:102390002050342054004732380A47323620432038
:1023A0005020482569204225690056616C696461A6
:1023B000746520437573746F6D204D6573680047B5
:1023C00032380A47323620432050204931005661C6
:1023D0006C6964617465204D657368202824290048
:1023E0004732380A473236204320502049300047D0
:1023F0003239204A2569004C6576656C204D65733D
:1024000068005369646520506F696E747300477289
:102410006964204D657368204C6576656C696E67EC
:1024200000332D506F696E74204C6576656C696E53
:102430006700473239204A300050726F6265205A77
:10244000204F666673657400416476616E636564EF
:102450002053657474696E677300436F6E74696EA0
:10246000756500554E4C4F41442046494C414D4501
:102470004E540046494C414D454E54204348414E30
:102480004745004E65787420506F696E74004E6544
:102490007874004C6F61642053657474696E67735F
:1024A00000526573746F72652044656661756C7463
:1024B000730053746F72652053657474696E67732B
:1024C0000050726568656174202420436F6E660059
:1024D00052756E6F75742053656E736F72004D3751
:1024E000303220542564004D3630302042302054A4
:1024F0002564004D373032203B2564004D373031A4
:1025000020542564005075726765206D6F726500F8
:10251000524553554D45204F5054494F4E533A0064
:102520005052494E54205041555345440020204EAE
:102530006F7A7A6C653A2000473239205034205245
:102540003939392054004732380A4732392050315E
:10255000004D6F74696F6E0045646974204D65733A
:1025600068004D616E75616C6C79204275696C64B0
:10257000204D6573680047323920493939390A4797
:102580003239205032204220543000372E205361FF
:10259000766520426564204D65736800362E2046BE
:1025A000696E652054756E6520416C6C00352E2077
:1025B00056616C6964617465204D65736800342EE2
:1025C0002046696E652054756E6520416C6C003341
:1025D0002E2056616C6964617465204D65736800D6
:1025E000322E20536D6172742046696C6C2D696EB9
:1025F0000047323920503320543000312E204275AC
:10260000696C6420436F6C64204D6573680046619B
:10261000646520486569676874004F7574707574E7
:102620002055424C20496E666F00473239205700D2
:1026300055424C20546F6F6C73004F7574707574F5
:10264000204D657368204D6170004D65736820539F
:10265000746F72616765004D6573682045646974C5
:1026600000537465702D42792D5374657020554266
:102670004C0041637469766174652055424C004793
:102680003239204100446561637469766174652064
:1026900055424C004732392044002568753A2530B0
:1026A0003268750025303268753A25303268750019
:1026B000202020202020200041425300504C410087
:1026C000496E666F2053637265656E00473239202C
:1026D0005033205220432E2569004D616E75616C88
:1026E0002046696C6C2D696E0046696C6C2D696EB4
:1026F00020416D6F756E74004D65736820696E764C
:10270000616C6964617465642E0A00496E76616C5F
:10271000696461746520436C6F736573740047323C
:1027200039204900496E76616C69646174652041A5
:102730006C6C00436F6E74696E7565204265642031
:102740004D65736800473239205031204300466997
:102750006C6C2D696E204D657368004275696C6400
:1027600020437573746F6D204D6573680047323870
:102770000A4D3139302049310A4D31303920493143
:102780000A4732392050310A4D3130342053300A53
:102790004D313430205330004275696C64204D65F2
:1027A000736820282429004732380A4D31393020F7
:1027B00049300A4D3130392049300A4732392050EA
:1027C000310A4D3130342053300A4D3134302053EA
:1027D000300047323920256325690A4D31313720D1
:1027E000004D657368202569204C6F616465640045
:1027F0004D657368202569205361766564004C6FD0
:10280000616420426564204D657368004D656D6F9D
:10281000727920536C6F74004E6F2053746F726125
:1028200067650047323920503420582573205925D8
:10283000732052256900202D2D2D2D2D00486F6D00
:10284000696E672058595A00473238004F66662033
:102850005072696E746572204261636B75700047D7
:10286000323920532D31004F757470757420666FA6
:10287000722043535600473239205431004F75744B
:1028800070757420666F7220486F73740047323918
:1028900020543000BC26B82624F4D43050C38E20F7
:1028A000C2A24017828B7011127A910D816CD90AE5
:1028B000A861E108C7586607615143061E4B5D05D4
:1028C000C145A7041A411104093D98037139310328
:1028D0004036DB0265339102D4305402802E1D0253
:1028E000632CEE01752AC501B028A00110278101D3
:1028F0008F2564012B244B01E0223401AC211F0100
:102900008D200D01801FFC00841EED00971DDF004F
:10291000B81CD200E61BC600201BBC00641AB20023
:10292000B219A8000A19A0006A189900D1179100DD
:1029300040178B00B516840031167E00B315790060
:102940003A157300C7146F0058146A00EE1366003E
:102950008813630025135E00C7125B006C125700DA
:1029600015125400C111510070114F0021114B007C
:10297000D61049008D104700461044000210420056
:10298000C00F4000800F3E00420F3C00060F3B008E
:10299000CB0E3800930E37005C0E3500270E340046
:1029A000F30D3200C10D3100900D3000600D2E008E
:1029B000320D2D00050D2C00D90C2B00AE0C29007A
:1029C000850C29005C0C2700350C27000E0C260016
:1029D000E80B2400C40B2400A00B23007D0B230074
:1029E0005A0B2100390B2100180B2000F80A1F0098
:1029F000D90A1E00BB0A1E009D0A1D00800A1D0088
:102A0000630A1C00470A1B002C0A1B00110A1A004B
:102A1000F7091A00DD091900C4091900AB091900EA
:102A2000920917007B091800630917004C0916006A
:102A300036091600200916000A091500F5081500C8
:102A4000E0081400CC081400B8081400A40814000E
:102A5000900813007D0812006B081300580812003C
:102A60004608120034081100230811001208110052
:102A700001081100F0071000E0071000D007100057
:102A8000C0071000B0070F00A107100091070E004B
:102A900083070F0074070F0065070E0057070E002D
:102AA00049070E003B070D002E070E0020070D0002
:102AB00013070D0006070D00F9060C00ED060D00CA
:102AC000E0060C00D4060C00C8060C00BC060C0086
:102AD000B0060C00A4060B0099060C008D060B0036
:102AE00082060B0077060B006C060B0061060A00DD
:102AF00057060B004C060A0042060A0038060A0078
:102B00002E060A0024060A001A060A00100609000A
:102B100007060A00FD050900F4050900EB05090098
:102B2000E2050900D9050900D0050900C70509001B
:102B3000BE050900B5050800AD050800A50509009A
:102B40009C050800940508008C0508008405080011
:102B50007C050800740508006C0507006505080081
:102B60005D050700560508004E05070047050700EC
:102B70004005080038050700310507002A05070051
:102B8000230507001C050600160507000F050700B2
:102B90000805060002050700FB040600F50407000F
:102BA000EE040600E8040600E2040700DB04060069
:102BB000D5040600CF040600C9040600C3040600BD
:102BC000BD040600B7040600B1040500AC0406000D
:102BD000A6040600A00405009B0406009504050059
:102BE000900406008A0405008504050080040600A0
:102BF0007A04050075040500700405006B040500E7
:102C000066040500610405005C0405005704050026
:102C1000520405004D040500480405004304050066
:102C20003E0404003A0405003504050030040400A5
:102C30002C04050027040400230405001E040400DE
:102C40001A04040016040500110404000D04040015
:102C5000090405000404040000040400FC0304004B
:102C6000F8030400F4030400F0030400EC03040080
:102C7000E8030400E4030400E0030400DC030400B0
:102C8000D8030400D4030400D0030400CC030400E0
:102C9000C8030300C503030024F404D9201BC40C9B
:102CA0005C0E9804C4095F0265077101F405F90020
:102CB000FB04B30048048700C103690058035500B2
:102CC00003034500BE023A008402310053022A0089
:102CD0002902250004022000E4011C00C80119009B
:102CE000AF01170098011400840113007101100056
:102CF0006101100051010E0043010D0036010B006F
:102D00002B010B0020010B00150109000C0109002B
:102D100003010800FB000800F3000800EB000700B7
:102D2000E4000600DE000600D8000600D20006001F
:102D3000CC000500C7000500C2000500BD0004006E
:102D4000B9000400B5000400B1000400AD000400A7
:102D5000A9000400A5000300A20003009F000400D6
:102D60009B000300980003009500020093000300FD
:102D7000900003008D0002008B0003008800020019
:102D80008600020084000300810002007F00020030
:102D90007D0002007B000200790002007700010044
:102DA000760002007400020072000100710002004F
:102DB0006F0002006D0001006C0002006A0001005B
:102DC0006900020067000100660001006500010063
:102DD0006400020062000100610001006000010067
:102DE0005F0002005D0001005C0001005B0001006B
:102DF0005A0001005900010058000100570001006D
:102E0000560001005500010054000100530000006D
:102E10005300010052000100510001005000010068
:102E20004F0001004E0000004E0001004D00010067
:102E30004C0001004B0000004B0001004A00010063
:102E4000490001004800000048000100470001005F
:102E5000460000004600010045000000450001005A
:102E60004400010043000000430001004200000054
:102E7000420001004100000041000100400001004B
:102E80003F0000003F0001003E0000003E00010046
:102E90003D0000003D0001003C0000003C0000003F
:102EA0003C0001003B0000003B0001003A00000034
:102EB0003A0001003900000039000100380000002C
:102EC0003800000038000100370000003700010022
:102ED000360000003600000036000100350000001A
:102EE000350000003500010034000000340000000F
:102EF0003400010033000000330000003300010003
:102F000032000000320000003200010031000000F9
:102F100031000000310001003000000030000000EE
:102F2000300001002F0000002F0000002F000000E3
:102F30002F0001002E0000002E0000002E000100D6
:102F40002D0000002D0000002D0000002D000100CC
:102F50002C0000002C0000002C0000002C000100C0
:102F60002B0000002B0000002B0000002B000100B4
:102F70002A0000002A0000002A0000002A000100A8
:102F8000290000002900000029000000290000009D
:102F9000290001002800000028000000280000008F
:102FA0002800000028000100270000002700000082
:102FB0002700000027000000270001002600000075
:102FC0002600000026000000260000002600010068
:102FD000250000002500000025000000250000005D
:102FE000250000002500010024000000240000004E
:102FF0002400000024000000240001002300000041
:103000002300000023000000230000002300000034
:103010002300000023000100220000002200000025
:103020002200000022000000220000002200010017
:10303000210000002100000021000000210000000C
:1030400021000000210000002100010020000000FC
:1030500020000000200000002000000020000000F0
:103060002000000020000000200001001F000000E0
:103070001F0000001F0000001F0000001F000000D4
:103080001F0000001F0001001E0000001E000000C5
:103090001E0000001E000000232C0000B8220000CB
:1030A000561800003A0F0000B8080000B1040000F4
:1030B000710200003E010000202063757272656E8F
:1030C000745F706F736974696F6E3D0050726F62E8
:1030D000653A3A646F5F7A5F72616973652800646C
:1030E00065706C6F793A2000203A2050726F6265EB
:1030F0003A3A7365745F6465706C6F7965640A0051
:10310000206D61783A00206D696E3A0041786973EC
:10311000200053657474696E67732053746F726511
:1031200064002062797465733B20637263200053EE
:10313000657474696E67732053746F7265642028B8
:10314000004E6F20454550524F4D2E0A00454550C8
:10315000524F4D206461746173697A6520657272A3
:103160006F722E0A003F4D65736820746F6F206286
:10317000696720666F7220454550524F4D2E0A00F8
:1031800055424C2072657365740A00206C6F61644F
:1031900065642066726F6D2073746F726167652E4F
:1031A0000A004D65736820003F43616E27742065F7
:1031B0006E61626C65200020696E697469616C697A
:1031C0007A65642E0A0A002073746F726564207336
:1031D000657474696E67732072657472696576656B
:1031E00064202800202863616C63756C61746564D9
:1031F00029210A0020213D2000454550524F4D20F5
:10320000435243206D69736D61746368202D2028DB
:1032100073746F726564292000496E6465783A2082
:103220000044494749504F5453204C6F61646564D2
:103230000A0044494749504F5453204C6F61646918
:103240006E670A00204D61726C696E3D56383229F6
:103250000A00454550524F4D2076657273696F6E76
:10326000206D69736D617463682028454550524F25
:103270004D3D0000009643000096430000C8430007
:10328000000000000000000000000020436F756E89
:103290007420583A004D31303620500045310062DC
:1032A0006564002C2073797374656D2073746F707E
:1032B00070656421204865617465725F49443A20F5
:1032C0000048656174696E67204661696C656400D9
:1032D00048656174696E67206661696C6564004D5C
:1032E0003131322053687574646F776E00202D2061
:1032F000496E76616C696420657874727564657274
:10330000206E756D62657220210A00544845524D49
:10331000414C2052554E4157415900546865726DD9
:10332000616C2052756E61776179004572723A2046
:103330004D415854454D50004D415854454D502035
:10334000747269676765726564004572723A204DF0
:10335000494E54454D50004D494E54454D502074F2
:10336000726967676572656400202F002042403AE9
:103370000020403A00004D65616E204D6573682065
:103380004865696768743A200023206F662073617E
:103390006D706C65733A20000A4D657368206F6E1E
:1033A0006C79207061727469616C6C7920706F70D7
:1033B000756C617465642E0A0A0050726F62696EE2
:1033C0006720506F696E74000A50726F62696E6791
:1033D000206D65736820706F696E74200020616EC7
:1033E000642074616B652061206D65617375726521
:1033F0006D656E742E0A006D6D20746869636B2EA6
:103400000A00427573696E657373204361726420AC
:103410006973200052656D6F76652026204D6561C9
:1034200073757265204265640052656D6F76652024
:103430007368696D00506C616365207368696D2005
:10344000756E646572206E6F7A7A6C65004D657377
:103450006820506F696E74204D6561737572656484
:103460002061743A20000A4D657368206F6E6C7994
:10347000207061727469616C6C7920706F70756C0A
:10348000617465642E0A00506C616365205368693D
:103490006D2026204D656173757265004D6F7669EC
:1034A0006E6720746F206E657874004D65736820B8
:1034B00045646974696E672053746F707065640049
:1034C000446F6E652045646974696E67204D65734D
:1034D000680A00446F6E652045646974696E6720F0
:1034E0004D6573680046696E652054756E696E6738
:1034F000204D6573680028582C5929206F75747306
:10350000696465207072696E7461626C65207261B5
:10351000646975732E0A004F6666736574206F7553
:1035200074206F6620626F756E64732E20283020C1
:10353000746F2031306D6D290A0A00496E76616C16
:103540006964206D617020747970652E0A0A003FED
:103550002846296164652068656967687420666F1C
:103560007220426564204C6576656C20436F7272F0
:10357000656374696F6E206E6F7420706C61757313
:1035800069626C652E0A0A003F43616E27742061F0
:103590006374697661746520616E6420646561633B
:1035A0007469766174652061742074686520736144
:1035B0006D652074696D652E0A0A00426F7468207B
:1035C0005820262059206C6F636174696F6E7320D8
:1035D0006D757374206265207370656369666965D3
:1035E000642E0A0A003F496E76616C696420677236
:1035F00069642073697A6520284A2920737065639D
:1036000069666965642028322D39292E0A0A003F2F
:10361000285029686173652076616C756520696E34
:1036200076616C69642028302D36292E0A0A003F05
:103630002856296572626F7365206C6576656C200B
:10364000696D706C61757369626C652028302D340A
:10365000292E0A0A003F2852296570657469746929
:103660006F6E20636F756E7420696E76616C69642D
:103670002028312B292E0A0A00446F696E672047E3
:10368000323900496E76616C6964206578747275B0
:103690006465720A0020746F6F206C6F6E6720651E
:1036A0007874727573696F6E2070726576656E746A
:1036B00065640A0020636F6C6420657874727573AA
:1036C000696F6E2070726576656E7465640A003C81
:1036D0003C3C00220A00556E6B6E6F776E20636F64
:1036E0006D6D616E643A20220020453A0020593AFF
:1036F00000654953522072756E6E696E6720617461
:10370000203E2031306B487A2E0A004D6F726520C2
:103710007468616E203220737465707320706572F6
:103720002065495352206C6F6F7020657865637512
:103730007465642E0A00416363656C657261746927
:103740006F6E206C696D697465642E0A0020536980
:103750007A653A200043616E6E6F74206F70656EFB
:10376000207375626469722000534420496E697445
:10377000204661696C0053442063617264206F6B62
:103780000A006F70656E526F6F74206661696C65B8
:10379000640A00766F6C756D652E696E69742066BB
:1037A00061696C65640A004E6F2053442063617246
:1037B000640A004D3234004D3233202573006F709F
:1037C000656E206661696C65642C2046696C653A9B
:1037D000200046696C652073656C65637465640AD6
:1037E0000046696C65206F70656E65643A2000451F
:1037F0004E4420535542524F5554494E450A0022DB
:1038000020706F73002220706172656E743A22001E
:10381000535542524F5554494E452043414C4C203C
:103820007461726765743A220053756263616C6CEF
:10383000204F766572666C6F7700457863656564C6
:103840006564206D617820535542524F5554494E5E
:10385000452064657074683A310A0057726974696A
:103860006E6720746F2066696C653A200066726529
:10387000736800646F696E67004E6F772000436F56
:103880006E66696775726174696F6E0043616E631D
:10389000656C004368616E67652046696C616D65A3
:1038A0006E74005072656865617420437573746F3F
:1038B0006D004368616E6765204D65646961004D08
:1038C0003231004D36303020423000486F73742062
:1038D000537461727400526573756D65205072691E
:1038E0006E74004E6F204D656469610054756E659D
:1038F0000053746F70205072696E7400506175735C
:1039000065205072696E7400537461727420507235
:10391000696E740043616E6E6F7420656E746572BB
:10392000207375626469723A2000052E2E00506182
:10393000726B696E672E2E2E00000057616974202D
:10394000666F720066696C616D656E742063686194
:103950006E676500746F20737461727400576169DB
:103960007420666F720066696C616D656E74207597
:103970006E6C6F616400004E6F7A7A6C65206865CA
:103980006174696E6700506C656173652077616969
:10399000742E2E2E0000507265737320627574743D
:1039A0006F6E00746F2068656174206E6F7A7A6C38
:1039B000650000496E736572742066696C616D659F
:1039C0006E7400616E64207072657373206275742A
:1039D000746F6E00746F20636F6E74696E7565002E
:1039E0005761697420666F720066696C616D656EFF
:1039F00074206C6F616400005072657373204275AF
:103A000074746F6E00746F20726573756D652070CD
:103A100072696E7400005761697420666F7220705D
:103A200072696E7400746F20726573756D652E2EE9
:103A30002E00005761697420666F720066696C61C0
:103A40006D656E74207075726765000070012C01E1
:103A500090012701B0012201C0011D01F0011801F0
:103A60001002130130020E016002090190020401EC
:103A7000C002FF000003FA004003F5008003F000DD
:103A8000D003EB002004E6007004E100E004DC0059
:103A90004005D700C005D2004006CD00D006C800C2
:103AA0008007C3003008BE00F008B900C009B400A8
:103AB000B00AAF00B00BAA00D00CA500000EA00009
:103AC000500F9B00C01096005012910000148C0003
:103AD000C0158700B0178200B0197D00D01B780098
:103AE000001E730040206E0090226900F0246400E4
:103AF00040275F0090295A00E02B5500102E5000FF
:103B000020304B0010324600E033410090353C003D
:103B10001037370070383200A0392D00B03A280035
:103B2000A03B2300603C1E00103D1900903D140096
:103B3000103E0F00703E0A00C03E0500003F00002E
:103B4000403FFBFF803FF6FFC03FF1FF6874747099
:103B5000733A2F2F6D61726C696E66772E6F726784
:103B60000020322E302E372E32002020506C616E15
:103B70006E657242756666657242797465733A2045
:103B8000002046726565204D656D6F72793A2000A0
:103B9000436F6D70696C65643A204F6374203230F6
:103BA00020323032300A00204C617374205570642A
:103BB000617465643A20323032302D31302D313528
:103BC000207C20417574686F723A20286D6F6F7089
:103BD000686C6F2C205369646577696E6465722028
:103BE0005831290A00322E302E372E320A004D610C
:103BF000726C696E0020536F667477617265205233
:103C0000657365740A00205761746368646F672088
:103C100052657365740A002042726F776E206F756B
:103C2000742052657365740A002045787465726E5D
:103C3000616C2052657365740A00506F7765725528
:103C4000700A006175746F25632E6700473238581B
:103C500059004D31303031006572726F72207772C9
:103C60006974696E6720746F2066696C650A004428
:103C70006F6E6520736176696E672066696C652E6C
:103C80000A004D3239002553202563202563202565
:103C90006320256300656E6473746F7073206869B8
:103CA000743A200020573A007C3C3E5E2B3D3F2F6B
:103CB0005B5D3B2C2A225C003F454550524F4D2016
:103CC00073746F72616765206E6F742061766169CD
:103CD0006C61626C652E0A00466164652048656906
:103CE0006768742000426564204C6576656C696E77
:103CF0006720004661696C656420746F20656E61A1
:103D0000626C6520426564204C6576656C696E67FF
:103D10000A00496E76616C6964206D6573682E0ACD
:103D20000076616C69640A53746F72616765207311
:103D30006C6F743A20004D65736820697320003FF2
:103D4000496E76616C69642073746F726167652077
:103D5000736C6F742E0A003E3E3E00202864697327
:103D600061626C6564290A0055424C2041646A75A1
:103D700073746D656E74205A005A20466164653A0A
:103D800020002028656E61626C6564290A0041622A
:103D90006F76650053616D65205A2061730042653E
:103DA0006C6F77004175746F20426564204C6576B6
:103DB000656C696E673A2055424C00204E6F7A7AE6
:103DC0006C65290A00202620002D43656E746572FB
:103DD000002D46726F6E74002D4261636B002028C7
:103DE000416C69676E656420576974680020284DCE
:103DF0006964646C650020284C6566740020285254
:103E0000696768740050726F62653A204649585F6E
:103E10004D4F554E5445445F50524F42450A004D58
:103E2000616368696E6520547970653A20436172F8
:103E300074657369616E0A005A2050726F62652062
:103E400050617374204265640A005A2050726F6298
:103E50006520506173742042656400203A20686FC9
:103E60006D655F7A5F736166656C790A0020206416
:103E7000657374696E6174696F6E3D00686F6D651E
:103E80005F7A5F736166656C790052616973652062
:103E90005A20286265666F726520686F6D696E676B
:103EA0002920627920003E20686F6D696E67206E60
:103EB0006F74206E65656465642C20736B69700A8D
:103EC00000446576696174696F6E0025533A202558
:103ED000730046696E6973686564210A003A207A46
:103EE0003A2000206F662000476F696E6720746F6C
:103EF0003A20580043570A00206469723A00206152
:103F00006E676C653A005374617274207261646903
:103F100075733A004D343820506F696E7400255324
:103F20003A2025642F256400506F736974696F6EA1
:103F3000696E67207468652070726F62652E2E2E20
:103F40000A003F4C656773206F66206D6F76656D64
:103F5000656E7420696D706C61757369626C652043
:103F600028302D3135292E0A003F2028582C592978
:103F7000206F7574206F6620626F756E64732E0AF1
:103F80000050726F6265206F7574206F6620626FDB
:103F9000756E6473003F53616D706C652073697A50
:103FA00065206E6F7420706C61757369626C65203A
:103FB00028342D3530292E0A004D3438205A2D5002
:103FC000726F6265205265706561746162696C69C7
:103FD000747920546573740A003F2856296572620B
:103FE0006F7365206C6576656C20696D706C6175AA
:103FF0007369626C652028302D34292E0A005072B6
:10400000696E742050617573656400526573756DD7
:1040100065003F00496E697469616C697A65204585
:104020004550524F4D006E6F7469666963617469E3
:104030006F6E20005369646577696E6465722058FD
:10404000312052656164792E005072696E74696E18
:10405000672E2E2E0063616E63656C005072696E70
:10406000742041626F72746564004469736D697392
:10407000730055492041626F72746564004D32359A
:104080000055492050617573650050617573696E04
:10409000672E2E2E00726573756D65004545505272
:1040A0004F4D2056657273696F6E204572726F7244
:1040B00000454550524F4D20496E64657820457249
:1040C000726F7200454550524F4D20435243204578
:1040D00072726F720049676E6F7265004F6666009C
:1040E0004F6E004D38340054656D706572617475A3
:1040F00072650050726568656174202400486F74B1
:10410000656E6420746F6F20636F6C640050726F13
:104110006365656400536F667420456E6473746FE5
:1041200070730044697361626C65205374657070CC
:10413000657273004D34382050726F62652054658B
:10414000737400473238204F0A4D343820503130D4
:10415000004C6576656C20436F726E65727300412A
:1041600075746F20486F6D65005072656865617485
:10417000202420456E6400507265686561742024B7
:104180002042656400436F6F6C646F776E0020702F
:104190006F736974696F6E5F7368696674203D2020
:1041A0000020686F6D655F6F6666736574203D20E3
:1041B000003C3C3C207365745F617869735F697390
:1041C0005F61745F686F6D652800203A200A005DAA
:1041D000203D20003E20686F6D655F6F66667365E9
:1041E000745B002A2A2A205A20484F4D4544205704
:1041F0004954482050524F424520285A5F4D494E5D
:104200005F50524F42455F555345535F5A5F4D498A
:104210004E5F454E4453544F505F50494E29202A1B
:104220002A2A0A3E2070726F62652E6F6666736579
:10423000742E7A203D20003E3E3E207365745F61FF
:104240007869735F69735F61745F686F6D6528007B
:104250005761726E696E673A20486F6D696E6720AC
:1042600042756D702044697669736F72203C20310D
:104270000A003C3C3C20686F6D65617869732800DA
:10428000203A203E204146544552207365745F61B8
:104290007869735F69735F61745F686F6D650A0049
:1042A000486F6D65203220536C6F773A0A004D6F6E
:1042B000766520417761793A0A00486F6D65203153
:1042C00020466173743A0A003E3E3E20686F6D6579
:1042D0006178697328000000A0420000A04200003D
:1042E000A0410202040000A0400000A04000000025
:1042F00040FFFFFF000000010000000100008000FF
:10430000555555000000400033333300AAAA2A0057
:104310004992240000002000C7711C0099991900DF
:10432000D1451700555515003BB113002449120023
:1043300011111100000010000F0F0F00E3380E00E4
:1043400043790D00CCCC0C00C3300C00E8A20B006C
:1043500064210B00AAAA0A00703D0A009DD809003A
:10436000427B090092240900DCD3080088880800F9
:104370001042080000000800F0C10700878707000E
:1043800075500700711C07003EEB0600A1BC06003B
:104390006990060066660600703E06006118060019
:1043A00017F4050074D105005BB00500B29005005C
:1043B000627205005555050078390500B81E0500E4
:1043C000050505004EEC040087D40400A1BD0400DF
:1043D00090A7040049920400C17D0400EE69040026
:1043E000C7560400444404005C3204000821040061
:1043F00041100400000004003FF00300F8E0030057
:1044000026D20300C3C30300CCB503003AA80300BF
:104410000A9B0300388E0300C08103009F750300D0
:10442000D0690300505E03001D53030034480300AD
:10443000913D03003333030016290300381F0300A6
:1044400097150300300C0300030303000BFA02006E
:1044500049F10200BAE802005CE002002DD8020037
:104460002DD0020059C80200B0C0020031B90200CC
:10447000DAB10200AAAA0200A0A30200BC9C0200BA
:10448000FA9502005C8F0200DF880200828202003F
:10449000457C02002776020027700200436A020072
:1044A0007C640200D05E02003F590200C853020043
:1044B000FFFDFCFAF8F6F4F2F0EEECEAE9E7E5E3EA
:1044C000E1E0DEDCDAD9D7D5D4D2D0CFCDCBCAC8A3
:1044D000C7C5C3C2C0BFBDBCBAB9B7B6B4B3B2B02A
:1044E000AFADACAAA9A8A6A5A4A2A1A09E9D9C9A86
:1044F00099989795949392908F8E8D8B8A898887BF
:104500008684838281807F7E7D7B7A7978777675D9
:1045100074737271706F6E6D6C6B6A6968676665D3
:1045200064636261605F5E5D5C5B5A5958585756C0
:10453000555453525150504F4E4D4C4B4A4A494896
:10454000474646454443424241403F3E3E3D3C3B58
:104550003B3A39383837363535343332323130300A
:104560002F2E2E2D2C2B2B2A2929282727262525AF
:1045700024232322212120201F1E1E1D1C1C1B1B47
:104580001A191918181716161515141313121211D3
:1045900011100F0F0E0E0D0D0C0C0B0A0A09090855
:1045A00008070706060505040403030202010000CC
:1045B000001C1F11111F00000006191803130C0026
:1045C000040E1F041C000000000E1315110E000045
:1045D0001C10181705060500040A0A0A0A11110E14
:1045E0000C12120C00000000001F1511151F000016
:1045F00000000000010204040000001C1C0C040464
:104600000402010000000000040810000000000087
:104610007C4D61726C696E7C002D2D2D2D2D2D0031
:10462000456E636C6F73757265005374616E64617F
:10463000726420446576696174696F6E3A20002067
:1046400052616E67653A2000205369676D613A20B8
:10465000004D65616E3A20003F2842296175642053
:104660007261746520696D706C61757369626C65E7
:104670002E0A002062617564207261746520736582
:104680007420746F20002053657269616C200020D3
:104690004D39322058007061757365640052656849
:1046A00065617420446F6E65005265686561746968
:1046B0006E672E2E2E005265686561740048656134
:1046C0007465722054696D656F75740053656E640E
:1046D000204D31303820746F2068656174206E6F12
:1046E0007A7A6C650A004E6F7A7A6C652050617236
:1046F0006B656400627574746F6E004C6F6164204A
:1047000046696C616D656E74205400496E73657204
:10471000742066696C616D656E7420616E642073CF
:10472000656E64204D3130380A00726573756D65B1
:104730006400526573756D696E670020496E76611D
:104740006C696420657874727564657220005072BB
:10475000696E742066726F6D204D65646961004DED
:104760006F76652025736D6D004D6F766520302E58
:10477000316D6D004D6F766520316D6D004D6F763A
:10478000652031306D6D004D6F766520417869731D
:10479000004578747275646572004D6F7665205AB5
:1047A000004D6F76652059004D6F7665205800509A
:1047B000726F62653A3A70726F62655F646F776EAE
:1047C0005F746F5F7A002054726967676572656411
:1047D000206561726C792E00204E6F2074726967BB
:1047E0006765722E002050726F6265206661696C89
:1047F00021202D0000000A0B02090C0D0E080703F2
:1048000004010000000000000000000000000000A3
:104810000000000000000000000000000000000098
:104820001211100000000000000000000000000055
:10483000000000000000000000002052004D6573E1
:104840006820736176656420696E20736C6F7420D4
:10485000003F556E61626C6520746F2073617665F0
:10486000206D65736820646174612E0A0020736C8A
:104870006F743D00206D65736865735F656E643DA0
:10488000004532454E443D00206D65736820736CD1
:104890006F747320617661696C61626C652E0A00C9
:1048A0003F496E76616C696420736C6F742E0A00E8
:1048B0004D657368206C6F616465642066726F6D0E
:1048C00020736C6F7420003F556E61626C652074BC
:1048D0006F206C6F6164206D657368206461746122
:1048E0002E0A0072657365745F6265645F6C65763D
:1048F000656C0A0048617264636F64656420446596
:104900006661756C742053657474696E6773204CAE
:104910006F616465640A00556E696669656420426A
:104920006564204C6576656C696E67003B200020ED
:10493000204D363033200020204D343132205300BA
:1049400046696C616D656E742072756E6F7574204A
:1049500073656E736F723A0020550046696C616D25
:10496000656E74206C6F61642F756E6C6F6164206E
:104970006C656E677468733A0020204D39303020C2
:104980004B004C696E65617220416476616E6365AF
:104990003A0020204D3835312058005A2D50726F82
:1049A0006265204F66667365740020204D33303495
:1049B00020500020204D33303120500050494420F9
:1049C00073657474696E67733A002046002048006E
:1049D00020204D3134352053004D6174657269617A
:1049E0006C2068656174757020706172616D6574AA
:1049F0006572733A00206D65736865732E0A0A004C
:104A0000454550524F4D2063616E20686F6C6420A5
:104A100000416374697665204D65736820536C6F3F
:104A2000743A200020204D34323020530020204D95
:104A3000323036205800486F6D65206F66667365AA
:104A4000743A0020204D32303520420041647661B6
:104A50006E6365643A20423C6D696E5F7365676D95
:104A6000656E745F74696D655F75733E20533C6D50
:104A7000696E5F66656564726174653E20543C6D65
:104A8000696E5F74726176656C5F6665656472619C
:104A900074653E20583C6D61785F785F6A65726B23
:104AA0003E20593C6D61785F795F6A65726B3E208C
:104AB0005A3C6D61785F7A5F6A65726B3E20453C57
:104AC0006D61785F655F6A65726B3E0020204D32D4
:104AD0003034205000416363656C65726174696FA6
:104AE0006E2028756E6974732F7332293A20503CFA
:104AF0007072696E745F616363656C3E20523C72D4
:104B00006574726163745F616363656C3E20543CDD
:104B100074726176656C5F616363656C3E00202032
:104B20004D3230312058004D6178696D756D2041EE
:104B30006363656C65726174696F6E2028756E6958
:104B400074732F7332293A0020204D3230332058AD
:104B5000004D6178696D756D20666565647261747C
:104B600065732028756E6974732F73293A00537426
:104B70006570732070657220756E69743A0020202C
:104B80004D3230302053002044697361626C65649B
:104B90000A0046696C616D656E7420736574746992
:104BA0006E67733A0020204D3134392043203B207A
:104BB000556E69747320696E2043656C73697573F3
:104BC0000A0020286D6D2900202047323120202046
:104BD000203B20556E69747320696E206D6D000056
:104BE000001643000016430000484200002042AE79
:104BF000C7A042CDCCA042A4B0C7430080E143D0BF
:104C0000070000D00700006400000010270000002B
:104C1000002200250028002B002E00310034000265
:104C2000010000050108010B0100002100240027FC
:104C3000002A002D003000330001010000040107AC
:104C4000010A010505050507050808080802020212
:104C5000020A0A0808040404040101010101010117
:104C6000010303030303030303040707070C0C0CEE
:104C70000C0C0C0C0C0202020206060606060606C6
:104C8000060B0B0B0B0B0B0B0B0102102020080863
:104C9000102040102040800201020108040201019E
:104CA0000204081020408080402010080402018087
:104CB00004020180402010080402010804020101DE
:104CC00002040810204080010204081020408043A4
:104CD00061703A005D02730211241FBECFEFD1E272
:104CE000DEBFCDBF00E00CBF13E0A0E0B2E0E4EC1B
:104CF000F0E403E00BBF02C007900D92A435B107AA
:104D0000D9F726E1A4E5B3E001C01D92A731B207AF
:104D1000E1F716E2CBE6D6E200E006C021970109F2
:104D2000802FFE010F94679BCA36D10780E00807E9
:104D3000A9F70F942C840D9450A00C9400002F928E
:104D40003F924F925F926F927F928F929F92AF921B
:104D5000BF92CF92DF92EF92FF920F931F93CF9368
:104D6000DF93CDB7DEB7E5970FB6F894DEBF0FBE81
:104D7000CDBF8DAB209161032CAB21E0209361036B
:104D80008091DA048D3409F40AC3843511F40C944B
:104D90008638873411F00C94B5388091D8049091FE
:104DA000D9048B31910509F420C1B4F48430910504
:104DB00034F482309105DCF597FF2DC0ECC28531CB
:104DC000910511F40C94B7388A31910509F409C1A1
:104DD000049709F0E0C2C6C08A32910509F429C2DD
:104DE00054F48D31910509F41FC10CF419C14E978B
:104DF00009F41EC1D0C28B35910509F497C18C35D9
:104E0000910509F498C18A35910509F0C4C2109240
:104E100060030C94B7388091540F813011F00C94DA
:104E2000B7380F94F26B0E9446970C94B7382091D4
:104E3000540F213011F00C94B73811E0029709F0AB
:104E400010E00F94F26B19821A821B821C821D8261
:104E50001E821F82188682E50E94DD3E882309F4A7
:104E60004BC00E94563E6B017C0120E030E0A9015E
:104E70000F946C94882309F455C080910306909197
:104E80000406A0910506B091060688A799A7AAA7CF
:104E9000BBA78091070690910806A0910906B091E2
:104EA0000A0688AB99ABAAABBBAB809087109090F9
:104EB0008810A0908910B0908A1040908B1050906C
:104EC0008C1060908D1070908E10A501940168A5D3
:104ED00079A58AA59BA50F946C9481110C94C03878
:104EE000A301920168A979A98AA99BA90F946C943E
:104EF0008823C1F00C94C03889E40E94DD3E8823E9
:104F000031F00E94563E69837A838B839C838AE4C6
:104F10000E94DD3E882331F00E94563E6D837E83E1
:104F20008F83988720E030E0A90169817A818B81A5
:104F30009C810F946C9481110C94743920E030E0C2
:104F4000A9016D817E818F8198850F946C94811168
:104F50000C9474390E94815289E597E00E9457525F
:104F60000C94B73880E50E94DD3E882329F00F9429
:104F7000476A6B017C0103C0C12CD12C760183E50B
:104F80000E94DD3E882361F00E94563E20E030E022
:104F90004AE754E40F94D2940F94E39C6B017C0194
:104FA0000F94B8598091880F811105C060E08FE699
:104FB00097E00F94924D0F94AE75C60ED71EE81E63
:104FC000F91E0F94AE75DC01CB018C199D09AE0959
:104FD000BF09B7FD02C00C94B73880E00E9410559D
:104FE000F0CF0E944F630C94B73887E00E94209363
:104FF00081110C94B7388CE0EFE7F2E0DE011196F6
:1050000001900D928A95E1F760E070E080E50F94E1
:10501000F969BE016F5F7F4F0F94434A0C94B73814
:105020000F94803C0C94B7380E946B470C94B738AF
:10503000209198103091991040919A1050919B10A6
:105040006091030670910406809105069091060612
:105050000F94709BAB01BC0188E50E94A683698315
:105060007A838B839C8320919C1030919D1040917A
:105070009E1050919F1060910706709108068091D4
:10508000090690910A060F94709BAB01BC0189E55B
:105090000E94A6836D837E838F839887BE016B5F9A
:1050A0007F4FCE0101960E94943F882311F40C9407
:1050B000B73880E00E9438430E94309461E085E474
:1050C0000E940C5F182F01E021E041E0682FCE0123
:1050D00001960E94C44E6B017C019B01AC010F94B0
:1050E000BD9E811119C049815A816B817C8182E802
:1050F00097E00E9490544D815E816F8178858DE7A5
:1051000097E00E949054B701A60188E797E00E94BB
:1051100090548AE00E9445520E941794113011F475
:105120000E94783F0E9433950C94B7388FE08093AB
:1051300060030C94B73814ED212E12E0312E07EDE8
:10514000E02E0FE0F02EA3E0B6E0B9A7A8A787EF06
:10515000C82E85E0D82E00E010E0F10181911F01FA
:105160000E94DD3E882309F44AC00E94563E2B016E
:105170003C01133049F0D6012D913D914D915C9148
:105180000F946F9B2B013C01E8A5F9A5208131818B
:1051900042815381C301B2010F946F9B4B015C01AB
:1051A0002DEB37E346E855EB0F94D09D87FD0AC001
:1051B0002DEB37E346E855E3C501B4010F946C9439
:1051C0001816ECF4133051F440920F06509210066A
:1051D000609211067092120601E011C0A5019401BF
:1051E000D7016D917D918D919C910F94709BF701EA
:1051F0006083718382839383812F0F945F5F1F5F2E
:10520000F4E0EF0EF11C28A539A52C5F3F4F39A71C
:1052100028A734E0C30ED11C143009F09ECF002320
:1052200021F08FE096E00F94675D0E9433950C9417
:10523000B7388091540F813011F00C94B73889E45D
:105240000E94DD3E082F882321F00E94523EE82E66
:1052500001C0E12C8AE40E94DD3E182F882321F052
:105260000E94523EF82E01C0F12C002319F086E076
:105270008E1528F0112349F096E09F1530F48AE846
:1052800097E00E9457520C94B73880E1E3E0F6E0D3
:10529000A7E8B0E101900D928A95E1F7002359F05B
:1052A0008E2D0E94A644609387107093881080937F
:1052B000891090938A10112359F08F2D0E94A644D3
:1052C00060938B1070938C1080938D1090938E1040
:1052D00060E080E50E940C5F8823C1F10023D1F0DB
:1052E000209198103091991040919A1050919B10F4
:1052F00060918710709188108091891090918A1028
:105300000F946F9B6093871070938810809389101F
:1053100090938A101123D1F020919C1030919D1010
:1053200040919E1050919F1060918B1070918C1045
:1053300080918D1090918E100F946F9B60938B10C5
:1053400070938C1080938D1090938E1040E050E0FD
:10535000BA0186E40E94A6836B017C0120E030E064
:10536000A9010F94D09D18164CF420E030E040E7DE
:1053700052E4C701B6010F946A9C03C060E070E07C
:10538000CB0169837A838B839C83CE0101960E9433
:10539000EC9F0C94B7380F94941F0C94B7388091FD
:1053A000D8049091D9048937910509F4B1C70CF05C
:1053B000DCC08135910509F430C60CF06BC08A3130
:1053C000910509F4D3C2A4F58431910509F451C2C1
:1053D0007CF48131910509F438C22CF4029708F469
:1053E000E9C10C948338429709F43CC60C94833885
:1053F0008731910509F472C294F48531910509F45D
:1054000069C2469711F00C9483380F94D220809192
:10541000C815877F80628093C8150C94B73888318F
:10542000910509F470C2499709F486C20C94833837
:105430008F31910509F4AEC37CF48C31910509F4E8
:10544000F6C20CF4A1C28D31910509F4F8C24E9751
:1054500009F4FCC20C9483388B34910509F445C4DB
:1054600064F48032910509F452C3C09711F00C9492
:1054700083380F9409420C94B7388C34910509F4A1
:1054800038C48D34910511F00C9483380F94614623
:105490000C94B7388D36910509F456C47CF58C35DB
:1054A000910509F43BC684F48335910509F4D2C50E
:1054B0000CF4C8C58435910509F4D4C5853591052A
:1054C00009F407C60C9483388A36910509F47AC426
:1054D00054F48836910509F410C48936910509F40D
:1054E0005DC40C9483388B36910509F4A4C48C36C2
:1054F000910511F40C94B7380C94833882379105D8
:1055000009F4ADC68CF48F36910509F4B1C40CF4DE
:105510009CC48037910511F40C94B73881379105FC
:1055200009F4EBC40C9483388637910509F4B3C6AB
:1055300054F48337910509F499C68537910509F428
:1055400098C60C9483388737910509F4DEC68837EE
:10555000910511F00C94833881E080937F0D809346
:105560007E0D0E940A960C94B7388139A1E09A0703
:1055700011F40C941C360CF07EC08E3C910511F495
:105580000C943133ACF58E3B910509F4FCC4ACF4BA
:105590008139910509F4C3C634F48C38910509F4B6
:1055A000D1C40C9483388639910509F42CC78B3902
:1055B000910509F40AC50C9483388B3C910509F4D4
:1055C000EDC754F4883C910509F45AC7893C91050C
:1055D00009F4C1C70C9483388C3C910511F40C94E8
:1055E000F0328D3C910511F40C9421330C948338E6
:1055F0008C32E1E09E0711F40C94CD34CCF48C3D58
:10560000910511F40C940C343CF4833D910511F494
:105610000C944F330C9483388D3D910511F40C9408
:1056200033348232914011F40C9488340C948338D2
:105630008F3231E0930711F40C9419366CF48D32EB
:10564000B1E09B0711F40C94E2348E32914011F4D6
:105650000C94D5350C9483388033F1E09F0711F416
:105660000C9462358039914011F00C9483380F947A
:10567000B8590C94B738883F31E0930711F40C9473
:1056800023370CF055C0853AB1E09B0711F40C9418
:105690002B361CF58A39F1E09F0711F40C94B738CA
:1056A0006CF48239914011F00C9483380E94723F5F
:1056B0000E94783F0E9433950C94B7388C39A1E052
:1056C0009A0711F40C942136843A914011F00C940D
:1056D00083380F9471400C94B738853FE1E09E0702
:1056E00011F40C941D377CF48C3A21E0920711F4EC
:1056F0000C94C136843F914011F00C9483380E9481
:1057000061E40C94B738863FA1E09A0711F40C9439
:105710002037873F914011F00C94833861E083E596
:105720000E940C5F91E089270F94CB7B0C94B738D3
:105730008335E3E09E0711F40C94BF37DCF48F331C
:1057400022E0920711F40C9440373CF48C309240E4
:1057500011F40C9433370C9483388835B2E09B07EE
:1057600011F40C9443378B35924011F40C94463766
:105770000C948338803AF3E09F0709F4FDC16CF480
:105780008C3633E0930711F40C94B7388438934087
:1057900011F40C94C2370C948338873EB3E09B0716
:1057A00011F40C942B38893E934011F40C94393841
:1057B0000C94833880E50E94DD3E882329F00F9405
:1057C000476A6B017C0103C0C12CD12C760183E5B3
:1057D0000E94DD3E882361F00E94563E20E030E0CA
:1057E0004AE754E40F94D2940F94E39C6B017C013C
:1057F0000F94B8598091D6049091D704009721F066
:1058000061E00F94444E05C060E083EB97E00F9495
:10581000924D8091D8049091D904892B19F06BEAAC
:1058200077E002C063EA77E020E030E04AE554E246
:1058300082E00E94E86140E0C701B6010E94615A1F
:1058400080E00F94744E0C94B7388091DB0484FF91
:1058500002C00C9487398091DD0487FF02C00C944C
:1058600087398091DE04837011F00C9487390C9491
:10587000A4398091C81583FF25C08EED97E00E9462
:1058800057528091C81583FF17C082E194E10F94AD
:10589000AB338BE1E2E1F4E1DE01119601900D9270
:1058A0008A95E1F760E070E0CE0101960F94CB2776
:1058B000CE0101960F94B0338FEC97E00E945752BF
:1058C0000C94B7380E9485528FEE97E00E94575291
:1058D0000C94B7380F9491210C94B738E091D6040A
:1058E000F091D7048081882329F0803209F4108256
:1058F0003196F8CF60E08091D6049091D7040F9450
:10590000B2260C94B7380E94DF51882321F00F94FF
:10591000E3200E940D9761E085E990E40E947661A2
:105920004AE650E469EF77E085E00F94C41F80E019
:105930000F94744E0C94B7388091C81582FF03C041
:105940008B7F8093C8150E94319780E00F94744E2E
:105950004BE050E46BE078E084E00F94C41F61E01A
:1059600085E098E00E9476610C94B7388091C81564
:1059700083FD02C00C94B73883E50E94DD3E81119F
:105980000C94B3390C94B73883E40E948F3E88237B
:1059900019F18EE198E00E9457528091BC13882340
:1059A00091F0BE016F5F7F4F89EB93E10F947232EC
:1059B0008E010F5F1F4FD8018D918D01882339F023
:1059C0000E944552F8CF84E198E00E9457528AE045
:1059D0000E9445520C94B7388091C81582FF21C0AF
:1059E0008DE298E00E9457526091C4157091C515E0
:1059F0008091C6159091C7154AE00E9455538FE2D9
:105A00000E9445526091C0157091C1158091C215D8
:105A10009091C3154AE00E9455530E94E4540C949F
:105A2000B7388FE398E00E9457520C94B7388091B2
:105A3000D6049091D7040F9468260C94B7388091BF
:105A4000C8158E7F8093C8150C94B7388091C815FF
:105A500083FD02C00C94B7380F947A1F8091C8154B
:105A600083FD02C00C94B7384091D6045091D704FE
:105A7000BE01645E7F4F80E00F9418828C01009716
:105A800011F40C94B7386C8D7D8D19821C8222E044
:105A9000AC01CE0101960F94E037811102C0F12CC8
:105AA00014C0CE0101960F9486818823C1F361E072
:105AB000CE0101960F945632009789F325EEFC0132
:105AC00020831C820F94E422F82ECE0101960F94BD
:105AD000B033B801FF2089F088E698E00E946E524A
