:100000000C9438130C9469130C9469130C946913B1
:100010000C9469130C9469130C9469130C94691370
:100020000C9469130C9469130C9469130C94691360
:100030000C9469130C9469130C9469130C94691350
:100040000C9469130C945AAB0C9469130C946913B7
:100050000C9469130C9469130C94E73C0C945DB3F5
:100060000C9469130C949C3B0C94923B0C94691374
:100070000C9469130C9469130C9469130C94691310
:100080000C9469130C9469130C9469130C94691300
:100090000C9469130C9469130C9469130C946913F0
:1000A0000C9469130C9469130C9469130C946913E0
:1000B0000C9469130C9469130C9469130C946913D0
:1000C0000C9469130C9469130C9469130C946913C0
:1000D0000C9469130C9469130C9469130C946913B0
:1000E0000C946913D23BE43BF63B073C0F3C423C8B
:1000F000133C423C173C1B3C423C1F3C233C273CEE
:10010000303C423C3B3C00B203B2F2B1F6B1FAB132
:100110003AB207B20BB211B215B219B21FB223B282
:1001200027B23AB22DB231B235B277B27CB281B2D7
:100130008BB295B20EB39FB2A7B2AFB2B9B2C3B28F
:10014000CDB2DCB2E6B20EB3F0B2FAB204B3084AF2
:10015000D73B3BCE016E84BCBFFDC12F3D6C7431DB
:100160009ABD56833DDA3D00C77F11BED9E4BB4C32
:100170003E916BAAAABE000000803F05A84CCDB2FC
:10018000D44EB93836A9020C50B9918688083CA6DD
:10019000AAAA2ABE000000803F000C943B3C0C94AD
:1001A00031B20C9435B20C9411B20C94E6B20C94AA
:1001B0003AB20C941F3C0C9400B20C949FB20C9475
:1001C00019B20C940F3C0C94423C0C9403B20C9466
:1001D00081B20C94F2B10C94C6BB0C9477B20C941F
:1001E0007CB20C94AFB20C940BB20C94F63B0C9412
:1001F000DCB20C94073C0C94F0B20C94A7B20C94B3
:10020000FAB10C9423B20C94E43B0C94B9B20C9464
:10021000FAB20C948BB20C94133C0C941FBC0C944B
:10022000D23B0C9415B20C94173C0C940EB30C9466
:100230001FB20C94F6B10C94303C0C94C3B20C94E5
:100240002DB20C9427B20C94233C0C94CDB20C9498
:1002500004B30C9407B20C94273C0C9495B20C9404
:100260001B3C4E414E494E495459494E46CDCCCC8B
:100270003D0AD7233C17B7D13877CC2B329595E67A
:10028000241FB14F0A000020410000C84200401C5A
:100290004620BCBE4CCA1B0E5AAEC59D74473238B0
:1002A000004C4556454C494E4700434F4D4D554E29
:1002B00049434154494F4E0044525952554E00450E
:1002C00052524F5253004543484F00536C6565707E
:1002D0002E2E2E00202864697361626C65642900EB
:1002E0004D424C2041646A7573746D656E74205A7A
:1002F000002028656E61626C6564290A004D657393
:100300006820426564204C6576656C696E670050B4
:10031000726F62653A200A004D616368696E6520FC
:10032000547970653A2043617274657369616E0A2D
:10033000005261697365205A20286265666F726594
:1003400020686F6D696E672920627920003E206801
:100350006F6D696E67206E6F74206E65656465648D
:100360002C20736B69700A004D65736820706F698B
:100370006E74206F7574206F662072616E67650AF7
:10038000004D302053746F70004D312053746F70E6
:10039000004E6F204D6F76652E00456E64206669B5
:1003A0006C65206C6973740A00426567696E20662B
:1003B000696C65206C6973740A004E6F206D65640A
:1003C00069610A00726573756D65004469736D69D2
:1003D000737300526573756D696E672053440070C6
:1003E0006175736500526573756D65005061757355
:1003F0006520534400286E6F2066696C65290043B0
:10040000757272656E742066696C653A200053449B
:10041000207072696E74696E67206279746520005D
:100420004E6F74205344207072696E74696E670A4F
:100430000044656C6574696F6E206661696C656403
:100440002C2046696C653A200046696C652064651D
:100450006C657465643A00256979202569642025F6
:1004600069682025696D20256973005072696E7472
:100470002074696D653A200044454255473A004D65
:100480003131332053005369646577696E64657256
:10049000205831204F46462E002F2F200041636305
:1004A000656C65726174696F6E3A205000574152F5
:1004B0004E494E4721204C6F77205A204A65726B77
:1004C000206D6179206C65616420746F20756E7792
:1004D000616E746564207061757365732E0A002007
:1004E000204D61783A200020204D696E3A2000535B
:1004F0006F667420656E6473746F70733A20004683
:10050000523A0020466C6F773A20004D424C204111
:10051000646A757374205A0020643A0020693A00B6
:1005200020703A00496E76616C6964206578747257
:10053000756465720A006469730043290A00616288
:100540006C656420286D696E2074656D70200043B1
:100550006F6C642065787472756465732061726570
:1005600020004D34323120696E636F72726563749E
:1005700020706172616D6574657220757361676565
:100580000A004F666673657473204170706C69650C
:100590006400546F6F206661722066726F6D207206
:1005A00065666572656E636520706F696E740A00BA
:1005B000454550524F4D204F4B0A003F284229617C
:1005C0007564207261746520696D706C6175736902
:1005D000626C652E0A002062617564207261746528
:1005E0002073657420746F20002053657269616CFC
:1005F00020002028302D313029002076616C75656F
:10060000206F7574206F662072616E6765004164AB
:1006100076616E6365204B3D004D383400436F6E4C
:1006200074696E7565005072696E7420446F6E65F2
:1006300000446F6E65207072696E74696E67206623
:10064000696C650A004D3737004D333100C6028DA5
:100650000EBF02B802AA02A10224F4D43050C38E05
:1006600020C2A24017828B7011127A910D816CD931
:100670000AA861E108C7586607615143061E4B5D31
:1006800005C145A7041A411104093D980371393188
:10069000034036DB0265339102D4305402802E1DB4
:1006A00002632CEE01752AC501B028A00110278134
:1006B000018F2564012B244B01E0223401AC211F62
:1006C000018D200D01801FFC00841EED00971DDFB1
:1006D00000B81CD200E61BC600201BBC00641AB286
:1006E00000B219A8000A19A0006A189900D1179140
:1006F0000040178B00B516840031167E00B31579C3
:10070000003A157300C7146F0058146A00EE1366A0
:10071000008813630025135E00C7125B006C12573C
:100720000015125400C111510070114F0021114BDE
:1007300000D61049008D10470046104400021042B8
:1007400000C00F4000800F3E00420F3C00060F3BF0
:1007500000CB0E3800930E37005C0E3500270E34A8
:1007600000F30D3200C10D3100900D3000600D2EF0
:1007700000320D2D00050D2C00D90C2B00AE0C29DC
:1007800000850C29005C0C2700350C27000E0C2678
:1007900000E80B2400C40B2400A00B23007D0B23D6
:1007A000005A0B2100390B2100180B2000F80A1FFA
:1007B00000D90A1E00BB0A1E009D0A1D00800A1DEA
:1007C00000630A1C00470A1B002C0A1B00110A1AAE
:1007D00000F7091A00DD091900C4091900AB09194D
:1007E00000920917007B091800630917004C0916CD
:1007F0000036091600200916000A091500F508152B
:1008000000E0081400CC081400B8081400A4081470
:1008100000900813007D0812006B0813005808129E
:1008200000460812003408110023081100120811B4
:100830000001081100F0071000E0071000D00710B9
:1008400000C0071000B0070F00A107100091070EAD
:100850000083070F0074070F0065070E0057070E8F
:100860000049070E003B070D002E070E0020070D64
:100870000013070D0006070D00F9060C00ED060D2C
:1008800000E0060C00D4060C00C8060C00BC060CE8
:1008900000B0060C00A4060B0099060C008D060B98
:1008A0000082060B0077060B006C060B0061060A3F
:1008B0000057060B004C060A0042060A0038060ADA
:1008C000002E060A0024060A001A060A001006096D
:1008D0000007060A00FD050900F4050900EB0509FB
:1008E00000E2050900D9050900D0050900C705097E
:1008F00000BE050900B5050800AD050800A50509FD
:10090000009C050800940508008C05080084050873
:10091000007C050800740508006C050700650508E3
:10092000005D050700560508004E0507004705074E
:10093000004005080038050700310507002A0507B3
:1009400000230507001C050600160507000F050714
:10095000000805060002050700FB040600F5040771
:1009600000EE040600E8040600E2040700DB0406CB
:1009700000D5040600CF040600C9040600C304061F
:1009800000BD040600B7040600B1040500AC04066F
:1009900000A6040600A00405009B040600950405BB
:1009A00000900406008A0405008504050080040602
:1009B000007A04050075040500700405006B040549
:1009C0000066040500610405005C04050057040589
:1009D00000520405004D04050048040500430405C9
:1009E000003E0404003A0405003504050030040408
:1009F000002C04050027040400230405001E040441
:100A0000001A04040016040500110404000D040477
:100A100000090405000404040000040400FC0304AD
:100A200000F8030400F4030400F0030400EC0304E2
:100A300000E8030400E4030400E0030400DC030412
:100A400000D8030400D4030400D0030400CC030442
:100A500000C8030300C503030024F404D9201BC409
:100A60000C5C0E9804C4095F0265077101F405F976
:100A700000FB04B30048048700C103690058035514
:100A80000003034500BE023A008402310053022AEB
:100A9000002902250004022000E4011C00C80119FD
:100AA00000AF0117009801140084011300710110B8
:100AB000006101100051010E0043010D0036010BD1
:100AC000002B010B0020010B00150109000C01098E
:100AD0000003010800FB000800F3000800EB00071A
:100AE00000E4000600DE000600D8000600D2000682
:100AF00000CC000500C7000500C2000500BD0004D1
:100B000000B9000400B5000400B1000400AD000409
:100B100000A9000400A5000300A20003009F000438
:100B2000009B00030098000300950002009300035F
:100B300000900003008D0002008B0003008800027B
:100B4000008600020084000300810002007F000292
:100B5000007D0002007B00020079000200770001A6
:100B600000760002007400020072000100710002B1
:100B7000006F0002006D0001006C0002006A0001BD
:100B800000690002006700010066000100650001C5
:100B900000640002006200010061000100600001C9
:100BA000005F0002005D0001005C0001005B0001CD
:100BB000005A0001005900010058000100570001CF
:100BC00000560001005500010054000100530000D0
:100BD00000530001005200010051000100500001CB
:100BE000004F0001004E0000004E0001004D0001CA
:100BF000004C0001004B0000004B0001004A0001C6
:100C000000490001004800000048000100470001C1
:100C100000460000004600010045000000450001BC
:100C200000440001004300000043000100420000B6
:100C300000420001004100000041000100400001AD
:100C4000003F0000003F0001003E0000003E0001A8
:100C5000003D0000003D0001003C0000003C0000A1
:100C6000003C0001003B0000003B0001003A000096
:100C7000003A00010039000000390001003800008E
:100C80000038000000380001003700000037000184
:100C9000003600000036000000360001003500007C
:100CA0000035000000350001003400000034000071
:100CB0000034000100330000003300000033000165
:100CC000003200000032000000320001003100005C
:100CD0000031000000310001003000000030000051
:100CE00000300001002F0000002F0000002F000046
:100CF000002F0001002E0000002E0000002E000139
:100D0000002D0000002D0000002D0000002D00012E
:100D1000002C0000002C0000002C0000002C000122
:100D2000002B0000002B0000002B0000002B000116
:100D3000002A0000002A0000002A0000002A00010A
:100D400000290000002900000029000000290000FF
:100D500000290001002800000028000000280000F1
:100D600000280000002800010027000000270000E4
:100D700000270000002700000027000100260000D7
:100D800000260000002600000026000000260001CA
:100D900000250000002500000025000000250000BF
:100DA00000250000002500010024000000240000B0
:100DB00000240000002400000024000100230000A3
:100DC0000023000000230000002300000023000097
:100DD0000023000000230001002200000022000088
:100DE000002200000022000000220000002200017A
:100DF000002100000021000000210000002100006F
:100E0000002100000021000000210001002000005E
:100E10000020000000200000002000000020000052
:100E2000002000000020000000200001001F000042
:100E3000001F0000001F0000001F0000001F000036
:100E4000001F0000001F0001001E0000001E000027
:100E5000001E0000001E000000232C0000B822002D
:100E600000561800003A0F0000B8080000B1040056
:100E700000710200003E010000554E4B4E4F574E90
:100E80002053544154450047434F44455F494E4623
:100E90004F004C43445F50415553455F52455355B5
:100EA0004D450046494C414D454E545F52554E4FBD
:100EB00055545F434F4E54494E55450046494C41A9
:100EC0004D454E545F52554E4F5554004D383736B0
:100ED00020526573706F6E64696E672050524F4D7B
:100EE00050545F004572726F722077726974696E38
:100EF0006720746F20454550524F4D210A005354CE
:100F00004F505045442E20005072696E7465722017
:100F100073746F707065642064756520746F2065EC
:100F200072726F72732E204669782074686520652E
:100F300072726F7220616E6420757365204D39394D
:100F40003920746F20726573746172742E20285476
:100F5000656D706572617475726520697320726564
:100F60007365742E205365742069742061667465FE
:100F7000722072657374617274696E67290A004E1B
:100F80006F20436865636B73756D207769746820A3
:100F90006C696E65206E756D6265722C204C617394
:100FA00074204C696E653A2000636865636B7375E5
:100FB0006D206D69736D617463682C204C6173746E
:100FC000204C696E653A20004C696E65204E756D47
:100FD000626572206973206E6F74204C6173742097
:100FE0004C696E65204E756D6265722B312C204CFC
:100FF000617374204C696E653A20004D31313000C8
:1010000053442072656164206572726F720A002118
:1010100021204B494C4C20636175736564206279D3
:1010200020746F6F206D75636820696E61637469E9
:1010300076652074696D65202D2063757272656E0A
:101040007420636F6D6D616E643A20006275737910
:101050003A2070617573656420666F7220696E70E6
:1010600075740A00627573793A20706175736564EE
:1010700020666F7220757365720A00627573793A23
:101080002070726F63657373696E670A004D6564E3
:10109000696120496E73657274656400706F77656D
:1010A000726F6666005072696E7465722068616C5A
:1010B0007465642E206B696C6C28292063616C6CEC
:1010C0006564210A00004265640045310062656480
:1010D000002C2073797374656D2073746F70706564
:1010E0006421204865617465725F49443A2000209C
:1010F0005049445F4245445F4445425547203A20A9
:10110000496E707574200020645465726D20002053
:10111000695465726D200020705465726D20002046
:101120004F75747075742000205049445F444542E7
:101130005547200048656174696E67204661696C97
:1011400065640048656174696E67206661696C65F5
:1011500064004D3131322053687574646F776E00CE
:10116000202D20496E76616C6964206578747275F3
:10117000646572206E756D62657220210A005448A4
:1011800045524D414C2052554E41574159005468EB
:1011900065726D616C2052756E6177617900457280
:1011A000723A204D415854454D50004D41585445D8
:1011B0004D5020747269676765726564004572728C
:1011C0003A204D494E54454D50004D494E54454DE1
:1011D0005020747269676765726564006563686F43
:1011E0003A004572726F723A00203A202E2E2E4E2F
:1011F0006F77204F4E0A00203A204C6576656C6967
:101200006E67204F46460A00203A202E2E2E4E6F43
:1012100077204F46460A00203A204C6576656C6977
:101220006E67204F4E0A0072657365745F62656475
:101230005F6C6576656C0A000A4D65617375726551
:101240006420706F696E74733A0A00337833206DCE
:101250006573682E205A206F66667365743A2000A5
:101260002F2F616374696F6E3A006E6F74696669DF
:10127000636174696F6E2000626567696E00656EF8
:10128000640070726F6D70745F0073686F770048F0
:101290006F74656E6420746F6F20636F6C640A00F6
:1012A0004661646520486569676874200046616925
:1012B0006C656420746F20656E61626C65204265A8
:1012C00064204C6576656C696E670A004D657368CD
:1012D00020426564204C6576656C20646174613AD7
:1012E0000A00496E76616C6964206D6573682E0A28
:1012F00000202F002042403A0020403A0020573A78
:10130000004D3130362050007C3C3E5E2B3D3F2F5F
:101310005B5D3B2C2A225C00667265736800646F1B
:10132000696E67004E6F7720002020506C616E6EF2
:10133000657242756666657242797465733A20001B
:101340002046726565204D656D6F72793A200043C5
:101350006F6D70696C65643A204F6374203138207A
:10136000323032300A00204C617374205570646151
:101370007465643A20323032302D31302D313520D1
:101380007C20417574686F723A20286D6F6F7068A9
:101390006C6F2C205369646577696E6465722058A0
:1013A00031290A00322E302E372E320A004D61725A
:1013B0006C696E0020536F667477617265205265A8
:1013C0007365740A00205761746368646F67205204
:1013D000657365740A002042726F776E206F7574B2
:1013E0002052657365740A002045787465726E61D9
:1013F0006C2052657365740A00506F776572557082
:101400000A004D3234004D3233202573006175746B
:101410006F25632E67004732385859004D31303000
:1014200031006572726F722077726974696E67201D
:10143000746F2066696C650A00446F6E6520736185
:1014400076696E672066696C652E0A004D32390038
:10145000656E6473746F7073206869743A200070ED
:10146000012C0190012701B0012201C0011D01F0F2
:101470000118011002130130020E016002090190EF
:10148000020401C002FF000003FA004003F50080DF
:1014900003F000D003EB002004E6007004E100E05C
:1014A00004DC004005D700C005D2004006CD00D0C6
:1014B00006C8008007C3003008BE00F008B900C0AD
:1014C00009B400B00AAF00B00BAA00D00CA5000010
:1014D0000EA000500F9B00C010960050129100000B
:1014E000148C00C0158700B0178200B0197D00D0A1
:1014F0001B7800001E730040206E0090226900F0EF
:1015000024640040275F0090295A00E02B5500100A
:101510002E500020304B0010324600E03341009046
:10152000353C001037370070383200A0392D00B03C
:101530003A2800A03B2300603C1E00103D1900909B
:101540003D1400103E0F00703E0A00C03E05000032
:101550003F0000403FFBFF803FF6FFC03FF1FF65CB
:101560006E7175657565696E672022006F6B00523C
:101570006573656E643A200042656420436F6F6C4A
:10158000696E672E2E2E004265642048656174697D
:101590006E672E2E2E0023646566696E65204445B5
:1015A0004641554C545F004B6420004B6920004B72
:1015B000702000504944204175746F74756E652029
:1015C00066696E697368656421205075742074685B
:1015D00065206C617374204B702C204B6920616E08
:1015E00064204B6420636F6E7374616E7473206645
:1015F000726F6D2062656C6F7720696E746F204327
:101600006F6E66696775726174696F6E2E680A0025
:10161000504944204175746F74756E652066616928
:101620006C6564212074696D656F75740A000A2009
:10163000436C617373696320504944200A00204B56
:10164000643A2000204B693A2000204B703A200079
:101650000A204E6F206F76657273686F6F740A0090
:101660002054753A2000204B753A2000206D617897
:101670003A2000206D696E3A200020643A20002054
:10168000626961733A2000504944204175746F7457
:10169000756E652073746172740A0050494420416C
:1016A00075746F74756E65206661696C6564212060
:1016B00054656D706572617475726520746F6F200A
:1016C000686967680A00504944204175746F7475F1
:1016D0006E6500504944204175746F74756E6520C5
:1016E0006661696C6564212042616420657874726A
:1016F00075646572206E756D6265720A00504944AA
:101700002044656275672000486F6D696E672046EA
:1017100061696C6564006F70656E0054524947479B
:1017200045524544007A5F6D696E00795F6D696E60
:1017300000785F6D696E005265706F7274696E67D4
:1017400020656E6473746F70207374617475730AAE
:101750000000009643000096430000C843000000CC
:10176000000000000000000000FFFDFCFAF8F6F4A5
:10177000F2F0EEECEAE9E7E5E3E1E0DEDCDAD9D726
:10178000D5D4D2D0CFCDCBCAC8C7C5C3C2C0BFBDC8
:10179000BCBAB9B7B6B4B3B2B0AFADACAAA9A8A63B
:1017A000A5A4A2A1A09E9D9C9A9998979594939286
:1017B000908F8E8D8B8A8988878684838281807FB3
:1017C0007E7D7B7A797877767574737271706F6EBF
:1017D0006D6C6B6A696867666564636261605F5EB1
:1017E0005D5C5B5A59585857565554535251505096
:1017F0004F4E4D4C4B4A4A49484746464544434262
:101800004241403F3E3E3D3C3B3B3A39383837361B
:101810003535343332323130302F2E2E2D2C2B2BC8
:101820002A29292827272625252423232221212068
:10183000201F1E1E1D1C1C1B1B1A191918181716F9
:1018400016151514131312121111100F0F0E0E0D81
:101850000D0C0C0B0A0A09090808070706060505FE
:10186000040403030202010000206D61783A0020A5
:101870006D696E3A0041786973200053657474692C
:101880006E67732053746F72656400536574746976
:101890006E67732053746F7265642028002E2E2E9D
:1018A0002800202063757272656E745F706F7369B3
:1018B00074696F6E3D00203A2073796E635F706CBF
:1018C000616E5F706F736974696F6E0A003E20000D
:1018D000646F5F626C6F636B696E675F6D6F766577
:1018E0005F746F003E3E3E005D002C2000646F5F21
:1018F000686F6D696E675F6D6F76650020706F73DE
:101900006974696F6E5F7368696674203D2000209A
:10191000686F6D655F6F6666736574203D20003C7F
:101920003C3C207365745F617869735F69735F61C4
:10193000745F686F6D652800203A200A005D203DC5
:1019400020003E20686F6D655F6F66667365745B2F
:10195000003E3E3E207365745F617869735F697312
:101960005F61745F686F6D6528005761726E696EA4
:10197000673A20486F6D696E672042756D7020442C
:10198000697669736F72203C20310A003C3C3C2030
:10199000686F6D65617869732800203A203E2041A8
:1019A00046544552207365745F617869735F69734B
:1019B0005F61745F686F6D650A00486F6D65203206
:1019C00020536C6F773A0A004D6F7665204177613E
:1019D000793A0A00486F6D65203120466173743A88
:1019E0000A003E3E3E20686F6D656178697328008D
:1019F0000000A0420000A0420000A041020204003A
:101A000000A0400000A04000000040FFFFFF0000D9
:101A10000001000000010000800055555500000045
:101A2000400033333300AAAA2A0049922400000060
:101A30002000C7711C0099991900D1451700555510
:101A400015003BB1130024491200111111000000D0
:101A500010000F0F0F00E3380E0043790D00CCCCBF
:101A60000C00C3300C00E8A20B0064210B00AAAAF2
:101A70000A00703D0A009DD80900427B09009224AB
:101A80000900DCD308008888080010420800000024
:101A90000800F0C107008787070075500700711C18
:101AA00007003EEB0600A1BC0600699006006666D2
:101AB0000600703E06006118060017F4050074D198
:101AC00005005BB00500B290050062720500555537
:101AD000050078390500B81E0500050505004EEC27
:101AE000040087D40400A1BD040090A7040049921B
:101AF0000400C17D0400EE690400C756040044449C
:101B000004005C32040008210400411004000000BD
:101B100004003FF00300F8E0030026D20300C3C333
:101B20000300CCB503003AA803000A9B0300388EDB
:101B30000300C08103009F750300D0690300505E5D
:101B400003001D53030034480300913D0300333369
:101B5000030016290300381F030097150300300CFB
:101B60000300030303000BFA020049F10200BAE884
:101B700002005CE002002DD802002DD0020059C8FE
:101B80000200B0C0020031B90200DAB10200AAAA14
:101B90000200A0A30200BC9C0200FA9502005C8F28
:101BA0000200DF88020082820200457C0200277664
:101BB000020027700200436A02007C640200D05ECB
:101BC00002003F590200C853020020746F6F206C5E
:101BD0006F6E6720657874727573696F6E207072AE
:101BE0006576656E7465640A0020636F6C642065B9
:101BF0007874727573696F6E2070726576656E7435
:101C000065640A00654953522072756E6E696E678D
:101C1000206174203E2031306B487A2E0A004D6FCF
:101C20007265207468616E20322073746570732051
:101C30007065722065495352206C6F6F7020657813
:101C40006563757465642E0A00416363656C657233
:101C50006174696F6E206C696D697465642E0A0029
:101C6000206E6F7420656E74657265642E0A0020A4
:101C70006F6620004D424C2047323920706F696EEC
:101C80007420004A206F7574206F662072616E6741
:101C9000652028302D0049206F7574206F662072F2
:101CA000616E67652028302D004D65736820707265
:101CB0006F62696E6720646F6E652E0A00537461EF
:101CC0007274206D6573682070726F62696E672030
:101CD000776974682022473239205331222066699F
:101CE0007273742E0A004732380A47323920533251
:101CF00000686173206E6F20646174612E0A004D6C
:101D000065736820426564204C6576656C696E6712
:101D1000200053206F7574206F662072616E6765B6
:101D20002028302D35292E0A00204D393220580028
:101D300050757267654D6F726500506175736564AB
:101D400000627574746F6E004C6F61642046696C3C
:101D5000616D656E74205400496E736572742066FF
:101D6000696C616D656E7420616E642073656E646C
:101D7000204D3130380A00726573756D656400520C
:101D80006573756D696E670052656865617420449E
:101D90006F6E6500526568656174696E672E2E2EE0
:101DA000005265686561740048656174657220540D
:101DB000696D656F75740053656E64204D31303800
:101DC00020746F2068656174206E6F7A7A6C650A82
:101DD000004E6F7A7A6C65205061726B656400709A
:101DE00061757365640050617573650020496E7696
:101DF000616C696420657874727564657220002076
:101E000053697A653A200043616E6E6F74206F707B
:101E1000656E2073756264697220005344206361AB
:101E20007264206F6B0A006F70656E526F6F742062
:101E30006661696C65640A00766F6C756D652E6904
:101E40006E6974206661696C65640A004E6F205388
:101E50004420636172640A006F70656E2066616978
:101E60006C65642C2046696C653A200046696C6597
:101E70002073656C65637465640A0046696C65204F
:101E80006F70656E65643A2000454E44205355429C
:101E9000524F5554494E450A002220706F7300225C
:101EA00020706172656E743A2200535542524F554C
:101EB00054494E452043414C4C207461726765740F
:101EC0003A220053756263616C6C204F76657266CE
:101ED0006C6F77004578636565646564206D617833
:101EE00020535542524F5554494E452064657074F5
:101EF000683A310A0057726974696E6720746F20FE
:101F000066696C653A20004361703A007D007D7D12
:101F10002C776F726B3A7B6D696E3A7B783A007DF5
:101F20002C6D61783A7B783A002C7A3A002C793A19
:101F300000617265613A7B66756C6C3A7B6D696EA7
:101F40003A7B783A004348414D4245525F54454DF3
:101F5000504552415455524500424142595354450F
:101F60005050494E470041524353004D4F54494F42
:101F70004E5F4D4F44455300544845524D414C5FD0
:101F800050524F54454354494F4E004C4F4E475FBB
:101F900046494C454E414D45004155544F524550E0
:101FA0004F52545F53445F5354415455530053446C
:101FB000434152440050524F4D50545F535550507E
:101FC0004F525400454D455247454E43595F50418D
:101FD0005253455200434153455F4C494748545F73
:101FE0004252494748544E45535300544F47474C7B
:101FF000455F4C494748545300534F46545741524C
:10200000455F504F574552004255494C445F50453B
:102010005243454E54004C4556454C494E475F444B
:10202000415441005A5F50524F4245004155544F70
:102030004C4556454C005052494E545F4A4F420061
:1020400050524F4752455353004155544F524550FB
:102050004F52545F54454D5000564F4C554D4554CA
:1020600052494300454550524F4D0042494E41525E
:10207000595F46494C455F5452414E5346455200C4
:1020800053455249414C5F584F4E5F584F464600AA
:102090004649524D574152455F4E414D453A4D617B
:1020A000726C696E20322E302E372E3220284F630C
:1020B0007420313820323032302031353A31333AE1
:1020C00035392920534F555243455F434F44455FAF
:1020D00055524C3A68747470733A2F2F676974685C
:1020E00075622E636F6D2F4D61726C696E466972F9
:1020F0006D776172652F4D61726C696E2050524F21
:10210000544F434F4C5F56455253494F4E3A312E30
:1021100030204D414348494E455F545950453A534C
:1021200069646577696E646572205831204558543A
:1021300052554445525F434F554E543A3120555500
:1021400049443A38356534393866302D633663335F
:102150002D343864352D396633362D6538383332B1
:10216000326439306362310A0047322F47332062CC
:10217000616420706172616D65746572730A00201C
:1021800062797465733B2063726320004E6F204553
:102190004550524F4D2E0A00454550524F4D206438
:1021A00061746173697A65206572726F722E0A00BC
:1021B000454550524F4D2056657273696F6E2045EC
:1021C00072726F7200454550524F4D20496E6465E2
:1021D00078204572726F7200454550524F4D204332
:1021E0005243204572726F72002073746F7265647F
:1021F0002073657474696E677320726574726965A3
:10220000766564202800202863616C63756C6174B6
:10221000656429210A0020213D2000454550524F88
:102220004D20435243206D69736D61746368202DA6
:10223000202873746F726564292000496E64657884
:102240003A200044494749504F5453204C6F616431
:1022500065640A0044494749504F5453204C6F610C
:1022600064696E670A00204D61726C696E3D563874
:1022700032290A00454550524F4D207665727369E8
:102280006F6E206D69736D617463682028454550D9
:10229000524F4D3D0000002200250028002B002E4B
:1022A000003100340002010000050108010B0100AB
:1022B000002100240027002A002D003000330001F7
:1022C000010000040107010A0105050505070508CD
:1022D000080808020202020A0A08080404040401A9
:1022E00001010101010101030303030303030304CB
:1022F0000707070C0C0C0C0C0C0C0C02020202065B
:10230000060606060606060B0B0B0B0B0B0B0B014A
:1023100002102020080810204010204080020102F6
:1023200001080402010102040810204080804020BE
:1023300010080402018004020180402010080402F9
:102340000108040201010204081020408001020477
:10235000081020408020520048617264636F6465F9
:10236000642044656661756C742053657474696E8D
:102370006773204C6F616465640A003B2000202075
:102380004D363033200020550046696C616D656E16
:1023900074206C6F61642F756E6C6F6164206C6566
:1023A0006E677468733A0020204D393030204B003E
:1023B0004C696E65617220416476616E63653A00B6
:1023C00020204D33303420500020204D3330312038
:1023D00050005049442073657474696E67733A0005
:1023E0002020473239205334205A00204A00202030
:1023F00047323920533320490020204D34323020D9
:1024000053004D65736820426564204C6576656CA9
:10241000696E673A0020204D323036205800486FF0
:102420006D65206F66667365743A0020204D32300A
:1024300035204200416476616E6365643A20423C17
:102440006D696E5F7365676D656E745F74696D65E8
:102450005F75733E20533C6D696E5F66656564729F
:102460006174653E20543C6D696E5F74726176657F
:102470006C5F66656564726174653E20583C6D6191
:10248000785F785F6A65726B3E20593C6D61785F5A
:10249000795F6A65726B3E205A3C6D61785F7A5F46
:1024A0006A65726B3E20453C6D61785F655F6A6569
:1024B000726B3E0020204D32303420500041636367
:1024C000656C65726174696F6E2028756E697473CE
:1024D0002F7332293A20503C7072696E745F6163C9
:1024E00063656C3E20523C726574726163745F6117
:1024F0006363656C3E20543C74726176656C5F6109
:102500006363656C3E0020204D3230312058004D11
:102510006178696D756D20416363656C6572617486
:10252000696F6E2028756E6974732F7332293A00B3
:1025300020450020590020204D3230332058004DD6
:102540006178696D756D2066656564726174657327
:102550002028756E6974732F73293A00537465705F
:10256000732070657220756E69743A0020440020F3
:10257000204D3230302053002044697361626C6515
:10258000640A0046696C616D656E742073657474CD
:10259000696E67733A0020286D6D2900202047324C
:1025A00031202020203B20556E69747320696E20F5
:1025B0006D6D000000164300001643000048420005
:1025C000002042AEC7A042CDCCA042A4B0C7430079
:1025D00080E143D0070000D0070000640000001035
:1025E00027000000000A0B02090C0D0E0807030467
:1025F00001000000000000000000000000000000DA
:1026000000000000000000000000000000000012B8
:102610001110000000000000000000000000000099
:10262000000000000000000000486F6D6520257369
:1026300025732573204669727374003C3C3C00226C
:102640000A00556E6B6E6F776E20636F6D6D616EF5
:10265000643A20220020453A00205A3A0020593A94
:102660000020436F756E7420583A00001FBCC6BB33
:1026700011241FBECFEFD1E2DEBFCDBF00E00CBF03
:1026800012E0A0E0B2E0ECE3F3E901E00BBF02C02E
:1026900007900D92A03BB107D9F723E1A0EBB2E080
:1026A00001C01D92AA32B207E1F713E1C7E3D3E1FB
:1026B00000E006C021970109802FFE010E94EFC5AE
:1026C000C633D10780E00807A9F70E942BB50C9408
:1026D0008CC90C9400002F923F924F925F926F92A0
:1026E0007F928F929F92AF92BF92CF92DF92EF92A2
:1026F000FF920F931F93CF93DF93CDB7DEB7EC9785
:102700000FB6F894DEBF0FBECDBF8BAF2091BC02D9
:1027100028AFFF24F394F092BC028091140E8D3404
:1027200009F494C2843511F40C94F524873411F023
:102730000C9442252091120E3091130E2B3131054D
:1027400009F489C09CF42430310534F42230310579
:10275000D4F537FF2CC076C22430310509F441C0CE
:102760002531310511F40C9444256CC22A3231050F
:1027700009F4A2C164F42C31310509F48BC02D3168
:10278000310509F05FC20E94C38E0C9444252B359D
:10279000310509F40EC12C35310509F40FC12A3574
:1027A000310509F04FC21092BB020C944425809170
:1027B000C005813011F00C9444250E9486890E9446
:1027C0009E730C9444258091C005813011F00C94C7
:1027D00044252230310509F080E00E9463990C9471
:1027E000442580E50E94E947882329F00E94808ED5
:1027F0006B017C0103C0C12CD12C760183E50E94C2
:10280000E947882361F00E94644720E030E04AE70E
:1028100054E40E94D1C10E9477C76B017C010E94E1
:10282000E56B8BEC92E00E94DA490E9451B3C60E30
:10283000D71EE81EF91E0E9451B3DC01CB018C1992
:102840009D09AE09BF09B7FD02C00C94442580E084
:102850000E949E36F0CF0E94DAB081110C9444257C
:102860008CE0EBE5F2E0DE01119601900D928A9585
:10287000E1F780E50E94E947882321F00E942C4778
:10288000862F01C080E0BE016F5F7F4F0E94555BC5
:102890000C9444259091250D2DE932E03DA72CA7FD
:1028A00081E0292F207295FF80E08EA7222331F04E
:1028B00064EE78E1CE018C960E94908E8091250D79
:1028C00085FF67C088E193E00E94E8348FE093E0E1
:1028D0000E94E8348DEF92E00E94E8348091160E59
:1028E000882309F44FC081EF92E00E94E83480E031
:1028F00090E0A0E8BFE38C8F9D8FAE8FBF8FBE01AD
:10290000645E7F4F87E19EE00E94CE4A69837A83AE
:102910008B839C83CE0101960E9434B1BC0180EE72
:1029200092E00E94C84D20E030E0A9016091F512CC
:102930007091F6128091F7129091F8120E946BC17B
:10294000882321F18FE19EE00E94354C6C8F7D8FB2
:102950008E8F9F8FBE01645E7F4F87E19EE00E9455
:10296000CE4A69837A838B839C83CE0101960E9431
:1029700034B1BC018AE998E10E94C84D89E20E9405
:10298000E13404C084ED92E00E94E8348AE00E94C1
:10299000E1348091B4068770873011F00C945A2589
:1029A00060E08FE40E94AE8E81110C944D250C9452
:1029B0005A258FE08093BB020C9444251CE8212EFD
:1029C00012E0312E08EAE02E06E0F02E27E13EE08C
:1029D00038AB2FA789EFC82E82E1D82E00E010E097
:1029E000D1018D911D010E94E947882309F44BC054
:1029F0000E9464472B013C01133049F0F60120810D
:102A00003181428153810E9403C62B013C01AFA555
:102A1000B8A92D913D914D915C91C301B2010E94E5
:102A200003C64B015C012DEB37E346E855EB0E94F2
:102A300064C887FD0AC02DEB37E346E855E3C501BE
:102A4000B4010E946BC11816F4F4133051F4409293
:102A5000230E5092240E6092250E7092260E01E0F5
:102A600012C0A5019401F701608171818281938177
:102A70000E9404C6D7016D937D938D939C93139709
:102A8000812F0E9491721F5FB4E0EB0EF11CEFA545
:102A9000F8A93496F8ABEFA7F4E0CF0ED11C1430B0
:102AA00009F09ECF002321F083E29EE00E94F66BA6
:102AB0000E9439790C9444258091C005813011F031
:102AC0000C94442589E40E94E947F82E882321F0DC
:102AD0000E946047182F01C010E08AE40E94E94775
:102AE000082F882319F00E94604701C080E0FF2072
:102AF00011F0133020F4002341F0833030F088E6E9
:102B000093E00E94E8340C94442590E1E7E1FEE074
:102B1000A5EBB6E001900D929A95E1F7FF2091F0B8
:102B200024E01202F0011124EE5DFE4E408151813D
:102B3000628173814093B5065093B6066093B706E1
:102B40007093B806002391F034E08302F001112461
:102B5000EA5EFE4E80819181A281B3818093B906A5
:102B60009093BA06A093BB06B093BC0640E050E039
:102B7000BA0186E40E94015C6B017C0120E030E038
:102B8000A9010E9464C818165CF420E030E040E718
:102B900052E4C701B6010E94FEC66B017C0103C06E
:102BA000C12CD12C760180904D0290904E02A090C5
:102BB0004F02B090500220E030E0A901C701B601F9
:102BC0000E946BC1882341F0C0924D02D0924E0208
:102BD000E0924F02F092500200914B0210914C0291
:102BE00084E690E090934C0280934B02C090530295
:102BF000D0905402E0905502F090560280E090E0B0
:102C0000A0E8BFE38093530290935402A09355022F
:102C1000B09356020E949E7380924D0290924E0293
:102C2000A0924F02B092500210934C0200934B02BC
:102C3000C0925302D0925402E0925502F092560292
:102C40000C9444250E94A3B40C9444250091120EC8
:102C50001091130E0637110509F4E2C60CF0CEC030
:102C60000D34110509F456C40CF059C00931110591
:102C700009F47EC234F50431110509F40FC28CF455
:102C80000131110509F4F6C134F40230110508F4DC
:102C9000AAC10C94F2240231110509F4A5C50C94C3
:102CA000F2240631110509F42EC20CF428C20731B2
:102CB000110509F432C20831110509F443C20C941C
:102CC000F2240E31110509F4D3C2B4F40B3111050D
:102CD00009F473C20CF463C20C31110509F4C0C2CB
:102CE0000D31110511F00C94F224809147128E7F62
:102CF000809347120C9444250032110509F419C33E
:102D00000CF45AC30B34110509F400C40C3411053A
:102D100011F00C94F2240E942B5B0C9444250B368A
:102D2000110509F47CC40CF042C00535110509F405
:102D300092C544F50235110509F446C5CCF40135B8
:102D4000110511F00C94F2240E946D3D0E94405B2D
:102D50000E94A56D0E949F3468EE73E080E090E0D1
:102D60000E94AF4C86E894E00E94DA490C94442516
:102D70000335110509F430C50435110509F434C5CE
:102D80000C94F2240836110509F4C8C334F40C3548
:102D9000110509F485C50C94F2240936110509F4CE
:102DA00004C40A36110509F414C40C94F224003743
:102DB000110511F40C9444258CF40D36110509F419
:102DC000CDC314F40C9444250E36110509F433C414
:102DD0000F36110509F442C40C94F2240237110590
:102DE00009F400C60CF47EC40337110509F402C6C9
:102DF0000537110509F402C60C94F2240F3281E064
:102E0000180711F40C946F210CF060C00B3C1105F5
:102E100009F4FCC654F50639110509F450C684F4CA
:102E20000837110509F43BC60CF435C609371105FE
:102E300009F43EC60C38110509F479C40C94F22447
:102E40000E3B110509F494C434F40B39110509F44F
:102E500093C40C94F224083C110509F46DC6093C96
:102E6000110509F4B0C60C94F2240C3D110511F4BF
:102E70000C94471F84F40D3C110509F41AC70CF497
:102E8000E4C60E3C110509F427C7033D110509F4FA
:102E900041C70C94F2240232A1E01A0711F40C94F9
:102EA000C31F3CF40D3D110511F40C946E1F0C94DE
:102EB000F2240D32E1E01E0711F40C9439200E3299
:102EC000114011F40C942B210C94F224073F21E0C3
:102ED000120711F40C94A9220CF041C0053A81E0CC
:102EE000180711F40C947521ECF40039A1E01A07CD
:102EF00011F40C9472213CF40033114011F40C9441
:102F0000B8200C94F2240A39F1E01F0711F40C9454
:102F10004425043A114011F00C94F2240E94E34D30
:102F20000C944425043F31E0130711F40C94A322C0
:102F30003CF40C3A114011F40C9445220C94F22408
:102F4000053FA1E01A0711F40C94A622063F114098
:102F500011F00C94F2240E941CAC0C9444250B3507
:102F6000E2E01E0711F40C94BB23ECF40C3022E0D9
:102F7000120711F40C94C2223CF4083F114011F4E2
:102F80000C94B1220C94F2240F3392E0190711F43F
:102F90000C94CF220835124011F00C94F2240E94B8
:102FA000AA8A0C944425003AB3E01B0709F4F6C141
:102FB0006CF40C36F3E01F0711F40C94442504382C
:102FC000134011F40C9433240C94F224073E33E0A4
:102FD000130711F40C949C24093E134011F40C9433
:102FE000A8240C94F22480E50E94E947882329F064
:102FF0000E94808E6B017C0103C0C12CD12C760114
:1030000083E50E94E947882361F00E94644720E03D
:1030100030E04AE754E40E94D1C10E9477C76B01B7
:103020007C010E94E56B8091100E9091110E892B0E
:1030300041F00E94DF4D8091100E9091110E0E9480
:103040007D368091120E9091130E892B19F069E84C
:1030500073E002C061E873E020E030E04DE156E04B
:1030600082E00E94BA4940E0C701B6010E941C3BC1
:103070000C94442580910C0E84FF02C00C942727E9
:1030800080910E0E87FF02C00C94272780910F0EAF
:10309000837011F00C9427270C94442780914712D9
:1030A00083FF25C089EA93E00E94E83480914712AB
:1030B00083FF17C088EA90E10E940B528BE1E8EA97
:1030C000F0E1DE01119601900D928A95E1F760E042
:1030D00070E0CE0101960E94B196CE0101960E9449
:1030E00010528AE993E00E94E8340C9444250E942F
:1030F000DF4D8AEB93E00E94E8340C9444250E9453
:1031000026920C9444250E94AE9080914712877FAE
:103110008062809347120C944425E091100EF09148
:10312000110E8081882329F0803209F410823196B3
:10313000F8CF60E08091100E9091110E0E940891DE
:103140000C9444250E949134882321F00E941E9201
:103150000E94075B61E084EC93E00E9448494BECDD
:1031600053E063ED73E085E00E94BAB40C9444250B
:103170008091471282FF03C08B7F809347120E9489
:103180002B5B45EE53E06CEE73E084E00E94BAB432
:1031900061E08FED93E00E9448490C9444258091B2
:1031A000471283FD02C00C94442583E50E94E94741
:1031B00081110C9452270C94442583E40E949B4770
:1031C000882319F18FEF93E00E94E8348091521028
:1031D000882391F0BE016F5F7F4F8FE490E10E94E2
:1031E000D2508E010F5F1F4FD8018D918D01882322
:1031F00039F00E94E134F8CF85EF93E00E94E83483
:103200008AE00E94E1340C9444258091471282FFA9
:1032100021C08EE094E00E94E834609143127091E6
:10322000441280914512909146124AE00E947935ED
:103230008FE20E94E13460913F12709140128091C0
:103240004112909142124AE00E9479350E947736ED
:103250000C94442580E294E00E94E8340C944425C8
:103260008091100E9091110E0E94BF900C944425F5
:103270008091471283FD02C00C9444250E9489B4BA
:103280008091471283FD02C00C9444254091100E9A
:103290005091110EBE01645E7F4F80E00E9462A9D2
:1032A0008C01009711F40C9444256C8D7D8D19824E
:1032B0001C8222E0AC01CE0101960E944056811191
:1032C00002C0F12C14C0CE0101960E94D0A8882320
:1032D000C1F361E0CE0101960E94B650009789F3D8
:1032E00025EEFC0120831C820E947593F82ECE01EE
:1032F00001960E941052B801FF2089F089E494E001
:103300000E94C84D8AE00E94E1341092431210924C
:10331000441210924512109246120C94442581E3F7
:1033200094E00E94C84D86E29DE10E94E8340C942E
:1033300044258091471282FD0E94E56B80914712DF
:1033400083FD02C00C94442560E080E50E94AE8EAF
:10335000182F682F8091100E9091110E0E940891E5
:1033600083E50E94E947882381F00E942C47AB0146
:10337000BC014093431250934412609345127093E2
:1033800046128FE490E10E949B950E941E921111BB
:103390000C9444250E94075B0C9444252091100E48
:1033A0003091110E90914712926090934712C9018B
:1033B0000E94BF900C9444250E94B85A7B018C0156
:1033C00020E831E541E050E00E9472C5C9016DE698
:1033D00071E00E94DBC54B015C01C801B70120E12F
:1033E0003EE040E050E00E9472C5CA01B90128E108
:1033F00030E040E050E00E9472C5762E672EC62E67
:10340000D72EBCE32B2E312C412C512CC801B701F7
:10341000A20191010E9472C5F62EE72ECA01B901E0
:10342000A20191010E9472C5CB018E010F5F1F4F57
:103430008114910499F0EF92FF927F936F936F92B2
:103440007F92BF92AF929F928F9287E594E09F9375
:103450008F931F930F930E943CC113C0A114B1041A
:10346000B1F0EF92FF927F936F936F927F92BF9232
:10347000AF928BE594E09F938F931F930F930E94DD
:103480003CC10FB6F894DEBF0FBECDBF30C0CD2813
:1034900079F0EF92FF927F936F936F927F928FE517
:1034A00094E09F938F931F930F930E943CC1E9CFA9
:1034B000892B69F0EF92FF927F936F9383E694E0FC
:1034C0009F938F931F930F930E943CC1DACFEF928B
:1034D000FF9287E694E09F938F931F930F930E9430
:1034E0003CC10F900F900F900F900F900F90C8015C
:1034F0000E94EA490E94DF4DB8018BE694E00E94E9
:10350000C84D8AE00E94E1340C9444250E94075B78
:103510000C9444250E94405B0C9444258091250D19
:1035200083FF02C00C9444250E94378A87FF02C0A3
:103530000C94442583E50E94E947882359F00E94B2
:1035400064470E9470C7CB010E94315761E080E060
:103550000E941F3D0E94E0BB0C9444258091250DE4
:1035600083FF02C00C9444250E94378A082F87FFEE
:1035700002C00C94442583E50E94E947F82E81118E
:103580000C94632782E50E94E94781110C9463271C
:1035900010E00E94E0BB112311F40C9444256F2D20
:1035A000802F0E94C9570C9444250E94378A182FF7
:1035B00087FD0AC08CE695E10E94E834812F0E94C5
:1035C00057578AE00E94E134F8ADF093BC020C94A6
:1035D000D82880E50E942DB181110C94442581E406
:1035E0000E949B47882321F06091ED06062F02C0C0
:1035F0000FEF10E083E50E94E947882349F00E941D
:103600002C478B016F3F710519F010F00FEF10E0A0
:103610000093ED0680E00E9441570C94442580E51C
:103620000E942DB181110C9444251092ED060E9448
:1036300041570C9444258EE40E94E947882311F4F5
:103640000C9444250E942C4760938706709388064B
:103650008093890690938A060C94442583E50E9402
:103660009B47882329F083E50E942DB18093250D87
:103670000E94DF4D88E794E00E94E8348091250D98
:10368000882369F1ADE4EA2EA6E0FA2E00E010E00E
:1036900020E08091250D90E0A0E0B0E0002E04C075
:1036A000B695A795979587950A94D2F780FF0EC097
:1036B000DD24D394D20E222319F08CE20E94E1344F
:1036C000F701859194910E94E8342D2D0F5F1F4FD3
:1036D00032E0E30EF11C06301105D9F691CD81EAF6
:1036E00090E18CCD83E50E94E947882381F00E9418
:1036F0003C47282F30E02D33310524F4809300021D
:103700000C9444258CE3809300020C9444250E9481
:10371000DF4D4091000250E060E070E08FE794E000
:103720000E94DF4C8AE00E94E1340C944425809191
:10373000250D83FF02C00C94442583E50E94E947D0
:10374000882311F40C9444250E9464470E9470C79A
:103750006C3871050CF48B011093EC030093EB03B0
:103760000E94353D61E080E00E941F3D0C9444259D
:103770000E941E620C94442583E50E94E947882339
:1037800011F40C9444250E943C47182F90E0CD97EB
:103790000CF01CE31093B4020E9451B36B017C0146
:1037A000212F30E0A8EEB3E00E94BEC5C60ED71EA2
:1037B000E81EF91EC092B002D092B102E092B202AD
:1037C000F092B3020C9444258091BB028F7D8061FE
:1037D0008093BB020C9444258091BB028F7E806253
:1037E0008093BB020C94442583E50E94E94788231B
:1037F000F1F00E9451B36093FB037093FC0380933C
:10380000FD039093FE030E94644720E030E04AE706
:1038100054E40E94D1C10E9477C760930102709363
:10382000020280930302909304020C944425809139
:103830000C0E84FF02C00C94712780910E0E87FF3E
:1038400002C00C94712780910F0E837011F00C94BC
:1038500071270C94A32783E50E949B47882311F4CA
:103860000C9444250E9451B36093FB037093FC03B6
:103870008093FD039093FE030E94644720E030E0B4
:103880004AE754E40E94D1C10E9477C76093B50211
:103890007093B6028093B7029093B8020C944425BB
:1038A0000E94378A87FF02C00C94442590910C0E29
:1038B00094FD04C090910E0E97FF0AC0ECE8CE2E46
:1038C000E2E0DE2EF6E2EF2EFDE0FF2E10E00AC071
:1038D00090910F0E937091F7682F81E00E94608A9B
:1038E0000C944425D6018D916D010E94E9478823EF
:1038F00009F46DC0133009F063C00E9464474B01A6
:103900005C0120E030E040EA51E40E946BC187FF97
:103910004EC0A50194016091460D7091470D8091B4
:10392000480D9091490D0E94FEC62B013C019B0160
:10393000AC016091E9067091EA068091EB069091E6
:10394000EC060E94D1C16093E9067093EA06809369
:10395000EB069093EC06A30192016091560D7091D5
:10396000570D8091580D9091590D0E94D1C16093CF
:10397000560D7093570D8093580D9093590D60918B
:10398000D5067091D6068091D7069091D8060E94F0
:1039900070C1A30192010E94D1C10E9477C76093B8
:1039A000D5067093D6068093D7069093D80680925A
:1039B000460D9092470DA092480DB092490D07C058
:1039C0000E946447F701648B758B868B978B1F5F12
:1039D000F4E0EF0EF11C143009F084CF0E94C96AA4
:1039E0000C9444250E94A7B38EEF90E10E94C3B4CB
:1039F0000C9444250E94879E0C9444258091100EBF
:103A00009091110E009711F40C944425DC012C9137
:103A1000222311F40C9444250E94EA490C94442575
:103A20000091100E1091110E94E0F12C40E0915095
:103A300021F1F8018081282F2B7F213421F421816D
:103A40002133D9F407C08035C1F4818180538A3095
:103A500048F013C0813421F0853421F441E002C0E4
:103A6000FF24F39498012E5F3F4F89012F5F3F4F52
:103A7000F80180818032C9F3DACF41110E94DF4D15
:103A8000FF2021F089E994E00E94E834C8010E94F7
:103A90007D360C9444250E947D5A0C94442581E087
:103AA00080932B0480932A040E949F5A0C944425EF
:103AB00010922B0410922A040E949F5AE5C782E4B8
:103AC0000E949B47882351F08091B9029091BA02DD
:103AD000892B31F00E943C47182F03C010E001C031
:103AE0001FEF85E50E949B47882351F08091B90222
:103AF0009091BA02892B31F00E943C47082F03C0F5
:103B000000E001C00FEF82E50E949B47882349F047
:103B10008091B9029091BA02892B29F00E943C470A
:103B200003C080E001C08FEF89830A831B83CE012D
:103B300001960E94F647A8C70E94378A182F87FD72
:103B4000A3C70091D31284E40E94E947882311F4AB
:103B50000C94A6270E9464476B017C0120E030E0B2
:103B6000A9010E946BC1882341F124E01202F001F7
:103B70001124E153FD4EC082D182E282F38220E023
:103B800030E0A9016091CF127091D0128091D112D2
:103B90009091D2120E946BC181110CC080E090E024
:103BA000A0EEBFE38093CF129093D012A093D112D6
:103BB000B093D21201E00C94A62780E08093D31238
:103BC0000E94446F61C70E94378A87FD5DC77CE809
:103BD000E72E72E0F72E06E21DE0D7018D917D0100
:103BE0000E949B47882359F00E9464470E9477C730
:103BF000F80160837183828393830E94826A0C5FE1
:103C00001F4FFDE006331F0741F73EC70E94378A6A
:103C100087FD3AC76CE8E62E62E0F62E06E21DE06C
:103C2000D7018D917D010E949B47882339F00E9426
:103C30006447F80164A375A386A397A30C5F1F4F85
:103C4000FDE006331F0761F71FC780910D0E87FF48
:103C500002C00C94AC2780910E0E8E7011F00C9463
:103C6000AC2740915A0D50915B0D60915C0D7091A5
:103C70005D0D8DE994E00E94FD4C40915E0D5091E8
:103C80005F0D6091600D7091610D85E593E20E947A
:103C9000FD4C4091620D5091630D6091640D7091E7
:103CA000650D85E59DE10E94FD4C8AE00E94E134AE
:103CB000EBC680910C0E827111F00C94F22780916A
:103CC0000E0E8C7811F00C94F22780910F0E8370F9
:103CD00011F00C94F227D8C65EE2E52E54E0F52EE2
:103CE00010E088E5810F0E949B47882359F00E94CD
:103CF0006447D7016D937D938D939C931397812F88
:103D00000E9491721F5FB4E0EB0EF11C133049F773
:103D10000C945815C0903702D0903802E0903902C8
:103D2000F0903A0280913B0290913C02A0913D02BA
:103D3000B0913E028FA798ABA9ABBAAB4090F912F5
:103D40005090FA126090FB127090FC12A301920145
:103D50006091330270913402809135029091360265
:103D60000E9404C66C8F7D8F8E8F9F8F8090FD1276
:103D70009090FE12A090FF12B0900013A501940144
:103D8000C701B6010E9404C668A379A38AA39BA3B6
:103D9000C0900113D0900213E0900313F09004132D
:103DA000A70196016FA578A989A99AA90E9404C6BE
:103DB0006CA37DA38EA39FA38091430290914402A4
:103DC000A0914502B09146028FA798ABA9ABBAABC0
:103DD0008091470290914802A0914902B0914A0215
:103DE0008BAB9CABADABBEABA301920160913F022C
:103DF0007091400280914102909142020E9404C65B
:103E000069837A838B839C832FA538A949A95AA9F2
:103E1000C501B4010E9404C66D837E838F83988799
:103E20002BA93CA94DA95EA9C701B6010E9404C6F1
:103E300069877A878B879C870E94DF4D8FEE94E09D
:103E40000E94E83483E50E949B47882321F00E946A
:103E500050478093310280913102882319F085EB1D
:103E600092E002C08CE890E20E94E83449E352E21A
:103E700067EE74E0CE014C960E94514D40E050E058
:103E80006FED74E0CE0101960E94514DFDC583E5B2
:103E90000E94E947882331F00E94604790934C02CA
:103EA00080934B0280910C0E90910D0EA0910E0EFE
:103EB000B0910F0E892B8A2B8B2B09F0E5C56091F1
:103EC0004B0270914C028FEF94E00E94B34D85E25B
:103ED0000E94E1348AE00E94E134D6C50E94378A0C
:103EE000F82E87FDD1C583E50E94E9470F2D0F2CE1
:103EF000000C110B882361F10E946047F801EE0F5E
:103F0000FF1FEF5AFD4F91838083000F111F000F99
:103F1000111FD801AD5ABD4F7D01BC01990F880B0F
:103F2000990B0E9472C12AE037ED43E25CE30E94E4
:103F3000D1C1F801EB53F94F208131814281538186
:103F40000E94D1C1F70160837183828393839CC5F2
:103F50000E94DF4D85E40E94E13480E38F0D0E94D2
:103F6000E134F801EE0FFF1FEF5AFD4F60817181C0
:103F700083E095E00E94B34D85E20E94E1348AE03F
:103F80000E94E13481C58AE50E94E947811106C09B
:103F900083E50E94E947882309F44DC00E946447E5
:103FA00020E030E040E050EC0E946BC187FF02C08F
:103FB0000C9470280E94644720E030E040E050E418
:103FC0000E9464C8181614F40C9469280E9464476F
:103FD0006B017C0184E00E94EA7281112CC0209167
:103FE000420D3091430D4091440D5091450DC70154
:103FF000B6010E94D1C10E9470C72091C3023091C6
:10400000C402260F371F3093C4022093C3022091AD
:10401000AD033091AE03620F731F7093AE036093D4
:10402000AD030E9451B36093FB037093FC03809334
:10403000FD039093FE0380910E0E87FF02C00C9447
:10404000772880910F0E837011F00C9477280E94CE
:10405000DF4D4091A7125091A8126091A912709162
:10406000AA128BE095E00E94FD4C8AE00E94E134A8
:104070000BC585E40E942DB1811173C080E50E94BB
:104080009B47882351F00E9464476093380E7093D9
:10409000390E80933A0E90933B0E89E40E949B4721
:1040A000882381F00E9464472CEA35EC47E25EE306
:1040B0000E94D1C160933C0E70933D0E80933E0EE2
:1040C00090933F0E84E40E949B47882381F00E94D6
:1040D00064472CEA35EC47E25EE30E94FEC660933B
:1040E000400E7093410E8093420E9093430E0E94B7
:1040F000DF4D4091380E5091390E60913A0E70911B
:104100003B0E80E295E00E94FD4C2CEA35EC47E244
:104110005EE360913C0E70913D0E80913E0E909159
:104120003F0E0E94FEC6AB01BC018CE195E00E94EF
:10413000FD4C2CEA35EC47E25EE36091400E709155
:10414000410E8091420E9091430E0E94D1C1AB016D
:10415000BC0188E195E00E94FD4C8AE00E94E134B8
:1041600093C40E94DB4D84E295E00E94E8348CC445
:1041700080E50E949B47882351F00E94644760932A
:10418000EE037093EF038093F0039093F10389E4BF
:104190000E949B47882381F00E9464472CEA35ECFB
:1041A00047E25EE30E94D1C16093F2037093F30390
:1041B0008093F4039093F50384E40E949B47882343
:1041C00081F00E9464472CEA35EC47E25EE30E94EE
:1041D000FEC66093F6037093F7038093F803909301
:1041E000F9030E94DF4D4091EE035091EF0360917F
:1041F000F0037091F10380E295E00E94FD4C2CEAFF
:1042000035EC47E25EE36091F2037091F303809135
:10421000F4039091F5030E94FEC6AB01BC018CE152
:1042200095E00E94FD4C2CEA35EC47E25EE360919C
:10423000F6037091F7038091F8039091F9030E94BF
:10424000D1C1AB01BC0188E195E00E94FD4C8AE040
:104250000E94E13419C483E50E949B47182F8823EC
:1042600071F00E9464470E9470C770935802609377
:10427000570221E0672B09F020E02093FE0680E53D
:104280000E949B47882359F0209157023091580291
:10429000232B11F00E9450478093FE06F5C31111A5
:1042A000F3C30E94DF4D8FE495E00E94E8348091D3
:1042B000FE06882319F088E197E102C086E395E0C5
:1042C0000E94E83460915702709158028EE395E0A5
:1042D0000E94B34D8AE395E00E94E834D5C30E9462
:1042E000185CD2C30E94E56BCFC388E50E949B4750
:1042F000D82E89E40E949B47C82E882321F00E9473
:104300006047A82E28C0DD2011F10E94644720914B
:10431000F9123091FA124091FB125091FC120E9456
:1043200003C620E030E040E251E40E9403C620E0F2
:1043300030E04CE852E40E9404C621EA3EE04AEE36
:104340005BE30E94D1C10E9470C7633018F0AA24B9
:10435000AA9401C0A62E89E50E949B47F82E8AE404
:104360000E949B47182F882321F00E946047B82E97
:1043700028C0FF2011F10E9464472091FD12309166
:10438000FE124091FF12509100130E9403C620E0DC
:1043900030E040E251E40E9403C620E030E04CE807
:1043A00052E40E9404C621EA3EE04AEE5BE30E942A
:1043B000D1C10E9470C7633018F0BB24BA9401C009
:1043C000B62E8AE50E949B47E82E811105C081E543
:1043D0000E949B47082F01C000E0C11001C010E0FF
:1043E000212F30E0D11001C0F12C2F0D311D2130D3
:1043F000310521F4E11009C0011107C00E94DB4D15
:1044000082E695E00E94E8343FC3A7FC02C0B7FEF5
:1044100007C00E94DB4D88E693E00E94E83434C375
:104420000E946447EA2CAA0CFF08AB2DBB0CBB0B07
:10443000002391F0F701EE0FFF1FEE0DFF1DEA0FB5
:10444000FB1FEE0FFF1FEE0FFF1FE555FD4E2081F6
:1044500031814281538103C020E030E0A90187010E
:10446000000F111F0E0D1F1D0A0F1B1F000F111F24
:10447000000F111F05551D4E0E9404C6D8016D93F3
:104480007D938D939C931397FFC20E94DAB08111A4
:10449000FBC20DE517E1E7E1FEE0F8ABEFA79E01F7
:1044A0002F5F3F4F1901FBE0CF2EFAE1DF2E79019C
:1044B000F8016591759185919491AFA5B8A98D90FA
:1044C0009D90AD90BD90B8ABAFA7A50194010E949F
:1044D00003C62B013C01F7016083718382839383C0
:1044E00020E030E040EA51EC0E9464C887FD0AC039
:1044F00020E030E040EA51E4C301B2010E946BC108
:1045000018162CF4F601849118160CF4F7C5D7018F
:104510008D909D90AD90BD907D0120E030E040EA0F
:1045200051ECC501B4010E9464C887FDF2C520E0CA
:1045300030E040EA51E4C501B4010E946BC1181695
:104540000CF0EEC5E6C50E94E9649EC20E9467AD0C
:104550009BC261E083E50E94AE8E8F250E9475ADFF
:1045600093C281E080939A120E94BEA010929A1288
:10457000882309F489C20E94DF4D80EB95E00E94F8
:10458000E83482C28091471282FF04C08064809325
:1045900047127AC283FF78C20E9489B475C282E44E
:1045A0000E94E947882329F00E94808E9B01AC017C
:1045B00003C020E030E0A90169017A012337310509
:1045C0004105510509F455C0F8F42632310541057D
:1045D000510509F4D3C568F423313105410551056E
:1045E00009F4C6C5283131054105510509F048C017
:1045F00036C0293331054105510559F120363105C1
:1046000041055105E9F52BC02038F1E03F07410590
:10461000510529F158F4203C310541055105F9F0C7
:104620002A3F310541055105E9F02AC0203492E0C6
:1046300039074105510599F02038A4E03A074105B2
:10464000510569F0243FB1E03B074105510551F0A8
:1046500017C0C12C71EED72EE12CF12C59C0A4E665
:10466000B0E002C0A8EEB3E00E94B3C56B017C01CC
:1046700007C0C12C62ECD62EEE24E394F12C48C086
:10468000C114E1EEDE06E104F10409F441C0FCF4DA
:1046900020E8C21625E2D206E104F104C9F14CF487
:1046A00080E6C81689E0D806E104F10409F05CC090
:1046B0002FC0C1149BE4D906E104F10449F1C114EF
:1046C000A6E9DA06E104F10409F04EC021C0B0E920
:1046D000CB16B0EDDB06B3E0EB06F104C9F044F411
:1046E000C114F2ECDF06F1E0EF06F104E9F510C0C9
:1046F00020E2C21621EAD20627E0E206F10441F0E8
:1047000030E4C31632E4D3063FE0E306F10461F57A
:104710006DE97FEF80E50E949B8A8D3909F434C5ED
:10472000882309F431C580E0909103069093040634
:10473000882309F4A9C18091C1008F7E8093C100B4
:104740008091C100877F8093C1008091C1008F77E5
:104750008093C1008091C1008F7D8093C100C7010B
:10476000B6010E945A3B90C10E94DF4D8BEB95E051
:104770000E94E83489C10E94378A082F87FD84C1CE
:1047800085E50E949B478823A9F1E02E002E000CAE
:10479000FF080E9464474B015C0120E030E0A90162
:1047A0000E9464C887FF04C0B7FAB094B7F8B09409
:1047B000C70153E0880F991F5A95E1F7DC01A15614
:1047C000BD4E7D01FD0180829182A282B38220E0F4
:1047D00030E048E453E4C501B4010E9464C81816EF
:1047E0004CF480E090E0A8E4B3E4F7018083918387
:1047F000A283B3838CE40E949B47882309F444C1BD
:10480000002E000C110B0E9464476B017C0120E01C
:1048100030E0A9010E9464C887FF04C0F7FAF09451
:10482000F7F8F09420E030E048E453E4C701B60123
:104830000E9464C8980143E0220F331F4A95E1F7B4
:10484000F901E156FD4E18162CF0C482D582E6829D
:10485000F7821AC180E090E0A8E4B3E484839583F2
:10486000A683B78311C1A090FF06B0900007C09047
:104870000107D09002078BE40E94E947882339F1B1
:104880000E9464477B018C0120E030E0A9010E9476
:1048900064C887FD0AC020E030E040E251E4B7017F
:1048A000C8010E946BC11816A4F48FE30E94E13482
:1048B0008BE40E94E1348AEF95E00E94E83482EFB5
:1048C00095E00E94E83486E29DE10E94E83475019B
:1048D00086019701A801B501C6010E946BC188231A
:1048E00061F00E94E56BC701D8018093FF069093A9
:1048F0000007A0930107B093020780910C0E9091DE
:104900000D0EA0910E0EB0910F0E892B8A2B8B2BC2
:1049100009F0BAC00E94DF4D4091FF065091000798
:1049200060910107709102078EE096E00E94FD4CB5
:104930008AE00E94E134A8C081E08093C00560E075
:1049400083E50E94AE8E81119FC00E9441649CC08D
:104950000E94B85A6B017C016D3371058105910588
:1049600020F089E496E00E9430A085E496E00E9461
:1049700030A081E396E00E94E8342DE3C216D10412
:10498000E104F10440F119828FEF8A831B82CE018A
:1049900001960E94F64781E08093C50220E030E056
:1049A0004DE156E066E276E082E00E94BA4940E0DE
:1049B00060E375E780E090E00E941C3B8091C502B7
:1049C000882349F019821A821B82CE0101960E9427
:1049D000F6471092C50289E196E090933C048093DB
:1049E0003B0452C00E94A3B44FC00091120E10911C
:1049F000130E9091250D26E53DE13A83298381E050
:104A0000292F207295FF80E08B83222331F064EE02
:104A100078E1CE0101960E94908E8091250D85FF50
:104A20000CC0602F002E000C770B8DE998E10E94DE
:104A3000B34D81EA93E10E94E8340E9451B3609340
:104A4000FB037093FC038093FD039093FE0300230C
:104A5000A1F00E94DF4D84E50E94E134B801772780
:104A6000072E000C880B990B0E94E63580E20E940D
:104A7000E13484E295E00E94E834CE0101960E9480
:104A8000B1B402C00E94A3B43BAD311102C00E9478
:104A9000316488AD8093BC028BC38091250D85FF66
:104AA00004C08DE493E00E94E834CE018C960E940D
:104AB000B1B4EACF0E94E56B109232029091160ECB
:104AC0009AAF80E00E94604D0E9451B36093FB0357
:104AD0007093FC038093FD039093FE0380914D023D
:104AE00090914E02A0914F02B09150028093BF026C
:104AF0009093C002A093C102B093C20280914B0276
:104B000090914C029093BE028093BD0284E690E0A7
:104B100090934C0280934B0281E080932B040E947F
:104B20009F5A8AE50E949B47082F88E50E949B4771
:104B3000182F89E50E949B47181386C1011711F0B1
:104B4000312E83C13324339411E031E03FAB82E551
:104B50000E94E947882369F00E9464476B017C0149
:104B600020E030E0A9010E946BC1882309F463C0F2
:104B700006C0C12CD12C90EAE92E90E4F92E111137
:104B800003C0332009F432C18091250D85FF09C08F
:104B9000B701A60181E393E00E94FD4C8AE00E94E8
:104BA000E13420E030E0A901C701B6010E9404C64B
:104BB000962EA72EB82EC92ED0901F0EE090200E54
:104BC000F090210E0091220E2D2D3E2D4F2D502FB5
:104BD0000E946BC187FD03C0D92C75010C2D80E0AC
:104BE00090E0A0EAB1E48C8F9D8FAE8FBF8F20E064
:104BF00030E048EC53E46D2D7E2D8F2D902F0E94D8
:104C00006BC187FF05C04D2D3E2D2F2D902F04C069
:104C100040E030E028EC93E4C42ED32EE22EF92EAF
:104C2000C982DA82EB82FC82BE01645E7F4FCE01D4
:104C300001960E948177112309F4D3C0332009F42F
:104C4000CDC01092170E1092180E1092190E1092DD
:104C50001A0E10921B0E10921C0E10921D0E109226
:104C60001E0E0E94C977EBE0FAE184918CAFE1E57A
:104C7000F7E1C590D590E590F490E5E5F7E18590F2
:104C80009590A590B490A7019601C501B4010E942A
:104C90006BC187FF05C0A7019601C501B40104C01F
:104CA000A5019401C701B6010E94FEC62B013C017B
:104CB000E4EFF9E185919591A591B4918FA798AB17
:104CC000A9ABBAABE0EFF9E185919591A591B491CB
:104CD0008BAB9CABADABBEAB9C01AD016FA578A916
:104CE00089A99AA90E9464C8181634F42BA89CA913
:104CF00099AF0DA91EA905C02FA4A8A9A9AF09A9FC
:104D00001AA9A3019201C301B2010E94D1C120E0FE
:104D100030E040E85FE30E9404C60E94B2C8222D42
:104D200039ADA8010E94D1C168A779A78AA79BA71E
:104D3000ECE0FAE1149120E030E040EC5FE3C501E3
:104D4000B4010E94D1C14B015C01612F110F770B9F
:104D5000880B990B0E9472C19B01AC01C501B40183
:104D60000E94D1C169837A838B839C8320E030E0E9
:104D700040EC5FE3C701B6010E94D1C16B017C0129
:104D8000BCAD6B2FBB0F770B880B990B0E9472C1C8
:104D90009B01AC01C701B6010E94D1C16C8F7D8F10
:104DA0008E8F9F8FAE01485D5F4FBE016F5F7F4F5B
:104DB000CE014C960E945F770E94AA5A1092170E5D
:104DC0001092180E1092190E10921A0E10921B0EBD
:104DD00010921C0E10921D0E10921E0E80E00E946A
:104DE000D777332019F081E00E94D777EFA9EE231F
:104DF00019F082E00E94D7770E94C97780912A0437
:104E000080932B048AAD0E94604D8091BF029091E7
:104E1000C002A091C102B091C20280934D02909352
:104E20004E02A0934F02B09350028091BD02909128
:104E3000BE0290934C0280934B020E943979CE01BE
:104E40008C960E94B1B420CE382E0FAB80CE88E570
:104E50000E949B4781115F9889E50E949B478111C1
:104E60008A988AE50E949B47882331F08091080147
:104E7000817080930601479885E40E949B478823B0
:104E800009F402CE129800CE81E993E00E94DA493B
:104E90005F988A98809108018170809306014798F5
:104EA0001298F2CD0E942C47AB01BC0140934312F3
:104EB0005093441260934512709346128FE490E130
:104EC0000E949B95E1CD0E9464470E9470C7CB0170
:104ED0000E94315761E081E00E941F3D11E00C9477
:104EE000C91A0E94E56B88E50E949B47882331F030
:104EF0005F9A80912D048E7F80932D0489E50E9416
:104F00009B47882331F08A9A80912D048D7F80936E
:104F10002D048AE50E949B47882361F08091080157
:104F20008095817080930601479A80912D048B7F34
:104F300080932D0485E40E949B47882309F4A4CD27
:104F40000E947534A1CD0E94A56D9ECD602F83E592
:104F50000E94AE8E0C94DE1D83E50E94E9478823F3
:104F600091F00E94644760935A0D70935B0D80939B
:104F70005C0D90935D0D6093620D7093630D809353
:104F8000640D9093650D80E50E94E947882351F0F8
:104F90000E94644760935A0D70935B0D80935C0D83
:104FA00090935D0D82E50E94E947882351F00E94AD
:104FB000644760935E0D70935F0D8093600D9093D6
:104FC000610D84E50E94E947882309F45DCD0E94C4
:104FD00064476093620D7093630D8093640D9093AA
:104FE000650D52CD82E40E949B47882351F00E94B8
:104FF000808E6093360D7093370D8093380D9093AB
:10500000390D83E50E949B47882351F00E94644735
:105010006093660D7093670D8093680D9093690D92
:1050200084E50E949B47882351F00E946447609367
:105030006A0D70936B0D80936C0D90936D0D88E5E8
:105040000E949B47882351F00E9464476093DD06CD
:105050007093DE068093DF069093E00689E50E9458
:105060009B47882351F00E9464476093E106709348
:10507000E2068093E3069093E4068AE50E949B474C
:105080008823B1F00E9464476093E5067093E606BA
:105090008093E7069093E8062DEC3CEC4CEC5DE346
:1050A0000E946BC1181624F08DEA94E00E94E83447
:1050B00085E40E949B47882309F4E6CC0E9464475C
:1050C0006093E9067093EA068093EB069093EC06F2
:1050D000DBCCC12CD12CE12C90E4F92E0C94EA1FEE
:1050E000C12CD12CE12C80ECF82E0C94EA1F82E527
:1050F0000E949B4781110C942720C6CCB7FAB0942C
:10510000B7F8B094D7018D929D92AD92BC9213974F
:10511000FEC90E94DB4D82E995E00E94E834B4CCE0
:105120000C5F1F4FBFEFCB1ADB0AE7E109361E0702
:1051300009F0BEC9EEE2EE2EE4E0FE2E10E0F10131
:1051400081919191A191B1911F01F7018193919367
:10515000A193B1937F01812F0E9491721F5F133041
:1051600071F70E94397982E895E00E94DA498CCC87
:10517000C12C9BE4D92EE12CF12CCACAC12C86E9A2
:10518000D82EE12CF12CC4CA0E94DF4D60E389EED9
:1051900095E00E94C04D86ED95E00E94E834C7017D
:1051A000B6010E94E6358AE00E94E13481E0BCCA83
:1051B000EC960FB6F894DEBF0FBECDBFDF91CF9156
:1051C0001F910F91FF90EF90DF90CF90BF90AF9025
:1051D0009F908F907F906F905F904F903F902F9017
:1051E00008952F923F924F925F926F927F928F928B
:1051F0009F92AF92BF92CF92DF92EF92FF920F9366
:105200001F93CF93DF93CDB7DEB764970FB6F894B3
:10521000DEBF0FBECDBF8FEF9FEF909389008093CD
:1052200088000AE00983212C312C789480911603A0
:1052300090911703A0911803B0911903892B8A2B21
:105240008B2B71F080910D0290910E02A0910F02B4
:10525000B0911002892B8A2B8B2B09F084C2DFC1FD
:10526000809107138823D1F01092071380910513C2
:1052700090910613892B31F31092061310920513A7
:105280001092CE029091D8108091D9109817D1F237
:105290008091D9108F5F8F708093D9108091051302
:1052A00090910613892B71F24091120350911303D0
:1052B000609114037091150380910E0390910F0378
:1052C000A0911003B09111030091040310E020E0BD
:1052D00030E0841B950BA60BB70B081719072A079C
:1052E0003B0710F4D901C801E82F840F951FA61FB2
:1052F000B71F8093120390931303A0931403B093EA
:1053000015031C8A1B8AF1E00091D9021091DA0280
:105310002091DB023091DC028091E9029091EA0257
:10532000A091EB02B091EC02080F191F2A1F3B1F3E
:105330000093E9021093EA022093EB023093EC020F
:1053400037FD31C08091C602082E000C990BAA0BC4
:10535000BB0B40911413509115136091161370916B
:105360001713840F951FA61FB71F809314139093D4
:105370001513A0931613B09317138091D502909133
:10538000D602A091D702B091D802B901A801481B5A
:10539000590B6A0B7B0B4093E9025093EA0260932E
:1053A000EB027093EC024091DD025091DE026091BD
:1053B000DF027091E0028091ED029091EE02A091E7
:1053C000EF02B091F002480F591F6A1F7B1F4093F4
:1053D000ED025093EE026093EF027093F00277FDBE
:1053E00031C08091C702082E000C990BAA0BBB0B91
:1053F000C0901813D0901913E0901A13F0901B135B
:105400008C0D9D1DAE1DBF1D809318139093191315
:10541000A0931A13B0931B138091D5029091D602DA
:10542000A091D702B091D8024A015B01881A990A6B
:10543000AA0ABB0A8092ED029092EE02A092EF02BD
:10544000B092F002C090E102D090E202E090E3025C
:10545000F090E4028091F1029091F202A091F302A7
:10546000B091F4028C0D9D1DAE1DBF1D8093F10205
:105470009093F202A093F302B093F402B7FD31C00F
:10548000C090C8020C2C000CDD08EE08FF088090CC
:105490001C1390901D13A0901E13B0901F13C80CE6
:1054A000D91CEA1CFB1CC0921C13D0921D13E09265
:1054B0001E13F0921F13C090D502D090D602E09038
:1054C000D702F090D8024C015D018C189D08AE08FF
:1054D000BF088092F1029092F202A092F302B09281
:1054E000F4028090F5029090F602A090F702B0903E
:1054F000F802C090E502D090E602E090E702F0905A
:10550000E802C80CD91CEA1CFB1CC092F502D09220
:10551000F602E092F702F092F802F7FC3AC08090AF
:10552000C902082C000C9908AA08BB084090201357
:10553000509021136090221370902313840C951CBB
:10554000A61CB71C8092201390922113A0922213C4
:10555000B09223138090D5029090D602A090D702EB
:10556000B090D802C818D908EA08FB08C092F50222
:10557000D092F602E092F702F092F802E0902C044A
:10558000F0900203E3FE02C0FA9401C0F394F0929B
:105590000203F1110CC0E0908400F0908500AB880C
:1055A000BC88EA18FB08F2E0EF16F104A0F337FF1D
:1055B000889A77FF8E9AB7FD07C0F0910B01F0959E
:1055C000F870F0930901419A8090840090908500D2
:1055D0009C8A8B8AE0908400F0908500AB88BC8820
:1055E000EA18FB08F2E0EF16F104A0F337FF889801
:1055F00077FF8E98B7FD06C080910B01887080936D
:1056000009014198EE2331F080908400909085004C
:105610009C8A8B8AE150F0E009F076CE13CE80911F
:105620000303882309F454C080901203909013035D
:10563000A0901403B0901503C090FE02D090FF021A
:10564000E0900003F090010340910203C814D904D4
:10565000EA04FB0480F48091CF029091D002209163
:10566000D3023091D4022817390728F441504093CF
:105670000203019714C08C149D04AE04BF04E0F42F
:105680008091CF029091D0022091D1023091D2022C
:105690008217930788F44F5F40930203019690931B
:1056A000D0028093CF024091090250910A0260918A
:1056B0000B0270910C020FC0AA24AA94BA2C6501A7
:1056C000A0920902B0920A02C0920B02D0920C0280
:1056D0004FEF5FEFBA018091020318162CF4169A6F
:1056E00080E090E021E021C08823D1F31698F8CF24
:1056F000222301F1149A80918400909185002091D9
:10570000020327FF21C02F5F209302032091840012
:1057100030918500281B390B22303105B8F31498DD
:1057200020910203211112C020E0309102033111B7
:10573000DFCF11C02091840030918500281B390BE8
:1057400022303105B8F3D6CF2150DECF80918400CE
:1057500090918500E9CF40930D0250930E02609323
:105760000F02709310028091160390911703A0917D
:105770001803B0911903892B8A2B8B2B11F00C94F1
:105780004F32A0910513B0910613109711F40C94A9
:105790006E348090120390901303A0901403B09085
:1057A000150340910E0350910F0360911003709107
:1057B000110384169506A606B706D8F010920613B4
:1057C000109205131092CE029091D8108091D910AA
:1057D000981711F40C946E348091D9108F5F8F70EC
:1057E0008093D91000EDC02E07E0D02EE12CF12CD3
:1057F0002CC440910A0350910B0360910C037091EB
:105800000D03481559056A057B0508F4A7C14091A9
:105810000603509107036091080370910903D59620
:105820000D911D912D913C91D8974017510762071A
:10583000730708F074C1411551056105710549F4FC
:105840008090CA029090CB02A090CC02B090CD0282
:105850006CC1F12C0A81842E952F862F1B81FE812D
:10586000EF8138852985BC80CD80E091D412E89DF8
:10587000C12CFF273091D512389DC00CF11D10901E
:10588000D612189CF00DE99FC00CF11D399FF00D48
:10589000E89FF00D1C2DBF2E1C9DE12D33272227E4
:1058A0001F9FE00D311D2F1DBC9CE00D311D2F1DD4
:1058B000BF9E300D211D132FB22E1C9D012D3327AD
:1058C00022271F9F000D311D2F1DBC9C000D311D77
:1058D0002F1DBF9E300D211D132FB22EEE2780905D
:1058E000CA029091CB028091CC02009026030F282F
:1058F00009F484C030912203319FE1198F089F0978
:105900008F0920912303219FE01981089F098F09A6
:1059100000912403019F801891098F093B9DE01994
:1059200081089F098F092B9D801891098F090B9D74
:10593000901981091C9D012D332722271F9F000DDF
:10594000311D2F1DBC9C000D311D2F1DBF9E300D24
:10595000211D132FB22E30911E03319FE10D8F1C9C
:105960009F1D8F1D20911F03219FE00D811C9F1DF6
:105970008F1D00912003019F800C911D8F1D3B9D69
:10598000E00D811C9F1D8F1D2B9D800C911D8F1D77
:105990000B9D900D811D1C9D012D332722271F9FDC
:1059A000000D311D2F1DBC9C000D311D2F1DBF9EF4
:1059B000300D211D132FB22E30911A03319FE119A2
:1059C0008F089F098F0920911B03219FE0198108EF
:1059D0009F098F0900911C03019F801891098F096D
:1059E0003B9DE01981089F098F092B9D8018910923
:1059F0008F090B9D901981090C94802D3091220301
:105A0000319FE10D8F1C9F1D8F1D20912303219F2E
:105A1000E00D811C9F1D8F1D00912403019F800CB0
:105A2000911D8F1D3B9DE00D811C9F1D8F1D2B9D8A
:105A3000800C911D8F1D0B9D900D811D1C9D012DB6
:105A4000332722271F9F000D311D2F1DBC9C000DE9
:105A5000311D2F1DBF9E300D211D132FB22E3091F1
:105A60001E03319FE1198F089F098F0920911F03A1
:105A7000219FE01981089F098F0900912003019F50
:105A8000801891098F093B9DE01981089F098F09B2
:105A90002B9D801891098F090B9D901981091C9DE0
:105AA000012D332722271F9F000D311D2F1DBC9C68
:105AB000000D311D2F1DBF9E300D211D132FB22E45
:105AC00030911A03319FE10D8F1C9F1D8F1D209176
:105AD0001B03219FE00D811C9F1D8F1D00911C0346
