:100000000C94FE260C942F270C942F270C942F274A
:100010000C942F270C942F270C942F270C942F2708
:100020000C942F270C942F270C942F270C942F27F8
:100030000C942F270C942F270C942F270C942F27E8
:100040000C942F270D94027D0C942F270C942F27AE
:100050000C942F270C942F270C949DF30D94073F9D
:100060000C942F270C94457F0C943B7F0C942F27E6
:100070000C942F270C942F270C942F270C942F27A8
:100080000C942F270C942F270C942F270C942F2798
:100090000C942F270C942F270C942F270C942F2788
:1000A0000C942F270C942F270C942F270C942F2778
:1000B0000C942F270C942F270C942F270C942F2768
:1000C0000C942F270C942F270C942F270C942F2758
:1000D0000C942F270C942F270C942F270C942F2748
:1000E0000C942F274F525652095311545F5568559F
:1000F00078557B7F8D7F9F7FB07FB87FEB7FBC7F04
:10010000EB7FC07FC47FEB7FC87FCC7FD07FD97F60
:10011000EB7FE47F6D015702AF023102DF023F0245
:10012000C7024702C5028501DD013901F102A102C2
:10013000FD01AB017D027102A10187019901450119
:1001400005022B02F502950271026B01FB014701CA
:100150007F01E90259019F026F0165015502BB0150
:100160000B02F70283017F029301730165012302F1
:10017000CB02BD02084AD73B3BCE016E84BCBFFD1B
:10018000C12F3D6C74319ABD56833DDA3D00C77F67
:1001900011BED9E4BB4C3E916BAAAABE0000008000
:1001A0003F05A84CCDB2D44EB93836A9020C50B98F
:1001B000918688083CA6AAAA2ABE000000803F07B4
:1001C000634236B79BD8A71A39685618AEBAAB55F2
:1001D0008C1D3CB7CC5763BD6DEDFD753EF61772B7
:1001E00031BF000000803F08000000BE9224491289
:1001F0003EABAAAA2ABECDCCCC4C3E00000080BEAD
:10020000ABAAAAAA3E00000000BF000000803F0089
:1002100000000000084178D3BB4387D1133D190E7D
:100220003CC3BD4282AD2B3E68EC8276BED98FE1E5
:10023000A93E4C80EFFFBE01C4FF7F3F00000000DD
:1002400000000C945F550D94AA700C947B7F0D9464
:100250007E530D94B9580C9484950D94C5700D94EB
:1002600070300C94455C0C944AE00C9492EF0D9421
:1002700005380D945A3E0D9470750C94188F0D949A
:100280006B530C9456520D94F1370D94C8780D941D
:10029000E8780C9444940D944F950D94E9370D949F
:1002A000A93E0C94728F0D945E700C94E0800D94B6
:1002B000522D0D946F790D949E700C94C87F0D94FF
:1002C000B5720D94ED370D94022E0D94FC790C94BB
:1002D0006C950D94FD370D94E0780D946C3E0D9463
:1002E00083790D94F8700D94D4790D94BD3E0D94DE
:1002F0009C3E0C946FE10D9452530C94CC7F0D9462
:1003000065790D949F240D94B1790D946A3E0D94F6
:10031000BE780D94B0700D94BF530D94C0700C94C2
:100320006B940C948B8F0D94CA790D944B540D944F
:10033000D9700D94C4780C94B2800C94E68E0C9411
:1003400070AF0D94BA780C94D97F0C949F7F0D9464
:10035000D83E0C94F4980D94A9780C9422E30C9454
:1003600071B10C94F3E10C9478550D9430320C94E7
:10037000E47F0D944D630D9495790C94B87F0D94A2
:10038000F9370D945F360C94EFE90D9453310C94CA
:1003900078950D9439540D947E360C94338F0D94CA
:1003A00068700D9470670C9423940D941E360D9410
:1003B0005D360C9411540C94C9800D94573E0C94E6
:1003C000E0A90D9464340D94723E0C9447E30D94AF
:1003D000DD370D94D7530C9402950C944F520D9425
:1003E000DF2E0D9451540C94BBE90C948D7F0C942A
:1003F00018E70C9423AA0D94E4780D94A5780D9435
:10040000B0530C94D07F0C94698C0D94CC780D94DF
:10041000BB580C94E6F20D949D790C9484900C9446
:100420004C940C9455920D942D540D94B3550D94F9
:10043000CE530C94BF8E0C94B07F0D9469540D94E0
:10044000BB700C94BDEB0D94DE790C9409530C94A5
:10045000DD800C94F1E90D94D2780D949F310C94C9
:10046000468F0D946F3E0D942F2D0C94E5B20C9495
:10047000BC7F0C94F5E80D94AF710C94A3900D948F
:100480004E3E0D94D2360C9497900C9411950D9489
:100490005D3E0C9483E30C94C07F0D9432320D9436
:1004A00038300D94E5370D943F540D948D790D94AB
:1004B000453E0D94DB360D9458700C94DA800C9404
:1004C00003990C945F8F0D9480620D943F240D94DA
:1004D00018540D945D540D9460700C94978F0D9486
:1004E00027540D94ED780D9401380D946B590D94AB
:1004F0009A580D94BD580D941A5B0D94AD780D94D7
:10050000BB790C94EDE90C949B800C949D900C9419
:10051000AC8E0D94B6700D94A4700D9457540D9438
:10052000F5370D94BF580C94FF8E0D94DA780C9427
:10053000EEE10D9429740C94D2E90D9497530D9427
:1005400079790D94B6780D94CF700C94F3940D9442
:100550001E5B0C9427A90D9451700C9469E00D94C6
:10056000483E0C94EBE90D9445540D9473330C9470
:10057000D4940C9487EF0D94AF310D94F2790C94D0
:10058000E9E90D94B6710C94D88E0D94543E0D94F7
:10059000513E0D94AA390D94E8790D94F88A0D9482
:1005A000152F0D9463540C94C47F0D94E1370C9473
:1005B000EB7F0C94F8E10D94B9620D94095B0D94F6
:1005C0004B3E0D9433540C948BEF0D94055B0D94BE
:1005D000CA700D946A790C9478900D94CA560D9453
:1005E000D4700D94B3780C945F3D0D94D6780D942F
:1005F000A7790C946C850D94B45A0C9468550D949D
:1006000040244E414E494E495459494E46CDCCCCDA
:100610003D0AD7233C17B7D13877CC2B329595E6D6
:10062000241FB14F0A000020410000C84200401CB6
:100630004620BCBE4CCA1B0E5AAEC59D7400407A03
:1006400010F35A00A0724E18090010A5D4E800005B
:10065000E87648170000E40B54020000CA9A3B00F9
:100660000000E1F505000080969800000040420F70
:10067000000000A08601000000102700000000E834
:1006800003000000006400000000000A00000000F9
:10069000000100000000002C76D888DC674F08239A
:1006A000DFC1DFAE59E1B1B796E5E3E453C63AE600
:1006B00051997696E8E6C28426EB898C9B62ED40E0
:1006C0007C6FFCEFBC9C9F40F2BAA56FA5F490052F
:1006D0005A2AF75C936B6CF9676DC11BFCE0E40D63
:1006E00047FEF520E6B500D0ED902E030094357757
:1006F000050080841E080000204E0A000000C80C7F
:10070000333333330F986E12831141EF8D211489E7
:100710003BE65516CFFEE6DB18D1844B381BF77C41
:100720001D901DA4BBE424203284725E228100C986
:10073000F124ECA1E53D274C4556454C494E470078
:10074000434F4D4D554E49434154494F4E0044523D
:100750005952554E004552524F5253004543484F4F
:100760000047322F47332062616420706172616DEF
:1007700065746572730A00536C6565702E2E2E00C9
:10078000205A3A200020593A200042656420583A05
:1007900020004D65736820706F696E74206F7574EA
:1007A000206F662072616E67650A004D30205374B9
:1007B0006F70004D312053746F7000436C69636B30
:1007C00020746F20526573756D652E2E2E004E6F4E
:1007D000204D6F76652E00456E642066696C65203D
:1007E0006C6973740A00426567696E2066696C659E
:1007F000206C6973740A004E6F206D656469610A2C
:1008000000526573756D696E6720534400706175A1
:10081000736500506175736520534400286E6F2026
:1008200066696C65290043757272656E742066692D
:100830006C653A20005344207072696E74696E676B
:10084000206279746520004E6F74205344207072CA
:10085000696E74696E670A0044656C6574696F6ED1
:10086000206661696C65642C2046696C653A2000DD
:1008700046696C652064656C657465643A00256939
:100880007920256964202569682025696D202569FE
:1008900073005072696E742074696D653A2000456A
:1008A0002025530044454255473A004D313133200D
:1008B000530042656420436F6F6C696E672E2E2E65
:1008C000004265642048656174696E672E2E2E00B3
:1008D0005369646577696E646572205831204F46AC
:1008E000462E002F2F20004D31343520533C696EA9
:1008F0006465783E206F7574206F662072616E6744
:10090000652028302D31290A00416363656C6572CA
:100910006174696F6E3A20500020204D61783A2052
:100920000020204D696E3A2000536F667420656E7A
:100930006473746F70733A200046523A0020466C1C
:100940006F773A200020643A0020693A0020703A1C
:10095000006469730043290A0061626C65642028A1
:100960006D696E2074656D702000436F6C64206546
:100970007874727564657320617265200046696CD5
:10098000616D656E742072756E6F75742064697325
:1009900074616E636520286D6D293A200046696C8C
:1009A000616D656E742072756E6F757420004D34C4
:1009B000323120696E636F72726563742070617288
:1009C000616D657465722075736167650A004F66B5
:1009D0006673657473204170706C6965640045725C
:1009E000723A20546F6F206661722100546F6F203D
:1009F0006661722066726F6D207265666572656EE3
:100A0000636520706F696E740A00454550524F4D02
:100A1000204F4B0A002028302D31302900207661EC
:100A20006C7565206F7574206F662072616E6765E6
:100A300000416476616E6365204B3D005C07EB13FB
:100A400055074E0740073707446F6E652E0A003F73
:100A5000496E76616C69642073746F72616765209A
:100A6000736C6F742E0A3F557365203020746F20AD
:100A7000004732392050322066696E6973686564B8
:100A80002E0A005859206F7574736964652070725E
:100A9000696E7461626C65207261646975732E0A97
:100AA000003F4572726F7220696E20427573696EE5
:100AB0006573732043617264206D6561737572653F
:100AC0006D656E742E0A004D616E75616C6C7920D7
:100AD00070726F62696E6720756E726561636861BE
:100AE000626C6520706F696E74732E0A0050726FAD
:100AF00062696E672061726F756E642028004D65B3
:100B0000736820696E76616C6964617465642E2017
:100B100050726F62696E67206D6573682E0A004DB2
:100B2000657368207A65726F65642E0A0044656695
:100B300061756C742073746F7261676520736C6F7C
:100B40007420302073656C65637465642E0A004CF4
:100B50006F6164696E6720746573745F706174742B
:100B600065726E2076616C7565732E0A0A00496E97
:100B700076616C696420746573745F706174746508
:100B8000726E2076616C75652E20282D3120746F71
:100B90002032290A0A004C6F636174696F6E7320FA
:100BA000696E76616C6964617465642E0A0A004539
:100BB0006E74697265204D65736820696E76616C2C
:100BC0006964617465642E0A0A004D65616E204D8A
:100BD000657368204865696768743A200023206F50
:100BE000662073616D706C65733A20000A4D657301
:100BF00068206F6E6C79207061727469616C6C79B9
:100C000020706F70756C617465642E0A0A005072F2
:100C10006F62696E6720506F696E74000A50726F60
:100C200062696E67206D65736820706F696E7420ED
:100C30000020616E642074616B652061206D6561C8
:100C4000737572656D656E742E0A006D6D20746823
:100C500069636B2E0A00427573696E657373204376
:100C6000617264206973200052656D6F766520267D
:100C7000204D656173757265204265640052656D33
:100C80006F7665207368696D00506C6163652073D1
:100C900068696D20756E646572206E6F7A7A6C6516
:100CA000004D65736820506F696E74204D656173E7
:100CB000757265642061743A20000A4D657368207E
:100CC0006F6E6C79207061727469616C6C792070E0
:100CD0006F70756C617465642E0A00506C61636599
:100CE000205368696D2026204D656173757265001B
:100CF0004D6F76696E6720746F206E657874004D55
:100D00006573682045646974696E672053746F70F9
:100D100070656400446F6E652045646974696E6730
:100D2000204D6573680A00446F6E652045646974E0
:100D3000696E67204D6573680046696E652054755D
:100D40006E696E67204D6573680028582C592920FC
:100D50006F757473696465207072696E7461626C1A
:100D600065207261646975732E0A004F666673654B
:100D700074206F7574206F6620626F756E64732EB9
:100D800020283020746F2031306D6D290A0A004907
:100D90006E76616C6964206D617020747970652E67
:100DA0000A0A003F2846296164652068656967680A
:100DB0007420666F7220426564204C6576656C20F5
:100DC000436F7272656374696F6E206E6F7420700A
:100DD0006C61757369626C652E0A0A003F43616E2F
:100DE000277420616374697661746520616E642084
:100DF00064656163746976617465206174207468E8
:100E0000652073616D652074696D652E0A0A004264
:100E10006F7468205820262059206C6F63617469B4
:100E20006F6E73206D7573742062652073706563D7
:100E300069666965642E0A0A003F496E76616C69CD
:100E40006420677269642073697A6520284A2920C2
:100E50007370656369666965642028322D39292EAF
:100E60000A0A003F285029686173652076616C7515
:100E70006520696E76616C69642028302D36292ED4
:100E80000A0A003F2856296572626F7365206C65F7
:100E900076656C20696D706C61757369626C652034
:100EA00028302D34292E0A0A003F28522965706502
:100EB000746974696F6E20636F756E7420696E76E5
:100EC000616C69642028312B292E0A0A00446F695D
:100ED0006E6720473239002F2F616374696F6E3A55
:100EE00000737461727400626567696E00656E6498
:100EF0000070726F6D70745F0073686F7700446983
:100F00007361626C6552756E6F75740050757267AF
:100F1000654D6F726500486F74656E6420746F6F05
:100F200020636F6C640A004732362048656174693B
:100F30006E67204E6F7A7A6C6500473236204865BE
:100F40006174696E67204265640057616974696EF7
:100F50006720666F72206865617475702E0A00469E
:100F600069786564204C656E677468205072696D9D
:100F70006500446F6E65205072696D696E67004D43
:100F8000616E75616C207072696D696E672E2E2EB0
:100F9000004732362043616E63656C6564004C65C2
:100FA0006176696E6720473236003F53706563692A
:100FB0006669656420582C5920636F6F7264696E8E
:100FC000617465206F7574206F6620626F756E6442
:100FD000732E0A003F28522965706561742076617E
:100FE0006C7565206E6F7420706C61757369626CCE
:100FF000653B206D757374206265206174206C659B
:1010000061737420312E0A003F537065636966690D
:101010006564206E6F7A7A6C652074656D70657298
:101020006174757265206E6F7420706C6175736980
:10103000626C652E0A003F5370656369666965647A
:101040002066696C616D656E742073697A65206EC7
:101050006F7420706C61757369626C652E0A003F55
:10106000537065636966696564207072696D652097
:101070006C656E677468206E6F7420706C61757338
:1010800069626C652E0A003F537065636966696525
:1010900064206E6F7A7A6C652073697A65206E6F52
:1010A0007420706C61757369626C652E0A003F5222
:1010B000657472616374696F6E204D756C746970CC
:1010C0006C696572206D757374206265207370653C
:1010D0006369666965642E0A003F537065636966DB
:1010E0006965642052657472616374696F6E204D26
:1010F000756C7469706C696572206E6F7420706CA9
:1011000061757369626C652E0A003F53706563698F
:1011100066696564206C61796572206865696768D5
:1011200074206E6F7420706C61757369626C652ECB
:101130000A0043292E0A003F53706563696669659A
:1011400064206265642074656D7065726174757287
:1011500065206E6F7420706C61757369626C6520B8
:101160002834302D00473236207374617274696EF2
:10117000672E2E2E0A006563686F3A004572726F03
:10118000723A003F3F3F2059696B65732120204E22
:10119000414E20696E206765745F7A5F636F72727B
:1011A000656374696F6E280029203D2000207261FC
:1011B00077206765745F7A5F636F727265637469C5
:1011C0006F6E2800203A202E2E2E4E6F77204F4E25
:1011D0000A00203A204C6576656C696E67204F46A0
:1011E000460A00203A202E2E2E4E6F77204F46467C
:1011F0000A00203A204C6576656C696E67204F4E78
:101200000A00204A0020204D34323120490020209D
:1012100047323920493939390A0061637469766582
:101220000A002053797374656D2076312E30312099
:10123000002020207C0A004E414E0020202E20203D
:101240002000207C004C43443A0A004353563A0A9B
:101250000020666F7220003A0A0A000A4265642084
:10126000546F706F677261706879205265706F7229
:1012700074002044697363726570616E63793A002B
:10128000326E642050726F6265205A3A00534C4FA0
:1012900057003173742050726F6265205A3A0046CD
:1012A0004153540050726F62653A3A72756E5F7ABC
:1012B0005F70726F62650050726F62696E67204680
:1012C00061696C65640A0050726F62696E672046DE
:1012D00061696C656400506F736974696F6E204E4C
:1012E0006F7420526561636861626C650A005F72A9
:1012F000656C6174697665290A0050726F62653A9F
:101300003A70726F62655F61745F706F696E7400CE
:1013100050726F7465637465642050696E0A005A78
:101320005F6D6F76655F636F6D700A003E3E3E20B5
:101330007365745F617869735F6E657665725F6807
:101340006F6D656428003C3C3C207365745F617878
:1013500069735F6E657665725F686F6D656428009E
:101360005072696E7465722073746F70706564205A
:1013700064756520746F206572726F72732E2046DB
:10138000697820746865206572726F7220616E647E
:1013900020757365204D39393920746F207265735B
:1013A000746172742E202854656D70657261747555
:1013B00072652069732072657365742E205365749D
:1013C000206974206166746572207265737461723D
:1013D00074696E67290A00554E4B4E4F574E205385
:1013E000544154450047434F44455F494E464F00E2
:1013F0004C43445F50415553455F524553554D450D
:101400000046494C414D454E545F52554E4F555440
:101410005F434F4E54494E55450046494C414D455A
:101420004E545F52554E4F5554004D38373620526A
:101430006573706F6E64696E672050524F4D5054E3
:101440005F004572726F722077726974696E6720EF
:10145000746F20454550524F4D210A0053544F5050
:101460005045442E20004E6F20436865636B7375B2
:101470006D2077697468206C696E65206E756D6289
:1014800065722C204C617374204C696E653A2000A3
:10149000636865636B73756D206D69736D617463EB
:1014A000682C204C617374204C696E653A20004CA6
:1014B000696E65204E756D626572206973206E6F6E
:1014C00074204C617374204C696E65204E756D629A
:1014D00065722B312C204C617374204C696E653A17
:1014E00020004D3131300053442072656164206525
:1014F00072726F720A002121204B494C4C206361AB
:1015000075736564206279204B494C4C2062757478
:10151000746F6E2F70696E0A002121204B494C4C6C
:101520002063617573656420627920746F6F206D2C
:1015300075636820696E6163746976652074696D8E
:1015400065202D2063757272656E7420636F6D6DFA
:10155000616E643A2000627573793A207061757328
:10156000656420666F7220696E7075740A0062751A
:1015700073793A2070617573656420666F722075A7
:101580007365720A00627573793A2070726F6365D1
:101590007373696E670A004D656469612052656DF9
:1015A0006F766564004D6564696120496E7365728C
:1015B000746564004D363030002066696C616D657D
:1015C0006E745F72756E6F7574200066696C616D04
:1015D000656E745F72756E6F757420540046696C29
:1015E000616D656E7452756E6F7574205400506C29
:1015F00065617365205265736574005052494E549D
:1016000045522048414C5445440025533A20255327
:1016100000706F7765726F6666004B494C4C4544AD
:101620002E20005072696E7465722068616C74655A
:10163000642E206B696C6C28292063616C6C656476
:10164000210A0000000000010204040000001C1C2C
:101650000C04040402010000000000040810000053
:10166000000000456E636C6F737572650052756E95
:101670006F75742044697374206D6D004C6F6164E4
:10168000206D6D00556E6C6F6164206D6D00466954
:101690006C2E204469612E004520696E206D6DC25C
:1016A000B3004D3330332055312045256920532573
:1016B000690050726F6265205A204F6666736574C8
:1016C00000416476616E6365642053657474696E6D
:1016D000677300436F6E74696E756500554E4C4FAD
:1016E00041442046494C414D454E540046494C41E9
:1016F0004D454E54204348414E4745004E65787451
:1017000020506F696E74004E65787400556E726576
:101710007472616374205600556E726574722E2067
:101720006D6D00486F70206D6D005265747261635D
:101730007420560052657472616374206D6D0041AF
:1017400075746F2D52657472616374004C6F6164BF
:101750002053657474696E677300526573746F7299
:10176000652044656661756C74730053746F7265AF
:101770002053657474696E677300507265686561A3
:1017800074202420436F6E660052756E6F7574204E
:1017900053656E736F72004D3730322054256400EC
:1017A0004D36303020423020542564004D373032E1
:1017B000203B2564004D373031205425640050759E
:1017C000726765206D6F726500524553554D452017
:1017D0004F5054494F4E533A005052494E542050A6
:1017E00041555345440020204E6F7A7A6C653A206B
:1017F00000060000070100050007010007060000C1
:1018000000070005000018FB17F617F1170000800D
:101810003FABAA4A42ABAAC84200001643ABAA4754
:1018200043565579430080954325532025692F253C
:1018300069002020443D002020423D004C534620BA
:10184000526573756C747320413D00726F746174DE
:10185000696F6E206D61747269783A0A006166740E
:10186000657220726F746174696F6E203D205B0039
:101870005D2020202D2D2D3E20006265666F726553
:1018800020726F746174696F6E203D205B005D0A89
:101890000062656420706C616E65206E6F726D61B0
:1018A0006C203D205B00436F756C64206E6F74206C
:1018B000636F6D706C657465204C53462100202069
:1018C0002066696E616C203E3E3E2D2D2D3E20002F
:1018D000202020636F7272656374696F6E3A200016
:1018E000292020206D656173757265643A20002996
:1018F0002020206C6F676963616C3A20280054696E
:101900006C74696E67206D65736820706F696E74A2
:1019100020003F4572726F722070726F62696E674D
:1019200020706F696E742E2041626F7274696E67E9
:10193000206F7065726174696F6E2E0A00255320E6
:10194000332F330054696C74696E67206D6573685A
:101950002028332F33290A00255320322F330054F7
:10196000696C74696E67206D6573682028322F3347
:10197000290A00436F727265637465645F5A3D00A3
:1019800054696C74696E6720506F696E74002553DA
:1019900020312F330054696C74696E67206D657354
:1019A000682028312F33290A00646F6E650A0049C8
:1019B0006E73756666696369656E742064617461CF
:1019C0000A004578747261706F6C6174696E67208B
:1019D0006D6573682E2E2E002C79693D002C7831B0
:1019E0005F693D00206F7574206F6620626F756EB1
:1019F000647320696E207A5F636F727265637469C5
:101A00006F6E5F666F725F785F6F6E5F686F72692F
:101A10007A6F6E74616C5F6D6573685F6C696E651B
:101A2000287278303D0078315F69007969002C2098
:101A300079315F693D002C2078693D00206F757415
:101A4000206F6620626F756E647320696E207A5F06
:101A5000636F7272656374696F6E5F666F725F79D0
:101A60005F6F6E5F766572746963616C5F6D6573DD
:101A7000685F6C696E65287279303D00786900791D
:101A8000315F6900473239205034205239393920CA
:101A900054004732380A473239205031004D6F74B4
:101AA000696F6E004F6666205072696E74657220B1
:101AB0004261636B75700047323920532D31004FFE
:101AC000757470757420666F7220435356004732E8
:101AD00039205431004F757470757420666F722010
:101AE000486F73740047323920543000456469747C
:101AF000204D657368004D616E75616C6C79204294
:101B000075696C64204D6573680047323920493926
:101B100039390A47323920503220422054300037B8
:101B20002E205361766520426564204D6573680000
:101B3000362E2046696E652054756E6520416C6CAA
:101B400000352E2056616C6964617465204D6573A3
:101B50006800342E2046696E652054756E652041FC
:101B60006C6C00332E2056616C6964617465204D85
:101B700065736800322E20536D6172742046696C63
:101B80006C2D696E004732392050332054300031BB
:101B90002E204275696C6420436F6C64204D657320
:101BA00068004661646520486569676874004F7520
:101BB000747075742055424C20496E666F00473230
:101BC0003920570055424C20546F6F6C73004F758D
:101BD00074707574204D657368204D6170004D659B
:101BE00073682053746F72616765004D6573682078
:101BF0004564697400537465702D42792D53746582
:101C0000702055424C0041637469766174652055BB
:101C1000424C004732392041004465616374697663
:101C20006174652055424C004732392044002568D4
:101C3000753A25303268750025303268753A25309E
:101C40003268750020202020202020002E2E2E28F3
:101C500000486F6D696E67204661696C6564006F4E
:101C600070656E00545249474745524544006669C5
:101C70006C616D656E74007A5F6D696E00795F6D81
:101C8000696E00785F6D696E005265706F7274697D
:101C90006E6720656E6473746F7020737461747501
:101CA000730A00203A2073796E635F706C616E5F17
:101CB000706F736974696F6E0A00646F5F626C6F36
:101CC000636B696E675F6D6F76655F746F00486FF9
:101CD0006D65202573257325732046697273740022
:101CE0005D002C2000646F5F686F6D696E675F6DCB
:101CF0006F76650050726F6265204F66667365741B
:101D00002058003F5A206F7574206F662072616EF4
:101D100067652028003F59206F7574206F66207218
:101D2000616E676520282D003F58206F7574206F05
:101D3000662072616E676520282D00656E7175657D
:101D40007565696E672022006F6B00526573656E62
:101D5000643A20005072696E7420446F6E650044CE
:101D60006F6E65207072696E74696E672066696C4B
:101D7000650A004D3737004D3331002364656669CD
:101D80006E652044454641554C545F004B6420002D
:101D90004B6920004B702000504944204175746FFE
:101DA00074756E652066696E69736865642120507C
:101DB000757420746865206C617374204B702C20DE
:101DC0004B6920616E64204B6420636F6E73746195
:101DD0006E74732066726F6D2062656C6F77206918
:101DE0006E746F20436F6E66696775726174696F98
:101DF0006E2E680A00504944204175746F74756EE8
:101E000065206661696C6564212074696D656F7514
:101E1000740A000A20436C6173736963205049445B
:101E2000200A00204B643A2000204B693A20002011
:101E30004B703A20000A204E6F206F7665727368EF
:101E40006F6F740A002054753A2000204B753A20B9
:101E500000206D61783A2000206D696E3A200020E4
:101E6000643A200020626961733A2000504944209E
:101E70004175746F74756E652073746172740A00B5
:101E8000504944204175746F74756E6520666169B0
:101E90006C6564212054656D70657261747572653E
:101EA00020746F6F20686967680A005049442041B8
:101EB00075746F74756E6500504944204175746F78
:101EC00074756E65206661696C6564212042616489
:101ED000206578747275646572206E756D626572C6
:101EE0000A007C4D61726C696E7C002D2D2D2D2DAC
:101EF0002D00A10000006900A20000006300B000F6
:101F000000000900C10000004100C20000004100C3
:101F1000C30000004100C40000004100C5000000F3
:101F20004100C60000004145C70000004300C80052
:101F300000004500C90000004500CD000000490038
:101F4000D10000004E00D50000004F00D600000078
:101F50004F00D70000007800DC0000005500DD00D5
:101F600000005900E00000006100E1000000610095
:101F7000E20000006100E30000006100E4000000F6
:101F80006100E50000006100E60000006165E70017
:101F900000006300E80000006500E9000000650043
:101FA000EA0000006500EB0000006500EC000000A6
:101FB0006900ED0000006900EE0000006900EF001C
:101FC00000006900F10000006E00F20000006F00E8
:101FD000F30000006F00F40000006F00F500000047
:101FE0006F00F60000006F00F80000006F00F900BD
:101FF00000007500FA0000007500FB00000075008D
:10200000FC0000007500FD0000007900FF000000EA
:102010007900040100004100050100006100060193
:10202000000043000701000063000C0100004300B2
:102030000D01000063000E01000044000F010000CC
:1020400064001101000064001901000065001A011C
:10205000000045001B01000065001F010000670033
:102060003001000049003101000069004101000019
:102070004C00420100006C00430100004E0044018E
:1020800000006E00480100006E0058010000520080
:102090005901000072005A01000053005B0100006A
:1020A00073005F01000073006001000053006101D4
:1020B000000073006501000074006F0100007500EE
:1020C0007C0100007A007D0100005A007E010000C2
:1020D0007A00920100006600E302000078002220EE
:1020E00000002E001E210000507822210000544DD7
:1020F000902100003C2D922100002D3EB0210000D7
:102100000300BB21000004003C2200007E004822A6
:1021100000007E3D60220000213D612200003D0064
:10212000642200003C3D652200003E3DF12300009A
:102130000700A03000003D0021F301000200C2F4BE
:1021400001000500A2000000EC00B0000000DF006C
:10215000E4000000E100F6000000EF00F7000000DE
:10216000FD00FC000000F500E3020000EB00870327
:102170000000A5008F030000F40098030000F200A7
:102180009E030000E300A3030000F600A903000083
:10219000F400AC030000E000AD030000E300B10375
:1021A0000000E000B2030000E200B5030000E3001D
:1021B000B8030000F200BC030000E400BE0300000E
:1021C000E300C0030000F700C1030000E600C30302
:1021D0000000E500902100007F00922100007E00B9
:1021E0001A220000E8001E220000F30088250000EB
:1021F000FF0002300000A1000C300000A2000D30F2
:102200000000A3009B300000DE009C300000DF00D7
:10221000A03000003D00A1300000A700A230000067
:10222000B100A3300000A800A4300000B200A53027
:102230000000A900A6300000B300A7300000AA00EB
:10224000A8300000B400A9300000AB00AA300000A4
:10225000B500AB300000B600AC300000B6DEAD30EB
:102260000000B700AE300000B7DEAF300000B800AD
:10227000B0300000B8DEB1300000B900B23000006C
:10228000B9DEB3300000BA00B4300000BADEB530B9
:102290000000BB00B6300000BBDEB7300000BC0061
:1022A000B8300000BCDEB9300000BD00BA3000001C
:1022B000BDDEBB300000BE00BC300000BEDEBD3065
:1022C0000000BF00BE300000BFDEBF300000C00015
:1022D000C0300000C0DEC1300000C100C2300000CC
:1022E000C1DEC3300000AF00C4300000C200C53002
:1022F0000000C2DEC6300000C300C7300000C3DEED
:10230000C8300000C400C9300000C4DECA3000007C
:10231000C500CB300000C600CC300000C700CD3077
:102320000000C800CE300000C900CF300000CA0055
:10233000D0300000CADED1300000CADFD230000049
:10234000CB00D3300000CBDED4300000CBDFD53063
:102350000000CC00D6300000CCDED7300000CCDF4F
:10236000D8300000CD00D9300000CDDEDA300000DA
:10237000CDDFDB300000CE00DC300000CEDEDD3013
:102380000000CEDFDE300000CF00DF300000D000E4
:10239000E0300000D100E1300000D200E230000067
:1023A000D300E3300000AC00E4300000D400E5309E
:1023B0000000AD00E6300000D500E7300000AE00C0
:1023C000E8300000D600E9300000D700EA30000015
:1023D000D800EB300000D900EC300000DA00ED301E
:1023E0000000DB00EF300000DC00F2300000A6004F
:1023F000F3300000DD00F4300000B3DEF730000001
:10240000DCDEFA300000A6DEFB300000A500FC3068
:102410000000B000FD300000A400074E0000FB00EB
:1024200086510000FC0043530000FA0064FF0000E6
:10243000A40065FF0000A50066FF0000A60067FF7E
:102440000000A70068FF0000A80069FF0000A900C5
:102450006AFF0000AA006BFF0000AB006CFF0000E9
:10246000AC006DFF0000AD006EFF0000AE006FFF1E
:102470000000AF0070FF0000B00071FF0000B1006D
:1024800072FF0000B20073FF0000B30074FF000091
:10249000B40075FF0000B50076FF0000B60077FFBE
:1024A0000000B70078FF0000B80079FF0000B90015
:1024B0007AFF0000BA007BFF0000BB007CFF000039
:1024C000BC007DFF0000BD007EFF0000BE007FFF5E
:1024D0000000BF0080FF0000C00081FF0000C100BD
:1024E00082FF0000C20083FF0000C30084FF0000E1
:1024F000C40085FF0000C50086FF0000C60087FFFE
:102500000000C70088FF0000C80089FF0000C90064
:102510008AFF0000CA008BFF0000CB008CFF000088
:10252000CC008DFF0000CD008EFF0000CE008FFF9D
:102530000000CF0090FF0000D00091FF0000D1000C
:1025400092FF0000D20093FF0000D30094FF000030
:10255000D40095FF0000D50096FF0000D60097FF3D
:102560000000D70098FF0000D80099FF0000D900B4
:102570009AFF0000DA009BFF0000DB009CFF0000D8
:10258000DC009DFF0000DD009EFF0000DE009FFFDD
:102590000000DF00E5FF00005C00001C1F11111FA0
:1025A00000000006191803130C00040E1F041C0081
:1025B0000000000E1315110E00001C101817050660
:1025C0000500040A0A0A0A11110E0C12120C00006E
:1025D0000000001F1511151F000024F4D43050C353
:1025E0008E20C2A24017828B7011127A910D816CDD
:1025F000D90AA861E108C7586607615143061E4B16
:102600005D05C145A7041A411104093D98037139BC
:1026100031034036DB0265339102D4305402802E00
:102620001D02632CEE01752AC501B028A0011027F8
:1026300081018F2564012B244B01E0223401AC2160
:102640001F018D200D01801FFC00841EED00971DD1
:10265000DF00B81CD200E61BC600201BBC00641AB9
:10266000B200B219A8000A19A0006A189900D1177F
:10267000910040178B00B516840031167E00B3150B
:1026800079003A157300C7146F0058146A00EE13EE
:1026900066008813630025135E00C7125B006C128E
:1026A000570015125400C111510070114F00211133
:1026B0004B00D61049008D10470046104400021010
:1026C0004200C00F4000800F3E00420F3C00060F4A
:1026D0003B00CB0E3800930E37005C0E3500270E02
:1026E0003400F30D3200C10D3100900D3000600D4B
:1026F0002E00320D2D00050D2C00D90C2B00AE0C38
:102700002900850C29005C0C2700350C27000E0CD5
:102710002600E80B2400C40B2400A00B23007D0B33
:1027200023005A0B2100390B2100180B2000F80A56
:102730001F00D90A1E00BB0A1E009D0A1D00800A48
:102740001D00630A1C00470A1B002C0A1B00110A0B
:102750001A00F7091A00DD091900C4091900AB09AC
:102760001900920917007B091800630917004C092A
:10277000160036091600200916000A091500F5088A
:102780001500E0081400CC081400B8081400A408D0
:102790001400900813007D0812006B0813005808FD
:1027A0001200460812003408110023081100120814
:1027B000110001081100F0071000E0071000D00719
:1027C0001000C0071000B0070F00A107100091070C
:1027D0000E0083070F0074070F0065070E005707F0
:1027E0000E0049070E003B070D002E070E002007C4
:1027F0000D0013070D0006070D00F9060C00ED068D
:102800000D00E0060C00D4060C00C8060C00BC0647
:102810000C00B0060C00A4060B0099060C008D06F7
:102820000B0082060B0077060B006C060B0061069E
:102830000A0057060B004C060A0042060A0038063A
:102840000A002E060A0024060A001A060A001006CC
:10285000090007060A00FD050900F4050900EB055B
:102860000900E2050900D9050900D0050900C705DE
:102870000900BE050900B5050800AD050800A5055D
:1028800009009C050800940508008C0508008405D3
:1028900008007C050800740508006C050700650544
:1028A00008005D050700560508004E0507004705AE
:1028B00007004005080038050700310507002A0514
:1028C0000700230507001C050600160507000F0575
:1028D00007000805060002050700FB040600F504D2
:1028E0000700EE040600E8040600E2040700DB042B
:1028F0000600D5040600CF040600C9040600C30480
:102900000600BD040600B7040600B1040500AC04CF
:102910000600A6040600A00405009B04060095041A
:102920000500900406008A04050085040500800463
:1029300006007A04050075040500700405006B04A8
:10294000050066040500610405005C0405005704E9
:102950000500520405004D04050048040500430429
:1029600005003E0404003A04050035040500300467
:1029700004002C04050027040400230405001E04A1
:1029800004001A04040016040500110404000D04D8
:102990000400090405000404040000040400FC030E
:1029A0000400F8030400F4030400F0030400EC0343
:1029B0000400E8030400E4030400E0030400DC0373
:1029C0000400D8030400D4030400D0030400CC03A3
:1029D0000400C8030300C503030024F404D9201B2A
:1029E000C40C5C0E9804C4095F0265077101F4050C
:1029F000F900FB04B30048048700C10369005803D1
:102A0000550003034500BE023A0084023100530220
:102A10002A002902250004022000E4011C00C8014C
:102A20001900AF011700980114008401130071010F
:102A300010006101100051010E0043010D0036012C
:102A40000B002B010B0020010B00150109000C01EC
:102A5000090003010800FB000800F3000800EB0078
:102A60000700E4000600DE000600D8000600D200E1
:102A70000600CC000500C7000500C2000500BD002F
:102A80000400B9000400B5000400B1000400AD006A
:102A90000400A9000400A5000300A20003009F0099
:102AA00004009B00030098000300950002009300BF
:102AB0000300900003008D0002008B0003008800DB
:102AC00002008600020084000300810002007F00F3
:102AD00002007D0002007B00020079000200770006
:102AE0000100760002007400020072000100710013
:102AF00002006F0002006D0001006C0002006A001D
:102B00000100690002006700010066000100650025
:102B10000100640002006200010061000100600029
:102B200001005F0002005D0001005C0001005B002D
:102B300001005A000100590001005800010057002F
:102B4000010056000100550001005400010053002F
:102B5000000053000100520001005100010050002C
:102B600001004F0001004E0000004E0001004D002A
:102B700001004C0001004B0000004B0001004A0026
:102B80000100490001004800000048000100470022
:102B9000010046000000460001004500000045001D
:102BA0000100440001004300000043000100420016
:102BB000000042000100410000004100010040000F
:102BC00001003F0000003F0001003E0000003E0009
:102BD00001003D0000003D0001003C0000003C0001
:102BE00000003C0001003B0000003B0001003A00F7
:102BF00000003A00010039000000390001003800EF
:102C000000003800000038000100370000003700E5
:102C100001003600000036000000360001003500DB
:102C200000003500000035000100340000003400D1
:102C300000003400010033000000330000003300C6
:102C400001003200000032000000320001003100BB
:102C500000003100000031000100300000003000B1
:102C60000000300001002F0000002F0000002F00A6
:102C700000002F0001002E0000002E0000002E009A
:102C800001002D0000002D0000002D0000002D008F
:102C900001002C0000002C0000002C0000002C0083
:102CA00001002B0000002B0000002B0000002B0077
:102CB00001002A0000002A0000002A0000002A006B
:102CC000010029000000290000002900000029005F
:102CD0000000290001002800000028000000280052
:102CE0000000280000002800010027000000270045
:102CF0000000270000002700000027000100260038
:102D0000000026000000260000002600000026002B
:102D1000010025000000250000002500000025001E
:102D20000000250000002500010024000000240010
:102D30000000240000002400000024000100230003
:102D400000002300000023000000230000002300F7
:102D500000002300000023000100220000002200E8
:102D600000002200000022000000220000002200DB
:102D700001002100000021000000210000002100CE
:102D800000002100000021000000210001002000BF
:102D900000002000000020000000200000002000B3
:102DA00000002000000020000000200001001F00A3
:102DB00000001F0000001F0000001F0000001F0097
:102DC00000001F0000001F0001001E0000001E0088
:102DD00000001E0000001E000000232C0000B8228E
:102DE0000000561800003A0F0000B8080000B104B7
:102DF0000000710200003E01000041425300504CAF
:102E00004100496E666F2053637265656E004772BC
:102E10006964204D657368204C6576656C696E67E2
:102E200000332D506F696E74204C6576656C696E49
:102E30006700473239204A3000473239205033206A
:102E40005220432E2569004D616E75616C204669E4
:102E50006C6C2D696E0046696C6C2D696E20416D3D
:102E60006F756E74004D65736820696E76616C696C
:102E700064617465642E0A00496E76616C696461F0
:102E8000746520436C6F7365737400473239204951
:102E900000496E76616C696461746520416C6C00F8
:102EA000436F6E74696E756520426564204D65736D
:102EB000680047323920503120430046696C6C2D40
:102EC000696E204D657368004275696C64204375B6
:102ED00073746F6D204D657368004732380A4D3149
:102EE00039302049310A4D3130392049310A4732D1
:102EF000392050310A4D3130342053300A4D3134AD
:102F000030205330004275696C64204D6573682031
:102F1000282429004732380A4D3139302049300AF7
:102F20004D3130392049300A4732392050310A4D6D
:102F30003130342053300A4D313430205330004783
:102F4000323920256325690A4D31313720004D651E
:102F50007368202569204C6F61646564004D65735A
:102F600068202569205361766564004C6F61642098
:102F7000426564204D657368004D656D6F72792000
:102F8000536C6F74004E6F2053746F7261676500ED
:102F90004732392050342058257320592573205248
:102FA000256900202D2D2D2D2D00486F6D696E6730
:102FB0002058595A0047323800FE2DFA2D50494406
:102FC000204175746F74756E65202A005049442D38
:102FD00044202A005049442D49202A005049442DBC
:102FE00050202A0020022046616374002002204DF8
:102FF0006178002002204D696E004175746F746520
:103000006D70005654726176204D696E00566D6980
:103010006E00566D6178204500566D6178205A002B
:10302000566D6178205900566D6178205800416DC9
:103030006178204500416D6178205A00416D6178CA
:10304000205900416D6178205800412D54726176FD
:10305000656C00412D526574726163740041636355
:10306000656C0020436F756E7420583A004D313006
:1030700036205000453100626564002C207379735E
:1030800074656D2073746F7070656421204865618C
:103090007465725F49443A200048656174696E67DF
:1030A000204661696C65640048656174696E6720DB
:1030B0006661696C6564004D313132205368757406
:1030C000646F776E00202D20496E76616C696420F4
:1030D0006578747275646572206E756D62657220B4
:1030E000210A00544845524D414C2052554E4157FB
:1030F000415900546865726D616C2052756E61773C
:103100006179004572723A204D415854454D500046
:103110004D415854454D502074726967676572651A
:1031200064004572723A204D494E54454D50004D51
:10313000494E54454D5020747269676765726564E5
:1031400000202F002042403A0020403A000020207A
:1031500063757272656E745F706F736974696F6E98
:103160003D0050726F62653A3A646F5F7A5F7261D8
:1031700069736528006465706C6F793A2000203AA5
:103180002050726F62653A3A7365745F6465706C63
:103190006F7965640A00206D61783A00206D696E70
:1031A0003A0041786973200053657474696E6773DF
:1031B0002053746F726564002062797465733B20DC
:1031C000637263200053657474696E67732053746F
:1031D0006F7265642028004E6F20454550524F4D58
:1031E0002E0A00454550524F4D2064617461736949
:1031F0007A65206572726F722E0A003F4D657368A2
:1032000020746F6F2062696720666F722045455099
:10321000524F4D2E0A0055424C2072657365740A58
:1032200000206C6F616465642066726F6D2073743A
:103230006F726167652E0A004D65736820003F4319
:10324000616E277420656E61626C65200020696E76
:10325000697469616C697A65642E0A0A0020737466
:103260006F7265642073657474696E67732072652C
:1032700074726965766564202800202863616C6338
:10328000756C6174656429210A0020213D20004588
:103290004550524F4D20435243206D69736D617408
:1032A0006368202D202873746F726564292000499B
:1032B0006E6465783A200044494749504F54532082
:1032C0004C6F616465640A0044494749504F545348
:1032D000204C6F6164696E670A00204D61726C69F1
:1032E0006E3D563832290A00454550524F4D2076E2
:1032F000657273696F6E206D69736D6174636820A8
:1033000028454550524F4D3D000000964300009621
:10331000430000C84300000000000000000000005F
:10332000005374616E6461726420446576696174EF
:10333000696F6E3A20002052616E67653A20002066
:103340005369676D613A20004D65616E3A20005700
:1033500041524E494E4721204C6F77205A204A65F2
:10336000726B206D6179206C65616420746F2075CB
:103370006E77616E746564207061757365732E0A73
:10338000003F284229617564207261746520696D6F
:10339000706C61757369626C652E0A0020626175DC
:1033A0006420726174652073657420746F2000203E
:1033B00053657269616C2000204D393220580070CD
:1033C00061757365640052656865617420446F6E51
:1033D0006500526568656174696E672E2E2E005215
:1033E0006568656174004865617465722054696D33
:1033F000656F75740053656E64204D3130382074EC
:103400006F2068656174206E6F7A7A6C650A004E71
:103410006F7A7A6C65205061726B656400627574B6
:10342000746F6E004C6F61642046696C616D656EEF
:1034300074205400496E736572742066696C616D06
:10344000656E7420616E642073656E64204D31304A
:10345000380A00726573756D656400526573756D29
:10346000696E670020496E76616C696420657874C6
:1034700072756465722000496E76616C69642065BE
:10348000787472756465720A0020746F6F206C6FB7
:103490006E6720657874727573696F6E20707265DF
:1034A00076656E7465640A0020636F6C64206578CD
:1034B00074727573696F6E2070726576656E74656F
:1034C000640A003C3C3C00220A00556E6B6E6F772C
:1034D0006E20636F6D6D616E643A20220020453A64
:1034E0000020593A00654953522072756E6E696E1C
:1034F00067206174203E2031306B487A2E0A004DDF
:103500006F7265207468616E203220737465707309
:10351000207065722065495352206C6F6F70206572
:10352000786563757465642E0A00416363656C6534
:10353000726174696F6E206C696D697465642E0ABE
:10354000002053697A653A200043616E6E6F7420E3
:103550006F70656E20737562646972200053442039
:10356000496E6974204661696C005344206361723E
:1035700064206F6B0A006F70656E526F6F74206607
:1035800061696C65640A00766F6C756D652E696E95
:103590006974206661696C65640A004E6F2053444B
:1035A00020636172640A004D3234004D32332025AD
:1035B00073006F70656E206661696C65642C2046CF
:1035C000696C653A200046696C652073656C6563BB
:1035D0007465640A0046696C65206F70656E656489
:1035E0003A2000454E4420535542524F5554494EBF
:1035F000450A002220706F73002220706172656E90
:10360000743A2200535542524F5554494E45204377
:10361000414C4C207461726765743A2200537562A4
:1036200063616C6C204F766572666C6F77004578CD
:10363000636565646564206D617820535542524F1F
:103640005554494E452064657074683A310A0057F4
:10365000726974696E6720746F2066696C653A20C0
:1036600000667265736800646F696E67004E6F77FD
:103670002000416476616E6365204B0046616E20D8
:103680005370656564004D61696E004261627973D3
:10369000746570205A00466C6F77005A2056616C32
:1036A0007565004732380A4D313930205325690A93
:1036B0004D313039205325690A47323920503100C5
:1036C0004265642054656D7000486F74656E6420B7
:1036D00054656D70004732392050362043202D004C
:1036E00048656967687420416D6F756E7400416448
:1036F0006A757374204D65736820486569676874DE
:103700000046696E652054756E6520436C6F736565
:103710007374004732392050342054004732380A3D
:103720004732362043205020482569204225690031
:1037300056616C696461746520437573746F6D20A4
:103740004D657368004732380A47323620432050AF
:103750002049310056616C6964617465204D657360
:103760006820282429004732380A4732362043206F
:103770005020493000473239204A2569004C65768F
:10378000656C204D657368005369646520506F69EE
:103790006E747300436F6E66696775726174696FEA
:1037A0006E0043616E63656C004368616E676520FF
:1037B00046696C616D656E74005072656865617410
:1037C00020437573746F6D004368616E6765204DAB
:1037D00065646961004D3231004D36303020423031
:1037E00000486F737420537461727400526573756E
:1037F0006D65205072696E74004E6F204D6564696E
:10380000610054756E650053746F70205072696E5C
:1038100074005061757365205072696E7400537442
:10382000617274205072696E740043616E6E6F74C1
:1038300020656E746572207375626469723A200047
:10384000052E2E005061726B696E672E2E2E0000C1
:10385000005761697420666F720066696C616D65FE
:103860006E74206368616E676500746F20737461A5
:103870007274005761697420666F720066696C61CA
:103880006D656E7420756E6C6F616400004E6F7AAA
:103890007A6C652068656174696E6700506C65615B
:1038A000736520776169742E2E2E00005072657347
:1038B0007320627574746F6E00746F206865617434
:1038C000206E6F7A7A6C650000496E7365727420A1
:1038D00066696C616D656E7400616E6420707265FE
:1038E000737320627574746F6E00746F20636F6EF3
:1038F00074696E7565005761697420666F72006641
:10390000696C616D656E74206C6F6164000050724B
:1039100065737320427574746F6E00746F207265E6
:1039200073756D65207072696E74000057616974FB
:1039300020666F72207072696E7400746F207265F9
:1039400073756D652E2E2E00005761697420666FA9
:10395000720066696C616D656E7420707572676562
:10396000000070012C0190012701B0012201C0016B
:103970001D01F00118011002130130020E01600256
:10398000090190020401C002FF000003FA00400395
:10399000F5008003F000D003EB002004E600700483
:1039A000E100E004DC004005D700C005D20040067D
:1039B000CD00D006C8008007C3003008BE00F00864
:1039C000B900C009B400B00AAF00B00BAA00D00C17
:1039D000A500000EA000500F9B00C01096005012D2
:1039E000910000148C00C0158700B0178200B01938
:1039F0007D00D01B7800001E730040206E009022D6
:103A00006900F024640040275F0090295A00E02BF1
:103A10005500102E500020304B0010324600E0338D
:103A2000410090353C001037370070383200A03923
:103A30002D00B03A2800A03B2300603C1E00103D42
:103A40001900903D1400103E0F00703E0A00C03E69
:103A50000500003F0000403FFBFF803FF6FFC03FF6
:103A6000F1FF68747470733A2F2F6D61726C696E18
:103A700066772E6F72670020322E302E372E32007E
:103A80002020506C616E6E6572427566666572428A
:103A9000797465733A20002046726565204D656D26
:103AA0006F72793A2000436F6D70696C65643A20DB
:103AB0004F637420323020323032300A00204C61A3
:103AC000737420557064617465643A20323032300A
:103AD0002D31302D3135207C20417574686F723A5C
:103AE00020286D6F6F70686C6F2C20536964657748
:103AF000696E646572205831290A00322E302E37E3
:103B00002E320A004D61726C696E0020536F66742C
:103B1000776172652052657365740A00205761747D
:103B20006368646F672052657365740A002042728F
:103B30006F776E206F75742052657365740A00206C
:103B400045787465726E616C2052657365740A0005
:103B5000506F77657255700A006175746F25632E1A
:103B600067004732385859004D31303031006572A6
:103B7000726F722077726974696E6720746F206645
:103B8000696C650A00446F6E6520736176696E67C3
:103B90002066696C652E0A004D32390025532025B8
:103BA0006320256320256320256300656E6473749C
:103BB0006F7073206869743A200020573A007C3C8B
:103BC0003E5E2B3D3F2F5B5D3B2C2A225C003F4538
:103BD0004550524F4D2073746F72616765206E6F50
:103BE0007420617661696C61626C652E0A004661C1
:103BF0006465204865696768742000426564204CEC
:103C00006576656C696E6720004661696C65642045
:103C1000746F20656E61626C6520426564204C653E
:103C200076656C696E670A00496E76616C6964201E
:103C30006D6573682E0A0076616C69640A53746F4F
:103C40007261676520736C6F743A20004D6573680C
:103C500020697320003F496E76616C69642073743B
:103C60006F7261676520736C6F742E0A003E3E3E72
:103C700000202864697361626C6564290A005542FA
:103C80004C2041646A7573746D656E74205A005AD5
:103C900020466164653A20002028656E61626C658B
:103CA00064290A0041626F76650053616D65205A90
:103CB0002061730042656C6F77004175746F20421C
:103CC0006564204C6576656C696E673A2055424C98
:103CD00000204E6F7A7A6C65290A00202620002D7C
:103CE00043656E746572002D46726F6E74002D42CE
:103CF00061636B002028416C69676E6564205769B9
:103D000074680020284D6964646C650020284C6547
:103D1000667400202852696768740050726F62658B
:103D20003A204649585F4D4F554E5445445F5052D6
:103D30004F42450A004D616368696E652054797091
:103D4000653A2043617274657369616E0A005A2096
:103D500050726F62652050617374204265640A007E
:103D60005A2050726F6265205061737420426564FE
:103D700000203A20686F6D655F7A5F736166656CDD
:103D8000790A00202064657374696E6174696F6ECE
:103D90003D00686F6D655F7A5F736166656C790081
:103DA0005261697365205A20286265666F726520CA
:103DB000686F6D696E672920627920003E20686F08
:103DC0006D696E67206E6F74206E65656465642C26
:103DD00020736B69700A00446576696174696F6E5F
:103DE0000025533A2025730046696E69736865643F
:103DF000210A003A207A3A2000206F662000476F9F
:103E0000696E6720746F3A20580043570A00206497
:103E100069723A0020616E676C653A005374617292
:103E200074207261646975733A004D343820506FA4
:103E3000696E740025533A2025642F256400506F65
:103E4000736974696F6E696E67207468652070723B
:103E50006F62652E2E2E0A003F4C656773206F66D9
:103E6000206D6F76656D656E7420696D706C61751F
:103E70007369626C652028302D3135292E0A003F88
:103E80002028582C5929206F7574206F6620626F86
:103E9000756E64732E0A0050726F6265206F7574C0
:103EA000206F6620626F756E6473003F53616D70A2
:103EB0006C652073697A65206E6F7420706C617513
:103EC0007369626C652028342D3530292E0A004D27
:103ED0003438205A2D50726F6265205265706561CA
:103EE000746162696C69747920546573740A003F67
:103EF0002856296572626F7365206C6576656C2043
:103F0000696D706C61757369626C652028302D3441
:103F1000292E0A0056652D4A65726B00565A2D4AA5
:103F200065726B0056592D4A65726B0056582D4AC2
:103F300065726B0050726F62652059204F66667320
:103F400065740050726F62652058204F6666736515
:103F50007400452073746570732F6D6D005A205383
:103F6000746570732F6D6D00592053746570732FD5
:103F70006D6D00582053746570732F6D6D00496E20
:103F80006974004D3432380050726F6265204F669C
:103F9000667365747300416363656C65726174690F
:103FA0006F6E0056656C6F63697479005365742099
:103FB000486F6D65204F6666736574730050726953
:103FC0006E742050617573656400526573756D651C
:103FD000003F00496E697469616C697A65204545E6
:103FE00050524F4D006E6F74696669636174696FFA
:103FF0006E20005369646577696E6465722058317C
:104000002052656164792E005072696E74696E6722
:104010002E2E2E0063616E63656C005072696E74A3
:104020002041626F72746564004469736D697373D3
:104030000055492041626F72746564004D3235004D
:1040400055492050617573650050617573696E67DD
:104050002E2E2E00726573756D6500454550524FCA
:104060004D2056657273696F6E204572726F7200D3
:10407000454550524F4D20496E6465782045727217
:104080006F7200454550524F4D20435243204572B8
:10409000726F720049676E6F72650020706F73698E
:1040A00074696F6E5F7368696674203D20002068D4
:1040B0006F6D655F6F6666736574203D20003C3CE4
:1040C0003C207365745F617869735F69735F6174C5
:1040D0005F686F6D652800203A200A005D203D2052
:1040E000003E20686F6D655F6F66667365745B0088
:1040F0002A2A2A205A20484F4D45442057495448DF
:104100002050524F424520285A5F4D494E5F505231
:104110004F42455F555345535F5A5F4D494E5F458A
:104120004E4453544F505F50494E29202A2A2A0AA0
:104130003E2070726F62652E6F66667365742E7AAC
:10414000203D20003E3E3E207365745F61786973B8
:104150005F69735F61745F686F6D65280057617296
:104160006E696E673A20486F6D696E672042756DA3
:10417000702044697669736F72203C20310A003CDC
:104180003C3C20686F6D65617869732800203A2097
:104190003E204146544552207365745F61786973CF
:1041A0005F69735F61745F686F6D650A00486F6D6A
:1041B00065203220536C6F773A0A004D6F76652088
:1041C000417761793A0A00486F6D65203120466178
:1041D00073743A0A003E3E3E20686F6D65617869EF
:1041E0007328000000A0420000A0420000A041028D
:1041F00002040000A0400000A04000000040FFFFBB
:10420000FF0000000100000001000080005555552E
:10421000000000400033333300AAAA2A0049922448
:104220000000002000C7711C0099991900D14517A2
:1042300000555515003BB11300244912001111110E
:1042400000000010000F0F0F00E3380E0043790D3F
:1042500000CCCC0C00C3300C00E8A20B0064210B96
:1042600000AAAA0A00703D0A009DD80900427B09F5
:104270000092240900DCD308008888080010420856
:104280000000000800F0C10700878707007550078D
:1042900000711C07003EEB0600A1BC0600699006F9
:1042A0000066660600703E06006118060017F405F9
:1042B0000074D105005BB00500B290050062720584
:1042C000005555050078390500B81E05000505059F
:1042D000004EEC040087D40400A1BD040090A704A4
:1042E0000049920400C17D0400EE690400C7560431
:1042F00000444404005C320400082104004110041E
:1043000000000004003FF00300F8E0030026D203A1
:1043100000C3C30300CCB503003AA803000A9B0303
:1043200000388E0300C08103009F750300D069032D
:1043300000505E03001D53030034480300913D0309
:10434000003333030016290300381F0300971503B9
:1043500000300C0300030303000BFA020049F102D2
:1043600000BAE802005CE002002DD802002DD00265
:104370000059C80200B0C0020031B90200DAB1022F
:1043800000AAAA0200A0A30200BC9C0200FA9502A7
:10439000005C8F0200DF88020082820200457C02FE
:1043A000002776020027700200436A02007C640244
:1043B00000D05E02003F590200C8530200FFFDFC1E
:1043C000FAF8F6F4F2F0EEECEAE9E7E5E3E1E0DE34
:1043D000DCDAD9D7D5D4D2D0CFCDCBCAC8C7C5C3E4
:1043E000C2C0BFBDBCBAB9B7B6B4B3B2B0AFADAC62
:1043F000AAA9A8A6A5A4A2A1A09E9D9C9A999897B7
:1044000095949392908F8E8D8B8A898887868483EA
:104410008281807F7E7D7B7A7978777675747372FE
:1044200071706F6E6D6C6B6A6968676665646362F4
:1044300061605F5E5D5C5B5A5958585756555453DE
:10444000525150504F4E4D4C4B4A4A4948474646B0
:10445000454443424241403F3E3E3D3C3B3B3A396E
:10446000383837363535343332323130302F2E2E1E
:104470002D2C2B2B2A2929282727262525242323C1
:1044800022212120201F1E1E1D1C1C1B1B1A191956
:104490001818171616151514131312121111100FE0
:1044A0000F0E0E0D0D0C0C0B0A0A09090808070760
:1044B000060605050404030302020100004F6666B8
:1044C000004F6E004D38340054656D706572617434
:1044D0007572650050726568656174202400486FCC
:1044E00074656E6420746F6F20636F6C640050722B
:1044F0006F6365656400536F667420456E64737402
:104500006F70730044697361626C652053746570E9
:1045100070657273004D34382050726F626520549C
:1045200065737400473238204F0A4D3438205031BB
:1045300030004C6576656C20436F726E6572730057
:104540004175746F20486F6D6500507265686561D4
:1045500074202420456E6400507265686561742083
:10456000242042656400436F6F6C646F776E005067
:1045700072696E742066726F6D204D6564696100AA
:104580004D6F76652025736D6D004D6F766520301B
:104590002E316D6D004D6F766520316D6D004D6F64
:1045A00076652031306D6D004D6F766520417869FC
:1045B00073004578747275646572004D6F7665207E
:1045C0005A004D6F76652059004D6F766520580072
:1045D00050726F62653A3A70726F62655F646F77AE
:1045E0006E5F746F5F7A00205472696767657265E9
:1045F00064206561726C792E00204E6F20747269A0
:10460000676765722E002050726F6265206661696F
:104610006C21202D0000000A0B02090C0D0E08076A
:104620000304010000000000000000000000000082
:10463000000000000000000000000000000000007A
:104640000012111000000000000000000000000037
:1046500000000000000000000000002052004D6536
:10466000736820736176656420696E20736C6F7463
:1046700020003F556E61626C6520746F2073617617
:1046800065206D65736820646174612E0A00207373
:104690006C6F743D00206D65736865735F656E6453
:1046A0003D004532454E443D00206D6573682073E2
:1046B0006C6F747320617661696C61626C652E0A3F
:1046C000003F496E76616C696420736C6F742E0ACA
:1046D000004D657368206C6F616465642066726F5D
:1046E0006D20736C6F7420003F556E61626C6520A5
:1046F000746F206C6F6164206D65736820646174F1
:10470000612E0A0072657365745F6265645F6C6533
:1047100076656C0A0048617264636F646564204466
:10472000656661756C742053657474696E67732077
:104730004C6F616465640A00556E69666965642042
:10474000426564204C6576656C696E67003B2000AD
:1047500020204D363033200020204D34313220537C
:104760000046696C616D656E742072756E6F75744C
:104770002073656E736F723A0020550046696C6154
:104780006D656E74206C6F61642F756E6C6F616403
:10479000206C656E677468733A0020204D393030A4
:1047A000204B004C696E65617220416476616E63D6
:1047B000653A0020204D3835312058005A2D50726E
:1047C0006F6265204F66667365740020204D32303D
:1047D000392053004175746F2D5265747261637492
:1047E0003A20533D3020746F2064697361626C65B8
:1047F0002C203120746F20696E746572707265743C
:1048000020452D6F6E6C79206D6F76657320617316
:1048100020726574726163742F7265636F7665725E
:104820000020204D3230382053005265636F76658A
:10483000723A20533C6C656E6774683E20463C7546
:104840006E6974732F6D3E0020204D323037205337
:1048500000526574726163743A20533C6C656E67F4
:1048600074683E20463C756E6974732F6D3E205A05
:104870003C6C6966743E0020204D3330342050007B
:1048800020204D333031205000504944207365744E
:1048900074696E67733A0020460020480020204D5E
:1048A0003134352053004D6174657269616C206844
:1048B000656174757020706172616D657465727385
:1048C0003A00206D65736865732E0A0A00454550ED
:1048D000524F4D2063616E20686F6C64200041630D
:1048E00074697665204D65736820536C6F743A2047
:1048F0000020204D34323020530020204D323036FD
:10490000205800486F6D65206F66667365743A00C5
:1049100020204D323035204200416476616E63655F
:10492000643A20423C6D696E5F7365676D656E74B5
:104930005F74696D655F75733E20533C6D696E5F92
:1049400066656564726174653E20543C6D696E5F96
:1049500074726176656C5F66656564726174653EEC
:1049600020583C6D61785F785F6A65726B3E2059B4
:104970003C6D61785F795F6A65726B3E205A3C6D71
:1049800061785F7A5F6A65726B3E20453C6D617845
:104990005F655F6A65726B3E0020204D32303420C7
:1049A0005000416363656C65726174696F6E2028A5
:1049B000756E6974732F7332293A20503C70726996
:1049C0006E745F616363656C3E20523C7265747205
:1049D0006163745F616363656C3E20543C74726113
:1049E00076656C5F616363656C3E0020204D3230FC
:1049F000312058004D6178696D756D2041636365A4
:104A00006C65726174696F6E2028756E6974732F9E
:104A10007332293A0020204D3230332058004D6146
:104A200078696D756D206665656472617465732063
:104A300028756E6974732F73293A00537465707307
:104A40002070657220756E69743A0020204D3230F6
:104A5000302053002044697361626C65640A00462B
:104A6000696C616D656E742073657474696E6773CB
:104A70003A0020204D3134392043203B20556E69C7
:104A8000747320696E2043656C736975730A002026
:104A9000286D6D29002020473231202020203B2026
:104AA000556E69747320696E206D6D0000001643A9
:104AB000000016430000484200002042AEC7A0425A
:104AC000CDCCA042A4B0C7430080E143D007000092
:104AD000D007000064000000102700000000220042
:104AE000250028002B002E003100340002010000B8
:104AF000050108010B0100002100240027002A0005
:104B00002D003000330001010000040107010A01FB
:104B100005050505070508080808020202020A0A39
:104B20000808040404040101010101010101030357
:104B3000030303030303040707070C0C0C0C0C0C02
:104B40000C0C0202020206060606060606060B0BFF
:104B50000B0B0B0B0B0B0102102020080810204040
:104B60001020408002010201080402010102040831
:104B700010204080804020100804020180040201BF
:104B80008040201008040201080402010102040808
:104B90001020408001020408102040804361703AD8
:104BA000007D007D7D2C776F726B3A7B6D696E3A6C
:104BB0007B783A007D2C6D61783A7B783A002C7ACC
:104BC0003A002C793A00617265613A7B66756C6CCB
:104BD0003A7B6D696E3A7B783A004348414D4245D5
:104BE000525F54454D504552415455524500424143
:104BF00042595354455050494E4700415243530087
:104C00004D4F54494F4E5F4D4F4445530054484516
:104C1000524D414C5F50524F54454354494F4E0002
:104C20004C4F4E475F46494C454E414D450041551E
:104C3000544F5245504F52545F53445F5354415464
:104C40005553005344434152440050524F4D505429
:104C50005F535550504F525400454D455247454EB5
:104C600043595F50415253455200434153455F4CB5
:104C7000494748545F4252494748544E45535300B0
:104C8000544F47474C455F4C494748545300534F96
:104C90004654574152455F504F574552004255497F
:104CA0004C445F50455243454E54004C4556454C8C
:104CB000494E475F44415441005A5F50524F42456C
:104CC000004155544F4C4556454C005052494E54A6
:104CD0005F4A4F420050524F47524553530041558F
:104CE000544F5245504F52545F54454D5000564F0B
:104CF0004C554D45545249430042494E4152595F2B
:104D000046494C455F5452414E5346455200534527
:104D10005249414C5F584F4E5F584F4646004649F6
:104D2000524D574152455F4E414D453A4D61726C6F
:104D3000696E20322E302E372E3220284F63742099
:104D4000323020323032302031373A32353A353253
:104D50002920534F555243455F434F44455F5552B9
:104D60004C3A68747470733A2F2F6769746875626F
:104D70002E636F6D2F4D61726C696E4669726D772F
:104D80006172652F4D61726C696E2050524F544FA5
:104D9000434F4C5F56455253494F4E3A312E3020C7
:104DA0004D414348494E455F545950453A53696413
:104DB0006577696E646572205831204558545255A4
:104DC0004445525F434F554E543A3120555549445E
:104DD0003A38356534393866302D633663332D34CF
:104DE0003864352D396633362D65383833323264C0
:104DF00039306362310A00004B01CD0211241FBE1D
:104E0000CFEFD1E2DEBFCDBF00E00CBF13E0A0E0EA
:104E1000B2E0E4E1F0E503E00BBF02C007900D92C1
:104E2000A833B107D9F726E1A8E3B3E001C01D928A
:104E3000A832B207E1F716E2CDEFD6E200E006C0F5
:104E400021970109802FFE010F940FA3CC3FD107BA
:104E500080E00807A9F70F94128B0D94F8A70C9423
:104E600000002F923F924F925F926F927F928F92AB
:104E70009F92AF92BF92CF92DF92EF92FF920F93E9
:104E80001F93CF93DF93CDB7DEB7E5970FB6F894B6
:104E9000DEBF0FBECDBF8DAB209146032CAB11E022
:104EA0001093460380913B058D3409F434C3843557
:104EB00011F40C946739873411F00C949639809171
:104EC000390590913A058A31910509F454C1E4F409
:104ED000843091053CF4823091050CF06EC097FF50
:104EE00043C015C38A30910509F43BC124F40497EB
:104EF00009F4F8C00CC38B30910509F437C145970C
:104F000011F40C94983903C38E31910509F45AC1F8
:104F10003CF48C31910509F44DC10CF430C14EC103
:104F20008A35910509F4CCC124F48A9709F43DC26D
:104F3000EEC28B35910509F4C7C18C35910509F096
:104F4000E6C2B4EC2B2EB2E03B2E1FE0E12E10E1C6
:104F5000F12EA5E3B6E0B9A7A8A709E2C02E06E0A6
:104F6000D02E00E010E0F1C180918C0F813011F063
:104F70000C9498390F94A30D80916611882311F435
:104F80000C94D33985E40E94BB69882311F40C94F6
:104F9000D33988E50E94BB6981110C94D33989E526
:104FA0000E94BB6981110C94D3398AE50E94BB69C8
:104FB00081110C94D3390C94A13920918C0F21309C
:104FC00011F00C94983911E0029709F010E00F9459
:104FD000A30D19821A821B821C821D821E821F82CF
:104FE000188682E50E94096A882309F44BC00E9452
:104FF00082696B017C0120E030E0A9010F94149CD0
:10500000882309F455C08091350690913606A09109
:105010003706B091380688A799A7AAA7BBA78091A1
:10502000390690913A06A0913B06B0913C0688ABB8
:1050300099ABAAABBBAB8090771090907810A09002
:105040007910B0907A1040907B1050907C10609056
:105050007D1070907E10A501940168A579A58AA5A0
:105060009BA50F94149C81110C94FE39A30192010D
:1050700068A979A98AA99BA90F94149C8823C1F0D7
:105080000C94FE3989E40E94096A882331F00E9459
:10509000826969837A838B839C838AE40E94096A8C
:1050A000882331F00E9482696D837E838F83988785
:1050B00020E030E0A90169817A818B819C810F9485
:1050C000149C81110C94B23A20E030E0A9016D816A
:1050D0007E818F8198850F94149C81110C94B23A33
:1050E0000C94C53A80E50E94096A882329F00F9440
:1050F000740B6B017C0103C0C12CD12C760183E5BC
:105100000E94096A882361F00E94826920E030E0F1
:105110004AE754E40F947A9C0F948BA46B017C01B2
:105120000F9440688091C00F811105C060E087E74F
:1051300097E00F943E620F943F7AC60ED71EE81E8A
:10514000F91E0F943F7ADC01CB018C199D09AE0941
:10515000BF09B7FD02C00C94983980E00E946179C4
:10516000F0CF81E00E944A5C0C94983980E00E9464
:105170004A5C0C9498390E94875D0C94983987E0BA
:105180000E940CB481110C9498398CE0E3E8F2E0B1
:10519000DE01119601900D928A95E1F760E070E0D2
:1051A00080E50F94BC0ABE016F5F7F4F0F94EF5EE6
:1051B0000C9498390F94DF490C9498390E940B4F46
:1051C0000C949839209188103091891040918A1060
:1051D00050918B106091350670913606809137069C
:1051E000909138060F9418A3AB01BC0188E50E948A
:1051F00067C669837A838B839C8320918C1030915E
:105200008D1040918E1050918F10609139067091E1
:105210003A0680913B0690913C060F9418A3AB018F
:10522000BC0189E50E9467C66D837E838F83988762
:10523000BE016B5F7F4FCE0101960E94C06A88233A
:1052400011F40C94983980E00E9428720E941CB5D9
:1052500061E085E40E943959182F01E021E041E026
:10526000682FCE0101960E9407746B017C019B019F
:10527000AC010F9465A6811119C049815A816B81D7
:105280007C818AE897E00E94DC6F4D815E816F81AE
:10529000788585E897E00E94DC6FB701A60180E879
:1052A00097E00E94DC6F8AE00E941E780E9403B59E
:1052B000113011F40E94A46A0E943FB60C949839F0
:1052C000109245030C9498398FE0809345030C9419
:1052D00098390E9482692B013C01133049F0D601B4
:1052E0002D913D914D915C910F9417A32B013C01A1
:1052F000E8A5F9A52081318142815381C301B20122
:105300000F9417A34B015C012DEB37E346E855EBF7
:105310000F9478A587FD21C02DEB37E346E855E3D0
:10532000C501B4010F94149C1816BCF01F5FF4E083
:10533000EF0EF11C28A539A52C5F3F4F39A728A7F0
:1053400034E0C30ED11C143031F1F10181911F0101
:105350000E94096A882351F3BCCF133051F4409264
:10536000410650924206609243067092440601E064
:10537000DDCFA5019401D7016D917D918D919C9117
:105380000F9418A3F7016083718382839383812F25
:105390000F94226ECBCF002321F081E496E00F948E
:1053A000206C0E943FB60C94983980918C0F81300C
:1053B00011F00C94983989E40E94096A082F882317
:1053C00021F00E947E69E82E01C0E12C8AE40E944F
:1053D000096A182F882321F00E947E69F82E01C0E7
:1053E000F12C002319F086E08E1528F0112349F0E6
:1053F00096E09F1530F482E997E00E94856D0C9449
:10540000983980E1E5E3F6E0A7E7B0E101900D927D
:105410008A95E1F7002359F08E2D0E94036C60936A
:105420007710709378108093791090937A101123ED
:1054300059F08F2D0E94036C60937B1070937C1049
:1054400080937D1090937E1060E080E50E94395932
:105450008823C1F10023D1F0209188103091891068
:1054600040918A1050918B10609177107091781054
:105470008091791090917A100F9417A36093771010
:10548000709378108093791090937A101123D1F053
:1054900020918C1030918D1040918E1050918F1072
:1054A00060917B1070917C1080917D1090917E10A6
:1054B0000F9417A360937B1070937C1080937D10E2
:1054C00090937E1040E050E0BA0186E40E9467C6E7
:1054D0006B017C0120E030E0A9010F9478A518163B
:1054E0004CF420E030E040E752E4C701B6010F94ED
:1054F00012A403C060E070E0CB0169837A838B83E0
:105500009C83CE0101960E941BC10C9498390F9484
:1055100004240C9498398091390590913A058C387F
:10552000910509F4DAC50CF0F2C08135910509F452
:105530003FC60CF06BC08A31910509F4E2C2A4F5B4
:105540008431910509F460C27CF48131910509F43C
:1055500047C22CF4029708F4F8C10C9464394297BE
:1055600009F44BC60C9464398731910509F481C262
:1055700094F48531910509F478C2469711F00C94A2
:1055800064390F9442258091D915877F806280937A
:10559000D9150C9498398831910509F47FC249973F
:1055A00009F495C20C9464398F31910509F4BDC397
:1055B0007CF48C31910509F405C30CF4B0C28D3133
:1055C000910509F407C34E9709F40BC30C94643991
:1055D0008B34910509F454C464F48032910509F4C4
:1055E00061C3C09711F00C9464390F94684F0C9408
:1055F00098398C34910509F447C48D34910511F024
:105600000C9464390E9452B80C9498398D369105E7
:1056100009F465C47CF58C35910509F417C684F44A
:105620008335910509F4E1C50CF4D7C5843591059E
:1056300009F4E3C58535910509F4E3C50C94643993
:105640008A36910509F489C454F48836910509F421
:105650001FC48936910509F46CC40C9464398B36E7
:10566000910509F4B3C48C36910511F40C94983962
:105670000C9464398337910509F489C60CF5803799
:10568000910511F40C94983954F48E36910509F46F
:10569000A7C48F36910509F4B6C40C9464398137D8
:1056A000910509F4F5C48237910511F00C94643921
:1056B0000F9485238BE794E10E9465FD0C94983943
:1056C0008737910509F4AAC68CF48537910509F44A
:1056D00061C68637910511F00C9464390091370545
:1056E0001091380594E0F12C40E07CC68837910594
:1056F00009F497C68937910511F00C94643910921A
:10570000B70D1092B60D0E9416B70C9498398039D7
:10571000A1E09A0711F40C9430370CF084C08F3C50
:10572000910511F40C94C833C4F5883C910509F433
:1057300031C7ACF48639910509F4EFC634F48139E8
:10574000910509F476C60C9464398B39910509F4F6
:1057500007C58E3B910509F4E1C40C9464398C3C77
:10576000910509F4C4C754F4893C910509F47DC737
:105770008B3C910509F49CC70C9464398D3C9105D0
:1057800009F4E9C78E3C910511F00C9464394BEB98
:10579000E42E4DE0F42E10E0E9C78232E1E09E07EE
:1057A00011F40C949C35F4F4833D910511F40C94A0
:1057B000633464F4803D910511F40C940C34813D04
:1057C000910511F40C9456340C9464398C3D910578
:1057D00011F40C9420358D3D910511F40C9447354E
:1057E0000C9464398E3221E0920711F40C94E9365E
:1057F0006CF48C32A1E09A0711F40C94E1358D32EF
:10580000914011F40C94F6350C9464398F32E1E038
:105810009E0711F40C942D378033914011F40C94B1
:1058200076360C946439873F21E0920711F40C948A
:1058300045380CF040C0843AA1E09A0711F40C946A
:105840004A37B4F48239E1E09E0711F40C943837FA
:1058500014F40C9433378A3921E0920711F40C9434
:1058600098398C39914011F40C943F370C94643979
:10587000843FA1E09A0711F40C943F386CF4853A08
:10588000E1E09E0711F40C944D378C3A914011F4ED
:105890000C94E3370C946439853F21E0920711F4AE
:1058A0000C944238863F914011F00C9464390F9467
:1058B000C47D0C9498398335A3E09A0711F40C94B5
:1058C000EA380CF58F33E2E09E0711F40C946B3844
:1058D0006CF4883F21E0920711F40C944D388C3021
:1058E000924011F40C945E380C9464398835A2E02F
:1058F0009A0711F40C946E388B35924011F40C9485
:1059000071380C946439803AE3E09E0709F4FFC1D2
:105910006CF48C3623E0920711F40C949839843897
:10592000934011F40C94ED380C946439873EA3E055
:105930009A0711F40C945639893E934011F00C9457
:1059400064390E947CCC0C94983980E50E94096AE5
:10595000882329F00F94740B6B017C0103C0C12CC8
:10596000D12C760183E50E94096A882361F00E94A8
:10597000826920E030E04AE754E40F947A9C0F9467
:105980008BA46B017C010F94406880913705909146
:105990003805009721F061E00F94F06205C060E0E7
:1059A0008BEB97E00F943E628091390590913A0518
:1059B000892B19F063EB77E002C06BEA77E020E017
:1059C00030E043ED56E182E00E94155C40E0C70103
:1059D000B6010E94C57E80E00F9420630C94983934
:1059E00080913C0584FF02C00C94CC3A80913E0526
:1059F00087FF02C00C94CC3A80913F05837011F070
:105A00000C94CC3A0C94E93A8091D91583FF25C0C7
:105A100086EE97E00E94856D8091D91583FF17C0AF
:105A200083E294E10F940A418BE1E3E2F4E1DE01C9
:105A3000119601900D928A95E1F760E070E0CE0139
:105A400001960F943B2CCE0101960F940F4187EDE8
:105A500097E00E94856D0C9498390E94A37387EF9C
:105A600097E00E94856D0C9498390F9401260C9450
:105A70009839E0913705F09138058081882329F025
:105A8000803209F410823196F8CF60E080913705BA
:105A9000909138050F94222B0C9498390E946477CA
:105AA000882321F00F9453250E9419B861E084E502
:105AB00090E40E94A35B49E250E461E078E085E075
:105AC0000F94342480E00F9420630C9498398091D3
:105AD000D91582FF03C08B7F8093D9150E943DB8F2
