:100000000C9415270C9446270C9446270C944627ED
:100010000C9446270C9446270C9446270C944627AC
:100020000C9446270C9446270C9446270C9446279C
:100030000C9446270C9446270C9446270C9446278C
:100040000C9446270D94447A0C9446270C9446272A
:100050000C9446270C9446270D94720D0D94C831CC
:100060000C9446270C942E6E0C94246E0C94462708
:100070000C9446270C9446270C9446270C9446274C
:100080000C9446270C9446270C9446270C9446273C
:100090000C9446270C9446270C9446270C9446272C
:1000A0000C9446270C9446270C9446270C9446271C
:1000B0000C9446270C9446270C9446270C9446270C
:1000C0000C9446270C9446270C9446270C944627FC
:1000D0000C9446270C9446270C9446270C944627EC
:1000E0000C944627A152A8525B536354B155BA559C
:1000F000CA55646E766E886E996EA16ED46EA56ECA
:10010000D46EA96EAD6ED46EB16EB56EB96EC26EA0
:10011000D46ECD6EBB0251010902A5029F02F3010C
:100120003D02ED02EB028B014101D3022102AD0140
:10013000C702FF02C9011B02D7021D02D101B5028D
:100140009B022D022F023B021B02F102D701470145
:100150008B024F01FB01B701DB02CB024301C5015A
:100160009302BD02250129015102E901CB02F901E7
:10017000DF029901084AD73B3BCE016E84BCBFFD2C
:10018000C12F3D6C74319ABD56833DDA3D00C77F67
:1001900011BED9E4BB4C3E916BAAAABE0000008000
:1001A0003F05A84CCDB2D44EB93836A9020C50B98F
:1001B000918688083CA6AAAA2ABE000000803F07B4
:1001C000634236B79BD8A71A39685618AEBAAB55F2
:1001D0008C1D3CB7CC5763BD6DEDFD753EF61772B7
:1001E00031BF000000803F08000000BE9224491289
:1001F0003EABAAAA2ABECDCCCC4C3E00000080BEAD
:10020000ABAAAAAA3E00000000BF000000803F0089
:1002100000000000084178D3BB4387D1133D190E7D
:100220003CC3BD4282AD2B3E68EC8276BED98FE1E5
:10023000A93E4C80EFFFBE01C4FF7F3F00000000DD
:1002400000000D94D73C0D949C650D94F3760D94AD
:10025000C56E0D94FD760C9472D70C94C18D0D94DF
:1002600020290D94B7650C94B5970D9493290C949F
:10027000AB930C94BA550C94E0D90D94626A0C942B
:100280002C810D9418310D94CF760C94A16E0D94A1
:100290002A760D949C290C940FDB0C94B16E0D946E
:1002A000AC760D9406310C94639D0D9450650C94BE
:1002B00063540D949E2A0C94408F0D946A310D94D2
:1002C0007E310C943D870C9444EC0C94A1520D9417
:1002D00090650D94A7670C94348E0C94E7800D9470
:1002E000A5170D9430860D9426030C94CD6E0C94B6
:1002F00089980D946A6B0D9483050D94B62A0C941D
:10030000A96E0D94AE2A0C94679D0D94AD0A0D94C0
:10031000EA650D94AA2A0D942B310C94078B0C944A
:10032000BA930C949ADE0D94B7060D94A2650D94C1
:10033000B2650D9434770C94A7980D94828E0C942A
:100340006E8D0C94B96E0C94468F0C94A0DB0D94BA
:10035000676B0D94CB650C9471850D94F8750C94B6
:1003600071980C948F980D946B2C0D9404050D943A
:10037000BB760C94DA8D0C94ED920C949FD60D9470
:100380005D310C9413980C94AC970D94D7760D9422
:100390008D050D94EF750C94218E0C94FE800C94B9
:1003A000B56E0D9406760C9495980C94B3980D94B4
:1003B00026760C94AD6E0D94A4170C94B1550C9444
:1003C0001FDB0D9404180D94C23C0C94C3DA0D94F9
:1003D0001E290D9416770D945A650D9433310C94A3
:1003E000A56E0C94C2D60D940F310C94FE900C9413
:1003F000678D0D9420770D94B1760C9483980C94AE
:1004000053980C945D9D0C94A9DD0D94BE2A0C9418
:1004100015940D9409310D94DF030C942C980C94D1
:10042000C26E0D946D6B0C943D810C94CC920C9427
:10043000A8D90C94646E0D942F760D9400760D94CB
:10044000BB0C0D94F5750C949A8D0D94A22A0C9406
:100450009C930C944A980D94C4440D9414760D9476
:1004600018760C949D970D943F290C94659D0D94DE
:10047000AD650C94E3DC0D941C760D9412310C9454
:10048000F58D0C94D0800C94B13D0C944FD80C9405
:10049000AD980D94A1660C94218F0C94D46E0D949C
:1004A00018070D940C770D948B440C9485D80C94FC
:1004B000CA550C9421940C944C8F0C947D980C94F8
:1004C000D5F30C943E9D0C945B530C94CE970D94F5
:1004D0004A650C94996E0C94886E0D9488050C9462
:1004E000149B0C94638D0D9452650C94408E0D9466
:1004F000DC060C94699D0C942D8F0D94B22A0C94FB
:100500005F9D0C947D930D9458450C946B9D0C94B9
:10051000088E0D94713C0D94A7760D94C62A0C9408
:10052000D4F10D94A8650D94DF760D9496650C9426
:1005300049F50D94C63C0D940E760C94619D0D9476
:100540000C310D941B690D94A62A0D9430310C9436
:100550009B980C9487EC0D94C1650C9462980C9454
:100560003B980D94DB3C0C94FD990D940A760D9408
:1005700043650C94A1980D942D310D94E9760C945B
:10058000179E0C9400980C942D940D94DF280D94D4
:10059000E7750D94A8660D943E770C94A2DB0C943D
:1005A000F5920C94A8520D941B310D94FE030D94FA
:1005B000FC750D94D9980D94C5760C9477980D948C
:1005C0002A770C9414930C94766E0D9499310D94B3
:1005D000C22A0D94BC650D9415310D941E310C94F6
:1005E000A88D0D9422760D94BA2A0D941D530C9467
:1005F000E7970D94C6650C9415810C94818D0D942C
:10060000EB754E414E494E495459494E46CDCCCCDE
:100610003D0AD7233C17B7D13877CC2B329595E6D6
:10062000241FB14F0A000020410000C84200401CB6
:100630004620BCBE4CCA1B0E5AAEC59D7400407A03
:1006400010F35A00A0724E18090010A5D4E800005B
:10065000E87648170000E40B54020000CA9A3B00F9
:100660000000E1F505000080969800000040420F70
:10067000000000A08601000000102700000000E834
:1006800003000000006400000000000A00000000F9
:10069000000100000000002C76D888DC674F08239A
:1006A000DFC1DFAE59E1B1B796E5E3E453C63AE600
:1006B00051997696E8E6C28426EB898C9B62ED40E0
:1006C0007C6FFCEFBC9C9F40F2BAA56FA5F490052F
:1006D0005A2AF75C936B6CF9676DC11BFCE0E40D63
:1006E00047FEF520E6B500D0ED902E030094357757
:1006F000050080841E080000204E0A000000C80C7F
:10070000333333330F986E12831141EF8D211489E7
:100710003BE65516CFFEE6DB18D1844B381BF77C41
:100720001D901DA4BBE424203284725E228100C986
:10073000F124ECA1E53D274C4556454C494E470078
:10074000434F4D4D554E49434154494F4E0044523D
:100750005952554E004552524F5253004543484F4F
:100760000047322F47332062616420706172616DEF
:1007700065746572730A00536C6565702E2E2E00C9
:10078000205A3A200020593A200042656420583A05
:1007900020004D65736820706F696E74206F7574EA
:1007A000206F662072616E67650A004D30205374B9
:1007B0006F70004D312053746F7000436C69636B30
:1007C00020746F20526573756D652E2E2E004E6F4E
:1007D000204D6F76652E00456E642066696C65203D
:1007E0006C6973740A00426567696E2066696C659E
:1007F000206C6973740A004E6F206D656469610A2C
:1008000000526573756D696E6720534400706175A1
:10081000736500506175736520534400286E6F2026
:1008200066696C65290043757272656E742066692D
:100830006C653A20005344207072696E74696E676B
:10084000206279746520004E6F74205344207072CA
:10085000696E74696E670A0044656C6574696F6ED1
:10086000206661696C65642C2046696C653A2000DD
:1008700046696C652064656C657465643A00256939
:100880007920256964202569682025696D202569FE
:1008900073005072696E742074696D653A2000456A
:1008A0002025530044454255473A004D313133200D
:1008B000530042656420436F6F6C696E672E2E2E65
:1008C000004265642048656174696E672E2E2E00B3
:1008D0005369646577696E646572205831204F46AC
:1008E000462E002F2F20004D31343520533C696EA9
:1008F0006465783E206F7574206F662072616E6744
:10090000652028302D31290A00416363656C6572CA
:100910006174696F6E3A20500020204D61783A2052
:100920000020204D696E3A2000536F667420656E7A
:100930006473746F70733A200046523A0020466C1C
:100940006F773A200020643A0020693A0020703A1C
:10095000006469730043290A0061626C65642028A1
:100960006D696E2074656D702000436F6C64206546
:100970007874727564657320617265200046696CD5
:10098000616D656E742072756E6F75742064697325
:1009900074616E636520286D6D293A200046696C8C
:1009A000616D656E742072756E6F757420004D34C4
:1009B000323120696E636F72726563742070617288
:1009C000616D657465722075736167650A004F66B5
:1009D0006673657473204170706C6965640045725C
:1009E000723A20546F6F206661722100546F6F203D
:1009F0006661722066726F6D207265666572656EE3
:100A0000636520706F696E740A00454550524F4D02
:100A1000204F4B0A002028302D31302900207661EC
:100A20006C7565206F7574206F662072616E6765E6
:100A300000416476616E6365204B3D005072696EC3
:100A40007420446F6E6500446F6E65207072696E2D
:100A500074696E672066696C650A004D3737004D12
:100A60003331005C07701155074E074007370744C4
:100A70006F6E652E0A003F496E76616C6964207363
:100A8000746F7261676520736C6F742E0A3F5573C3
:100A900065203020746F20004732392050322066A4
:100AA000696E69736865642E0A005859206F757401
:100AB00073696465207072696E7461626C6520721E
:100AC00061646975732E0A003F4572726F72206906
:100AD0006E20427573696E65737320436172642082
:100AE0006D6561737572656D656E742E0A004D617A
:100AF0006E75616C6C792070726F62696E672075BB
:100B00006E726561636861626C6520706F696E7496
:100B1000732E0A0050726F62696E672061726F7582
:100B20006E642028004D65736820696E76616C697B
:100B300064617465642E2050726F62696E67206D07
:100B40006573682E0A004D657368207A65726F655B
:100B5000642E0A0044656661756C742073746F724C
:100B600061676520736C6F7420302073656C6563FA
:100B70007465642E0A004C6F6164696E6720746549
:100B800073745F7061747465726E2076616C7565E4
:100B9000732E0A0A00496E76616C6964207465736D
:100BA000745F7061747465726E2076616C75652E09
:100BB00020282D3120746F2032290A0A004C6F63DF
:100BC0006174696F6E7320696E76616C69646174BB
:100BD00065642E0A0A00456E74697265204D65735E
:100BE0006820696E76616C6964617465642E0A0AB6
:100BF000004D65616E204D657368204865696768C2
:100C0000743A200023206F662073616D706C6573E9
:100C10003A20000A4D657368206F6E6C7920706110
:100C2000727469616C6C7920706F70756C61746539
:100C3000642E0A0A0050726F62696E6720506F69F5
:100C40006E74000A50726F62696E67206D6573681A
:100C500020706F696E74200020616E642074616B77
:100C6000652061206D6561737572656D656E742EAA
:100C70000A006D6D20746869636B2E0A00427573FB
:100C8000696E65737320436172642069732000523A
:100C9000656D6F76652026204D65617375726520E0
:100CA0004265640052656D6F7665207368696D00FA
:100CB000506C616365207368696D20756E64657240
:100CC000206E6F7A7A6C65004D65736820506F698D
:100CD0006E74204D656173757265642061743A208D
:100CE000000A4D657368206F6E6C792070617274B4
:100CF00069616C6C7920706F70756C617465642EBD
:100D00000A00506C616365205368696D2026204D90
:100D1000656173757265004D6F76696E6720746FDB
:100D2000206E657874004D65736820456469746948
:100D30006E672053746F7070656400446F6E652039
:100D400045646974696E67204D6573680A00446F75
:100D50006E652045646974696E67204D657368002F
:100D600046696E652054756E696E67204D657368BF
:100D70000028582C5929206F757473696465207098
:100D800072696E7461626C65207261646975732E3C
:100D90000A004F6666736574206F7574206F662055
:100DA000626F756E64732E20283020746F2031308E
:100DB0006D6D290A0A00496E76616C6964206D6167
:100DC0007020747970652E0A0A003F2846296164F4
:100DD000652068656967687420666F722042656483
:100DE000204C6576656C20436F7272656374696F21
:100DF0006E206E6F7420706C61757369626C652E05
:100E00000A0A003F43616E2774206163746976614A
:100E1000746520616E6420646561637469766174D1
:100E200065206174207468652073616D6520746944
:100E30006D652E0A0A00426F7468205820262059DA
:100E4000206C6F636174696F6E73206D75737420AD
:100E50006265207370656369666965642E0A0A00BD
:100E60003F496E76616C69642067726964207369BA
:100E70007A6520284A29207370656369666965640C
:100E80002028322D39292E0A0A003F28502968616E
:100E900073652076616C756520696E76616C696436
:100EA0002028302D36292E0A0A003F28562965723F
:100EB000626F7365206C6576656C20696D706C611E
:100EC000757369626C652028302D34292E0A0A005A
:100ED0003F285229657065746974696F6E20636F6D
:100EE000756E7420696E76616C69642028312B29D7
:100EF0002E0A0A00446F696E672047323900656325
:100F0000686F3A004572726F723A003F3F3F205956
:100F1000696B65732120204E414E20696E20676504
:100F2000745F7A5F636F7272656374696F6E2800B5
:100F300029203D200020726177206765745F7A5F09
:100F4000636F7272656374696F6E2800203A202E99
:100F50002E2E4E6F77204F4E0A00203A204C657699
:100F6000656C696E67204F46460A00203A202E2E97
:100F70002E4E6F77204F46460A00203A204C657669
:100F8000656C696E67204F4E0A0020204D34323167
:100F9000204900202047323920493939390A006177
:100FA00063746976650A002053797374656D2076E1
:100FB000312E303120002020207C0A004E414E008E
:100FC00020202E20202000207C004C43443A0A00A0
:100FD0004353563A0A0020666F7220003A0A0A000C
:100FE0000A42656420546F706F677261706879207F
:100FF0005265706F7274002044697363726570612A
:101000006E63793A00326E642050726F6265205AC6
:101010003A00534C4F57003173742050726F626521
:10102000205A3A00464153540050726F62653A3A72
:1010300072756E5F7A5F70726F62650050726F6278
:10104000696E67204661696C65640A0050726F6260
:10105000696E67204661696C656400506F736974DE
:10106000696F6E204E6F7420526561636861626CB7
:10107000650A005F72656C6174697665290A0050C3
:10108000726F62653A3A70726F62655F61745F7029
:101090006F696E740050726F74656374656420507C
:1010A000696E0A005A5F6D6F76655F636F6D700AD7
:1010B000003E3E3E207365745F617869735F6E65C4
:1010C0007665725F686F6D656428003C3C3C2073F8
:1010D00065745F617869735F6E657665725F686F6E
:1010E0006D656428005072696E7465722073746F48
:1010F000707065642064756520746F206572726F0E
:1011000072732E2046697820746865206572726F4C
:101110007220616E6420757365204D3939392074F1
:101120006F20726573746172742E202854656D701F
:101130006572617475726520697320726573657478
:101140002E20536574206974206166746572207264
:10115000657374617274696E67290A00554E4B4E4F
:101160004F574E2053544154450047434F44455F29
:10117000494E464F004C43445F50415553455F52E2
:101180004553554D450046494C414D454E545F52DF
:10119000554E4F55545F434F4E54494E55450046AA
:1011A000494C414D454E545F52554E4F5554004D9C
:1011B00038373620526573706F6E64696E672050E1
:1011C000524F4D50545F004572726F7220777269B2
:1011D00074696E6720746F20454550524F4D210A47
:1011E0000053544F505045442E20004E6F2043680A
:1011F00065636B73756D2077697468206C696E65C3
:10120000206E756D6265722C204C617374204C6980
:101210006E653A2000636865636B73756D206D6958
:10122000736D617463682C204C617374204C696E1B
:10123000653A20004C696E65204E756D62657220BE
:101240006973206E6F74204C617374204C696E65F5
:10125000204E756D6265722B312C204C61737420A9
:101260004C696E653A20004D313130005344207294
:10127000656164206572726F720A002121204B49FA
:101280004C4C20636175736564206279204B494C36
:101290004C20627574746F6E2F70696E0A00212184
:1012A000204B494C4C206361757365642062792042
:1012B000746F6F206D75636820696E616374697601
:1012C000652074696D65202D2063757272656E747A
:1012D00020636F6D6D616E643A2000627573793AB8
:1012E0002070617573656420666F7220696E707519
:1012F000740A00627573793A2070617573656420B1
:10130000666F7220757365720A00627573793A2090
:1013100070726F63657373696E670A004D65646907
:10132000612052656D6F766564004D65646961206A
:10133000496E736572746564004D36303000206606
:10134000696C616D656E745F72756E6F7574200087
:1013500066696C616D656E745F72756E6F75742011
:10136000540046696C616D656E7452756E6F75746C
:10137000205400506C65617365205265736574007C
:101380005052494E5445522048414C544544002542
:10139000533A20255300706F7765726F6666004B75
:1013A000494C4C45442E20005072696E7465722081
:1013B00068616C7465642E206B696C6C28292063ED
:1013C000616C6C6564210A0050726F6265204F6623
:1013D000667365742058004361703A007D007D7D1E
:1013E0002C776F726B3A7B6D696E3A7B783A007D31
:1013F0002C6D61783A7B783A002C7A3A002C793A55
:1014000000617265613A7B66756C6C3A7B6D696EE2
:101410003A7B783A004348414D4245525F54454D2E
:10142000504552415455524500424142595354454A
:101430005050494E470041524353004D4F54494F7D
:101440004E5F4D4F44455300544845524D414C5F0B
:1014500050524F54454354494F4E004C4F4E475FF6
:1014600046494C454E414D45004155544F5245501B
:101470004F52545F53445F535441545553005344A7
:10148000434152440050524F4D50545F53555050B9
:101490004F525400454D455247454E43595F5041C8
:1014A0005253455200434153455F4C494748545FAE
:1014B0004252494748544E45535300544F47474CB6
:1014C000455F4C494748545300534F465457415287
:1014D000455F504F574552004255494C445F504577
:1014E0005243454E54004C4556454C494E475F4487
:1014F000415441005A5F50524F4245004155544FAC
:101500004C4556454C005052494E545F4A4F42009C
:1015100050524F4752455353004155544F52455036
:101520004F52545F54454D5000564F4C554D455405
:101530005249430042494E4152595F46494C455F2A
:101540005452414E534645520053455249414C5F17
:10155000584F4E5F584F4646004649524D574152EC
:10156000455F4E414D453A4D61726C696E20322E99
:10157000302E372E3220284F6374203235203230FF
:1015800032302031393A31373A32342920534F55ED
:101590005243455F434F44455F55524C3A6874741B
:1015A00070733A2F2F6769746875622E636F6D2FA1
:1015B0004D61726C696E4669726D776172652F4D0F
:1015C00061726C696E2050524F544F434F4C5F56BE
:1015D000455253494F4E3A312E30204D41434849F0
:1015E0004E455F545950453A5369646577696E6456
:1015F00065722058312045585452554445525F4336
:101600004F554E543A3120555549443A3835653492
:10161000393866302D633663332D343864352D39CF
:101620006633362D6538383332326439306362318F
:101630000A003F5A206F7574206F662072616E67D2
:10164000652028003F59206F7574206F66207261F5
:101650006E676520282D003F58206F7574206F66D7
:101660002072616E676520282D00656E7175657545
:1016700065696E672022006F6B00526573656E644A
:101680003A200023646566696E65204445464155ED
:101690004C545F004B6420004B6920004B702000CD
:1016A000504944204175746F74756E652066696E8B
:1016B0006973686564212050757420746865206CB6
:1016C000617374204B702C204B6920616E64204B39
:1016D0006420636F6E7374616E74732066726F6DD5
:1016E0002062656C6F7720696E746F20436F6E6641
:1016F000696775726174696F6E2E680A005049449B
:10170000204175746F74756E65206661696C6564DF
:10171000212074696D656F75740A000A20436C613D
:101720007373696320504944200A00204B643A20B7
:1017300000204B693A2000204B703A20000A204ECE
:101740006F206F76657273686F6F740A002054752E
:101750003A2000204B753A2000206D61783A200035
:10176000206D696E3A200020643A20002062696191
:10177000733A2000504944204175746F74756E654A
:101780002073746172740A00504944204175746F6B
:1017900074756E65206661696C6564212054656DA1
:1017A000706572617475726520746F6F2068696707
:1017B000680A00504944204175746F74756E650065
:1017C000504944204175746F74756E652066616977
:1017D0006C6564212042616420657874727564656B
:1017E00072206E756D6265720A00A10000006900CA
:1017F000A20000006300B00000000900C10000006A
:101800004100C20000004100C30000004100C400CC
:1018100000004100C50000004100C6000000414535
:10182000C70000004300C80000004500C9000000D8
:101830004500CD0000004900D10000004E00D50059
:1018400000004F00D60000004F00D70000007800D5
:10185000DC0000005500DD0000005900E000000041
:101860006100E10000006100E20000006100E300AF
:1018700000006100E40000006100E500000061007C
:10188000E60000006165E70000006300E80000007A
:101890006500E90000006500EA0000006500EB005B
:1018A00000006500EC0000006900ED000000690028
:1018B000EE0000006900EF0000006900F100000088
:1018C0006E00F20000006F00F30000006F00F400F3
:1018D00000006F00F50000006F00F60000006F00D0
:1018E000F80000006F00F90000007500FA00000029
:1018F0007500FB0000007500FC0000007500FD0095
:1019000000007900FF0000007900040100004100A0
:10191000050100006100060100004300070100000E
:1019200063000C01000043000D01000063000E0184
:10193000000044000F010000640011010000640079
:101940001901000065001A01000045001B0100009C
:1019500065001F01000067003001000049003101EF
:1019600000006900410100004C00420100006C00D1
:10197000430100004E00440100006E0048010000D9
:101980006E005801000052005901000072005A0117
:10199000000053005B01000073005F010000730052
:1019A0006001000053006101000073006501000048
:1019B00074006F01000075007C0100007A007D0159
:1019C00000005A007E0100007A00920100006600CB
:1019D000E30200007800222000002E001E210000FB
:1019E000507822210000544D902100003C2D92217E
:1019F00000002D3EB02100000300BB2100000400C8
:101A00003C2200007E00482200007E3D6022000053
:101A1000213D612200003D00642200003C3D652222
:101A200000003E3DF12300000700A03000003D0013
:101A300021F301000200C2F401000500A200000031
:101A4000EC00B0000000DF00E4000000E100F60060
:101A50000000EF00F7000000FD00FC000000F500B2
:101A6000E3020000EB0087030000A5008F030000E5
:101A7000F40098030000F2009E030000E300A303BB
:101A80000000F600A9030000F400AC030000E00031
:101A9000AD030000E300B1030000E000B20300006A
:101AA000E200B5030000E300B8030000F200BC034D
:101AB0000000E400BE030000E300C0030000F700E4
:101AC000C1030000E600C3030000E5009021000010
:101AD0007F00922100007E001A220000E8001E22F2
:101AE0000000F30088250000FF0002300000A10084
:101AF0000C300000A2000D300000A3009B3000005D
:101B0000DE009C300000DF00A03000003D00A1306E
:101B10000000A700A2300000B100A3300000A80020
:101B2000A4300000B200A5300000A900A6300000DB
:101B3000B300A7300000AA00A8300000B400A9300C
:101B40000000AB00AA300000B500AB300000B600CA
:101B5000AC300000B6DEAD300000B700AE300000A3
:101B6000B7DEAF300000B800B0300000B8DEB130F2
:101B70000000B900B2300000B9DEB3300000BA0096
:101B8000B4300000BADEB5300000BB00B630000053
:101B9000BBDEB7300000BC00B8300000BCDEB9309E
:101BA0000000BD00BA300000BDDEBB300000BE004A
:101BB000BC300000BEDEBD300000BF00BE30000003
:101BC000BFDEBF300000C000C0300000C0DEC1304A
:101BD0000000C100C2300000C1DEC3300000AF0011
:101BE000C4300000C200C5300000C2DEC6300000B4
:101BF000C300C7300000C3DEC8300000C400C930D5
:101C00000000C4DECA300000C500CB300000C600B2
:101C1000CC300000C700CD300000C800CE3000003E
:101C2000C900CF300000CA00D0300000CADED13079
:101C30000000CADFD2300000CB00D3300000CBDE82
:101C4000D4300000CBDFD5300000CC00D63000000F
:101C5000CCDED7300000CCDFD8300000CD00D9304A
:101C60000000CDDEDA300000CDDFDB300000CE003A
:101C7000DC300000CEDEDD300000CEDFDE300000E4
:101C8000CF00DF300000D000E0300000D100E130B4
:101C90000000D200E2300000D300E3300000AC00CE
:101CA000E4300000D400E5300000AD00E630000074
:101CB000D500E7300000AE00E8300000D600E93083
:101CC0000000D700EA300000D800EB300000D90057
:101CD000EC300000DA00ED300000DB00EF300000F7
:101CE000DC00F2300000A600F3300000DD00F4302C
:101CF0000000B3DEF7300000DCDEFA300000A6DEC4
:101D0000FB300000A500FC300000B000FD300000FA
:101D1000A400074E0000FB0086510000FC00435366
:101D20000000FA0064FF0000A40065FF0000A500A9
:101D300066FF0000A60067FF0000A70068FF000024
:101D4000A80069FF0000A9006AFF0000AA006BFF5D
:101D50000000AB006CFF0000AC006DFF0000AD00A8
:101D60006EFF0000AE006FFF0000AF0070FF0000CC
:101D7000B00071FF0000B10072FF0000B20073FFFD
:101D80000000B30074FF0000B40075FF0000B50050
:101D900076FF0000B60077FF0000B70078FF000074
:101DA000B80079FF0000B9007AFF0000BA007BFF9D
:101DB0000000BB007CFF0000BC007DFF0000BD00F8
:101DC0007EFF0000BE007FFF0000BF0080FF00001C
:101DD000C00081FF0000C10082FF0000C20083FF3D
:101DE0000000C30084FF0000C40085FF0000C500A0
:101DF00086FF0000C60087FF0000C70088FF0000C4
:101E0000C80089FF0000C9008AFF0000CA008BFFDC
:101E10000000CB008CFF0000CC008DFF0000CD0047
:101E20008EFF0000CE008FFF0000CF0090FF00006B
:101E3000D00091FF0000D10092FF0000D20093FF7C
:101E40000000D30094FF0000D40095FF0000D500EF
:101E500096FF0000D60097FF0000D70098FF000013
:101E6000D80099FF0000D9009AFF0000DA009BFF1C
:101E70000000DB009CFF0000DC009DFF0000DD0097
:101E80009EFF0000DE009FFF0000DF00E5FF000076
:101E90005C0052756E6F75742044697374206D6DAB
:101EA000004C6F6164206D6D00556E6C6F61642035
:101EB0006D6D0046696C2E204469612E00452069D5
:101EC0006E206D6DC2B3004D333033205531204547
:101ED00025692053256900504944204175746F7469
:101EE000756E65202A005049442D44202A0050492F
:101EF000442D49202A005049442D50202A00200218
:101F00002046616374002002204D61780020022089
:101F10004D696E004175746F74656D700056547232
:101F20006176204D696E00566D696E00566D617860
:101F3000204500566D6178205A00566D6178205911
:101F400000566D617820580050726F6265205A20EB
:101F50004F666673657400416476616E63656420E4
:101F600053657474696E677300436F6E74696E7540
:101F70006500554E4C4F41442046494C414D454E1D
:101F8000540046494C414D454E54204348414E472C
:101F900045004E65787420506F696E74004E657808
:101FA0007400556E72657472616374205600556ECC
:101FB000726574722E206D6D00486F70206D6D001B
:101FC0005265747261637420560052657472616365
:101FD00074206D6D004175746F2D5265747261636C
:101FE00074004C6F61642053657474696E6773008C
:101FF000526573746F72652044656661756C7473A5
:102000000053746F72652053657474696E67730052
:1020100050726568656174202420436F6E660052BB
:10202000756E6F75742053656E736F72004D373027
:102030003220542564004D36303020423020542563
:1020400064004D373032203B2564004D373031205D
:10205000542564005075726765206D6F726500527B
:102060004553554D45204F5054494F4E533A00501B
:1020700052494E54205041555345440020204E6F44
:102080007A7A6C653A2000416D6178204500416D97
:102090006178205A00416D6178205900416D617866
:1020A000205800412D54726176656C00412D5265B7
:1020B000747261637400416363656C0050726F6297
:1020C000652059204F66667365740050726F6265B3
:1020D0002058204F666673657400452073746570E0
:1020E000732F6D6D005A2053746570732F6D6D00E2
:1020F000592053746570732F6D6D005820537465AB
:1021000070732F6D6D00496E6974004D3432380064
:1021100050726F6265204F666673657473004A750E
:102120006E6374696F6E2044657600416363656C0D
:1021300065726174696F6E0056656C6F636974795E
:102140000053657420486F6D65204F666673657433
:1021500073002E2E2E2800486F6D696E6720466131
:10216000696C6564006F70656E005452494747455D
:102170005245440066696C616D656E74007A5F6DEE
:10218000696E00795F6D696E00785F6D696E0052EF
:1021900065706F7274696E6720656E6473746F70BA
:1021A000207374617475730A00203A2073796E632A
:1021B0005F706C616E5F706F736974696F6E0A0037
:1021C000646F5F626C6F636B696E675F6D6F76657E
:1021D0005F746F00486F6D6520257325732573202C
:1021E0004669727374005D002C2000646F5F686F35
:1021F0006D696E675F6D6F766500486F74656E64BC
:1022000020746F6F20636F6C640A00473236204879
:10221000656174696E67204E6F7A7A6C650047322B
:10222000362048656174696E6720426564005761B5
:102230006974696E6720666F722068656174757075
:102240002E0A004669786564204C656E67746820C4
:102250005072696D6500446F6E65205072696D69DA
:102260006E67004D616E75616C207072696D696E8C
:10227000672E2E2E004732362043616E63656C65F3
:1022800064004C656176696E6720473236003F53C3
:10229000706563696669656420582C5920636F6FA7
:1022A0007264696E617465206F7574206F66206258
:1022B0006F756E64732E0A003F2852296570656140
:1022C000742076616C7565206E6F7420706C61751A
:1022D0007369626C653B206D757374206265206163
:1022E00074206C6561737420312E0A003F53706551
:1022F000636966696564206E6F7A7A6C65207465BF
:102300006D7065726174757265206E6F7420706C8B
:1023100061757369626C652E0A003F53706563696D
:10232000666965642066696C616D656E74207369A9
:102330007A65206E6F7420706C61757369626C656C
:102340002E0A003F53706563696669656420707288
:10235000696D65206C656E677468206E6F7420709F
:102360006C61757369626C652E0A003F537065631A
:102370006966696564206E6F7A7A6C652073697A24
:1023800065206E6F7420706C61757369626C652E68
:102390000A003F52657472616374696F6E204D75F7
:1023A0006C7469706C696572206D757374206265F8
:1023B000207370656369666965642E0A003F537017
:1023C00065636966696564205265747261637469E6
:1023D0006F6E204D756C7469706C696572206E6FDC
:1023E0007420706C61757369626C652E0A003F53CE
:1023F0007065636966696564206C617965722068DF
:102400006569676874206E6F7420706C617573699C
:10241000626C652E0A0043292E0A003F53706563E3
:102420006966696564206265642074656D706572B3
:102430006174757265206E6F7420706C617573695C
:10244000626C65202834302D004732362073746169
:102450007274696E672E2E2E0A00496E76616C6961
:10246000642065787472756465720A0020746F6FF9
:10247000206C6F6E6720657874727573696F6E205B
:1024800070726576656E7465640A0020636F6C64B3
:1024900020657874727573696F6E207072657665E9
:1024A0006E7465640A003C3C3C00220A00556E6B69
:1024B0006E6F776E20636F6D6D616E643A202200DF
:1024C00020453A0020593A00654953522072756EF2
:1024D0006E696E67206174203E2031306B487A2E21
:1024E0000A004D6F7265207468616E20322073742B
:1024F000657073207065722065495352206C6F6F50
:10250000702065786563757465642E0A00416363A5
:10251000656C65726174696F6E206C696D69746554
:10252000642E0A00DB0FC93F45BCDA3F8FB302407F
:10253000FCF0274056946140FE4B9B4084A5D84058
:10254000E0231841346A5641E859974164DBD5418C
:102550006E271742B4B75542CE1A9742C8AED5423D
:10256000B5885A43D40684BFA65FA7BF7443E0BFB3
:1025700010B11AC01C2C58C0E8F697C0B849D6C094
:102580004E4E17C124D355C1802497C1A0B5D5C1E3
:10259000121A17C244AE55C2781797C26CACD5C296
:1025A00067885AC3416476616E6365204B0046615B
:1025B0006E205370656564004D61696E0042616212
:1025C0007973746570205A00466C6F77005A2056F4
:1025D000616C7565004732380A4D3139302053251A
:1025E000690A4D313039205325690A473239205064
:1025F00031004265642054656D7000486F74656EEB
:10260000642054656D7000473239205036204320D5
:102610002D0048656967687420416D6F756E7400A0
:1026200041646A757374204D6573682048656967F5
:1026300068740046696E652054756E6520436C6F42
:102640007365737400473239205034205400473288
:10265000380A473236204320502048256920422539
:10266000690056616C696461746520437573746FA9
:102670006D204D657368004732380A473236204373
:1026800020502049310056616C6964617465204DA9
:1026900065736820282429004732380A47323620DB
:1026A00043205020493000473239204A2569004CE8
:1026B0006576656C204D65736800536964652050CC
:1026C0006F696E74730047726964204D657368208A
:1026D0004C6576656C696E6700332D506F696E745A
:1026E000204C6576656C696E6700473239204A3048
:1026F0000024F4D43050C38E20C2A24017828B70C5
:1027000011127A910D816CD90AA861E108C7586647
:1027100007615143061E4B5D05C145A7041A4111CF
:1027200004093D9803713931034036DB026533916A
:1027300002D4305402802E1D02632CEE01752AC58E
:1027400001B028A001102781018F2564012B244BA3
:1027500001E0223401AC211F018D200D01801FFCFE
:1027600000841EED00971DDF00B81CD200E61BC6DA
:1027700000201BBC00641AB200B219A8000A19A0FC
:10278000006A189900D117910040178B00B5168484
:102790000031167E00B31579003A157300C7146F27
:1027A0000058146A00EE1366008813630025135E58
:1027B00000C7125B006C12570015125400C1115172
:1027C0000070114F0021114B00D61049008D1047A9
:1027D000004610440002104200C00F4000800F3E2F
:1027E00000420F3C00060F3B00CB0E3800930E3723
:1027F000005C0E3500270E3400F30D3200C10D31A0
:1028000000900D3000600D2E00320D2D00050D2CB6
:1028100000D90C2B00AE0C2900850C29005C0C277C
:1028200000350C27000E0C2600E80B2400C40B24F6
:1028300000A00B23007D0B23005A0B2100390B2134
:1028400000180B2000F80A1F00D90A1E00BB0A1E40
:10285000009D0A1D00800A1D00630A1C00470A1B18
:10286000002C0A1B00110A1A00F7091A00DD0919C9
:1028700000C4091900AB091900920917007B091857
:1028800000630917004C09160036091600200916C6
:10289000000A091500F5081500E0081400CC08141A
:1028A00000B8081400A4081400900813007D081252
:1028B000006B081300580812004608120034081173
:1028C00000230811001208110001081100F0071080
:1028D00000E0071000D0071000C0071000B0070F7D
:1028E00000A107100091070E0083070F0074070F67
:1028F0000065070E0057070E0049070E003B070D45
:10290000002E070E0020070D0013070D0006070D0F
:1029100000F9060C00ED060D00E0060C00D4060CD4
:1029200000C8060C00BC060C00B0060C00A4060B88
:102930000099060C008D060B0082060B0077060B33
:10294000006C060B0061060A0057060B004C060AD5
:102950000042060A0038060A002E060A0024060A6B
:10296000001A060A001006090007060A00FD0509FC
:1029700000F4050900EB050900E2050900D9050985
:1029800000D0050900C7050900BE050900B5050806
:1029900000AD050800A50509009C05080094050880
:1029A000008C050800840508007C050800740508F3
:1029B000006C050700650508005D05070056050861
:1029C000004E0507004705070040050800380507C9
:1029D00000310507002A050700230507001C05062E
:1029E00000160507000F0507000805060002050789
:1029F00000FB040600F5040700EE040600E80406E8
:102A000000E2040700DB040600D5040600CF04063C
:102A100000C9040600C3040600BD040600B704068E
:102A200000B1040500AC040600A6040600A00405DD
:102A3000009B04060095040500900406008A040526
:102A40000085040500800406007A0405007504056D
:102A500000700405006B04050066040500610405B0
:102A6000005C04050057040500520405004D0405F0
:102A70000048040500430405003E0404003A040530
:102A80000035040500300404002C0405002704046C
:102A900000230405001E0404001A040400160405A3
:102AA00000110404000D04040009040500040404DA
:102AB0000000040400FC030400F8030400F4030411
:102AC00000F0030400EC030400E8030400E4030442
:102AD00000E0030400DC030400D8030400D4030472
:102AE00000D0030400CC030400C8030300C50303A3
:102AF0000024F404D9201BC40C5C0E9804C4095FA4
:102B00000265077101F405F900FB04B3004804876E
:102B100000C10369005803550003034500BE023A93
:102B2000008402310053022A0029022500040220F9
:102B300000E4011C00C8011900AF0117009801143E
:102B40000084011300710110006101100051010E99
:102B50000043010D0036010B002B010B0020010B7F
:102B600000150109000C01090003010800FB000821
:102B700000F3000800EB000700E4000600DE00069A
:102B800000D8000600D2000600CC000500C70005F2
:102B900000C2000500BD000400B9000400B5000437
:102BA00000B1000400AD000400A9000400A500036A
:102BB00000A20003009F0004009B00030098000394
:102BC000009500020093000300900003008D0002B6
:102BD000008B0003008800020086000200840003CE
:102BE00000810002007F0002007D0002007B0002E5
:102BF00000790002007700010076000200740002F4
:102C00000072000100710002006F0002006D0001FF
:102C1000006C0002006A0001006900020067000108
:102C2000006600010065000100640002006200010E
:102C30000061000100600001005F0002005D000112
:102C4000005C0001005B0001005A00010059000116
:102C50000058000100570001005600010055000116
:102C60000054000100530000005300010052000115
:102C70000051000100500001004F0001004E000013
:102C8000004E0001004D0001004C0001004B00000F
:102C9000004B0001004A000100490001004800000B
:102CA0000048000100470001004600000046000106
:102CB0000045000000450001004400010043000001
:102CC00000430001004200000042000100410000FA
:102CD0000041000100400001003F0000003F0001F2
:102CE000003E0000003E0001003D0000003D0001EC
:102CF000003C0000003C0000003C0001003B0000E4
:102D0000003B0001003A0000003A000100390000D9
:102D100000390001003800000038000000380001D0
:102D200000370000003700010036000000360000C8
:102D300000360001003500000035000000350001BC
:102D400000340000003400000034000100330000B3
:102D500000330000003300010032000000320000A8
:102D6000003200010031000000310000003100019C
:102D7000003000000030000000300001002F000093
:102D8000002F0000002F0000002F0001002E000087
:102D9000002E0000002E0001002D0000002D00007C
:102DA000002D0000002D0001002C0000002C000070
:102DB000002C0000002C0001002B0000002B000064
:102DC000002B0000002B0001002A0000002A000058
:102DD000002A0000002A000100290000002900004C
:102DE000002900000029000000290001002800003F
:102DF0000028000000280000002800000028000132
:102E00000027000000270000002700000027000026
:102E10000027000100260000002600000026000018
:102E2000002600000026000100250000002500000B
:102E300000250000002500000025000000250001FD
:102E400000240000002400000024000000240000F2
:102E500000240001002300000023000000230000E4
:102E600000230000002300000023000000230001D5
:102E700000220000002200000022000000220000CA
:102E800000220000002200010021000000210000BB
:102E900000210000002100000021000000210000AE
:102EA00000210001002000000020000000200000A0
:102EB0000020000000200000002000000020000092
:102EC00000200001001F0000001F0000001F000084
:102ED000001F0000001F0000001F0000001F000175
:102EE000001E0000001E0000001E0000001E00006A
:102EF00000232C0000B8220000561800003A0F00F2
:102F000000B8080000B1040000710200003E01009A
:102F10000047323920503420523939392054004783
:102F200032380A473239205031004D6F74696F6E64
:102F30000045646974204D657368004D616E75616C
:102F40006C6C79204275696C64204D65736800472C
:102F5000323920493939390A473239205032204232
:102F600020543000372E205361766520426564205E
:102F70004D65736800362E2046696E652054756E67
:102F80006520416C6C00352E2056616C696461745B
:102F900065204D65736800342E2046696E652054A7
:102FA000756E6520416C6C00332E2056616C69642F
:102FB000617465204D65736800322E20536D617217
:102FC000742046696C6C2D696E004732392050338D
:102FD00020543000312E204275696C6420436F6CA0
:102FE00064204D65736800466164652048656967C3
:102FF0006874004F75747075742055424C20496E8A
:10300000666F0047323920570055424C20546F6F8D
:103010006C73004F7574707574204D657368204D26
:103020006170004D6573682053746F72616765004D
:103030004D657368204564697400537465702D4252
:10304000792D537465702055424C00416374697644
:103050006174652055424C00473239204100446577
:1030600061637469766174652055424C004732395A
:103070002044002568753A253032687500253032C5
:1030800068753A25303268750020202020202020E5
:1030900000202063757272656E745F706F7369745F
:1030A000696F6E3D0050726F62653A3A646F5F7A85
:1030B0005F726169736528006465706C6F793A208E
:1030C00000203A2050726F62653A3A7365745F640B
:1030D00065706C6F7965640A00206D61783A002034
:1030E0006D696E3A004178697320005365747469A4
:1030F0006E67732053746F72656400206279746523
:10310000733B20637263200053657474696E677348
:103110002053746F7265642028004E6F204545501F
:10312000524F4D2E0A00454550524F4D2064617458
:103130006173697A65206572726F722E0A003F4D65
:1031400065736820746F6F2062696720666F7220F4
:10315000454550524F4D2E0A0055424C2072657322
:1031600065740A00206C6F616465642066726F6D1F
:103170002073746F726167652E0A004D6573682055
:10318000003F43616E277420656E61626C652000AC
:1031900020696E697469616C697A65642E0A0A0037
:1031A0002073746F7265642073657474696E6773DD
:1031B0002072657472696576656420280020286332
:1031C000616C63756C6174656429210A0020213D7E
:1031D0002000454550524F4D20435243206D6973A6
:1031E0006D61746368202D202873746F7265642983
:1031F0002000496E6465783A200044494749504FA1
:103200005453204C6F616465640A00444947495037
:103210004F5453204C6F6164696E670A00204D6102
:10322000726C696E3D563832290A00454550524F3E
:103230004D2076657273696F6E206D69736D617470
:1032400063682028454550524F4D3D00000096438D
:10325000000096430000C84300000000000000008A
:103260000000000041425300504C4100496E666F1F
:103270002053637265656E00473239205033205207
:1032800020432E2569004D616E75616C2046696C86
:103290006C2D696E0046696C6C2D696E20416D6FF6
:1032A000756E74004D65736820696E76616C696433
:1032B000617465642E0A00496E76616C696461749C
:1032C0006520436C6F736573740047323920490081
:1032D000496E76616C696461746520416C6C004371
:1032E0006F6E74696E756520426564204D65736804
:1032F0000047323920503120430046696C6C2D69FB
:103300006E204D657368004275696C642043757367
:10331000746F6D204D657368004732380A4D31393E
:10332000302049310A4D3130392049310A4732398C
:103330002050310A4D3130342053300A4D31343071
:10334000205330004275696C64204D6573682028F5
:103350002429004732380A4D3139302049300A4D8E
:103360003130392049300A4732392050310A4D3145
:1033700030342053300A4D3134302053300047323E
:103380003920256325690A4D31313720004D657399
:1033900068202569204C6F61646564004D65736821
:1033A000202569205361766564004C6F616420427A
:1033B0006564204D657368004D656D6F72792053AB
:1033C0006C6F74004E6F2053746F726167650047B5
:1033D0003239205034205825732059257320522526
:1033E0006900202D2D2D2D2D00486F6D696E6720F1
:1033F00058595A00473238004F6666205072696E3D
:10340000746572204261636B7570004732392053D6
:103410002D31004F757470757420666F72204353A0
:103420005600473239205431004F7574707574203E
:10343000666F7220486F7374004732392054300031
:103440006832643220436F756E7420583A004D31F3
:103450003036205000453100626564002C207379BD
:103460007374656D2073746F707065642120486596
:10347000617465725F49443A200048656174696E01
:1034800067204661696C65640048656174696E67B0
:10349000206661696C6564004D3131322053687576
:1034A00074646F776E00202D20496E76616C6964BC
:1034B000206578747275646572206E756D626572D0
:1034C00020210A00544845524D414C2052554E414E
:1034D00057415900546865726D616C2052756E6178
:1034E000776179004572723A204D415854454D50EC
:1034F000004D415854454D5020747269676765729C
:103500006564004572723A204D494E54454D500055
:103510004D494E54454D5020747269676765726518
:103520006400202F002042403A0020403A00002052
:1035300053697A653A200043616E6E6F74206F7034
:10354000656E207375626469722000534420496E71
:103550006974204661696C00534420636172642081
:103560006F6B0A006F70656E526F6F7420666169D1
:103570006C65640A00766F6C756D652E696E697492
:10358000206661696C65640A004E6F2053442063B5
:103590006172640A004D3234004D323320257300CD
:1035A0006F70656E206661696C65642C2046696C7D
:1035B000653A200046696C652073656C65637465C7
:1035C000640A0046696C65206F70656E65643A2018
:1035D00000454E4420535542524F5554494E450ADA
:1035E000002220706F73002220706172656E743A41
:1035F0002200535542524F5554494E452043414CA9
:103600004C207461726765743A220053756263617D
:103610006C6C204F766572666C6F770045786365D9
:1036200065646564206D617820535542524F55544E
:10363000494E452064657074683A310A00577269D2
:1036400074696E6720746F2066696C653A20006645
:103650007265736800646F696E67004E6F77200053
:103660005374616E64617264204465766961746943
:103670006F6E3A20002052616E67653A2000205339
:1036800069676D613A20004D65616E3A20003F4ADE
:10369000206F7574206F662072616E676520283018
:1036A0002E303120746F20302E33290A003F2842FB
:1036B00029617564207261746520696D706C617533
:1036C0007369626C652E0A00206261756420726104
:1036D00074652073657420746F20002053657269CF
:1036E000616C2000204D393220580070617573657F
:1036F000640052656865617420446F6E65005265B0
:1037000068656174696E672E2E2E0052656865616A
:1037100074004865617465722054696D656F7574D5
:103720000053656E64204D31303820746F20686519
:103730006174206E6F7A7A6C650A004E6F7A7A6CCB
:1037400065205061726B656400627574746F6E0001
:103750004C6F61642046696C616D656E7420540025
:10376000496E736572742066696C616D656E742054
:10377000616E642073656E64204D3130380A0072CA
:103780006573756D656400526573756D696E67006C
:1037900020496E76616C6964206578747275646521
:1037A000722000436F6E66696775726174696F6E2F
:1037B0000043616E63656C004368616E6765204617
:1037C000696C616D656E7400507265686561742026
:1037D000437573746F6D004368616E6765204D6556
:1037E000646961004D3231004D3630302042300086
:1037F000486F737420537461727400526573756DF1
:1038000065205072696E74004E6F204D6564696169
:103810000054756E650053746F70205072696E7439
:10382000005061757365205072696E740053746145
:103830007274205072696E740043616E6E6F7420F2
:10384000656E746572207375626469723A20000552
:103850002E2E005061726B696E672E2E2E000000B6
:103860005761697420666F720066696C616D656E80
:1038700074206368616E676500746F207374617291
:1038800074005761697420666F720066696C616DBF
:10389000656E7420756E6C6F616400004E6F7A7A8D
:1038A0006C652068656174696E6700506C65617352
:1038B0006520776169742E2E2E0000507265737337
:1038C00020627574746F6E00746F20686561742077
:1038D0006E6F7A7A6C650000496E7365727420664B
:1038E000696C616D656E7400616E642070726573E1
:1038F0007320627574746F6E00746F20636F6E74E2
:10390000696E7565005761697420666F720066693B
:103910006C616D656E74206C6F616400005072653F
:10392000737320427574746F6E00746F20726573C8
:10393000756D65207072696E74000057616974203E
:10394000666F72207072696E7400746F2072657396
:10395000756D652E2E2E00005761697420666F729A
:103960000066696C616D656E7420707572676500C4
:103970000070012C0190012701B0012201C0011D3E
:1039800001F00118011002130130020E016002095A
:103990000190020401C002FF000003FA004003F599
:1039A000008003F000D003EB002004E6007004E187
:1039B00000E004DC004005D700C005D2004006CD81
:1039C00000D006C8008007C3003008BE00F008B968
:1039D00000C009B400B00AAF00B00BAA00D00CA51B
:1039E00000000EA000500F9B00C0109600501291D6
:1039F0000000148C00C0158700B0178200B0197D3C
:103A000000D01B7800001E730040206E00902269D9
:103A100000F024640040275F0090295A00E02B55F5
:103A200000102E500020304B0010324600E0334191
:103A30000090353C001037370070383200A0392D27
:103A400000B03A2800A03B2300603C1E00103D1946
:103A500000903D1400103E0F00703E0A00C03E056D
:103A600000003F0000403FFBFF803FF6FFC03FF1FA
:103A7000FF68747470733A2F2F6D61726C696E6693
:103A8000772E6F72670020322E302E372E320020B4
:103A900020506C616E6E6572427566666572427921
:103AA0007465733A20002046726565204D656D6F20
:103AB00072793A2000436F6D70696C65643A204FEB
:103AC000637420323520323032300A00204C61736A
:103AD0007420557064617465643A20323032302D40
:103AE00031302D3135207C20417574686F723A2059
:103AF000286D6F6F70686C6F2C20536964657769EF
:103B00006E646572205831290A00322E302E372E0D
:103B1000320A004D61726C696E0020536F667477D3
:103B20006172652052657365740A00205761746381
:103B300068646F672052657365740A002042726F73
:103B4000776E206F75742052657365740A00204586
:103B5000787465726E616C2052657365740A0050EA
:103B60006F77657255700A006175746F25632E67F3
:103B7000004732385859004D31303031006572728B
:103B80006F722077726974696E6720746F2066693E
:103B90006C650A00446F6E6520736176696E6720FC
:103BA00066696C652E0A004D323900255320256365
:103BB00020256320256320256300656E6473746F80
:103BC0007073206869743A200020573A007C3C3EAC
:103BD0005E2B3D3F2F5B5D3B2C2A225C00507269BF
:103BE0006E742050617573656400526573756D6500
:103BF000003F00496E697469616C697A65204545CA
:103C000050524F4D006E6F74696669636174696FDD
:103C10006E20005369646577696E6465722058315F
:103C20002052656164792E005072696E74696E6706
:103C30002E2E2E0063616E63656C005072696E7487
:103C40002041626F72746564004469736D697373B7
:103C50000055492041626F72746564004D32350031
:103C600055492050617573650050617573696E67C1
:103C70002E2E2E00726573756D6500454550524FAE
:103C80004D2056657273696F6E204572726F7200B7
:103C9000454550524F4D20496E64657820457272FB
:103CA0006F7200454550524F4D204352432045729C
:103CB000726F720049676E6F7265003F45455052E2
:103CC0004F4D2073746F72616765206E6F74206151
:103CD0007661696C61626C652E0A004661646520DC
:103CE0004865696768742000426564204C657665A4
:103CF0006C696E6720004661696C656420746F2092
:103D0000656E61626C6520426564204C6576656C09
:103D1000696E670A00496E76616C6964206D65732F
:103D2000682E0A0076616C69640A53746F72616769
:103D30006520736C6F743A20004D65736820697359
:103D400020003F496E76616C69642073746F726104
:103D5000676520736C6F742E0A003E3E3E0020287B
:103D600064697361626C6564290A0055424C2041A4
:103D7000646A7573746D656E74205A005A204661CA
:103D800064653A20002028656E61626C6564290ACA
:103D90000041626F76650053616D65205A20617342
:103DA0000042656C6F77004175746F204265642036
:103DB0004C6576656C696E673A2055424C00204E22
:103DC0006F7A7A6C65290A00202620002D43656EE3
:103DD000746572002D46726F6E74002D4261636BC4
:103DE000002028416C69676E65642057697468001B
:103DF00020284D6964646C650020284C6566740059
:103E0000202852696768740050726F62653A2046D4
:103E100049585F4D4F554E5445445F50524F4245AF
:103E20000A004D616368696E6520547970653A20B7
:103E300043617274657369616E0A005A2050726F33
:103E400062652050617374204265640A005A2050F4
:103E5000726F626520506173742042656400203A7D
:103E600020686F6D655F7A5F736166656C790A00C3
:103E7000202064657374696E6174696F6E3D0068BB
:103E80006F6D655F7A5F736166656C790052616919
:103E90007365205A20286265666F726520686F6DB1
:103EA000696E672920627920003E20686F6D696E17
:103EB00067206E6F74206E65656465642C20736B7B
:103EC00069700A00446576696174696F6E002553F4
:103ED0003A2025730046696E6973686564210A009B
:103EE0003A207A3A2000206F662000476F696E679B
:103EF00020746F3A20580043570A00206469723AD0
:103F00000020616E676C653A0053746172742072B0
:103F100061646975733A004D343820506F696E746E
:103F20000025533A2025642F256400506F7369746F
:103F3000696F6E696E67207468652070726F626564
:103F40002E2E2E0A003F4C656773206F66206D6F22
:103F500076656D656E7420696D706C6175736962EC
:103F60006C652028302D3135292E0A003F20285835
:103F70002C5929206F7574206F6620626F756E64EE
:103F8000732E0A0050726F6265206F7574206F6621
:103F900020626F756E6473003F53616D706C6520B5
:103FA00073697A65206E6F7420706C6175736962D5
:103FB0006C652028342D3530292E0A004D343820E8
:103FC0005A2D50726F62652052657065617461622E
:103FD000696C69747920546573740A003F28562906
:103FE0006572626F7365206C6576656C20696D70B3
:103FF0006C61757369626C652028302D34292E0A36
:104000000020706F736974696F6E5F73686966749E
:10401000203D200020686F6D655F6F666673657474
:10402000203D20003C3C3C207365745F61786973DF
:104030005F69735F61745F686F6D652800203A2067
:104040000A005D203D20003E20686F6D655F6F6651
:10405000667365745B002A2A2A205A20484F4D4512
:104060004420574954482050524F424520285A5F17
:104070004D494E5F50524F42455F555345535F5A2D
:104080005F4D494E5F454E4453544F505F50494E2B
:1040900029202A2A2A0A3E2070726F62652E6F66D6
:1040A000667365742E7A203D20003E3E3E20736587
:1040B000745F617869735F69735F61745F686F6D66
:1040C0006528005761726E696E673A20486F6D69A6
:1040D0006E672042756D702044697669736F722037
:1040E0003C20310A003C3C3C20686F6D656178697A
:1040F000732800203A203E204146544552207365E3
:10410000745F617869735F69735F61745F686F6D15
:10411000650A00486F6D65203220536C6F773A0A4C
:10412000004D6F766520417761793A0A00486F6DDE
:1041300065203120466173743A0A003E3E3E206895
:104140006F6D656178697328000000A0420000A0CF
:10415000420000A0410202040000A0400000A04074
:1041600000000040FFFFFF00000001000000010010
:10417000008000555555000000400033333300AA3D
:10418000AA2A004992240000002000C7711C00994F
:10419000991900D1451700555515003BB11300245E
:1041A00049120011111100000010000F0F0F00E361
:1041B000380E0043790D00CCCC0C00C3300C00E865
:1041C000A20B0064210B00AAAA0A00703D0A009D00
:1041D000D80900427B090092240900DCD30800883A
:1041E0008808001042080000000800F0C10700879E
:1041F00087070075500700711C07003EEB0600A101
:10420000BC06006990060066660600703E06006106
:1042100018060017F4050074D105005BB00500B264
:10422000900500627205005555050078390500B803
:104230001E0500050505004EEC040087D40400A10E
:10424000BD040090A7040049920400C17D0400EE63
:10425000690400C7560400444404005C32040008AA
:1042600021040041100400000004003FF00300F8A6
:10427000E0030026D20300C3C30300CCB503003A19
:10428000A803000A9B0300388E0300C08103009F2F
:10429000750300D0690300505E03001D5303003412
:1042A000480300913D03003333030016290300380F
:1042B0001F030097150300300C0300030303000BDA
:1042C000FA020049F10200BAE802005CE002002DA7
:1042D000D802002DD0020059C80200B0C00200313F
:1042E000B90200DAB10200AAAA0200A0A30200BC2F
:1042F0009C0200FA9502005C8F0200DF88020082B7
:10430000820200457C0200277602002770020043EB
:104310006A02007C640200D05E02003F590200C8BD
:10432000530200FFFDFCFAF8F6F4F2F0EEECEAE9D5
:10433000E7E5E3E1E0DEDCDAD9D7D5D4D2D0CFCDE2
:10434000CBCAC8C7C5C3C2C0BFBDBCBAB9B7B6B473
:10435000B3B2B0AFADACAAA9A8A6A5A4A2A1A09ED5
:104360009D9C9A99989795949392908F8E8D8B8A15
:104370008988878684838281807F7E7D7B7A797835
:1043800077767574737271706F6E6D6C6B6A696835
:1043900067666564636261605F5E5D5C5B5A595825
:1043A000585756555453525150504F4E4D4C4B4AFE
:1043B0004A4948474646454443424241403F3E3EC3
:1043C0003D3C3B3B3A393838373635353433323279
:1043D0003130302F2E2E2D2C2B2B2A292928272720
:1043E00026252524232322212120201F1E1E1D1CBB
:1043F0001C1B1B1A19191818171616151514131348
:1044000012121111100F0F0E0E0D0D0C0C0B0A0ACB
:104410000909080807070606050504040303020244
:104420000100000600000701000500070100070663
:104430000000000700050032442D44284423442591
:10444000532025692F2569002020443D002020426B
:104450003D004C534620526573756C747320413D8A
:1044600000726F746174696F6E206D617472697827
:104470003A0A00616674657220726F746174696FC4
:104480006E203D205B005D2020202D2D2D3E200044
:104490006265666F726520726F746174696F6E20F9
:1044A0003D205B005D0A0062656420706C616E6592
:1044B000206E6F726D616C203D205B00436F756CE8
:1044C00064206E6F7420636F6D706C657465204C32
:1044D0005346210020202066696E616C203E3E3EDE
:1044E0002D2D2D3E2000202020636F727265637495
:1044F000696F6E3A2000292020206D656173757206
:1045000065643A2000292020206C6F676963616C24
:104510003A20280054696C74696E67206D65736871
:1045200020706F696E7420003F4572726F72207048
:10453000726F62696E6720706F696E742E204162BF
:104540006F7274696E67206F7065726174696F6EE7
:104550002E0A00255320332F330054696C74696E82
:1045600067206D6573682028332F33290A0025538F
:1045700020322F330054696C74696E67206D657347
:10458000682028322F33290A00436F7272656374E2
:1045900065645F5A3D0054696C74696E6720506FA2
:1045A000696E7400255320312F330054696C74698F
:1045B0006E67206D6573682028312F33290A004FFC
:1045C0006666004F6E004D38340054656D7065723C
:1045D00061747572650050726568656174202400AD
:1045E000486F74656E6420746F6F20636F6C640035
:1045F00050726F6365656400536F667420456E6426
:1046000073746F70730044697361626C65205374D6
:10461000657070657273004D34382050726F62653A
:10462000205465737400473238204F0A4D343820C7
:10463000503130004C6576656C20436F726E657248
:1046400073004175746F20486F6D65005072656826
:10465000656174202420456E640050726568656150
:104660007420242042656400436F6F6C646F776E22
:1046700000001C1F11111F00000006191803130C65
:1046800000040E1F041C000000000E1315110E0084
:10469000001C10181705060500040A0A0A0A111161
:1046A0000E0C12120C00000000001F1511151F0047
:1046B0000000000000010204040000001C1C0C04A7
:1046C00004040201000000000004081000000000C3
:1046D000007C4D61726C696E7C002D2D2D2D2D2D71
:1046E00000456E636C6F73757265005072696E740D
:1046F0002066726F6D204D65646961004D6F76654F
:104700002025736D6D004D6F766520302E316D6DF7
:10471000004D6F766520316D6D004D6F76652031EF
:10472000306D6D004D6F7665204178697300457876
:10473000747275646572004D6F7665205A004D6F16
:1047400076652059004D6F766520580050726F6273
:10475000653A3A70726F62655F646F776E5F746F0F
:104760005F7A0020547269676765726564206561CD
:10477000726C792E00204E6F2074726967676572C3
:104780002E002050726F6265206661696C21202DB9
:104790000000000A0B02090C0D0E080703040100BB
:1047A0000000000000000000000000000000000009
:1047B00000000000000000000000000000121110C6
:1047C00000000000000000000000000000000000E9
:1047D00000000000000000204A002052004D6573D8
:1047E0006820736176656420696E20736C6F742035
:1047F000003F556E61626C6520746F207361766551
:10480000206D65736820646174612E0A0020736CEA
:104810006F743D00206D65736865735F656E643D00
:10482000004532454E443D00206D65736820736C31
:104830006F747320617661696C61626C652E0A0029
:104840003F496E76616C696420736C6F742E0A0048
:104850004D657368206C6F616465642066726F6D6E
:1048600020736C6F7420003F556E61626C6520741C
:104870006F206C6F6164206D657368206461746182
:104880002E0A0072657365745F6265645F6C65769D
:10489000656C0A0048617264636F646564204465F6
:1048A0006661756C742053657474696E6773204C0F
:1048B0006F616465640A00556E69666965642042CB
:1048C0006564204C6576656C696E67003B2000204E
:1048D000204D363033200020204D3431322053001B
:1048E00046696C616D656E742072756E6F757420AB
:1048F00073656E736F723A0020550046696C616D86
:10490000656E74206C6F61642F756E6C6F616420CE
:104910006C656E677468733A0020204D3930302022
:104920004B004C696E65617220416476616E63650F
:104930003A0020204D3835312058005A2D50726FE2
:104940006265204F66667365740020204D323039F1
:104950002053004175746F2D526574726163743A0F
:1049600020533D3020746F2064697361626C652C44
:10497000203120746F20696E7465727072657420C6
:10498000452D6F6E6C79206D6F7665732061732095
:10499000726574726163742F7265636F76657200FD
:1049A00020204D3230382053005265636F76657297
:1049B0003A20533C6C656E6774683E20463C756EC9
:1049C0006974732F6D3E0020204D32303720530024
:1049D000526574726163743A20533C6C656E6774FF
:1049E000683E20463C756E6974732F6D3E205A3CBC
:1049F0006C6966743E0020204D3330342050002016
:104A0000204D333031205000504944207365747478
:104A1000696E67733A0020460020480020204D311F
:104A200034352053004D6174657269616C2068658E
:104A30006174757020706172616D65746572733A2E
:104A400000206D65736865732E0A0A004545505253
:104A50004F4D2063616E20686F6C64200041637469
:104A6000697665204D65736820536C6F743A200039
:104A700020204D34323020530020204D323036205B
:104A80005800486F6D65206F66667365743A002044
:104A9000204D323035204200416476616E6365649A
:104AA0003A20423C6D696E5F7365676D656E745F39
:104AB00074696D655F75733E20533C6D696E5F660A
:104AC000656564726174653E20543C6D696E5F7407
:104AD000726176656C5F66656564726174653E20BF
:104AE0004A3C6A756E635F6465763E0020204D32F5
:104AF0003034205000416363656C65726174696F86
:104B00006E2028756E6974732F7332293A20503CD9
:104B10007072696E745F616363656C3E20523C72B3
:104B20006574726163745F616363656C3E20543CBD
:104B300074726176656C5F616363656C3E00202012
:104B40004D3230312058004D6178696D756D2041CE
:104B50006363656C65726174696F6E2028756E6938
:104B600074732F7332293A0020204D32303320588D
:104B7000004D6178696D756D20666565647261745C
:104B800065732028756E6974732F73293A00537406
:104B90006570732070657220756E69743A0020200C
:104BA0004D3230302053002044697361626C65647B
:104BB0000A0046696C616D656E7420736574746972
:104BC0006E67733A0020204D3134392043203B205A
:104BD000556E69747320696E2043656C73697573D3
:104BE0000A0020286D6D2900202047323120202026
:104BF000203B20556E69747320696E206D6D000036
:104C0000001643000016430000484200002042AE58
:104C1000C7A042CDCCA042A4B0C7430080E143D09E
:104C2000070000D00700006400000010270000000B
:104C3000002200250028002B002E00310034000245
:104C4000010000050108010B0100002100240027DC
:104C5000002A002D0030003300010100000401078C
:104C6000010A0105050505070508080808020202F2
:104C7000020A0A08080404040401010101010101F7
:104C8000010303030303030303040707070C0C0CCE
:104C90000C0C0C0C0C0202020206060606060606A6
:104CA000060B0B0B0B0B0B0B0B0102102020080843
:104CB000102040102040800201020108040201017E
:104CC0000204081020408080402010080402018067
:104CD00004020180402010080402010804020101BE
:104CE0000204081020408001020408102040806463
:104CF0006F6E650A00496E73756666696369656EF5
:104D00007420646174610A004578747261706F6C1C
:104D10006174696E67206D6573682E2E2E002C7984
:104D2000693D002C78315F693D00206F7574206FFC
:104D30006620626F756E647320696E207A5F636FA0
:104D40007272656374696F6E5F666F725F785F6FB2
:104D50006E5F686F72697A6F6E74616C5F6D657398
:104D6000685F6C696E65287278303D0078315F69E4
:104D7000007969002C2079315F693D002C20786929
:104D80003D00206F7574206F6620626F756E6473CE
:104D900020696E207A5F636F7272656374696F6EEB
:104DA0005F666F725F795F6F6E5F7665727469635D
:104DB000616C5F6D6573685F6C696E6528727930D0
:104DC0003D0078690079315F69002F2F6163746954
:104DD0006F6E3A00737461727400626567696E0089
:104DE000656E640070726F6D70745F0073686F77CA
:104DF0000044697361626C6552756E6F7574005022
:104E0000757267654D6F7265000000803FABAA4AFE
:104E100042ABAAC84200001643ABAA474356557995
:104E2000430080954300D9029D0111241FBECFEF9E
:104E3000D1E2DEBFCDBF00E00CBF13E0A0E0B2E0E6
:104E4000ECE4F7E503E00BBF02C007900D92A83435
:104E5000B107D9F726E1A8E4B3E001C01D92AC3355
:104E6000B207E1F717E2C4E1D7E200E006C02197FC
:104E70000109802FFE010F9499A6C331D10780E06C
:104E80000807A9F70F949C8E0D9494AB0C94000026
:104E90002F923F924F925F926F927F928F929F924A
:104EA000AF92BF92CF92DF92EF92FF920F931F9338
:104EB000CF93DF93CDB7DEB7E5970FB6F894DEBF9B
:104EC0000FBECDBF8DAB209156032CAB11E01093DC
:104ED00056038091A5048D3409F434C3843511F44C
:104EE0000C94B939873411F00C94E8398091A304FB
:104EF0009091A4048A31910509F454C1E4F48430FA
:104F000091053CF4823091050CF06EC097FF43C0D0
:104F100015C38A30910509F43BC124F4049709F4C0
:104F2000F8C00CC38B30910509F437C1459711F4D3
:104F30000C94EA3903C38E31910509F45AC13CF44B
:104F40008C31910509F44DC10CF430C14EC18A3544
:104F5000910509F4CCC124F48A9709F43DC2EEC24C
:104F60008B35910509F4C7C18C35910509F0E6C26E
:104F700014ED212E12E0312E0FEDE02E0FE0F02E79
:104F8000A6E2B5E0B9A7A8A78AE1C82E85E0D82E89
:104F900000E010E0F1C180915C0F813011F00C94C1
:104FA000EA390F94E42380917A11882311F40C9448
:104FB000253A85E40E948C58882311F40C94253AF4
:104FC00088E50E948C5881110C94253A89E50E944D
:104FD0008C5881110C94253A8AE50E948C588111D5
:104FE0000C94253A0C94F33920915C0F213011F088
:104FF0000C94EA3911E0029709F010E00F94E423D1
:1050000019821A821B821C821D821E821F821886B0
:1050100082E50E94DA58882309F44BC00E94535855
:105020006B017C0120E030E0A9010F949E9F882352
:1050300009F455C08091260590912705A091280577
:10504000B091290588A799A7AAA7BBA780912A058F
:1050500090912B05A0912C05B0912D0588AB99ABB3
:10506000AAABBBAB80908B1090908C10A0908D1051
:10507000B0908E1040908F105090901060909110D2
:1050800070909210A501940168A579A58AA59BA5A9
:105090000F949E9F81110C94503AA301920168A92C
:1050A00079A98AA99BA90F949E9F8823C1F00C948B
:1050B000503A89E40E94DA58882331F00E9453580C
:1050C00069837A838B839C838AE40E94DA588823DD
:1050D00031F00E9453586D837E838F83988720E040
:1050E00030E0A90169817A818B819C810F949E9F18
:1050F00081110C94043B20E030E0A9016D817E8198
:105100008F8198850F949E9F81110C94043B0C9481
:10511000173B80E50E94DA58882329F00F949121EB
:105120006B017C0103C0C12CD12C760183E50E9468
:10513000DA58882361F00E94535820E030E04AE7B3
:1051400054E40F9404A00F9427A86B017C010F94E2
:105150001D548091900F811105C060E087E797E0B2
:105160000F9449440F948177C60ED71EE81EF91E8E
:105170000F948177DC01CB018C199D09AE09BF0921
:10518000B7FD02C00C94EA3980E00E944A68F0CF73
:1051900081E00F9435860C94EA3980E00F943586CF
:1051A0000C94EA390E948CB60C94EA3987E00E948C
:1051B00065A181110C94EA398CE0E3E8F2E0DE01AC
:1051C000119601900D928A95E1F760E070E080E51C
:1051D0000F94D920BE016F5F7F4F0F94FA400C945B
:1051E000EA390F94A7480C94EA390E945D4F0C9459
:1051F000EA3920919C1030919D1040919E10509161
:105200009F10609126057091270580912805909147
:1052100029050F94B4A6AB01BC0188E50E94C370B8
:1052200069837A838B839C832091A0103091A11095
:105230004091A2105091A31060912A0570912B0506
:1052400080912C0590912D050F94B4A6AB01BC0163
:1052500089E50E94C3706D837E838F839887BE012A
:105260006B5F7F4FCE0101960E949159882311F404
:105270000C94EA3980E00E9411610E9475A261E0FD
:1052800085E40E9455B4182F01E021E041E0682F29
:10529000CE0101960E94F0626B017C019B01AC0182
:1052A0000F9401AA811119C049815A816B817C81B7
:1052B0008AE897E00E94C55E4D815E816F817885A6
:1052C00085E897E00E94C55EB701A60180E897E0F7
:1052D0000E94C55E8AE00E9407670E945CA21130AE
:1052E00011F40E9475590E9498A30C94EA39109207
:1052F00055030C94EA398FE0809355030C94EA39F6
:105300000E9453582B013C01133049F0D6012D91D6
:105310003D914D915C910F94B3A62B013C01E8A502
:10532000F9A52081318142815381C301B2010F94DB
:10533000B3A64B015C012DEB37E346E855EB0F9428
:1053400014A987FD21C02DEB37E346E855E3C501DD
:10535000B4010F949E9F1816BCF01F5FF4E0EF0E8F
:10536000F11C28A539A52C5F3F4F39A728A734E0A9
:10537000C30ED11C143031F1F10181911F010E9443
:10538000DA58882351F3BCCF133051F440923205E0
:1053900050923305609234057092350501E0DDCFFF
:1053A000A5019401D7016D917D918D919C910F94F0
:1053B000B4A6F7016083718382839383812F0F9456
:1053C000FF59CBCF002321F082E395E00F94FD57E6
:1053D0000E9498A30C94EA3980915C0F813011F0FF
:1053E0000C94EA3989E40E94DA58082F882321F0C6
:1053F0000E944F58E82E01C0E12C8AE40E94DA583E
:10540000182F882321F00E944F58F82E01C0F12C4C
:10541000002319F086E08E1528F0112349F096E05C
:105420009F1530F482E997E00E946E5C0C94EA3993
:1054300080E1E6E2F5E0ABE8B0E101900D928A95FB
:10544000E1F7002359F08E2D0E94EC5A60938B10E7
:1054500070938C1080938D1090938E10112359F0BF
:105460008F2D0E94EC5A60938F1070939010809350
:1054700091109093921060E080E50E9455B48823CB
:10548000C1F10023D1F020919C1030919D104091EA
:105490009E1050919F1060918B1070918C10809194
:1054A0008D1090918E100F94B3A660938B10709313
:1054B0008C1080938D1090938E101123D1F0209139
:1054C000A0103091A1104091A2105091A3106091B2
:1054D0008F107091901080919110909192100F9474
:1054E000B3A660938F107093901080939110909357
:1054F000921040E050E0BA0186E40E94C3706B0154
:105500007C0120E030E0A9010F9414A918164CF496
:1055100020E030E040E752E4C701B6010F94AEA7A7
:1055200003C060E070E0CB0169837A838B839C8346
:10553000CE0101960E9426AE0C94EA390E9466D6EE
:105540000C94EA398091A3049091A4048C389105BD
:1055500009F4D8C50CF0F2C08135910509F43DC6B7
:105560000CF06BC08A31910509F4E0C2A4F58431D6
:10557000910509F45EC27CF48131910509F445C2BC
:105580002CF4029708F4F6C10C94B639429709F44A
:1055900049C60C94B6398731910509F47FC294F459
:1055A0008531910509F476C2469711F00C94B6390D
:1055B0000F94A7188091ED15877F80628093ED1579
:1055C0000C94EA398831910509F47DC2499709F4B0
:1055D00093C20C94B6398F31910509F4BBC37CF4A6
:1055E0008C31910509F403C30CF4AEC28D319105E1
:1055F00009F405C34E9709F409C30C94B6398B34EA
:10560000910509F452C464F48032910509F45FC332
:10561000C09711F00C94B6390F94304E0C94EA39BF
:105620008C34910509F445C48D34910511F00C9426
:10563000B6390F94183D0C94EA398D36910509F46A
:1056400063C47CF58C35910509F415C684F4833563
:10565000910509F4DFC50CF4D5C58435910509F42D
:10566000E1C58535910509F4E1C50C94B6398A3652
:10567000910509F487C454F48836910509F41DC4D2
:105680008936910509F46AC40C94B6398B369105B4
:1056900009F4B1C48C36910511F40C94EA390C94D8
:1056A000B6398337910509F474C60CF58037910536
:1056B00011F40C94EA3954F48E36910509F4A5C41A
:1056C0008F36910509F4B4C40C94B639813791052D
:1056D00009F4F3C48237910511F00C94B6390E9495
:1056E000E7D58FE894E10F943A170C94EA3987379D
:1056F000910509F498C68CF48537910509F44DC6D7
:105700008637910511F00C94B6390091A1041091DF
:10571000A20494E0F12C40E06AC68837910509F4B0
:1057200085C68937910511F00C94B6391092870D12
:105730001092860D0E946FA40C94EA398039A1E082
:105740009A0711F40C9438370CF084C08F3C910503
:1057500011F40C94D033C4F5883C910509F41FC7AB
:10576000ACF48639910509F4DDC634F4813991052C
:1057700009F464C60C94B6398B39910509F405C552
:105780008E3B910509F4DFC40C94B6398C3C91052D
:1057900009F4B5C754F4893C910509F46BC78B3CF7
:1057A000910509F48DC70C94B6398D3C910509F427
:1057B000DAC78E3C910511F00C94B6394BE8E42E13
:1057C0004DE0F42E10E0DAC78232E1E09E0711F4DA
:1057D0000C94A435F4F4833D910511F40C946B34CE
:1057E00064F4803D910511F40C941434813D9105CD
:1057F00011F40C945E340C94B6398C3D910511F47F
:105800000C9428358D3D910511F40C944F350C9472
:10581000B6398E3221E0920711F40C94F1366CF413
:105820008C32A1E09A0711F40C94E9358D32914045
:1058300011F40C94FE350C94B6398F32E1E09E07DA
:1058400011F40C9435378033914011F40C947E366A
:105850000C94B639873F21E0920711F40C944D382F
:105860000CF040C0843AA1E09A0711F40C9452372E
:10587000B4F48239E1E09E0711F40C94403714F43B
:105880000C943B378A3921E0920711F40C94EA39E1
:105890008C39914011F40C9447370C94B639843FFD
:1058A000A1E09A0711F40C9447386CF4853AE1E0D2
:1058B0009E0711F40C9455378C3A914011F40C94D6
:1058C000EB370C94B639853F21E0920711F40C9424
:1058D0004A38863F914011F00C94B6390F94067BFC
:1058E0000C94EA398335A3E09A0711F40C94F2384A
:1058F0000CF58F33E2E09E0711F40C9473386CF4CE
:10590000883F21E0920711F40C9455388C30924076
:1059100011F40C9466380C94B6398835A2E09A07D5
:1059200011F40C9476388B35924011F40C9479383C
:105930000C94B639803AE3E09E0709F4FDC16CF49B
:105940008C3623E0920711F40C94EA3984389340A2
:1059500011F40C94F5380C94B639873EA3E09A07FD
:1059600011F40C945E39893E934011F40C946C3917
:105970000C94B63980E50E94DA58882329F00F94F8
:1059800091216B017C0103C0C12CD12C760183E5F0
:105990000E94DA58882361F00E94535820E030E0DA
:1059A0004AE754E40F9404A00F9427A86B017C01EC
:1059B0000F941D548091A1049091A204009721F0AE
:1059C00061E00F94FB4405C060E08BEB97E00F941F
:1059D00049448091A3049091A404892B19F063EBAE
:1059E00077E002C06BEA77E020E030E049E65FE173
:1059F00082E00F94008640E0C701B6010E94AE6DC0
:105A000080E00F942B450C94EA398091A60484FF22
:105A100002C00C941E3B8091A80487FF02C00C9426
:105A20001E3B8091A904837011F00C941E3B0C94D2
:105A30003B3B8091ED1583FF25C086EE97E00E94E9
:105A40006E5C8091ED1583FF17C087E394E10F949E
:105A5000CB338BE1E7E3F4E1DE01119601900D9287
:105A60008A95E1F760E070E0CE0101960F94A01FE7
:105A7000CE0101960F94D03387ED97E00E946E5CC3
:105A80000C94EA390E948C6287EF97E00E946E5C6A
:105A90000C94EA390F9466190C94EA39E091A10448
:105AA000F091A2048081882329F0803209F41082C9
:105AB0003196F8CF60E08091A1049091A2040F94F8
:105AC000871E0C94EA390E944D66882321F00F94BA
:105AD000B8180F94DF3C61E084E79CE30F948E8557
