:100000000C948B250C94BC250C94BC250C94BC251D
:100010000C94BC250C94BC250C94BC250C94BC25DC
:100020000C94BC250C94BC250C94BC250C94BC25CC
:100030000C94BC250C94BC250C94BC250C94BC25BC
:100040000C94BC250D94755E0C94BC250C94BC25B9
:100050000C94BC250C94BC250D94F6040D949D20A5
:100060000C94BC250C94045A0C94FA590C94BC259D
:100070000C94BC250C94BC250C94BC250C94BC257C
:100080000C94BC250C94BC250C94BC250C94BC256C
:100090000C94BC250C94BC250C94BC250C94BC255C
:1000A0000C94BC250C94BC250C94BC250C94BC254C
:1000B0000C94BC250C94BC250C94BC250C94BC253C
:1000C0000C94BC250C94BC250C94BC250C94BC252C
:1000D0000C94BC250C94BC250C94BC250C94BC251C
:1000E0000C94BC252F493649E949F14A434C4C4C04
:1000F0005C4C3A5A4C5A5E5A6F5A775AAA5A7B5AF3
:10010000AA5A7F5A835AAA5A875A8B5A8F5A985A90
:10011000AA5AA35AD1024501A7011F026B01BF01D0
:100120001702E501A702D9018F028502C301290147
:10013000D9025102CB022101AF026B0243028901B5
:1001400027026501AB027F0121016D02DD020F0272
:100150007D014D02CB01F301470223025702EB015F
:1001600025016901230135012D01AD02230273012F
:100170005302B901084AD73B3BCE016E84BCBFFD98
:10018000C12F3D6C74319ABD56833DDA3D00C77F67
:1001900011BED9E4BB4C3E916BAAAABE0000008000
:1001A0003F05A84CCDB2D44EB93836A9020C50B98F
:1001B000918688083CA6AAAA2ABE000000803F07B4
:1001C000634236B79BD8A71A39685618AEBAAB55F2
:1001D0008C1D3CB7CC5763BD6DEDFD753EF61772B7
:1001E00031BF000000803F08000000BE9224491289
:1001F0003EABAAAA2ABECDCCCC4C3E00000080BEAD
:10020000ABAAAAAA3E00000000BF000000803F0089
:1002100000000000084178D3BB4387D1133D190E7D
:100220003CC3BD4282AD2B3E68EC8276BED98FE1E5
:10023000A93E4C80EFFFBE01C4FF7F3F00000000DD
:1002400000000D944E680D9412690D94FE680D9493
:1002500095230D9417680D9413570D942B690D94E5
:10026000C7550C9418920D94B4170D941C690C94F6
:100270004C4C0C94F78B0C946CCD0C9405CB0D94DA
:100280003E230D9497190C94985A0D94DB1F0D94EE
:10029000F5170D9486230D94D6530C94D48B0C949F
:1002A000D8820C9462CD0C94AC880D94A6550C9415
:1002B000FAF10C947F5A0D9419230D9493190D940F
:1002C0001B210C94885B0D94C5550D9433680D94D7
:1002D00077190D9408690D94E11F0C9496D20D9432
:1002E00014180C94F7CE0D943F690D94C40E0D9420
:1002F00038220D944B260C942B600D94C6680D94F7
:100300003B680C948B5A0D9416590C94158F0C94D1
:1003100067CD0D9429680C94D6820D94075A0D94DC
:100320005B210D949A250D94CD550D94AE290C9416
:100330008E5B0C94B0880C94875A0D94AF580C9433
:10034000BA8D0D947A230D945C230D9411590D945C
:10035000DE1F0C948B5B0C94B9820D949B190D9449
:10036000A2580D947F190D9453200D94B7290C9425
:10037000D2820D9453690D9456230C945E5A0D94B9
:10038000E41F0D94C50E0D9414680D94401B0D943C
:10039000B9580D949F290D94D0680C94D4820D9473
:1003A0008F210C94BECB0C94B0BB0D948B250D9477
:1003B0004A230D9400200D9449590D948F190D94E2
:1003C000A2210C9454900D94BF520D94F31F0C94E1
:1003D000AA5A0D94F5580D94F6680D94FB580D9497
:1003E00087190C9424BD0D94DA680D940A320C948C
:1003F000CF930C94D5900C94DE920D9444230D94DD
:1004000074230C9436490D9429210D9473190C947E
:100410004C5A0C94BBCE0C94B3B90C94A35A0D94C3
:1004200049680D940C590C94D7900C94E9490D949B
:10043000E71F0C94B7880D94B1580D9425590D946D
:1004400005200D940D870D945D690D944C040D9459
:100450002D680D94B2250D94A9580D9474210C9417
:10046000E3CC0C94D0820C94DD8E0D94C9550D9480
:10047000065B0D9420590D945E250D9413220C9467
:100480005C4C0D94240F0D9425680D942A590D94FD
:10049000E4680D94787D0D9468230D94CB680D94D9
:1004A00062230D940A680D9449690D941B590D94AB
:1004B000EE680D94B5210D9402210C94F14A0D942F
:1004C000DD6F0C94434C0D943F200D94D1310D946D
:1004D0006E230C948F5A0D941F680D9441680C94F0
:1004E00044900D94212A0D947B190D946D250C9444
:1004F0005A5B0D9480230C94835A0D9401590D94EA
:100500009E320D94A9250D94545D0D94F01F0D9409
:100510006E200D94CE210D94204A0D9471180D94E7
:10052000ED1F0C9423B40C94F88F0D9438230D9484
:100530008B190D941D2A0C949C840C942F490C94B7
:1005400085660D9450230D9425230C94DDCB0D94DA
:10055000EA1F0C94715B0D9437680D9435690D9406
:100560001B680C94A78C0D9457260C9466B40D94BC
:1005700042210D943F260D94005A0D9483190D9439
:10058000082A0C94A2820D94F3170C94775A0D94B8
:100590007C250C947B5A0D940E680D94FA210D94D1
:1005A0002C220D9402200C943A5A0D9408200D949C
:1005B000E1210D9406680D947A5C0D9445680C94C5
:1005C000848D0D940C2A0D9432200D94CB550D94EE
:1005D000EF200C9496CE0D94EF580D9407590C947F
:1005E0006F5A0D9468184E414E494E495459494E20
:1005F00046CDCCCC3D0AD7233C17B7D13877CC2B8E
:10060000329595E6241FB14F0A000020410000C832
:100610004200401C4620BCBE4CCA1B0E5AAEC59DB3
:100620007400407A10F35A00A0724E18090010A509
:10063000D4E80000E87648170000E40B54020000FC
:10064000CA9A3B000000E1F5050000809698000082
:100650000040420F000000A08601000000102700AB
:10066000000000E803000000006400000000000A31
:1006700000000000000100000000002C76D888DC9B
:10068000674F0823DFC1DFAE59E1B1B796E5E3E478
:1006900053C63AE651997696E8E6C28426EB898CF1
:1006A0009B62ED407C6FFCEFBC9C9F40F2BAA56F53
:1006B000A5F490055A2AF75C936B6CF9676DC11B22
:1006C000FCE0E40D47FEF520E6B500D0ED902E03EA
:1006D00000943577050080841E080000204E0A0033
:1006E0000000C80C333333330F986E12831141EF7F
:1006F0008D2114893BE65516CFFEE6DB18D1844BDD
:10070000381BF77C1D901DA4BBE424203284725E4C
:10071000228100C9F124ECA1E53D274C4556454C0A
:10072000494E4700434F4D4D554E49434154494F63
:100730004E0044525952554E004552524F525300AA
:100740004543484F0047322F473320626164207091
:100750006172616D65746572730A00536C656570D2
:100760002E2E2E00205A3A200020593A20004265B1
:100770006420583A20004D65736820706F696E746C
:10078000206F7574206F662072616E67650A004D78
:10079000302053746F70004D312053746F700043DC
:1007A0006C69636B20746F20526573756D652E2EB6
:1007B0002E004E6F204D6F76652E00456E642066CC
:1007C000696C65206C6973740A00426567696E2004
:1007D00066696C65206C6973740A004E6F206D65E4
:1007E0006469610A00526573756D696E67205344D0
:1007F0000070617573650050617573652053440026
:10080000286E6F2066696C65290043757272656E8B
:10081000742066696C653A20005344207072696EDA
:1008200074696E67206279746520004E6F7420537E
:1008300044207072696E74696E670A0044656C6565
:1008400074696F6E206661696C65642C2046696C02
:10085000653A200046696C652064656C6574656462
:100860003A00256979202569642025696820256971
:100870006D20256973005072696E742074696D650E
:100880003A2000452025530044454255473A004D43
:1008900031313320530042656420436F6F6C696EC1
:1008A000672E2E2E004265642048656174696E676C
:1008B0002E2E2E005369646577696E646572205828
:1008C00031204F46462E002F2F20004D3134352049
:1008D000533C696E6465783E206F7574206F6620A6
:1008E00072616E67652028302D31290A00416363EB
:1008F000656C65726174696F6E3A205000574152A1
:100900004E494E4721204C6F77205A204A65726B22
:10091000206D6179206C65616420746F20756E773D
:10092000616E746564207061757365732E0A0020B2
:10093000204D61783A200020204D696E3A20005306
:100940006F667420656E6473746F70733A2000462E
:10095000523A0020466C6F773A200020643A00201B
:10096000693A0020703A006469730043290A006103
:10097000626C656420286D696E2074656D7020005E
:10098000436F6C642065787472756465732061725E
:1009900065200046696C616D656E742072756E6FBE
:1009A000757420004D34323120696E636F72726548
:1009B000637420706172616D657465722075736116
:1009C00067650A004F666673657473204170706CCA
:1009D000696564004572723A20546F6F20666172D7
:1009E0002100546F6F206661722066726F6D2072F5
:1009F00065666572656E636520706F696E740A0066
:100A0000454550524F4D204F4B0A002028302D3184
:100A10003029002076616C7565206F7574206F66D3
:100A20002072616E676500416476616E6365204B7C
:100A30003D005072696E7420446F6E6500446F6EA5
:100A400065207072696E74696E672066696C650AEC
:100A5000004D3737004D3331004007500E39073213
:100A60000724071B073F3F3F2059696B657321200F
:100A7000204E414E20696E206765745F7A5F636F18
:100A80007272656374696F6E280029203D20002012
:100A9000726177206765745F7A5F636F72726563F6
:100AA00074696F6E2800203A202E2E2E4E6F77200C
:100AB0004F4E0A00203A204C6576656C696E6720BF
:100AC0004F46460A00203A202E2E2E4E6F77204F9A
:100AD00046460A00203A204C6576656C696E6720B0
:100AE0004F4E0A00204A0020204D34323120490068
:100AF000202047323920493939390A006163746945
:100B000076650A002053797374656D2076312E3036
:100B10003120002020207C0A004E414E0020202E53
:100B200020202000207C004C43443A0A00435356C6
:100B30003A0A0020666F7220003A0A0A000A4265EB
:100B40006420546F706F67726170687920526570AD
:100B50006F727400205472696767657265642065FE
:100B600061726C792E00204E6F2074726967676520
:100B7000722E002050726F6265206661696C2120C0
:100B80002D00534C4F570050726F62653A3A7275A0
:100B90006E5F7A5F70726F62650050726F62696E2D
:100BA00067204661696C65640A0050726F62696E05
:100BB00067204661696C656400506F736974696F82
:100BC0006E204E6F7420526561636861626C650AC5
:100BD000005F72656C6174697665290A0050726FF6
:100BE00062653A3A70726F62655F61745F706F69D7
:100BF0006E7400446F6E652E0A003F496E76616C1C
:100C000069642073746F7261676520736C6F742EF2
:100C10000A3F557365203020746F20004732392019
:100C200050322066696E69736865642E0A005859EF
:100C3000206F757473696465207072696E74616287
:100C40006C65207261646975732E0A003F4572728B
:100C50006F7220696E20427573696E6573732043ED
:100C6000617264206D6561737572656D656E742E59
:100C70000A004D616E75616C6C792070726F6269EB
:100C80006E6720756E726561636861626C65207065
:100C90006F696E74732E0A0050726F62696E6720FE
:100CA00061726F756E642028004D65736820696EEF
:100CB00076616C6964617465642E2050726F62693C
:100CC0006E67206D6573682E0A004D657368207A23
:100CD00065726F65642E0A0044656661756C7420E8
:100CE00073746F7261676520736C6F74203020734A
:100CF000656C65637465642E0A004C6F6164696E8F
:100D00006720746573745F7061747465726E2076A9
:100D1000616C7565732E0A0A00496E76616C6964B0
:100D200020746573745F7061747465726E2076618F
:100D30006C75652E20282D3120746F2032290A0A07
:100D4000004C6F636174696F6E7320696E76616CBD
:100D50006964617465642E0A0A00456E746972657F
:100D6000204D65736820696E76616C696461746595
:100D7000642E0A0A0050726F7465637465642050B3
:100D8000696E0A005A5F6D6F76655F636F6D700AFA
:100D9000003E3E3E207365745F617869735F6E65E7
:100DA0007665725F686F6D656428003C3C3C20731B
:100DB00065745F617869735F6E657665725F686F91
:100DC0006D656428005072696E7465722073746F6B
:100DD000707065642064756520746F206572726F31
:100DE00072732E2046697820746865206572726F70
:100DF0007220616E6420757365204D393939207415
:100E00006F20726573746172742E202854656D7042
:100E1000657261747572652069732072657365749B
:100E20002E20536574206974206166746572207287
:100E3000657374617274696E67290A00554E4B4E72
:100E40004F574E2053544154450047434F44455F4C
:100E5000494E464F004C43445F50415553455F5205
:100E60004553554D450046494C414D454E545F5202
:100E7000554E4F55545F434F4E54494E55450046CD
:100E8000494C414D454E545F52554E4F5554004DBF
:100E900038373620526573706F6E64696E67205004
:100EA000524F4D50545F004572726F7220777269D5
:100EB00074696E6720746F20454550524F4D210A6A
:100EC0000053544F505045442E20004E6F2043682D
:100ED00065636B73756D2077697468206C696E65E6
:100EE000206E756D6265722C204C617374204C69A4
:100EF0006E653A2000636865636B73756D206D697C
:100F0000736D617463682C204C617374204C696E3E
:100F1000653A20004C696E65204E756D62657220E1
:100F20006973206E6F74204C617374204C696E6518
:100F3000204E756D6265722B312C204C61737420CC
:100F40004C696E653A20004D3131300053442072B7
:100F5000656164206572726F720A002121204B491D
:100F60004C4C20636175736564206279204B494C59
:100F70004C20627574746F6E2F70696E0A002121A7
:100F8000204B494C4C206361757365642062792065
:100F9000746F6F206D75636820696E616374697624
:100FA000652074696D65202D2063757272656E749D
:100FB00020636F6D6D616E643A2000627573793ADB
:100FC0002070617573656420666F7220696E70753C
:100FD000740A00627573793A2070617573656420D4
:100FE000666F7220757365720A00627573793A20B4
:100FF00070726F63657373696E670A004D6564692B
:10100000612052656D6F766564004D65646961208D
:10101000496E736572746564004D36303000206629
:10102000696C616D656E745F72756E6F75742000AA
:1010300066696C616D656E745F72756E6F75742034
:10104000540046696C616D656E7452756E6F75748F
:10105000205400506C65617365205265736574009F
:101060005052494E5445522048414C544544002565
:10107000533A20255300706F7765726F6666004B98
:10108000494C4C45442E20005072696E74657220A4
:1010900068616C7465642E206B696C6C2829206310
:1010A000616C6C6564210A006563686F3A00457283
:1010B000726F723A00000000000102040400000098
:1010C0001C1C0C04040402010000000000040810B1
:1010D0000000000000456E636C6F73757265004C14
:1010E0006F6164206D6D00556E6C6F6164206D6D75
:1010F0000046696C2E204469612E004520696E20EF
:101100006D6DC2B3004D3330332055312045256914
:101110002053256900202864697361626C65642925
:101120000A0055424C2041646A7573746D656E7493
:10113000205A005A20466164653A20002028656ED6
:1011400061626C6564290A0041626F7665005361D3
:101150006D65205A2061730042656C6F77004175A0
:10116000746F20426564204C6576656C696E673AE1
:101170002055424C00204E6F7A7A6C65290A002077
:101180002620002D43656E746572002D46726F6EC9
:1011900074002D4261636B002028416C69676E65A5
:1011A0006420576974680020284D6964646C650088
:1011B00020284C65667400202852696768740050C6
:1011C000726F62653A204649585F4D4F554E5445FF
:1011D000445F50524F42450A004D616368696E6535
:1011E00020547970653A2043617274657369616E49
:1011F0000A005A2050726F62652050617374204259
:1012000065640A005A2050726F62652050617374E1
:101210002042656400203A20686F6D655F7A5F73D5
:101220006166656C790A00202064657374696E617B
:1012300074696F6E3D00686F6D655F7A5F7361669C
:10124000656C79005261697365205A202862656671
:101250006F726520686F6D696E6729206279200062
:101260003E20686F6D696E67206E6F74206E6565D5
:101270006465642C20736B69700A003F2842296101
:101280007564207261746520696D706C6175736935
:10129000626C652E0A00206261756420726174655B
:1012A0002073657420746F20002053657269616C2F
:1012B0002000204D3932205800706175736564003C
:1012C00052656865617420446F6E6500526568659B
:1012D0006174696E672E2E2E005265686561740018
:1012E0004865617465722054696D656F757400534B
:1012F000656E64204D31303820746F2068656174EC
:10130000206E6F7A7A6C650A004E6F7A7A6C65206F
:101310005061726B656400627574746F6E004C6F1F
:1013200061642046696C616D656E74205400496E7D
:10133000736572742066696C616D656E7420616E90
:10134000642073656E64204D3130380A0072657315
:10135000756D656400526573756D696E670020492F
:101360006E76616C6964206578747275646572204C
:101370000050726F6265204F666673657420580076
:101380003F5A206F7574206F662072616E6765200A
:1013900028003F59206F7574206F662072616E6758
:1013A0006520282D003F58206F7574206F662072CD
:1013B000616E676520282D00656E717565756569BC
:1013C0006E672022006F6B00526573656E643A2071
:1013D0000023646566696E652044454641554C545A
:1013E0005F004B6420004B6920004B702000504987
:1013F00044204175746F74756E652066696E6973FB
:10140000686564212050757420746865206C617370
:1014100074204B702C204B6920616E64204B64203B
:10142000636F6E7374616E74732066726F6D206289
:10143000656C6F7720696E746F20436F6E666967A5
:1014400075726174696F6E2E680A005049442041BC
:1014500075746F74756E65206661696C65642120B2
:1014600074696D656F75740A000A20436C6173734B
:10147000696320504944200A00204B643A20002030
:101480004B693A2000204B703A20000A204E6F2012
:101490006F76657273686F6F740A002054753A2016
:1014A00000204B753A2000206D61783A2000206DB5
:1014B000696E3A200020643A200020626961733A24
:1014C0002000504944204175746F74756E65207317
:1014D000746172740A00504944204175746F7475C8
:1014E0006E65206661696C6564212054656D706568
:1014F00072617475726520746F6F20686967680A1D
:1015000000504944204175746F74756E65005049F0
:1015100044204175746F74756E65206661696C65F1
:10152000642120426164206578747275646572205C
:101530006E756D6265720A007C4D61726C696E7CBD
:10154000002D2D2D2D2D2D00A10000006900A200E1
:1015500000006300B00000000900C100000041006D
:10156000C20000004100C30000004100C4000000B0
:101570004100C50000004100C60000004145C70011
:1015800000004300C80000004500C90000004500FD
:10159000CD0000004900D10000004E00D500000041
:1015A0004F00D60000004F00D70000007800DC009C
:1015B00000005500DD0000005900E000000061005F
:1015C000E10000006100E20000006100E3000000B3
:1015D0006100E40000006100E50000006100E60039
:1015E00000006165E70000006300E800000065009E
:1015F000E90000006500EA0000006500EB00000063
:101600006500EC0000006900ED0000006900EE00DC
:1016100000006900EF0000006900F10000006E00AA
:10162000F20000006F00F30000006F00F400000003
:101630006F00F50000006F00F60000006F00F8007A
:1016400000006F00F90000007500FA00000075004E
:10165000FB0000007500FC0000007500FD000000AC
:101660007900FF000000790004010000410005013D
:101670000000610006010000430007010000630054
:101680000C01000043000D01000063000E0100008A
:1016900044000F0100006400110100006400190102
:1016A000000065001A01000045001B0100006500F4
:1016B0001F010000670030010000490031010000F7
:1016C0006900410100004C00420100006C00430130
:1016D00000004E00440100006E00480100006E0052
:1016E0005801000052005901000072005A01000028
:1016F00053005B01000073005F0100007300600194
:1017000000005300610100007300650100007400D7
:101710006F01000075007C0100007A007D0100006F
:101720005A007E0100007A00920100006600E30288
:1017300000007800222000002E001E2100005078BA
:1017400022210000544D902100003C2D92210000E8
:101750002D3EB02100000300BB21000004003C220C
:1017600000007E00482200007E3D60220000213DF6
:10177000612200003D00642200003C3D6522000023
:101780003E3DF12300000700A03000003D0021F3A2
:1017900001000200C2F401000500A2000000EC00FC
:1017A000B0000000DF00E4000000E100F6000000EF
:1017B000EF00F7000000FD00FC000000F500E30270
:1017C0000000EB0087030000A5008F030000F40079
:1017D00098030000F2009E030000E300A303000052
:1017E000F600A9030000F400AC030000E000AD0324
:1017F0000000E300B1030000E000B2030000E200DB
:10180000B5030000E300B8030000F200BC030000D1
:10181000E400BE030000E300C0030000F700C103C2
:101820000000E600C3030000E500902100007F00F7
:10183000922100007E001A220000E8001E22000013
:10184000F30088250000FF0002300000A1000C30EA
:101850000000A2000D300000A3009B300000DE005D
:101860009C300000DF00A03000003D00A1300000EF
:10187000A700A2300000B100A3300000A800A430EF
:101880000000B200A5300000A900A6300000B3009F
:10189000A7300000AA00A8300000B400A930000062
:1018A000AB00AA300000B500AB300000B600AC3091
:1018B0000000B6DEAD300000B700AE300000B7DE8D
:1018C000AF300000B800B0300000B8DEB13000002A
:1018D000B900B2300000B9DEB3300000BA00B43055
:1018E0000000BADEB5300000BB00B6300000BBDE41
:1018F000B7300000BC00B8300000BCDEB9300000DA
:10190000BD00BA300000BDDEBB300000BE00BC3000
:101910000000BEDEBD300000BF00BE300000BFDEF4
:10192000BF300000C000C0300000C0DEC130000089
:10193000C100C2300000C1DEC3300000AF00C430BF
:101940000000C200C5300000C2DEC6300000C30087
:10195000C7300000C3DEC8300000C400C93000003A
:10196000C4DECA300000C500CB300000C600CC3059
:101970000000C700CD300000C800CE300000C90014
:10198000CF300000CA00D0300000CADED1300000E5
:10199000CADFD2300000CB00D3300000CBDED43021
:1019A0000000CBDFD5300000CC00D6300000CCDE0C
:1019B000D7300000CCDFD8300000CD00D930000097
:1019C000CDDEDA300000CDDFDB300000CE00DC30D1
:1019D0000000CEDEDD300000CEDFDE300000CF00C4
:1019E000DF300000D000E0300000D100E130000026
:1019F000D200E2300000D300E3300000AC00E4305D
:101A00000000D400E5300000AD00E6300000D50055
:101A1000E7300000AE00E8300000D600E9300000FA
:101A2000D700EA300000D800EB300000D900EC30DD
:101A30000000DA00ED300000DB00EF300000DC00D9
:101A4000F2300000A600F3300000DD00F4300000AA
:101A5000B3DEF7300000DCDEFA300000A6DEFB303B
:101A60000000A500FC300000B000FD300000A40024
:101A7000074E0000FB0086510000FC0043530000AD
:101A8000FA0064FF0000A40065FF0000A50066FFE7
:101A90000000A60067FF0000A70068FF0000A80084
:101AA00069FF0000A9006AFF0000AA006BFF0000A8
:101AB000AB006CFF0000AC006DFF0000AD006EFFDE
:101AC0000000AE006FFF0000AF0070FF0000B0002C
:101AD00071FF0000B10072FF0000B20073FF000050
:101AE000B30074FF0000B40075FF0000B50076FF7E
:101AF0000000B60077FF0000B70078FF0000B800D4
:101B000079FF0000B9007AFF0000BA007BFF0000F7
:101B1000BB007CFF0000BC007DFF0000BD007EFF1D
:101B20000000BE007FFF0000BF0080FF0000C0007B
:101B300081FF0000C10082FF0000C20083FF00009F
:101B4000C30084FF0000C40085FF0000C50086FFBD
:101B50000000C60087FF0000C70088FF0000C80023
:101B600089FF0000C9008AFF0000CA008BFF000047
:101B7000CB008CFF0000CC008DFF0000CD008EFF5D
:101B80000000CE008FFF0000CF0090FF0000D000CB
:101B900091FF0000D10092FF0000D20093FF0000EF
:101BA000D30094FF0000D40095FF0000D50096FFFD
:101BB0000000D60097FF0000D70098FF0000D80073
:101BC00099FF0000D9009AFF0000DA009BFF000097
:101BD000DB009CFF0000DC009DFF0000DD009EFF9D
:101BE0000000DE009FFF0000DF00E5FF00005C005A
:101BF000001C1F11111F00000006191803130C0010
:101C0000040E1F041C000000000E1315110E00002E
:101C10001C10181705060500040A0A0A0A11110EFD
:101C20000C12120C00000000001F1511151F0000FF
:101C3000504944204175746F74756E65202A0050B8
:101C400049442D44202A005049442D49202A00505F
:101C500049442D50202A0020022046616374002050
:101C600002204D6178002002204D696E004175749C
:101C70006F74656D70005654726176204D696E0008
:101C8000566D696E00566D6178204500566D61781D
:101C9000205A00566D6178205900566D61782058A1
:101CA00000416D6178204500416D6178205A004106
:101CB0006D6178205900416D6178205800412D54A4
:101CC000726176656C00412D5265747261637400B7
:101CD000416363656C00416476616E6365204B000F
:101CE00046616E205370656564004D61696E004207
:101CF00061627973746570205A00466C6F77005A80
:101D00002056616C7565004732380A4D31393020F4
:101D10005325690A4D313039205325690A47323934
:101D2000205031004265642054656D7000486F7426
:101D3000656E642054656D7000473239205036203E
:101D400043202D0048656967687420416D6F756E8A
:101D5000740041646A757374204D6573682048652A
:101D6000696768740046696E652054756E65204326
:101D70006C6F7365737400473239205034205400FF
:101D80004732380A47323620432050204825692000
:101D90004225690056616C696461746520437573FE
:101DA000746F6D204D657368004732380A473236CC
:101DB000204320502049310056616C69646174658C
:101DC000204D65736820282429004732380A47329D
:101DD000362043205020493000473239204A2569B7
:101DE000004C6576656C204D6573680053696465C9
:101DF00020506F696E74730047726964204D65737B
:101E000068204C6576656C696E6700332D506F698C
:101E10006E74204C6576656C696E670047323920B8
:101E20004A30002E2E2E2800486F6D696E672046BE
:101E300061696C6564006F70656E00545249474774
:101E4000455245440066696C616D656E74007A5F49
:101E50006D696E00795F6D696E00785F6D696E0007
:101E60005265706F7274696E6720656E6473746F0B
:101E700070207374617475730A00203A2073796E50
:101E8000635F706C616E5F706F736974696F6E0A07
:101E900000646F5F626C6F636B696E675F6D6F7616
:101EA000655F746F00486F6D65202573257325731A
:101EB000204669727374005D002C2000646F5F68B7
:101EC0006F6D696E675F6D6F7665003F4545505277
:101ED0004F4D2073746F72616765206E6F7420615F
:101EE0007661696C61626C652E0A00473236204863
:101EF000656174696E67204E6F7A7A6C650047324F
:101F0000362048656174696E6720426564005761D8
:101F10006974696E6720666F722068656174757098
:101F20002E0A004669786564204C656E67746820E7
:101F30005072696D6500446F6E65205072696D69FD
:101F40006E67004D616E75616C207072696D696EAF
:101F5000672E2E2E004732362043616E63656C6516
:101F600064004C656176696E6720473236003F53E6
:101F7000706563696669656420582C5920636F6FCA
:101F80007264696E617465206F7574206F6620627B
:101F90006F756E64732E0A003F2852296570656163
:101FA000742076616C7565206E6F7420706C61753D
:101FB0007369626C653B206D757374206265206186
:101FC00074206C6561737420312E0A003F53706574
:101FD000636966696564206E6F7A7A6C65207465E2
:101FE0006D7065726174757265206E6F7420706CAF
:101FF00061757369626C652E0A003F537065636991
:10200000666965642066696C616D656E74207369CC
:102010007A65206E6F7420706C61757369626C658F
:102020002E0A003F537065636966696564207072AB
:10203000696D65206C656E677468206E6F742070C2
:102040006C61757369626C652E0A003F537065633D
:102050006966696564206E6F7A7A6C652073697A47
:1020600065206E6F7420706C61757369626C652E8B
:102070000A003F52657472616374696F6E204D751A
:102080006C7469706C696572206D7573742062651B
:10209000207370656369666965642E0A003F53703A
:1020A0006563696669656420526574726163746909
:1020B0006F6E204D756C7469706C696572206E6FFF
:1020C0007420706C61757369626C652E0A003F53F1
:1020D0007065636966696564206C61796572206802
:1020E0006569676874206E6F7420706C61757369C0
:1020F000626C652E0A0043292E0A003F5370656307
:102100006966696564206265642074656D706572D6
:102110006174757265206E6F7420706C617573697F
:10212000626C65202834302D00473236207374618C
:102130007274696E672E2E2E0A004661646520480F
:1021400065696768742000426564204C6576656C3B
:10215000696E6720004661696C656420746F206554
:102160006E61626C6520426564204C6576656C69C1
:102170006E670A00496E76616C6964206D657368EC
:102180002E0A0076616C69640A53746F7261676528
:1021900020736C6F743A20004D657368206973205A
:1021A000003F496E76616C69642073746F72616779
:1021B0006520736C6F742E0A003E3E3E0047323934
:1021C00020503420523939392054004732380A47D8
:1021D0003239205031004D6F74696F6E004564696B
:1021E00074204D657368004D616E75616C6C79206B
:1021F0004275696C64204D65736800473239204927
:102200003939390A473239205032204220543000BF
:10221000372E205361766520426564204D657368D2
:1022200000362E2046696E652054756E6520416C1F
:102230006C00352E2056616C6964617465204D65B3
:10224000736800342E2046696E652054756E6520D3
:10225000416C6C00332E2056616C6964617465209A
:102260004D65736800322E20536D6172742046698B
:102270006C6C2D696E004732392050332054300089
:10228000312E204275696C6420436F6C64204D656B
:102290007368004661646520486569676874004F2B
:1022A00075747075742055424C20496E666F0047F6
:1022B000323920570055424C20546F6F6C73004FD9
:1022C0007574707574204D657368204D6170004D94
:1022D0006573682053746F72616765004D6573683C
:1022E000204564697400537465702D42792D5374D0
:1022F00065702055424C00416374697661746520B5
:1023000055424C004732392041004465616374698D
:10231000766174652055424C0047323920440025CF
:1023200068753A25303268750025303268753A256F
:1023300030326875002020202020202000202063DB
:10234000757272656E745F706F736974696F6E3DDC
:102350000050726F62653A3A646F5F7A5F726169CA
:10236000736528006465706C6F793A2000203A200C
:1023700050726F62653A3A7365745F6465706C6F32
:102380007965640A0050726F62653A3A70726F62E2
:10239000655F646F776E5F746F5F7A00206D617840
:1023A0003A00206D696E3A004178697320005365E8
:1023B0007474696E67732053746F72656400206271
:1023C000797465733B20637263200053657474698C
:1023D0006E67732053746F7265642028004E6F20FF
:1023E000454550524F4D2E0A00454550524F4D2005
:1023F0006461746173697A65206572726F722E0A06
:10240000003F4D65736820746F6F206269672066B6
:102410006F7220454550524F4D2E0A0055424C20B8
:1024200072657365740A00206C6F61646564206670
:10243000726F6D2073746F726167652E0A004D654F
:10244000736820003F43616E277420656E61626C83
:1024500065200020696E697469616C697A65642E13
:102460000A0A002073746F7265642073657474695E
:102470006E677320726574726965766564202800E2
:10248000202863616C63756C6174656429210A009E
:1024900020213D2000454550524F4D2043524320BE
:1024A0006D69736D61746368202D202873746F7279
:1024B0006564292000496E6465783A2000444947E4
:1024C00049504F5453204C6F616465640A0044497D
:1024D0004749504F5453204C6F6164696E670A003E
:1024E000204D61726C696E3D563832290A004545AF
:1024F00050524F4D2076657273696F6E206D69730F
:102500006D617463682028454550524F4D3D000071
:10251000009643000096430000C8430000000000FE
:102520000000000000000041425300504C410049AF
:102530006E666F2053637265656E004732392050B6
:1025400033205220432E2569004D616E75616C2049
:1025500046696C6C2D696E0046696C6C2D696E2045
:10256000416D6F756E74004D65736820696E76619C
:102570006C6964617465642E0A00496E76616C69E9
:102580006461746520436C6F7365737400473239FE
:10259000204900496E76616C696461746520416C04
:1025A0006C00436F6E74696E756520426564204DE2
:1025B0006573680047323920503120430046696C0A
:1025C0006C2D696E204D657368004275696C6420DE
:1025D000437573746F6D204D657368004732380A18
:1025E0004D3139302049310A4D3130392049310AD5
:1025F0004732392050310A4D3130342053300A4DA2
:10260000313430205330004275696C64204D65735D
:102610006820282429004732380A4D3139302049B2
:10262000300A4D3130392049300A47323920503193
:102630000A4D3130342053300A4D3134302053307C
:102640000047323920256325690A4D313137200092
:102650004D657368202569204C6F61646564004D89
:10266000657368202569205361766564004C6F614D
:102670006420426564204D657368004D656D6F721E
:102680007920536C6F74004E6F2053746F726167C2
:10269000650047323920503420582573205925735E
:1026A0002052256900202D2D2D2D2D00486F6D699C
:1026B0006E672058595A00473238004F66662050DE
:1026C00072696E746572204261636B757000473287
:1026D0003920532D31004F757470757420666F72F8
:1026E0002043535600473239205431004F757470DF
:1026F000757420666F7220486F73740047323920FA
:102700005430002B25272524F4D43050C38E20C20A
:10271000A24017828B7011127A910D816CD90AA890
:1027200061E108C7586607615143061E4B5D05C14C
:1027300045A7041A411104093D980371393103403A
:1027400036DB0265339102D4305402802E1D0263C1
:102750002CEE01752AC501B028A001102781018F38
:102760002564012B244B01E0223401AC211F018D93
:10277000200D01801FFC00841EED00971DDF00B8B6
:102780001CD200E61BC600201BBC00641AB200B2BB
:1027900019A8000A19A0006A189900D117910040E1
:1027A000178B00B516840031167E00B31579003AF8
:1027B000157300C7146F0058146A00EE1366008882
:1027C00013630025135E00C7125B006C12570015DF
:1027D000125400C111510070114F0021114B00D64D
:1027E0001049008D1047004610440002104200C0FE
:1027F0000F4000800F3E00420F3C00060F3B00CB15
:102800000E3800930E37005C0E3500270E3400F3AF
:102810000D3200C10D3100900D3000600D2E0032E0
:102820000D2D00050D2C00D90C2B00AE0C290085B8
:102830000C29005C0C2700350C27000E0C2600E844
:102840000B2400C40B2400A00B23007D0B23005A93
:102850000B2100390B2100180B2000F80A1F00D9AA
:102860000A1E00BB0A1E009D0A1D00800A1D00638F
:102870000A1C00470A1B002C0A1B00110A1A00F749
:10288000091A00DD091900C4091900AB09190092E1
:102890000917007B091800630917004C0916003658
:1028A000091600200916000A091500F5081500E0B0
:1028B000081400CC081400B8081400A408140090F0
:1028C0000813007D0812006B081300580812004618
:1028D0000812003408110023081100120811000129
:1028E000081100F0071000E0071000D0071000C02A
:1028F000071000B0070F00A107100091070E00831A
:10290000070F0074070F0065070E0057070E0049F8
:10291000070E003B070D002E070E0020070D0013C9
:10292000070D0006070D00F9060C00ED060D00E08E
:10293000060C00D4060C00C8060C00BC060C00B047
:10294000060C00A4060B0099060C008D060B0082F5
:10295000060B0077060B006C060B0061060A005799
:10296000060B004C060A0042060A0038060A002E32
:10297000060A0024060A001A060A001006090007C3
:10298000060A00FD050900F4050900EB050900E24F
:10299000050900D9050900D0050900C7050900BED1
:1029A000050900B5050800AD050800A50509009C4E
:1029B000050800940508008C050800840508007CC3
:1029C000050800740508006C050700650508005D32
:1029D000050700560508004E05070047050700409B
:1029E00005080038050700310507002A0507002300
:1029F0000507001C050600160507000F050700085F
:102A000005060002050700FB040600F5040700EEBA
:102A1000040600E8040600E2040700DB040600D513
:102A2000040600CF040600C9040600C3040600BD66
:102A3000040600B7040600B1040500AC040600A6B5
:102A4000040600A00405009B040600950405009000
:102A50000406008A04050085040500800406007A47
:102A600004050075040500700405006B040500668C
:102A7000040500610405005C0405005704050052CC
:102A80000405004D04050048040500430405003E0C
:102A90000404003A04050035040500300404002C49
:102AA00004050027040400230405001E0404001A82
:102AB00004040016040500110404000D04040009B8
:102AC0000405000404040000040400FC030400F8EE
:102AD000030400F4030400F0030400EC030400E822
:102AE000030400E4030400E0030400DC030400D852
:102AF000030400D4030400D0030400CC030400C882
:102B0000030300C503030024F404D9201BC40C5C98
:102B10000E9804C4095F0265077101F405F900FB12
:102B200004B30048048700C103690058035500033B
:102B3000034500BE023A008402310053022A0029F4
:102B400002250004022000E4011C00C8011900AFA6
:102B50000117009801140084011300710110006135
:102B600001100051010E0043010D0036010B002B36
:102B7000010B0020010B00150109000C01090003E5
:102B8000010800FB000800F3000800EB000700E468
:102B9000000600DE000600D8000600D2000600CCC9
:102BA000000500C7000500C2000500BD000400B913
:102BB000000400B5000400B1000400AD000400A949
:102BC000000400A5000300A20003009F0004009B76
:102BD000000300980003009500020093000300909A
:102BE0000003008D0002008B0003008800020086B5
:102BF00000020084000300810002007F0002007DCB
:102C00000002007B000200790002007700010076DC
:102C10000002007400020072000100710002006FE7
:102C20000002006D0001006C0002006A00010069F2
:102C300000020067000100660001006500010064F9
:102C40000002006200010061000100600001005FFD
:102C50000002005D0001005C0001005B0001005A01
:102C60000001005900010058000100570001005602
:102C70000001005500010054000100530000005302
:102C80000001005200010051000100500001004FFE
:102C90000001004E0000004E0001004D0001004CFC
:102CA0000001004B0000004B0001004A00010049F8
:102CB00000010048000000480001004700010046F4
:102CC00000000046000100450000004500010044EE
:102CD00000010043000000430001004200000042E8
:102CE0000001004100000041000100400001003FE0
:102CF0000000003F0001003E0000003E0001003DDA
:102D00000000003D0001003C0000003C0000003CD1
:102D10000001003B0000003B0001003A0000003AC7
:102D200000010039000000390001003800000038BF
:102D300000000038000100370000003700010036B5
:102D400000000036000000360001003500000035AC
:102D500000000035000100340000003400000034A1
:102D60000001003300000033000000330001003296
:102D7000000000320000003200010031000000318C
:102D80000000003100010030000000300000003081
:102D90000001002F0000002F0000002F0000002F76
:102DA0000001002E0000002E0000002E0001002D6A
:102DB0000000002D0000002D0000002D0001002C5F
:102DC0000000002C0000002C0000002C0001002B53
:102DD0000000002B0000002B0000002B0001002A47
:102DE0000000002A0000002A0000002A000100293B
:102DF000000000290000002900000029000000292F
:102E00000001002800000028000000280000002821
:102E10000000002800010027000000270000002714
:102E20000000002700000027000100260000002607
:102E300000000026000000260000002600010025FA
:102E400000000025000000250000002500000025EE
:102E500000000025000100240000002400000024E0
:102E600000000024000000240001002300000023D3
:102E700000000023000000230000002300000023C6
:102E800000000023000100220000002200000022B8
:102E900000000022000000220000002200010021AA
:102EA000000000210000002100000021000000219E
:102EB000000000210000002100010020000000208F
:102EC0000000002000000020000000200000002082
:102ED00000000020000000200001001F0000001F73
:102EE0000000001F0000001F0000001F0000001F66
:102EF0000000001F0001001E0000001E0000001E58
:102F00000000001E000000232C0000B82200005624
:102F10001800003A0F0000B8080000B1040000716A
:102F20000200003E010000496E76616C6964206514
:102F3000787472756465720A0020746F6F206C6F0C
:102F40006E6720657874727573696F6E2070726534
:102F500076656E7465640A0020636F6C6420657822
:102F600074727573696F6E2070726576656E7465C4
:102F7000640A003C3C3C00220A00556E6B6E6F7781
:102F80006E20636F6D6D616E643A20220020453AB9
:102F900000205A3A0020593A006549535220727570
:102FA0006E6E696E67206174203E2031306B487A06
:102FB0002E0A004D6F7265207468616E2032207396
:102FC00074657073207065722065495352206C6F70
:102FD0006F702065786563757465642E0A004163BF
:102FE00063656C65726174696F6E206C696D69747C
:102FF00065642E0A005374616E64617264204465D6
:1030000076696174696F6E3A20004D65616E204D7E
:10301000657368204865696768743A200023206FEB
:10302000662073616D706C65733A20000A4D65739C
:1030300068206F6E6C79207061727469616C6C7954
:1030400020706F70756C617465642E0A0A0050728E
:103050006F62696E6720506F696E74000A50726FFC
:1030600062696E67206D65736820706F696E742089
:103070000020616E642074616B652061206D656164
:10308000737572656D656E742E0A006D6D207468BF
:1030900069636B2E0A00427573696E657373204312
:1030A000617264206973200052656D6F7665202619
:1030B000204D656173757265204265640052656DCF
:1030C0006F7665207368696D00506C61636520736D
:1030D00068696D20756E646572206E6F7A7A6C65B2
:1030E000004D65736820506F696E74204D65617383
:1030F000757265642061743A20000A4D657368201A
:103100006F6E6C79207061727469616C6C7920707B
:103110006F70756C617465642E0A00506C61636534
:10312000205368696D2026204D65617375726500B6
:103130004D6F76696E6720746F206E657874004DF0
:103140006573682045646974696E672053746F7095
:1031500070656400446F6E652045646974696E67CC
:10316000204D6573680A00446F6E6520456469747C
:10317000696E67204D6573680046696E65205475F9
:103180006E696E67204D6573680028582C59292098
:103190006F757473696465207072696E7461626CB6
:1031A00065207261646975732E0A004F66667365E7
:1031B00074206F7574206F6620626F756E64732E55
:1031C00020283020746F2031306D6D290A0A0049A3
:1031D0006E76616C6964206D617020747970652E03
:1031E0000A0A003F284629616465206865696768A6
:1031F0007420666F7220426564204C6576656C2091
:10320000436F7272656374696F6E206E6F742070A5
:103210006C61757369626C652E0A0A003F43616ECA
:10322000277420616374697661746520616E64201F
:103230006465616374697661746520617420746883
:10324000652073616D652074696D652E0A0A004200
:103250006F7468205820262059206C6F6361746950
:103260006F6E73206D757374206265207370656373
:1032700069666965642E0A0A003F496E76616C6969
:103280006420677269642073697A6520284A29205E
:103290007370656369666965642028322D39292E4B
:1032A0000A0A003F285029686173652076616C75B1
:1032B0006520696E76616C69642028302D36292E70
:1032C0000A0A003F2856296572626F7365206C6593
:1032D00076656C20696D706C61757369626C6520D0
:1032E00028302D34292E0A0A003F2852296570659E
:1032F000746974696F6E20636F756E7420696E7681
:10330000616C69642028312B292E0A0A00446F69F8
:103310006E67204732390020436F756E7420583A2B
:10332000004D313036205000453100626564002C7C
:103330002073797374656D2073746F707065642188
:10334000204865617465725F49443A2000486561B0
:1033500074696E67204661696C65640048656174D4
:10336000696E67206661696C6564004D3131322099
:1033700053687574646F776E00202D20496E7661F6
:103380006C6964206578747275646572206E756D01
:1033900062657220210A00544845524D414C20522A
:1033A000554E4157415900546865726D616C205209
:1033B000756E61776179004572723A204D415854BB
:1033C000454D50004D415854454D50207472696729
:1033D0006765726564004572723A204D494E5445E6
:1033E0004D50004D494E54454D50207472696767E9
:1033F0006572656400202F002042403A0020403A68
:1034000000002053697A653A200043616E6E6F7444
:10341000206F70656E20737562646972200053447A
:1034200020496E6974204661696C005344206361D1
:103430007264206F6B0A006F70656E526F6F74203C
:103440006661696C65640A00766F6C756D652E69DE
:103450006E6974206661696C65640A004E6F205362
:103460004420636172640A004D3234004D323320CF
:103470002573006F70656E206661696C65642C2031
:1034800046696C653A200046696C652073656C6519
:10349000637465640A0046696C65206F70656E65CB
:1034A000643A2000454E4420535542524F555449EA
:1034B0004E450A002220706F7300222070617265F1
:1034C0006E743A2200535542524F5554494E45208E
:1034D00043414C4C207461726765743A2200537505
:1034E0006263616C6C204F766572666C6F77004525
:1034F00078636565646564206D6178205355425238
:103500004F5554494E452064657074683A310A003D
:1035100057726974696E6720746F2066696C653ACA
:103520002000667265736800646F696E67004E6F95
:10353000772000436F6E66696775726174696F6E9C
:103540000043616E63656C004368616E6765204689
:10355000696C616D656E7400507265686561742098
:10356000437573746F6D004368616E6765204D65C8
:10357000646961004D3231004D36303020423000F8
:10358000486F737420537461727400526573756D63
:1035900065205072696E74004E6F204D65646961DC
:1035A0000054756E650053746F70205072696E74AC
:1035B000005061757365205072696E7400537461B8
:1035C0007274205072696E740043616E6E6F742065
:1035D000656E746572207375626469723A200005C5
:1035E0002E2E005061726B696E672E2E2E00000029
:1035F0005761697420666F720066696C616D656EF3
:1036000074206368616E676500746F207374617203
:1036100074005761697420666F720066696C616D31
:10362000656E7420756E6C6F616400004E6F7A7AFF
:103630006C652068656174696E6700506C656173C4
:103640006520776169742E2E2E00005072657373A9
:1036500020627574746F6E00746F206865617420E9
:103660006E6F7A7A6C650000496E736572742066BD
:10367000696C616D656E7400616E64207072657353
:103680007320627574746F6E00746F20636F6E7454
:10369000696E7565005761697420666F72006669AE
:1036A0006C616D656E74206C6F61640000507265B2
:1036B000737320427574746F6E00746F207265733B
:1036C000756D65207072696E7400005761697420B1
:1036D000666F72207072696E7400746F2072657309
:1036E000756D652E2E2E00005761697420666F720D
:1036F0000066696C616D656E742070757267650037
:103700000070012C0190012701B0012201C0011DB0
:1037100001F00118011002130130020E01600209CC
:103720000190020401C002FF000003FA004003F50B
:10373000008003F000D003EB002004E6007004E1F9
:1037400000E004DC004005D700C005D2004006CDF3
:1037500000D006C8008007C3003008BE00F008B9DA
:1037600000C009B400B00AAF00B00BAA00D00CA58D
:1037700000000EA000500F9B00C010960050129148
:103780000000148C00C0158700B0178200B0197DAE
:1037900000D01B7800001E730040206E009022694C
:1037A00000F024640040275F0090295A00E02B5568
:1037B00000102E500020304B0010324600E0334104
:1037C0000090353C001037370070383200A0392D9A
:1037D00000B03A2800A03B2300603C1E00103D19B9
:1037E00000903D1400103E0F00703E0A00C03E05E0
:1037F00000003F0000403FFBFF803FF6FFC03FF16D
:10380000FF68747470733A2F2F6D61726C696E6605
:10381000772E6F72670020322E302E372E32002026
:1038200020506C616E6E6572427566666572427993
:103830007465733A20002046726565204D656D6F92
:1038400072793A2000436F6D70696C65643A204F5D
:10385000637420313920323032300A00204C6173D9
:103860007420557064617465643A20323032302DB2
:1038700031302D3135207C20417574686F723A20CB
:10388000286D6F6F70686C6F2C2053696465776961
:103890006E646572205831290A00322E302E372E80
:1038A000320A004D61726C696E0020536F66747746
:1038B0006172652052657365740A002057617463F4
:1038C00068646F672052657365740A002042726FE6
:1038D000776E206F75742052657365740A002045F9
:1038E000787465726E616C2052657365740A00505D
:1038F0006F77657255700A006175746F25632E6766
:10390000004732385859004D3130303100657272FD
:103910006F722077726974696E6720746F206669B0
:103920006C650A00446F6E6520736176696E67206E
:1039300066696C652E0A004D3239002553202563D7
:1039400020256320256320256300656E6473746FF2
:103950007073206869743A200050726F6265205A53
:10396000204F666673657400416476616E636564BA
:103970002053657474696E677300436F6E74696E6B
:10398000756500554E4C4F41442046494C414D45CC
:103990004E540046494C414D454E54204348414EFB
:1039A000474500526573746F7265204465666175A2
:1039B0006C7473004C6F61642053657474696E6736
:1039C000730053746F72652053657474696E677306
:1039D0000050726568656174202420436F6E660034
:1039E00052756E6F75742053656E736F72004D372C
:1039F000303220542564004D36303020423020547F
:103A00002564004D373032203B2564004D3730317E
:103A100020542564005075726765206D6F726500D3
:103A2000524553554D45204F5054494F4E533A003F
:103A30005052494E54205041555345440020204E89
:103A40006F7A7A6C653A20005072696E742050610A
:103A50007573656400526573756D65003F00496E4E
:103A6000697469616C697A6520454550524F4D0013
:103A70006E6F74696669636174696F6E2000536963
:103A8000646577696E64657220583120526561649F
:103A9000792E005072696E74696E672E2E2E006347
:103AA000616E63656C005072696E742041626F7262
:103AB000746564004469736D6973730055492041EE
:103AC000626F72746564004D323500554920506153
:103AD0007573650050617573696E672E2E2E0072C6
:103AE0006573756D6500454550524F4D20566572A2
:103AF00073696F6E204572726F7200454550524F68
:103B00004D20496E646578204572726F720045459C
:103B100050524F4D20435243204572726F720049FC
:103B2000676E6F72650020573A007C3C3E5E2B3D0D
:103B30003F2F5B5D3B2C2A225C000900000A01003C
:103B400008000A01000A090000000A000800493BB9
:103B5000443B3F3B3A3B25532025692F25690020F4
:103B600020443D002020423D004C534620526573C6
:103B7000756C747320413D00726F746174696F6E6F
:103B8000206D61747269783A0A006166746572200A
:103B9000726F746174696F6E203D205B005D202040
:103BA000202D2D2D3E20006265666F726520726F9C
:103BB000746174696F6E203D205B005D0A00626570
:103BC0006420706C616E65206E6F726D616C203D5B
:103BD000205B00436F756C64206E6F7420636F6DA3
:103BE000706C657465204C53462100202020666966
:103BF0006E616C203E3E3E2D2D2D3E20002020206B
:103C0000636F7272656374696F6E3A2000292020B9
:103C1000206D656173757265643A2000292020204B
:103C20006C6F676963616C3A20280054696C746931
:103C30006E67206D65736820706F696E7420003F39
:103C40004572726F722070726F62696E6720706F5A
:103C5000696E742E2041626F7274696E67206F7096
:103C600065726174696F6E2E0A00255320332F33FD
:103C70000054696C74696E67206D65736820283321
:103C80002F33290A00255320322F330054696C74D6
:103C9000696E67206D6573682028322F33290A000A
:103CA000436F727265637465645F5A3D0054696C5A
:103CB00074696E6720506F696E7400255320312F30
:103CC000330054696C74696E67206D6573682028D1
:103CD000312F33290A0020706F736974696F6E5F2A
:103CE0007368696674203D200020686F6D655F6FA2
:103CF0006666736574203D20003C3C3C207365740F
:103D00005F617869735F69735F61745F686F6D6528
:103D10002800203A200A005D203D20003E20686FE8
:103D20006D655F6F66667365745B002A2A2A205A88
:103D300020484F4D454420574954482050524F4247
:103D40004520285A5F4D494E5F50524F42455F55BE
:103D50005345535F5A5F4D494E5F454E4453544F50
:103D6000505F50494E29202A2A2A0A3E2070726F3D
:103D700062652E6F66667365742E7A203D20003E64
:103D80003E3E207365745F617869735F69735F613C
:103D9000745F686F6D6528005761726E696E673A6F
:103DA00020486F6D696E672042756D70204469769A
:103DB00069736F72203C20310A003C3C3C20686FE4
:103DC0006D65617869732800203A203E2041465491
:103DD0004552207365745F617869735F69735F61D1
:103DE000745F686F6D650A00486F6D6520322053FF
:103DF0006C6F773A0A004D6F766520417761793AAA
:103E00000A00486F6D65203120466173743A0A00DC
:103E10003E3E3E20686F6D65617869732800000042
:103E2000A0420000A0420000A0410202040000A045
:103E3000400000A04000000040FFFFFF0000000124
:103E400000000001000080005555550000004000B2
:103E500033333300AAAA2A0049922400000020002C
:103E6000C7711C0099991900D145170055551500C7
:103E70003BB1130024491200111111000000100081
:103E80000F0F0F00E3380E0043790D00CCCC0C006F
:103E9000C3300C00E8A20B0064210B00AAAA0A00A0
:103EA000703D0A009DD80900427B09009224090058
:103EB000DCD30800888808001042080000000800D1
:103EC000F0C107008787070075500700711C0700C5
:103ED0003EEB0600A1BC060069900600666606007F
:103EE000703E06006118060017F4050074D1050045
:103EF0005BB00500B29005006272050055550500E3
:103F000078390500B81E0500050505004EEC0400D3
:103F100087D40400A1BD040090A7040049920400C6
:103F2000C17D0400EE690400C75604004444040047
:103F30005C32040008210400411004000000040069
:103F40003FF00300F8E0030026D20300C3C30300E0
:103F5000CCB503003AA803000A9B0300388E030087
:103F6000C08103009F750300D0690300505E030009
:103F70001D53030034480300913D03003333030015
:103F800016290300381F030097150300300C0300A7
:103F9000030303000BFA020049F10200BAE8020031
:103FA0005CE002002DD802002DD0020059C80200AA
:103FB000B0C0020031B90200DAB10200AAAA0200C0
:103FC000A0A30200BC9C0200FA9502005C8F0200D4
:103FD000DF88020082820200457C02002776020010
:103FE00027700200436A02007C640200D05E020077
:103FF0003F590200C8530200FFFDFCFAF8F6F4F244
:10400000F0EEECEAE9E7E5E3E1E0DEDCDAD9D7D58A
:10401000D4D2D0CFCDCBCAC8C7C5C3C2C0BFBDBC28
:10402000BAB9B7B6B4B3B2B0AFADACAAA9A8A6A599
:10403000A4A2A1A09E9D9C9A9998979594939290E2
:104040008F8E8D8B8A8988878684838281807F7E0C
:104050007D7B7A797877767574737271706F6E6D17
:104060006C6B6A696867666564636261605F5E5D08
:104070005C5B5A5958585756555453525150504FEB
:104080004E4D4C4B4A4A49484746464544434242B6
:1040900041403F3E3E3D3C3B3B3A39383837363570
:1040A00035343332323130302F2E2E2D2C2B2B2A1B
:1040B00029292827272625252423232221212020BA
:1040C0001F1E1E1D1C1C1B1B1A191918181716164B
:1040D000151514131312121111100F0F0E0E0D0DD2
:1040E0000C0C0B0A0A09090808070706060505044F
:1040F000040303020201000056652D4A65726B003D
:10410000565A2D4A65726B0056592D4A65726B00DE
:1041100056582D4A65726B0050726F6265205920A7
:104120004F66667365740050726F62652058204F49
:10413000666673657400452073746570732F6D6DCA
:10414000005A2053746570732F6D6D00592053749D
:104150006570732F6D6D00582053746570732F6DEB
:104160006D00496E6974004D3432380050726F62D0
:1041700065204F66667365747300416363656C65A3
:10418000726174696F6E0056656C6F636974790053
:1041900053657420486F6D65204F66667365747350
:1041A000004F6666004F6E004D38340054656D70E8
:1041B000657261747572650050726568656174201E
:1041C0002400486F74656E6420746F6F20636F6C99
:1041D000640050726F6365656400536F66742045B8
:1041E0006E6473746F70730044697361626C6520F0
:1041F0005374657070657273004175746F20486FF9
:104200006D650050726568656174202420456E6498
:104210000050726568656174202420426564004323
:104220006F6F6C646F776E002052004D657368206D
:10423000736176656420696E20736C6F7420003F33
:10424000556E61626C6520746F2073617665206DB8
:1042500065736820646174612E0A0020736C6F744A
:104260003D00206D65736865735F656E643D004554
:1042700032454E443D00206D65736820736C6F7449
:104280007320617661696C61626C652E0A003F493A
:104290006E76616C696420736C6F742E0A004D65D4
:1042A0007368206C6F616465642066726F6D207343
:1042B0006C6F7420003F556E61626C6520746F20D6
:1042C0006C6F6164206D65736820646174612E0A8F
:1042D0000072657365745F6265645F6C6576656CBA
:1042E0000A0048617264636F6465642044656661B6
:1042F000756C742053657474696E6773204C6F61BC
:104300006465640A00556E69666965642042656487
:10431000204C6576656C696E67003B200020204D5F
:10432000363033200020204D34313220530046698E
:104330006C616D656E742072756E6F757420736537
:104340006E736F723A0020550046696C616D656E40
:1043500074206C6F61642F756E6C6F6164206C6586
:104360006E677468733A0020204D393030204B005E
:104370004C696E65617220416476616E63653A00D6
:1043800020204D3835312058005A2D50726F62650B
:10439000204F66667365740020204D333034205002
:1043A0000020204D333031205000504944207365A7
:1043B0007474696E67733A0020460020480020201C
:1043C0004D3134352053004D6174657269616C2044
:1043D00068656174757020706172616D6574657275
:1043E000733A00206D65736865732E0A0A004545AF
:1043F00050524F4D2063616E20686F6C6420004105
:104400006374697665204D65736820536C6F743AE8
:10441000200020204D34323020530020204D3230F7
:1044200036205800486F6D65206F66667365743A74
:104430000020204D323035204200416476616E63A9
:1044400065643A20423C6D696E5F7365676D656EA9
:10445000745F74696D655F75733E20533C6D696E62
:104460005F66656564726174653E20543C6D696E7B
:104470005F74726176656C5F6665656472617465B0
:104480003E20583C6D61785F785F6A65726B3E20B4
:10449000593C6D61785F795F6A65726B3E205A3C6A
:1044A0006D61785F7A5F6A65726B3E20453C6D6135
:1044B000785F655F6A65726B3E0020204D32303454
:1044C000205000416363656C65726174696F6E2092
:1044D00028756E6974732F7332293A20503C7072BC
:1044E000696E745F616363656C3E20523C726574F3
:1044F000726163745F616363656C3E20543C7472E7
:104500006176656C5F616363656C3E0020204D32AF
:1045100030312058004D6178696D756D20416363BD
:10452000656C65726174696F6E2028756E6974734D
:104530002F7332293A0020204D3230332058004D5D
:104540006178696D756D2066656564726174657307
:104550002028756E6974732F73293A00537465703F
:10456000732070657220756E69743A0020204D3298
:1045700030302053002044697361626C65640A0026
:1045800046696C616D656E742073657474696E67DD
:10459000733A0020204D3134392043203B20556EA2
:1045A00069747320696E2043656C736975730A00C2
:1045B00020286D6D29002020473231202020203B0B
:1045C00020556E69747320696E206D6D00000016B1
:1045D00043000016430000484200002042AEC7A03E
:1045E00042CDCCA042A4B0C7430080E143D0070035
:1045F00000D007000064000000102700005072691E
:104600006E742066726F6D204D65646961004D6F38
:1046100076652025736D6D004D6F766520302E31E7
:104620006D6D004D6F766520316D6D004D6F766557
:104630002031306D6D004D6F7665204178697300D3
:104640004578747275646572004D6F7665205A0006
:104650004D6F76652059004D6F766520580000003B
:104660000A0B02090C0D0E080703040100000000EC
:10467000000000000000000000000000000000003A
:1046800000000000000000000000121110000000F7
:10469000000000000000000000000000000000001A
:1046A00000000000646F6E650A00496E73756666EF
:1046B000696369656E7420646174610A0045787489
:1046C0007261706F6C6174696E67206D6573682EBE
:1046D0002E2E002C79693D002C78315F693D002039
:1046E0006F7574206F6620626F756E647320696EDB
:1046F000207A5F636F7272656374696F6E5F666F55
:10470000725F785F6F6E5F686F72697A6F6E7461E7
:104710006C5F6D6573685F6C696E65287278303D9B
:104720000078315F69007969002C2079315F693D3B
:10473000002C2078693D00206F7574206F66206220
:104740006F756E647320696E207A5F636F72726535
:104750006374696F6E5F666F725F795F6F6E5F76AD
:104760006572746963616C5F6D6573685F6C696EB7
:1047700065287279303D0078690079315F69002FD2
:104780002F616374696F6E3A0073746172740062B2
:104790006567696E00656E640070726F6D70745F3E
:1047A0000073686F770044697361626C6552756E5F
:1047B0006F75740050757267654D6F726500486F54
:1047C00074656E6420746F6F20636F6C640A000000
:1047D00000803FC7710842C7718642AAAAC842C773
:1047E000710543398E2643AAAA47431CC76843C7AD
:1047F000F184430080954300002200250028002B0F
:10480000002E003100340002010000050108010BF8
:104810000100002100240027002A002D0030003371
:104820000001010000040107010A01050505050753
:104830000508080808020202020A0A08080404041B
:104840000401010101010101010303030303030347
:1048500003040707070C0C0C0C0C0C0C0C020202D6
:104860000206060606060606060B0B0B0B0B0B0BC9
:104870000B01021020200808102040102040800268
:104880000102010804020101020408102040808096
:10489000402010080402018004020180402010081A
:1048A00004020108040201010204081020408001F2
:1048B000020408102040804361703A007D007D7D35
:1048C0002C776F726B3A7B6D696E3A7B783A007D1C
:1048D0002C6D61783A7B783A002C7A3A002C793A40
:1048E00000617265613A7B66756C6C3A7B6D696ECE
:1048F0003A7B783A004348414D4245525F54454D1A
:104900005045524154555245004241425953544535
:104910005050494E470041524353004D4F54494F68
:104920004E5F4D4F44455300544845524D414C5FF6
:1049300050524F54454354494F4E004C4F4E475FE1
:1049400046494C454E414D45004155544F52455006
:104950004F52545F53445F53544154555300534492
:10496000434152440050524F4D50545F53555050A4
:104970004F525400454D455247454E43595F5041B3
:104980005253455200434153455F4C494748545F99
:104990004252494748544E45535300544F47474CA1
:1049A000455F4C494748545300534F465457415272
:1049B000455F504F574552004255494C445F504562
:1049C0005243454E54004C4556454C494E475F4472
:1049D000415441005A5F50524F4245004155544F97
:1049E0004C4556454C005052494E545F4A4F420088
:1049F00050524F4752455353004155544F52455022
:104A00004F52545F54454D5000564F4C554D4554F0
:104A10005249430042494E4152595F46494C455F15
:104A20005452414E534645520053455249414C5F02
:104A3000584F4E5F584F4646004649524D574152D7
:104A4000455F4E414D453A4D61726C696E20322E84
:104A5000302E372E3220284F6374203139203230E7
:104A600032302031343A33383A33382920534F55D5
:104A70005243455F434F44455F55524C3A68747406
:104A800070733A2F2F6769746875622E636F6D2F8C
:104A90004D61726C696E4669726D776172652F4DFA
:104AA00061726C696E2050524F544F434F4C5F56A9
:104AB000455253494F4E3A312E30204D41434849DB
:104AC0004E455F545950453A5369646577696E6441
:104AD00065722058312045585452554445525F4321
:104AE0004F554E543A3120555549443A383565347E
:104AF000393866302D633663332D343864352D39BB
:104B00006633362D6538383332326439306362317A
:104B10000A002102490211241FBECFEFD1E2DEBFFD
:104B2000CDBF00E00CBF13E0A0E0B2E0ECE8F3E39F
:104B300003E00BBF02C007900D92A435B107D9F76F
:104B400027E1A4E5B3E001C01D92A730B207E1F769
:104B500015E2CAE8D5E200E006C021970109802FDE
:104B6000FE010F94CB94C938D10780E00807A9F75C
:104B70000F94927D0D94B4990C9400002F923F9263
:104B80004F925F926F927F928F929F92AF92BF925D
:104B9000CF92DF92EF92FF920F931F93CF93DF9309
:104BA000CDB7DEB7E5970FB6F894DEBF0FBECDBF29
:104BB0008DAB209161032CAB21E0209361038091A8
:104BC000DD048D3409F405C3843511F40C948F375A
:104BD000873411F00C94BE378091DB049091DC0493
:104BE0008B31910509F420C1B4F48430910534F47B
:104BF00082309105DCF597FF2DC0E7C28531910524
:104C000011F40C94C0378A31910509F409C1049755
:104C100009F0DBC2C6C08A32910509F424C254F4FB
:104C20008D31910509F41FC10CF419C14E9709F497
:104C30001EC1CBC28B35910509F492C18C3591050B
:104C400009F493C18A35910509F0BFC2109260033F
:104C50000C94C0378091CF0F813011F00C94C03785
:104C60000E943C6A0E94A1990C94C0372091CF0FFA
:104C7000213011F00C94C03711E0029709F010E0D8
:104C80000E943C6A19821A821B821C821D821E822B
:104C90001F82188682E50E94E63D882309F44BC0F6
:104CA0000E945F3D6B017C0120E030E0A9010F9480
:104CB000D08D882309F455C0809101069091020699
:104CC000A0910306B091040688A799A7AAA7BBA73D
:104CD0008091050690910606A0910706B0910806FE
:104CE00088AB99ABAAABBBAB8090E1059090E20595
:104CF000A090E305B090E4054090E5055090E605EE
:104D00006090E7057090E805A501940168A579A574
:104D10008AA59BA50F94D08D81110C94C937A3014E
:104D2000920168A979A98AA99BA90F94D08D88239B
:104D3000C1F00C94C93789E40E94E63D882331F024
:104D40000E945F3D69837A838B839C838AE40E94FF
:104D5000E63D882331F00E945F3D6D837E838F8323
:104D6000988720E030E0A90169817A818B819C815C
:104D70000F94D08D81110C947D3820E030E0A90192
:104D80006D817E818F8198850F94D08D81110C94D7
:104D90007D380E94A45185E497E00E947A510C94DA
:104DA000C03780E50E94E63D882329F00E94F26822
:104DB0006B017C0103C0C12CD12C760183E50E94DC
:104DC000E63D882361F00E945F3D20E030E04AE745
:104DD00054E40F94368E0F9447966B017C010F9428
:104DE000F04A8091DD0F811105C060E08BE597E00E
:104DF0000F948F310F94A069C60ED71EE81EF91EBE
:104E00000F94A069DC01CB018C199D09AE09BF0983
:104E1000B7FD02C00C94C03780E00E943354F0CF3D
:104E20000E9427A90C94C03787E00E94C495811185
:104E30000C94C0378CE0EFE7F2E0DE0111960190B0
:104E40000D928A95E1F760E070E080E50E94A46829
:104E5000BE016F5F7F4F0F94402E0C94C0370E94AD
:104E6000326F0C94C0370E94E2450C94C0372091F9
:104E7000FB113091FC114091FD115091FE11609198
:104E800001067091020680910306909104060F942A
:104E9000D494AB01BC0188E50E94FC7469837A83D9
:104EA0008B839C832091FF1130910012409101125D
:104EB00050910212609105067091060680910706D6
:104EC000909108060F94D494AB01BC0189E50E942F
:104ED000FC746D837E838F839887BE016B5F7F4FE9
:104EE000CE0101960E94823E882311F40C94C037B3
:104EF00080E00E9426420E94D49661E085E40F94EF
:104F0000D16C01E021E041E0682FCE0101960E94C2
:104F1000484D6B017C019B01AC010F9421988111DC
:104F200019C049815A816B817C818EE697E00E948D
:104F3000B3534D815E816F81788589E697E00E9449
:104F4000B353B701A60184E697E00E94B3538AE009
:104F50000E9468510E94BB960E94C7970C94C0376C
:104F60008FE0809360030C94C03710EE212E12E086
:104F7000312E0DE4E02E00E1F02EA1E0B6E0B9A75D
:104F8000A8A785EFC82E85E0D82E00E010E0F1013B
:104F900081911F010E94E63D882309F44AC00E94C6
:104FA0005F3D2B013C01133049F0D6012D913D911D
:104FB0004D915C910F94D3942B013C01E8A5F9A588
:104FC0002081318142815381C301B2010F94D39476
:104FD0004B015C012DEB37E346E855EB0F9434971A
:104FE00087FD0AC02DEB37E346E855E3C501B40160
:104FF0000F94D08D1816ECF4133051F440920D0636
:1050000050920E0660920F067092100601E011C0D9
:10501000A5019401D7016D917D918D919C910F9483
:10502000D494F7016083718382839383812F0F94DB
:1050300097501F5FF4E0EF0EF11C28A539A52C5FF7
:105040003F4F39A728A734E0C30ED11C143009F014
:105050009ECF002321F08DE096E00F949F4E0E949A
:10506000C7970C94C0378091CF0F813011F00C940A
:10507000C03789E40E94E63D082F882321F00E9472
:105080005B3DE82E01C0E12C8AE40E94E63D182F2A
:10509000882321F00E945B3DF82E01C0F12C0023F3
:1050A00019F089E08E1528F0112349F099E09F1539
:1050B00030F486E797E00E947A510C94C03780E183
:1050C000E1E0F6E0A1EEB5E001900D928A95E1F7FE
:1050D000002359F08E2D0E9497436093E105709351
:1050E000E2058093E3059093E405112359F08F2D99
:1050F0000E9497436093E5057093E6058093E7056A
:105100009093E80560E080E50F94D16C8823C1F1AD
:105110000023D1F02091FB113091FC114091FD1141
:105120005091FE116091E1057091E2058091E305D7
:105130009091E4050F94D3946093E1057093E20598
:105140008093E3059093E4051123D1F02091FF11A2
:105150003091001240910112509102126091E505C8
:105160007091E6058091E7059091E8050F94D3943E
:105170006093E5057093E6058093E7059093E80555
:1051800040E050E0BA0186E40E94FC746B017C01AF
:1051900020E030E0A9010F94349718164CF420E079
:1051A00030E040E752E4C701B6010F94CE9503C04A
:1051B00060E070E0CB0169837A838B839C83CE01AE
:1051C00001960E9447A20C94C0370E944FF10C94A4
:1051D000C0378091DB049091DC048937910509F494
:1051E000A1C70CF0CEC08135910509F420C60CF0A2
:1051F0005DC08931910509F4B3C21CF58431910574
:1052000009F441C27CF48131910509F428C22CF4DF
:10521000029708F4D9C10C948C37429709F42CC634
:105220000C948C378631910509F462C20CF45CC28F
:105230008731910509F466C2489709F478C20C9445
:105240008C378E31910509F40EC3ACF48B31910586
:1052500009F4AEC20CF49EC28C31910509F4FBC274
:105260004D9711F00C948C378091B8168E7F8093F7
:10527000B8160C94C0378B34910509F443C44CF430
:105280008F31910509F493C3809709F44DC30C94B1
:105290008C378C34910509F439C48D34910511F0A3
:1052A0000C948C370F945E2A0C94C0378D36910580
:1052B00009F457C47CF58C35910509F439C684F49A
:1052C0008335910509F4D0C50CF4C6C58435910524
:1052D00009F4D2C58535910509F405C60C948C37BF
:1052E0008A36910509F47BC454F48836910509F493
:1052F00011C48936910509F45EC40C948C378B3641
:10530000910509F4A4C48C36910511F40C94C037AE
:105310000C948C378237910509F4ABC68CF48F3628
:10532000910509F4B0C40CF49BC48037910511F4C5
:105330000C94C0378137910509F4E9C40C948C377B
:105340008637910509F4B1C654F48337910509F401
:1053500097C68537910509F496C60C948C37873724
:10536000910509F4DCC68837910511F00C948C374F
:1053700081E08093F90D8093F80D0E949E980C9423
:10538000C0378139A1E09A0711F40C9425350CF04F
:105390007EC08E3C910511F40C943B32ACF58E3BF3
:1053A000910509F4FAC4ACF48139910509F4C1C638
:1053B00034F48C38910509F4CFC40C948C378639B9
:1053C000910509F42AC78B39910509F408C50C9495
:1053D0008C378B3C910509F4EBC754F4883C91055C
:1053E00009F458C7893C910509F4BFC70C948C3760
:1053F0008C3C910511F40C94FA318D3C910511F41B
:105400000C942B320C948C378C32E1E09E0711F413
:105410000C94D733CCF48C3D910511F40C941633D5
:105420003CF4833D910511F40C9459320C948C3763
:105430008D3D910511F40C943D338232914011F46D
:105440000C9492330C948C378F3231E0930711F423
:105450000C9422356CF48D32B1E09B0711F40C945E
:10546000EC338E32914011F40C94DE340C948C3772
:105470008033F1E09F0711F40C946B348039914034
:1054800011F00C948C370F94F04A0C94C037883F7D
:1054900031E0930711F40C942C360CF053C0853A8C
:1054A000B1E09B0711F40C9434350CF58A39F1E026
:1054B0009F0711F40C94C0375CF48239914011F0CD
:1054C0000C948C370E947B3E0E94C7970C94C03787
:1054D0008C39A1E09A0711F40C942A35843A914052
:1054E00011F00C948C370E9490A70C94C037853F24
:1054F000E1E09E0711F40C9426367CF48C3A21E00E
:10550000920711F40C94CA35843F914011F00C9429
:105510008C370E9420BE0C94C037863FA1E09A07CA
:1055200011F40C942936873F914011F00C948C377C
:1055300061E083E50F94D16C91E089270F94D761E6
:105540000C94C0378335E3E09E0711F40C94C83601
:10555000DCF48F3322E0920711F40C9449363CF4CA
:105560008C30924011F40C943C360C948C37883576
:10557000B2E09B0711F40C944C368B35924011F439
:105580000C944F360C948C37803AF3E09F0709F463
:1055900000C26CF48C3633E0930711F40C94C037DE
:1055A0008438934011F40C94CB360C948C37873E9E
:1055B000B3E09B0711F40C943437893E934011F407
:1055C0000C9442370C948C3780E50E94E63D88238A
:1055D00029F00E94F2686B017C0103C0C12CD12C20
:1055E000760183E50E94E63D882361F00E945F3DDD
:1055F00020E030E04AE754E40F94368E0F9447964B
:105600006B017C010F94F04A8091D9049091DA04E7
:10561000009721F061E00F94413205C060E08FE90E
:1056200097E00F948F318091DB049091DC04892BFB
:1056300019F067E977E002C06FE877E020E030E03A
:105640004AE759E382E00F94AD6F40E0C701B6012D
:105650000E94845980E00F9471320C94C03780917D
:10566000DE0484FF02C00C9490388091E00487FF30
:1056700002C00C9490388091E104837011F00C9476
:1056800090380C94AD388091B81683FF25C08AEC11
:1056900097E00E947A518091B81683FF17C082E08C
:1056A00095E10F946F378BE1E2E0F5E1DE011196B1
:1056B00001900D928A95E1F760E070E0CE010196CD
:1056C0000F94C016CE0101960F9474378BEB97E0C0
:1056D0000E947A510C94C0370E94A8518BED97E03C
:1056E0000E947A510C94C0370F9486100C94C037E6
:1056F0000F94C70F8091B816877F80628093B81689
:105700000C94C037E091D904F091DA0480818823A9
:1057100029F0803209F410823196F8CF60E0809150
:10572000D9049091DA040F94A7150C94C0370E9405
:105730000251882321F00F94D80F0F94252A61E09D
:105740008FED9AE30F943B6F44EB5AE365EE77E0FD
:1057500085E00E947FF180E00F9471320C94C03795
:105760008091B81682FF03C08B7F8093B8160F9488
:10577000492A80E00F94713245E55AE367EF77E0FC
:1057800084E00E947FF161E081EF97E00F943B6F2E
:105790000C94C0378091B81683FD02C00C94C037BA
:1057A00083E50E94E63D81110C94BC380C94C0370F
:1057B00083E40E94983D882319F18AE098E00E94D2
:1057C0007A518091AC14882391F0BE016F5F7F4FB6
:1057D00089EA94E10F9436368E010F5F1F4FD8018E
:1057E0008D918D01882339F00E946851F8CF80E0B7
:1057F00098E00E947A518AE00E9468510C94C03768
:105800008091B81682FF21C089E198E00E947A5108
:105810006091B4167091B5168091B6169091B71636
:105820004AE00E9478528FE20E9468516091B0165F
:105830007091B1168091B2169091B3164AE00E9411
:1058400078520E9407540C94C0378BE298E00E9473
:105850007A510C94C0378091D9049091DA040F9456
:105860005D150C94C0378091B81683FD02C00C946E
:10587000C0370E9435F18091B81683FD02C00C94A8
:10588000C0374091D9045091DA04BE01645E7F4F65
:1058900080E00F94D5798C01009711F40C94C037F7
:1058A0006C8D7D8D19821C8222E0AC01CE010196A7
:1058B0000F94A43B811102C0F12C14C0CE010196BB
:1058C0000F9443798823C1F361E0CE0101960F94D0
:1058D0001A36009789F325EEFC0120831C820F9471
:1058E000D911F82ECE0101960F947437B801FF201C
:1058F00089F084E598E00E9491518AE00E94685105
:105900001092B4161092B5161092B6161092B716E1
:105910000C94C0378CE398E00E94915188EF90E29C
:105920000E947A510C94C0378091B81682FD0F9472
:10593000F04A8091B81683FD02C00C94C03760E035
:1059400080E50F94D16C182F682F8091D904909125
:10595000DA040F94A71583E50E94E63D882381F0C1
:105960000E944B3DAB01BC014093B4165093B51659
:105970006093B6167093B71689EA94E10F94FF13FB
:105980000F94D80F11110C94C0370F94252A0C9442
:10599000C0372091D9043091DA049091B816926002
:1059A0009093B816C9010F945D150C94C0370E94EE
:1059B00052997B018C0120E831E541E050E00F94E1
:1059C0002694C9016DE671E00F94A3944B015C012C
:1059D000C801B70120E13EE040E050E00F9426947A
:1059E000CA01B90128E130E040E050E00F9426946C
:1059F000762E672EC62ED72EBCE32B2E312C412CB3
:105A0000512CC801B701A20191010F942694F62EE2
:105A1000E72ECA01B901A20191010F942694CB018E
:105A20008E010F5F1F4F8114910499F0EF92FF9246
:105A30007F936F936F927F92BF92AF929F928F925C
:105A400082E698E09F938F931F930F930F94688D36
:105A500013C0A114B104B1F0EF92FF927F936F9342
:105A60006F927F92BF92AF9286E698E09F938F935A
:105A70001F930F930F94688D0FB6F894DEBF0FBE7F
:105A8000CDBF30C0CD2879F0EF92FF927F936F9316
:105A90006F927F928AE698E09F938F931F930F9364
:105AA0000F94688DE9CF892B69F0EF92FF927F9375
:105AB0006F938EE698E09F938F931F930F930F94AD
:105AC000688DDACFEF92FF9282E798E09F938F93F1
:105AD0001F930F930F94688D0F900F900F900F905E
