:100000000C9486260C94B7260C94B7260C94B7262D
:100010000C94B7260C94B7260C94B7260C94B726EC
:100020000C94B7260C94B7260C94B7260C94B726DC
:100030000C94B7260C94B7260C94B7260C94B726CC
:100040000C94B7260D94FF790C94B7260C94B72620
:100050000C94B7260C94B7260D9453050D940A33CF
:100060000C94B7260C94EC7D0C94E27D0C94B7268E
:100070000C94B7260C94B7260C94B7260C94B7268C
:100080000C94B7260C94B7260C94B7260C94B7267C
:100090000C94B7260C94B7260C94B7260C94B7266C
:1000A0000C94B7260C94B7260C94B7260C94B7265C
:1000B0000C94B7260C94B7260C94B7260C94B7264C
:1000C0000C94B7260C94B7260C94B7260C94B7263C
:1000D0000C94B7260C94B7260C94B7260C94B7262C
:1000E0000C94B7267D51845137523F538D5496540A
:1000F000A654227E347E467E577E5F7E927E637E4D
:10010000927E677E6B7E927E6F7E737E777E807E30
:10011000927E8B7E43016B017D012D020B02E30277
:1001200075025F02DB022501F50153028702CD0152
:100130009F028101690167022701AB013F029F0114
:100140004F021D0223013502670231015301BF0234
:10015000DF02770179018501BD018B011B02E501F9
:100160005B017B02910173029301F7028B01130281
:100170006B028D02084AD73B3BCE016E84BCBFFDAB
:10018000C12F3D6C74319ABD56833DDA3D00C77F67
:1001900011BED9E4BB4C3E916BAAAABE0000008000
:1001A0003F05A84CCDB2D44EB93836A9020C50B98F
:1001B000918688083CA6AAAA2ABE000000803F07B4
:1001C000634236B79BD8A71A39685618AEBAAB55F2
:1001D0008C1D3CB7CC5763BD6DEDFD753EF61772B7
:1001E00031BF000000803F08000000BE9224491289
:1001F0003EABAAAA2ABECDCCCC4C3E00000080BEAD
:10020000ABAAAAAA3E00000000BF000000803F0089
:1002100000000000084178D3BB4387D1133D190E7D
:100220003CC3BD4282AD2B3E68EC8276BED98FE1E5
:10023000A93E4C80EFFFBE01C4FF7F3F00000000DD
:1002400000000D940C5D0D94D3750D946D320D94DA
:10025000B7750D94A9040C94A3C40C94807E0C94DF
:100260000EC70D94DD750C94C6F00C9482C50D94E8
:10027000598F0D94C0320C94B1C40D9475320C9406
:1002800087990C94E4C60D946F320C94BECE0C94F6
:10029000467E0D94A6580C9404960C94ADC60C940E
:1002A0001AF20C94C0C60D94E1750C9496540D94FA
:1002B000B8850C946B940D949A760C9414C90D9493
:1002C000E02B0C942B990D9432210D941B5D0D9411
:1002D000075D0D94AA750D9448320C9463E40C9458
:1002E00064EE0C94CCC60D946B600D94F42B0D94BD
:1002F00067760D946C760C945F7E0D944B320D9462
:10030000082C0D94A6750C9417C50D9476760D9453
:10031000AD2D0D942F510D94F9760C94B4C50C9419
:10032000FFD10D94AE760D94C7760C94CAC90D9486
:100330002B510D943A5D0D94DF580C94F3E90D9414
:10034000C5750C942ED30C94A8CA0C94A69B0D943E
:10035000F82B0C94FCC40D94BB750D945B470C9466
:10036000A4D00C9456C50C9421930C9413900D9426
:10037000042C0D94F85C0C94C6C60D9480760C94F5
:10038000927E0D94F85D0C94FCC60C94D2C60C942D
:10039000C1F00D94165D0C948D3C0D94B3750D94C5
:1003A000E65C0C942AC50D94622A0C946ED00C94D1
:1003B0003F530C9408960D949F320C94AD9B0D9472
:1003C000025D0C9408C70C94A6E40D9492760C94EC
:1003D0000FCA0C9402960C9419930C94677E0C949B
:1003E0003CEF0C9406960C94EBF50D945A320D9458
:1003F000AC320D94D52A0C941F930C9470990C94E4
:100400008AC40C94577E0D94AA5C0C94227E0C94A2
:10041000F7C90C9437520D944E320D94002C0D9464
:10042000E42B0D94115D0D94DB760C9442990D94A0
:10043000A25C0C948B7E0D948A760D94CF750C94EF
:1004400002C70C9442F00C94E2D20D94DA500C9452
:100450000CC90C9400960C94CAC40D9472320C947E
:10046000777E0D94E05C0C943DC50D94D7750D948A
:10047000FD5C0D9458470D9455470D949A5C0D946E
:10048000C1750C94905B0C942A910C94C7D10C9478
:10049000CBF00C94C1D30C9477C40D94FC2B0D9429
:1004A000C9750C94C0C50D945D320D9491210D94C5
:1004B000EC2B0C94D9C90D9473590C9459990D9443
:1004C00060320C949BC50C94EBC80D94935C0D9416
:1004D000EA750D94602A0D94E5760C9484510C9481
:1004E000B5CE0C94EAC60D94B8760D9454320C94A3
:1004F00056F20C9406CA0D94A4760D94F15D0D94F9
:10050000EC5C0C94C8D50C94637E0D94DE2A0D949B
:10051000B0750D9440510D9431210D94EF760C94EB
:100520009CC90D94212A0C941DC70C947D510C94E8
:10053000FA920C94347E0D94B2610C948D540D9407
:10054000A2750C949CCA0C94E39E0C9433C90C9431
:10055000F6C60C94D8C60D94E82B0C94E8C90C94FC
:10056000F0C60C94A1C60D94DB320D94F02B0D94C3
:10057000D74B0D94F75E0C94737E0C94BFD30D94FF
:10058000E5750C94F5F10C9491CF0C94B4CA0C94CD
:100590006F7E0C941D930C94DEC60D94A05C0D949C
:1005A000BA630C94A6CE0C94B9D60D9444510C9415
:1005B000E1CE0D94812A0D9457320C9468ED0D9480
:1005C00062760C94BBC90D9451320C94A6540C94D1
:1005D000A29B0C941DEF0C9469C50C94F4EB0C9445
:1005E0006B7E0C94E3C40C9498990C9402D50D94F2
:1005F000D1760C943ED30C941B930D94F25C4E4137
:100600004E494E495459494E46CDCCCC3D0AD7238C
:100610003C17B7D13877CC2B329595E6241FB14FD4
:100620000A000020410000C84200401C4620BCBE19
:100630004CCA1B0E5AAEC59D7400407A10F35A0086
:10064000A0724E18090010A5D4E80000E8764817FB
:100650000000E40B54020000CA9A3B000000E1F5E0
:1006600005000080969800000040420F000000A0A6
:100670008601000000102700000000E803000000D1
:10068000006400000000000A0000000000010000FB
:100690000000002C76D888DC674F0823DFC1DFAE6E
:1006A00059E1B1B796E5E3E453C63AE65199769637
:1006B000E8E6C28426EB898C9B62ED407C6FFCEF00
:1006C000BC9C9F40F2BAA56FA5F490055A2AF75C2E
:1006D000936B6CF9676DC11BFCE0E40D47FEF520E0
:1006E000E6B500D0ED902E030094357705008084A8
:1006F0001E080000204E0A000000C80C33333333BC
:100700000F986E12831141EF8D2114893BE6551627
:10071000CFFEE6DB18D1844B381BF77C1D901DA45F
:10072000BBE424203284725E228100C9F124ECA152
:10073000E53D274C4556454C494E4700434F4D4DEE
:10074000554E49434154494F4E0044525952554E1B
:10075000004552524F5253004543484F0047322FF5
:1007600047332062616420706172616D65746572E7
:10077000730A00536C6565702E2E2E00205A3A20A5
:100780000020593A200042656420583A20004D6507
:10079000736820706F696E74206F7574206F6620A7
:1007A00072616E67650A004D302053746F70004DA2
:1007B000312053746F7000436C69636B20746F2039
:1007C000526573756D652E2E2E004E6F204D6F761F
:1007D000652E00456E642066696C65206C697374D3
:1007E0000A00426567696E2066696C65206C6973F2
:1007F000740A004E6F206D656469610A005265736A
:10080000756D696E672053440070617573650050A3
:100810006175736520534400286E6F2066696C65AE
:10082000290043757272656E742066696C653A20A2
:10083000005344207072696E74696E672062797427
:100840006520004E6F74205344207072696E746985
:100850006E670A0044656C6574696F6E2066616935
:100860006C65642C2046696C653A200046696C65AD
:100870002064656C657465643A0025697920256992
:1008800064202569682025696D20256973005072F0
:10089000696E742074696D653A2000452025530007
:1008A00044454255473A004D3131332053004265AB
:1008B0006420436F6F6C696E672E2E2E0042656454
:1008C0002048656174696E672E2E2E005369646539
:1008D00077696E646572205831204F46462E002F8E
:1008E0002F20004D31343520533C696E6465783ECD
:1008F000206F7574206F662072616E6765202830E6
:100900002D31290A00416363656C65726174696FFA
:100910006E3A2050005741524E494E4721204C6FAD
:1009200077205A204A65726B206D6179206C656171
:100930006420746F20756E77616E746564207061D9
:10094000757365732E0A0020204D61783A200020CF
:10095000204D696E3A2000536F667420656E647393
:10096000746F70733A200046523A0020466C6F77DD
:100970003A200020643A0020693A0020703A00646E
:1009800069730043290A0061626C656420286D69FF
:100990006E2074656D702000436F6C642065787400
:1009A000727564657320617265200046696C616DC3
:1009B000656E742072756E6F7574206469737461EE
:1009C0006E636520286D6D293A200046696C616D63
:1009D000656E742072756E6F757420004D343231FF
:1009E00020696E636F727265637420706172616DED
:1009F000657465722075736167650A004F6666737A
:100A0000657473204170706C696564004572723A58
:100A100020546F6F206661722100546F6F206661F1
:100A2000722066726F6D207265666572656E6365B1
:100A300020706F696E740A00454550524F4D204F2B
:100A40004B0A002028302D313029002076616C754A
:100A500065206F7574206F662072616E6765004156
:100A60006476616E6365204B3D0058076F14510733
:100A70004A073C073307446F6E652E0A003F496EF4
:100A800076616C69642073746F7261676520736C42
:100A90006F742E0A3F557365203020746F20004715
:100AA00032392050322066696E69736865642E0A97
:100AB000005859206F757473696465207072696E8F
:100AC0007461626C65207261646975732E0A003FFF
:100AD0004572726F7220696E20427573696E65731C
:100AE000732043617264206D6561737572656D6515
:100AF0006E742E0A004D616E75616C6C7920707297
:100B00006F62696E6720756E726561636861626CA1
:100B10006520706F696E74732E0A0050726F62697F
:100B20006E672061726F756E642028004D65736872
:100B300020696E76616C6964617465642E20507200
:100B40006F62696E67206D6573682E0A004D65736C
:100B500068207A65726F65642E0A00446566617567
:100B60006C742073746F7261676520736C6F74208E
:100B7000302073656C65637465642E0A004C6F6188
:100B800064696E6720746573745F706174746572F4
:100B90006E2076616C7565732E0A0A00496E766167
:100BA0006C696420746573745F7061747465726ECF
:100BB0002076616C75652E20282D3120746F2032CF
:100BC000290A0A004C6F636174696F6E7320696E45
:100BD00076616C6964617465642E0A0A00456E74FE
:100BE000697265204D65736820696E76616C696411
:100BF000617465642E0A0A004D65616E204D65734F
:100C000068204865696768743A200023206F662071
:100C100073616D706C65733A20000A4D65736820CE
:100C20006F6E6C79207061727469616C6C79207080
:100C30006F70756C617465642E0A0A0050726F6281
:100C4000696E6720506F696E74000A50726F626936
:100C50006E67206D65736820706F696E7420002068
:100C6000616E642074616B652061206D65617375D0
:100C700072656D656E742E0A006D6D20746869630F
:100C80006B2E0A00427573696E657373204361723F
:100C900064206973200052656D6F76652026204DB3
:100CA000656173757265204265640052656D6F768B
:100CB00065207368696D00506C61636520736869B5
:100CC0006D20756E646572206E6F7A7A6C65004D6A
:100CD00065736820506F696E74204D65617375721D
:100CE00065642061743A20000A4D657368206F6E58
:100CF0006C79207061727469616C6C7920706F70AE
:100D0000756C617465642E0A00506C6163652053D4
:100D100068696D2026204D656173757265004D6FA1
:100D200076696E6720746F206E657874004D657308
:100D3000682045646974696E672053746F707065CC
:100D40006400446F6E652045646974696E67204D68
:100D50006573680A00446F6E652045646974696E46
:100D600067204D6573680046696E652054756E692D
:100D70006E67204D6573680028582C5929206F75BF
:100D80007473696465207072696E7461626C652049
:100D90007261646975732E0A004F6666736574200C
:100DA0006F7574206F6620626F756E64732E2028D5
:100DB0003020746F2031306D6D290A0A00496E763B
:100DC000616C6964206D617020747970652E0A0A07
:100DD000003F28462961646520686569676874205A
:100DE000666F7220426564204C6576656C20436FA7
:100DF0007272656374696F6E206E6F7420706C61BF
:100E0000757369626C652E0A0A003F43616E277430
:100E100020616374697661746520616E6420646525
:100E200061637469766174652061742074686520FB
:100E300073616D652074696D652E0A0A00426F74D6
:100E400068205820262059206C6F636174696F6E8A
:100E500073206D75737420626520737065636966B5
:100E60006965642E0A0A003F496E76616C696420E8
:100E7000677269642073697A6520284A2920737033
:100E8000656369666965642028322D39292E0A0A4E
:100E9000003F285029686173652076616C75652074
:100EA000696E76616C69642028302D36292E0A0A15
:100EB000003F2856296572626F7365206C65766500
:100EC0006C20696D706C61757369626C6520283087
:100ED0002D34292E0A0A003F28522965706574694D
:100EE00074696F6E20636F756E7420696E76616CC5
:100EF00069642028312B292E0A0A00446F696E6725
:100F000020473239002C2079315F693D002C207850
:100F1000693D00206F7574206F6620626F756E6486
:100F20007320696E207A5F636F7272656374696F94
:100F30006E5F666F725F795F6F6E5F766572746900
:100F400063616C5F6D6573685F6C696E652872794B
:100F5000303D0078690079315F69002F2F6163743B
:100F6000696F6E3A00737461727400626567696ECE
:100F700000656E640070726F6D70745F0073686FEF
:100F8000770044697361626C6552756E6F757400A9
:100F900050757267654D6F726500486F74656E6459
:100FA00020746F6F20636F6C640A004732362048EC
:100FB000656174696E67204E6F7A7A6C650047329E
:100FC000362048656174696E672042656400576128
:100FD0006974696E6720666F7220686561747570E8
:100FE0002E0A004669786564204C656E6774682037
:100FF0005072696D6500446F6E65205072696D694D
:101000006E67004D616E75616C207072696D696EFE
:10101000672E2E2E004732362043616E63656C6565
:1010200064004C656176696E6720473236003F5335
:10103000706563696669656420582C5920636F6F19
:101040007264696E617465206F7574206F662062CA
:101050006F756E64732E0A003F28522965706561B2
:10106000742076616C7565206E6F7420706C61758C
:101070007369626C653B206D7573742062652061D5
:1010800074206C6561737420312E0A003F537065C3
:10109000636966696564206E6F7A7A6C6520746531
:1010A0006D7065726174757265206E6F7420706CFE
:1010B00061757369626C652E0A003F5370656369E0
:1010C000666965642066696C616D656E742073691C
:1010D0007A65206E6F7420706C61757369626C65DF
:1010E0002E0A003F537065636966696564207072FB
:1010F000696D65206C656E677468206E6F74207012
:101100006C61757369626C652E0A003F537065638C
:101110006966696564206E6F7A7A6C652073697A96
:1011200065206E6F7420706C61757369626C652EDA
:101130000A003F52657472616374696F6E204D7569
:101140006C7469706C696572206D7573742062656A
:10115000207370656369666965642E0A003F537089
:101160006563696669656420526574726163746958
:101170006F6E204D756C7469706C696572206E6F4E
:101180007420706C61757369626C652E0A003F5340
:101190007065636966696564206C61796572206851
:1011A0006569676874206E6F7420706C617573690F
:1011B000626C652E0A0043292E0A003F5370656356
:1011C0006966696564206265642074656D70657226
:1011D0006174757265206E6F7420706C61757369CF
:1011E000626C65202834302D0047323620737461DC
:1011F0007274696E672E2E2E0A006563686F3A005E
:101200004572726F723A003F3F3F2059696B6573B8
:101210002120204E414E20696E206765745F7A5F01
:10122000636F7272656374696F6E280029203D20B8
:101230000020726177206765745F7A5F636F7272F6
:10124000656374696F6E2800203A202E2E2E4E6F33
:1012500077204F4E0A00203A204C6576656C696E07
:1012600067204F46460A00203A202E2E2E4E6F77DA
:10127000204F46460A00203A204C6576656C696E20
:1012800067204F4E0A00204A0020204D3432312082
:101290004900202047323920493939390A00616331
:1012A000746976650A002053797374656D20763110
:1012B0002E303120002020207C0A004E414E00209C
:1012C000202E20202000207C004C43443A0A00437A
:1012D00053563A0A0020666F7220003A0A0A000A42
:1012E00042656420546F706F677261706879205234
:1012F00065706F7274002044697363726570616E0B
:1013000063793A00326E642050726F6265205A3AF7
:1013100000534C4F57003173742050726F62652038
:101320005A3A00464153540050726F62653A3A721D
:10133000756E5F7A5F70726F62650050726F62697E
:101340006E67204661696C65640A0050726F62695D
:101350006E67204661696C656400506F73697469DB
:101360006F6E204E6F7420526561636861626C65B8
:101370000A005F72656C6174697665290A005072B3
:101380006F62653A3A70726F62655F61745F706F29
:10139000696E740050726F7465637465642050697F
:1013A0006E0A005A5F6D6F76655F636F6D700A003D
:1013B0003E3E3E207365745F617869735F6E65764B
:1013C00065725F686F6D656428003C3C3C20736506
:1013D000745F617869735F6E657665725F686F6D63
:1013E000656428005072696E7465722073746F7042
:1013F0007065642064756520746F206572726F7209
:10140000732E2046697820746865206572726F7249
:1014100020616E6420757365204D39393920746FF1
:1014200020726573746172742E202854656D706526
:101430007261747572652069732072657365742EAC
:10144000205365742069742061667465722072652A
:101450007374617274696E67290A00554E4B4E4F62
:10146000574E2053544154450047434F44455F492C
:101470004E464F004C43445F50415553455F5245E3
:1014800053554D450046494C414D454E545F5255CC
:101490004E4F55545F434F4E54494E5545004649B3
:1014A0004C414D454E545F52554E4F5554004D38AA
:1014B000373620526573706F6E64696E67205052C4
:1014C0004F4D50545F004572726F7220777269748D
:1014D000696E6720746F20454550524F4D210A00B8
:1014E00053544F505045442E20004E6F20436865A2
:1014F000636B73756D2077697468206C696E652005
:101500006E756D6265722C204C617374204C696E2F
:10151000653A2000636865636B73756D206D697350
:101520006D617463682C204C617374204C696E6526
:101530003A20004C696E65204E756D6265722069B7
:1015400073206E6F74204C617374204C696E65203B
:101550004E756D6265722B312C204C617374204C7A
:10156000696E653A20004D31313000534420726578
:101570006164206572726F720A002121204B494C10
:101580004C20636175736564206279204B494C4C33
:1015900020627574746F6E2F70696E0A00212120AD
:1015A0004B494C4C206361757365642062792074EB
:1015B0006F6F206D75636820696E6163746976650D
:1015C0002074696D65202D2063757272656E7420BC
:1015D000636F6D6D616E643A2000627573793A20B5
:1015E00070617573656420666F7220696E707574C2
:1015F0000A00627573793A207061757365642066BC
:101600006F7220757365720A00627573793A207083
:10161000726F63657373696E670A004D6564696113
:101620002052656D6F766564004D6564696120497F
:101630006E736572746564004D36303000206669E3
:101640006C616D656E745F72756E6F757420006687
:10165000696C616D656E745F72756E6F7574205420
:101660000046696C616D656E7452756E6F7574209D
:101670005400506C65617365205265736574005049
:1016800052494E5445522048414C5445440025533C
:101690003A20255300706F7765726F6666004B497C
:1016A0004C4C45442E20005072696E74657220685F
:1016B000616C7465642E206B696C6C2829206361F1
:1016C0006C6C6564210A0050726F6265204F66661B
:1016D0007365742058007D007D7D2C776F726B3AA6
:1016E0007B6D696E3A7B783A007D2C6D61783A7B30
:1016F000783A002C7A3A002C793A00617265613AA6
:101700007B66756C6C3A7B6D696E3A7B783A004308
:1017100048414D4245525F54454D50455241545504
:10172000524500424142595354455050494E47009A
:1017300041524353004D4F54494F4E5F4D4F444526
:101740005300544845524D414C5F50524F5445430D
:1017500054494F4E004C4F4E475F46494C454E4111
:101760004D45004155544F5245504F52545F5344DC
:101770005F53544154555300534443415244005025
:10178000524F4D50545F535550504F525400454D99
:10179000455247454E43595F5041525345520043CD
:1017A0004153455F4C494748545F4252494748546A
:1017B0004E45535300544F47474C455F4C494748AB
:1017C000545300534F4654574152455F504F57456D
:1017D00052004255494C445F50455243454E5400D7
:1017E0004C4556454C494E475F44415441005A5F71
:1017F00050524F4245004155544F4C4556454C00C0
:101800005052494E545F4A4F420050524F47524542
:101810005353004155544F5245504F52545F544515
:101820004D5000564F4C554D455452494300424986
:101830004E4152595F46494C455F5452414E5346C2
:1018400045520053455249414C5F584F4E5F584FE7
:101850004646004649524D574152455F4E414D451F
:101860003A4D61726C696E20322E302E372E322046
:10187000284F637420323020323032302031353AF4
:1018800032343A33372920534F555243455F434F43
:1018900044455F55524C3A68747470733A2F2F6701
:1018A00069746875622E636F6D2F4D61726C696E1D
:1018B0004669726D776172652F4D61726C696E2039
:1018C00050524F544F434F4C5F56455253494F4E21
:1018D0003A312E30204D414348494E455F545950CE
:1018E000453A5369646577696E64657220583120A2
:1018F00045585452554445525F434F554E543A3122
:1019000020555549443A38356534393866302D63A9
:101910003663332D343864352D396633362D6538CA
:10192000383332326439306362310A003F5A206FF3
:101930007574206F662072616E67652028003F59BC
:10194000206F7574206F662072616E676520282D88
:10195000003F58206F7574206F662072616E676556
:1019600020282D00656E7175657565696E6720228A
:10197000006F6B00526573656E643A2000507269A7
:101980006E7420446F6E6500446F6E6520707269DE
:101990006E74696E672066696C650A004D373700A2
:1019A0004D33310023646566696E652044454641C8
:1019B000554C545F004B6420004B6920004B702055
:1019C00000504944204175746F74756E65206669D6
:1019D0006E69736865642120507574207468652091
:1019E0006C617374204B702C204B6920616E6420F5
:1019F0004B6420636F6E7374616E74732066726FD4
:101A00006D2062656C6F7720696E746F20436F6E16
:101A100066696775726174696F6E2E680A00504955
:101A200044204175746F74756E65206661696C65DC
:101A300064212074696D656F75740A000A20436C17
:101A4000617373696320504944200A00204B643A53
:101A50002000204B693A2000204B703A20000A20D9
:101A60004E6F206F76657273686F6F740A00205432
:101A7000753A2000204B753A2000206D61783A209D
:101A800000206D696E3A200020643A2000206269CF
:101A900061733A2000504944204175746F74756E2B
:101AA000652073746172740A005049442041757452
:101AB0006F74756E65206661696C6564212054657C
:101AC0006D706572617475726520746F6F206869DE
:101AD00067680A00504944204175746F74756E65DB
:101AE00000504944204175746F74756E65206661BD
:101AF000696C656421204261642065787472756444
:101B00006572206E756D6265720A00A10000006941
:101B100000A20000006300B00000000900C1000046
:101B2000004100C20000004100C30000004100C4A9
:101B30000000004100C50000004100C60000004157
:101B400045C70000004300C80000004500C9000070
:101B5000004500CD0000004900D10000004E00D536
:101B60000000004F00D60000004F00D700000078B2
:101B700000DC0000005500DD0000005900E000001E
:101B8000006100E10000006100E20000006100E38C
:101B90000000006100E40000006100E50000006159
:101BA00000E60000006165E70000006300E8000057
:101BB000006500E90000006500EA0000006500EB38
:101BC0000000006500EC0000006900ED0000006905
:101BD00000EE0000006900EF0000006900F1000065
:101BE000006E00F20000006F00F30000006F00F4D0
:101BF0000000006F00F50000006F00F60000006FAD
:101C000000F80000006F00F90000007500FA000005
:101C1000007500FB0000007500FC0000007500FD71
:101C20000000007900FF000000790004010000417D
:101C300000050100006100060100004300070100EB
:101C40000063000C01000043000D01000063000E62
:101C500001000044000F0100006400110100006455
:101C6000001901000065001A01000045001B010079
:101C70000065001F010000670030010000490031CD
:101C80000100006900410100004C00420100006CAD
:101C900000430100004E00440100006E00480100B6
:101CA000006E005801000052005901000072005AF5
:101CB00001000053005B01000073005F010000732E
:101CC0000060010000530061010000730065010025
:101CD0000074006F01000075007C0100007A007D37
:101CE0000100005A007E0100007A009201000066A7
:101CF00000E30200007800222000002E001E2100D8
:101D000000507822210000544D902100003C2D927B
:101D10002100002D3EB02100000300BB2100000483
:101D2000003C2200007E00482200007E3D60220030
:101D300000213D612200003D00642200003C3D6521
:101D40002200003E3DF12300000700A03000003DCE
:101D50000021F301000200C2F401000500A200000E
:101D600000EC00B0000000DF00E4000000E100F63D
:101D7000000000EF00F7000000FD00FC000000F58F
:101D800000E3020000EB0087030000A5008F0300C2
:101D900000F40098030000F2009E030000E300A39B
:101DA000030000F600A9030000F400AC030000E00B
:101DB00000AD030000E300B1030000E000B2030047
:101DC00000E200B5030000E300B8030000F200BC2D
:101DD000030000E400BE030000E300C0030000F7BE
:101DE00000C1030000E600C3030000E500902100ED
:101DF000007F00922100007E001A220000E8001EF1
:101E0000220000F30088250000FF0002300000A13E
:101E1000000C300000A2000D300000A3009B300039
:101E200000DE009C300000DF00A03000003D00A17B
:101E3000300000A700A2300000B100A3300000A8CD
:101E400000A4300000B200A5300000A900A63000B8
:101E500000B300A7300000AA00A8300000B400A919
:101E6000300000AB00AA300000B500AB300000B677
:101E700000AC300000B6DEAD300000B700AE300080
:101E800000B7DEAF300000B800B0300000B8DEB1FF
:101E9000300000B900B2300000B9DEB3300000BA43
:101EA00000B4300000BADEB5300000BB00B6300030
:101EB00000BBDEB7300000BC00B8300000BCDEB9AB
:101EC000300000BD00BA300000BDDEBB300000BEF7
:101ED00000BC300000BEDEBD300000BF00BE3000E0
:101EE00000BFDEBF300000C000C0300000C0DEC157
:101EF000300000C100C2300000C1DEC3300000AFBE
:101F000000C4300000C200C5300000C2DEC6300090
:101F100000C300C7300000C3DEC8300000C400C9E1
:101F2000300000C4DECA300000C500CB300000C65F
:101F300000CC300000C700CD300000C800CE30001B
:101F400000C900CF300000CA00D0300000CADED186
:101F5000300000CADFD2300000CB00D3300000CB0D
:101F6000DED4300000CBDFD5300000CC00D630000E
:101F700000CCDED7300000CCDFD8300000CD00D957
:101F8000300000CDDEDA300000CDDFDB300000CEE7
:101F900000DC300000CEDEDD300000CEDFDE3000C1
:101FA00000CF00DF300000D000E0300000D100E1C1
:101FB000300000D200E2300000D300E3300000AC7B
:101FC00000E4300000D400E5300000AD00E6300051
:101FD00000D500E7300000AE00E8300000D600E990
:101FE000300000D700EA300000D800EB300000D904
:101FF00000EC300000DA00ED300000DB00EF3000D4
:1020000000DC00F2300000A600F3300000DD00F438
:10201000300000B3DEF7300000DCDEFA300000A64E
:10202000DEFB300000A500FC300000B000FD3000F9
:1020300000A400074E0000FB0086510000FC004396
:10204000530000FA0064FF0000A40065FF0000A533
:102050000066FF0000A60067FF0000A70068FF0001
:1020600000A80069FF0000A9006AFF0000AA006B39
:10207000FF0000AB006CFF0000AC006DFF0000AD86
:10208000006EFF0000AE006FFF0000AF0070FF00A9
:1020900000B00071FF0000B10072FF0000B20073D9
:1020A000FF0000B30074FF0000B40075FF0000B52E
:1020B0000076FF0000B60077FF0000B70078FF0051
:1020C00000B80079FF0000B9007AFF0000BA007B79
:1020D000FF0000BB007CFF0000BC007DFF0000BDD6
:1020E000007EFF0000BE007FFF0000BF0080FF00F9
:1020F00000C00081FF0000C10082FF0000C2008319
:10210000FF0000C30084FF0000C40085FF0000C57D
:102110000086FF0000C60087FF0000C70088FF00A0
:1021200000C80089FF0000C9008AFF0000CA008BB8
:10213000FF0000CB008CFF0000CC008DFF0000CD25
:10214000008EFF0000CE008FFF0000CF0090FF0048
:1021500000D00091FF0000D10092FF0000D2009358
:10216000FF0000D30094FF0000D40095FF0000D5CD
:102170000096FF0000D60097FF0000D70098FF00F0
:1021800000D80099FF0000D9009AFF0000DA009BF8
:10219000FF0000DB009CFF0000DC009DFF0000DD75
:1021A000009EFF0000DE009FFF0000DF00E5FF0053
:1021B000005C00416D6178204500416D6178205AD6
:1021C00000416D6178205900416D617820580041CF
:1021D0002D54726176656C00412D52657472616395
:1021E0007400416363656C0056652D4A65726B002F
:1021F000565A2D4A65726B0056592D4A65726B000E
:1022000056582D4A65726B0050726F6265205920D6
:102210004F66667365740050726F62652058204F78
:10222000666673657400452073746570732F6D6DF9
:10223000005A2053746570732F6D6D0059205374CC
:102240006570732F6D6D00582053746570732F6D1A
:102250006D00496E6974004D3432380050726F62FF
:1022600065204F66667365747300416363656C65D2
:10227000726174696F6E0056656C6F636974790082
:1022800053657420486F6D65204F6666736574737F
:102290000052756E6F75742044697374206D6D0003
:1022A0004C6F6164206D6D00556E6C6F6164206DC4
:1022B0006D0046696C2E204469612E004520696ED0
:1022C000206D6DC2B3004D3330332055312045258C
:1022D000692053256900504944204175746F747515
:1022E0006E65202A005049442D44202A005049445C
:1022F0002D49202A005049442D50202A0020022038
:1023000046616374002002204D6178002002204D58
:10231000696E004175746F74656D7000565472611A
:1023200076204D696E00566D696E00566D6178209D
:102330004500566D6178205A00566D61782059002D
:10234000566D61782058000600000701000500075F
:102350000100070600000007000500562351234C2A
:102360002347230000803FABAA4A42ABAAC84200E1
:10237000001643ABAA474356557943008095432541
:10238000532025692F2569002020443D002020424C
:102390003D004C534620526573756C747320413D6B
:1023A00000726F746174696F6E206D617472697808
:1023B0003A0A00616674657220726F746174696FA5
:1023C0006E203D205B005D2020202D2D2D3E200025
:1023D0006265666F726520726F746174696F6E20DA
:1023E0003D205B005D0A0062656420706C616E6573
:1023F000206E6F726D616C203D205B00436F756CC9
:1024000064206E6F7420636F6D706C657465204C12
:102410005346210020202066696E616C203E3E3EBE
:102420002D2D2D3E2000202020636F727265637475
:10243000696F6E3A2000292020206D6561737572E6
:1024400065643A2000292020206C6F676963616C05
:102450003A20280054696C74696E67206D65736852
:1024600020706F696E7420003F4572726F72207029
:10247000726F62696E6720706F696E742E204162A0
:102480006F7274696E67206F7065726174696F6EC8
:102490002E0A00255320332F330054696C74696E63
:1024A00067206D6573682028332F33290A00255370
:1024B00020322F330054696C74696E67206D657328
:1024C000682028322F33290A00436F7272656374C3
:1024D00065645F5A3D0054696C74696E6720506F83
:1024E000696E7400255320312F330054696C746970
:1024F0006E67206D6573682028312F33290A0064C8
:102500006F6E650A00496E73756666696369656E0C
:102510007420646174610A004578747261706F6C34
:102520006174696E67206D6573682E2E2E002C799C
:10253000693D002C78315F693D00206F7574206F14
:102540006620626F756E647320696E207A5F636FB8
:102550007272656374696F6E5F666F725F785F6FCA
:102560006E5F686F72697A6F6E74616C5F6D6573B0
:10257000685F6C696E65287278303D0078315F69FC
:10258000007969002E2E2E2800486F6D696E672035
:102590004661696C6564006F70656E00545249470E
:1025A00047455245440066696C616D656E74007AFA
:1025B0005F6D696E00795F6D696E00785F6D696E41
:1025C000005265706F7274696E6720656E64737413
:1025D0006F70207374617475730A00203A207379E8
:1025E0006E635F706C616E5F706F736974696F6E3C
:1025F0000A00646F5F626C6F636B696E675F6D6F1B
:1026000076655F746F00486F6D65202573257325AF
:1026100073204669727374005D002C2000646F5F44
:10262000686F6D696E675F6D6F76650050726F627F
:1026300065205A204F666673657400416476616E4A
:102640006365642053657474696E677300436F6ECD
:1026500074696E756500554E4C4F41442046494C97
:10266000414D454E540046494C414D454E54204342
:1026700048414E4745004E65787420506F696E742E
:10268000004E65787400526573746F7265204465FE
:102690006661756C7473004C6F616420536574746B
:1026A000696E67730053746F726520536574746943
:1026B0006E67730050726568656174202420436FF3
:1026C0006E660052756E6F75742053656E736F720F
:1026D000004D37303220542564004D3630302042D2
:1026E0003020542564004D373032203B2564004DA6
:1026F00037303120542564005075726765206D6F46
:10270000726500524553554D45204F5054494F4E28
:10271000533A005052494E542050415553454400BD
:1027200020204E6F7A7A6C653A2000416476616EA3
:102730006365204B0046616E205370656564004DF3
:1027400061696E004261627973746570205A004657
:102750006C6F77005A2056616C7565004732380AF5
:102760004D313930205325690A4D313039205325F8
:10277000690A473239205031004265642054656D42
:102780007000486F74656E642054656D7000473248
:10279000392050362043202D004865696768742031
:1027A000416D6F756E740041646A757374204D6578
:1027B0007368204865696768740046696E652054CF
:1027C000756E6520436C6F736573740047323920F2
:1027D00050342054004732380A47323620432050C4
:1027E00020482569204225690056616C696461743E
:1027F0006520437573746F6D204D657368004732B3
:10280000380A473236204320502049310056616C47
:102810006964617465204D65736820282429004728
:1028200032380A47323620432050204930004732A0
:1028300039204A2569004C6576656C204D657368C2
:10284000005369646520506F696E74730047726944
:1028500064204D657368204C6576656C696E670011
:10286000332D506F696E74204C6576656C696E67A8
:1028700000473239204A300024F4D43050C38E202F
:10288000C2A24017828B7011127A910D816CD90A05
:10289000A861E108C7586607615143061E4B5D05F4
:1028A000C145A7041A411104093D98037139310348
:1028B0004036DB0265339102D4305402802E1D0273
:1028C000632CEE01752AC501B028A00110278101F3
:1028D0008F2564012B244B01E0223401AC211F0120
:1028E0008D200D01801FFC00841EED00971DDF0070
:1028F000B81CD200E61BC600201BBC00641AB20044
:10290000B219A8000A19A0006A189900D1179100FD
:1029100040178B00B516840031167E00B315790080
:102920003A157300C7146F0058146A00EE1366005E
:102930008813630025135E00C7125B006C125700FA
:1029400015125400C111510070114F0021114B009C
:10295000D61049008D104700461044000210420076
:10296000C00F4000800F3E00420F3C00060F3B00AE
:10297000CB0E3800930E37005C0E3500270E340066
:10298000F30D3200C10D3100900D3000600D2E00AE
:10299000320D2D00050D2C00D90C2B00AE0C29009A
:1029A000850C29005C0C2700350C27000E0C260036
:1029B000E80B2400C40B2400A00B23007D0B230094
:1029C0005A0B2100390B2100180B2000F80A1F00B8
:1029D000D90A1E00BB0A1E009D0A1D00800A1D00A8
:1029E000630A1C00470A1B002C0A1B00110A1A006C
:1029F000F7091A00DD091900C4091900AB0919000B
:102A0000920917007B091800630917004C0916008A
:102A100036091600200916000A091500F5081500E8
:102A2000E0081400CC081400B8081400A40814002E
:102A3000900813007D0812006B081300580812005C
:102A40004608120034081100230811001208110072
:102A500001081100F0071000E0071000D007100077
:102A6000C0071000B0070F00A107100091070E006B
:102A700083070F0074070F0065070E0057070E004D
:102A800049070E003B070D002E070E0020070D0022
:102A900013070D0006070D00F9060C00ED060D00EA
:102AA000E0060C00D4060C00C8060C00BC060C00A6
:102AB000B0060C00A4060B0099060C008D060B0056
:102AC00082060B0077060B006C060B0061060A00FD
:102AD00057060B004C060A0042060A0038060A0098
:102AE0002E060A0024060A001A060A00100609002B
:102AF00007060A00FD050900F4050900EB050900B9
:102B0000E2050900D9050900D0050900C70509003B
:102B1000BE050900B5050800AD050800A5050900BA
:102B20009C050800940508008C0508008405080031
:102B30007C050800740508006C05070065050800A1
:102B40005D050700560508004E050700470507000C
:102B50004005080038050700310507002A05070071
:102B6000230507001C050600160507000F050700D2
:102B70000805060002050700FB040600F50407002F
:102B8000EE040600E8040600E2040700DB04060089
:102B9000D5040600CF040600C9040600C3040600DD
:102BA000BD040600B7040600B1040500AC0406002D
:102BB000A6040600A00405009B0406009504050079
:102BC000900406008A0405008504050080040600C0
:102BD0007A04050075040500700405006B04050007
:102BE00066040500610405005C0405005704050047
:102BF000520405004D040500480405004304050087
:102C00003E0404003A0405003504050030040400C5
:102C10002C04050027040400230405001E040400FE
:102C20001A04040016040500110404000D04040035
:102C3000090405000404040000040400FC0304006B
:102C4000F8030400F4030400F0030400EC030400A0
:102C5000E8030400E4030400E0030400DC030400D0
:102C6000D8030400D4030400D0030400CC03040000
:102C7000C8030300C503030024F404D9201BC40CBB
:102C80005C0E9804C4095F0265077101F405F90040
:102C9000FB04B30048048700C103690058035500D2
:102CA00003034500BE023A008402310053022A00A9
:102CB0002902250004022000E4011C00C8011900BB
:102CC000AF01170098011400840113007101100076
:102CD0006101100051010E0043010D0036010B008F
:102CE0002B010B0020010B00150109000C0109004C
:102CF00003010800FB000800F3000800EB000700D8
:102D0000E4000600DE000600D8000600D20006003F
:102D1000CC000500C7000500C2000500BD0004008E
:102D2000B9000400B5000400B1000400AD000400C7
:102D3000A9000400A5000300A20003009F000400F6
:102D40009B0003009800030095000200930003001D
:102D5000900003008D0002008B0003008800020039
:102D60008600020084000300810002007F00020050
:102D70007D0002007B000200790002007700010064
:102D8000760002007400020072000100710002006F
:102D90006F0002006D0001006C0002006A0001007B
:102DA0006900020067000100660001006500010083
:102DB0006400020062000100610001006000010087
:102DC0005F0002005D0001005C0001005B0001008B
:102DD0005A0001005900010058000100570001008D
:102DE000560001005500010054000100530000008E
:102DF0005300010052000100510001005000010089
:102E00004F0001004E0000004E0001004D00010087
:102E10004C0001004B0000004B0001004A00010083
:102E2000490001004800000048000100470001007F
:102E3000460000004600010045000000450001007A
:102E40004400010043000000430001004200000074
:102E5000420001004100000041000100400001006B
:102E60003F0000003F0001003E0000003E00010066
:102E70003D0000003D0001003C0000003C0000005F
:102E80003C0001003B0000003B0001003A00000054
:102E90003A0001003900000039000100380000004C
:102EA0003800000038000100370000003700010042
:102EB000360000003600000036000100350000003A
:102EC000350000003500010034000000340000002F
:102ED0003400010033000000330000003300010023
:102EE000320000003200000032000100310000001A
:102EF000310000003100010030000000300000000F
:102F0000300001002F0000002F0000002F00000003
:102F10002F0001002E0000002E0000002E000100F6
:102F20002D0000002D0000002D0000002D000100EC
:102F30002C0000002C0000002C0000002C000100E0
:102F40002B0000002B0000002B0000002B000100D4
:102F50002A0000002A0000002A0000002A000100C8
:102F600029000000290000002900000029000000BD
:102F700029000100280000002800000028000000AF
:102F800028000000280001002700000027000000A2
:102F90002700000027000000270001002600000095
:102FA0002600000026000000260000002600010088
:102FB000250000002500000025000000250000007D
:102FC000250000002500010024000000240000006E
:102FD0002400000024000000240001002300000061
:102FE0002300000023000000230000002300000055
:102FF0002300000023000100220000002200000046
:103000002200000022000000220000002200010037
:10301000210000002100000021000000210000002C
:10302000210000002100000021000100200000001C
:103030002000000020000000200000002000000010
:103040002000000020000000200001001F00000000
:103050001F0000001F0000001F0000001F000000F4
:103060001F0000001F0001001E0000001E000000E5
:103070001E0000001E000000232C0000B8220000EB
:10308000561800003A0F0000B8080000B104000014
:10309000710200003E0100004732392050342052B6
:1030A0003939392054004732380A473239205031F3
:1030B000004D6F74696F6E0045646974204D6573CF
:1030C00068004D616E75616C6C79204275696C6445
:1030D000204D6573680047323920493939390A472C
:1030E0003239205032204220543000372E20536194
:1030F000766520426564204D65736800362E204653
:10310000696E652054756E6520416C6C00352E200B
:1031100056616C6964617465204D65736800342E76
:103120002046696E652054756E6520416C6C0033D5
:103130002E2056616C6964617465204D657368006A
:10314000322E20536D6172742046696C6C2D696E4D
:103150000047323920503320543000312E20427540
:10316000696C6420436F6C64204D65736800466130
:10317000646520486569676874004F75747075747C
:103180002055424C20496E666F0047323920570067
:1031900055424C20546F6F6C73004F75747075748A
:1031A000204D657368204D6170004D657368205334
:1031B000746F72616765004D65736820456469745A
:1031C00000537465702D42792D53746570205542FB
:1031D0004C0041637469766174652055424C004728
:1031E00032392041004465616374697661746520F9
:1031F00055424C004732392044002568753A253045
:103200003268750025303268753A253032687500AD
:10321000202020202020200041425300504C41001B
:10322000496E666F2053637265656E0047323920C0
:103230005033205220432E2569004D616E75616C1C
:103240002046696C6C2D696E0046696C6C2D696E48
:1032500020416D6F756E74004D65736820696E76E0
:10326000616C6964617465642E0A00496E76616CF4
:10327000696461746520436C6F73657374004732D1
:1032800039204900496E76616C696461746520413A
:103290006C6C00436F6E74696E75652042656420C6
:1032A0004D6573680047323920503120430046692C
:1032B0006C6C2D696E204D657368004275696C6495
:1032C00020437573746F6D204D6573680047323805
:1032D0000A4D3139302049310A4D313039204931D8
:1032E0000A4732392050310A4D3130342053300AE8
:1032F0004D313430205330004275696C64204D6587
:10330000736820282429004732380A4D313930208B
:1033100049300A4D3130392049300A47323920507E
:10332000310A4D3130342053300A4D31343020537E
:10333000300047323920256325690A4D3131372065
:10334000004D657368202569204C6F6164656400D9
:103350004D657368202569205361766564004C6F64
:10336000616420426564204D657368004D656D6F32
:10337000727920536C6F74004E6F2053746F7261BA
:10338000676500473239205034205825732059256D
:10339000732052256900202D2D2D2D2D00486F6D95
:1033A000696E672058595A00473238004F666620C8
:1033B0005072696E746572204261636B757000476C
:1033C000323920532D31004F757470757420666F3B
:1033D000722043535600473239205431004F7574E0
:1033E00070757420666F7220486F737400473239AD
:1033F000205430001C321832202063757272656EC2
:10340000745F706F736974696F6E3D0050726F62A4
:10341000653A3A646F5F7A5F726169736528006428
:1034200065706C6F793A2000203A2050726F6265A7
:103430003A3A7365745F6465706C6F7965640A000D
:10344000206D61783A00206D696E3A0041786973A9
:10345000200053657474696E67732053746F7265CE
:1034600064002062797465733B20637263200053AB
:10347000657474696E67732053746F726564202875
:10348000004E6F20454550524F4D2E0A0045455085
:10349000524F4D206461746173697A652065727260
:1034A0006F722E0A003F4D65736820746F6F206243
:1034B000696720666F7220454550524F4D2E0A00B5
:1034C00055424C2072657365740A00206C6F61640C
:1034D00065642066726F6D2073746F726167652E0C
:1034E0000A004D65736820003F43616E27742065B4
:1034F0006E61626C65200020696E697469616C6937
:103500007A65642E0A0A002073746F7265642073F2
:10351000657474696E677320726574726965766527
:1035200064202800202863616C63756C6174656495
:1035300029210A0020213D2000454550524F4D20B1
:10354000435243206D69736D61746368202D202898
:1035500073746F726564292000496E6465783A203F
:103560000044494749504F5453204C6F616465648F
:103570000A0044494749504F5453204C6F616469D5
:103580006E670A00204D61726C696E3D56383229B3
:103590000A00454550524F4D2076657273696F6E33
:1035A000206D69736D617463682028454550524FE2
:1035B0004D3D0000009643000096430000C84300C4
:1035C000000000000000000000000020436F756E46
:1035D0007420583A004D3130362050004531006299
:1035E0006564002C2073797374656D2073746F703B
:1035F00070656421204865617465725F49443A20B2
:103600000048656174696E67204661696C65640095
:1036100048656174696E67206661696C6564004D18
:103620003131322053687574646F776E00202D201D
:10363000496E76616C696420657874727564657230
:10364000206E756D62657220210A00544845524D06
:10365000414C2052554E4157415900546865726D96
:10366000616C2052756E61776179004572723A2003
:103670004D415854454D50004D415854454D5020F2
:10368000747269676765726564004572723A204DAD
:10369000494E54454D50004D494E54454D502074AF
:1036A000726967676572656400202F002042403AA6
:1036B0000020403A0000496E76616C6964206578AC
:1036C0007472756465720A0020746F6F206C6F6E7F
:1036D0006720657874727573696F6E207072657695
:1036E000656E7465640A0020636F6C64206578748D
:1036F000727573696F6E2070726576656E7465643D
:103700000A003C3C3C00220A00556E6B6E6F776EDF
:1037100020636F6D6D616E643A20220020453A008F
:1037200020593A00654953522072756E6E696E6772
:10373000206174203E2031306B487A2E0A004D6F94
:103740007265207468616E20322073746570732016
:103750007065722065495352206C6F6F70206578D8
:103760006563757465642E0A00416363656C6572F8
:103770006174696F6E206C696D697465642E0A00EE
:103780002053697A653A200043616E6E6F74206F32
:1037900070656E207375626469722000534420491D
:1037A0006E6974204661696C0053442063617264E1
:1037B000206F6B0A006F70656E526F6F74206661C8
:1037C000696C65640A00766F6C756D652E696E694B
:1037D00074206661696C65640A004E6F2053442052
:1037E000636172640A004D3234004D323320257318
:1037F000006F70656E206661696C65642C20466997
:103800006C653A200046696C652073656C6563746D
:1038100065640A0046696C65206F70656E65643A80
:103820002000454E4420535542524F5554494E4571
:103830000A002220706F73002220706172656E741E
:103840003A2200535542524F5554494E4520434168
:103850004C4C207461726765743A22005375626340
:10386000616C6C204F766572666C6F77004578638B
:103870006565646564206D617820535542524F55EB
:1038800054494E452064657074683A310A00577295
:103890006974696E6720746F2066696C653A2000F0
:1038A000667265736800646F696E67004E6F77209B
:1038B00000436F6E66696775726174696F6E00436D
:1038C000616E63656C004368616E67652046696C74
:1038D000616D656E74005072656865617420437532
:1038E00073746F6D004368616E6765204D65646930
:1038F00061004D3231004D36303020423000486F8B
:103900007374205374617274004E6F204D65646946
:103910006100526573756D65205072696E74005454
:10392000756E650053746F70205072696E7400502C
:1039300061757365205072696E740053746172749E
:10394000205072696E740043616E6E6F7420656EF4
:10395000746572207375626469723A2000052E2EB8
:10396000005061726B696E672E2E2E000000576149
:10397000697420666F720066696C616D656E742093
:103980006368616E676500746F20737461727400A0
:103990005761697420666F720066696C616D656E4F
:1039A0007420756E6C6F616400004E6F7A7A6C657E
:1039B0002068656174696E6700506C65617365208D
:1039C000776169742E2E2E00005072657373206229
:1039D0007574746F6E00746F2068656174206E6F0B
:1039E0007A7A6C650000496E736572742066696C42
:1039F000616D656E7400616E642070726573732012
:103A0000627574746F6E00746F20636F6E74696E8C
:103A10007565005761697420666F720066696C6134
:103A20006D656E74206C6F61640000507265737315
:103A300020427574746F6E00746F20726573756DBB
:103A400065207072696E7400005761697420666F3A
:103A500072207072696E7400746F20726573756D78
:103A6000652E2E2E00005761697420666F72006605
:103A7000696C616D656E74207075726765000070A9
:103A8000012C0190012701B0012201C0011D01F0AC
:103A90000118011002130130020E016002090190A9
:103AA000020401C002FF000003FA004003F5008099
:103AB00003F000D003EB002004E6007004E100E016
:103AC00004DC004005D700C005D2004006CD00D080
:103AD00006C8008007C3003008BE00F008B900C067
:103AE00009B400B00AAF00B00BAA00D00CA50000CA
:103AF0000EA000500F9B00C01096005012910000C5
:103B0000148C00C0158700B0178200B0197D00D05A
:103B10001B7800001E730040206E0090226900F0A8
:103B200024640040275F0090295A00E02B550010C4
:103B30002E500020304B0010324600E03341009000
:103B4000353C001037370070383200A0392D00B0F6
:103B50003A2800A03B2300603C1E00103D19009055
:103B60003D1400103E0F00703E0A00C03E050000EC
:103B70003F0000403FFBFF803FF6FFC03FF1FF6882
:103B8000747470733A2F2F6D61726C696E66772E44
:103B90006F72670020322E302E372E3200202050D8
:103BA0006C616E6E657242756666657242797465A7
:103BB000733A20002046726565204D656D6F7279FD
:103BC0003A2000436F6D70696C65643A204F6374EE
:103BD00020323020323032300A00204C61737420A1
:103BE000557064617465643A20323032302D313062
:103BF0002D3135207C20417574686F723A20286D14
:103C00006F6F70686C6F2C205369646577696E64A0
:103C10006572205831290A00322E302E372E320A92
:103C2000004D61726C696E0020536F66747761722B
:103C3000652052657365740A002057617463686477
:103C40006F672052657365740A002042726F776E49
:103C5000206F75742052657365740A00204578746E
:103C600065726E616C2052657365740A00506F77DF
:103C7000657255700A006175746F25632E67004781
:103C800032385859004D31303031006572726F72E0
:103C90002077726974696E6720746F2066696C653D
:103CA0000A00446F6E6520736176696E67206669ED
:103CB0006C652E0A004D32390025532025632025DE
:103CC0006320256320256300656E6473746F7073D1
:103CD000206869743A200020573A007C3C3E5E2BF5
:103CE0003D3F2F5B5D3B2C2A225C003F45455052F7
:103CF0004F4D2073746F72616765206E6F74206121
:103D00007661696C61626C652E0A004661646520AB
:103D10004865696768742000426564204C65766573
:103D20006C696E6720004661696C656420746F2061
:103D3000656E61626C6520426564204C6576656CD9
:103D4000696E670A00496E76616C6964206D6573FF
:103D5000682E0A0076616C69640A53746F72616739
:103D60006520736C6F743A20004D65736820697329
:103D700020003F496E76616C69642073746F7261D4
:103D8000676520736C6F742E0A003E3E3E0020284B
:103D900064697361626C6564290A0055424C204174
:103DA000646A7573746D656E74205A005A2046619A
:103DB00064653A20002028656E61626C6564290A9A
:103DC0000041626F76650053616D65205A20617312
:103DD0000042656C6F77004175746F204265642006
:103DE0004C6576656C696E673A2055424C00204EF2
:103DF0006F7A7A6C65290A00202620002D43656EB3
:103E0000746572002D46726F6E74002D4261636B93
:103E1000002028416C69676E6564205769746800EA
:103E200020284D6964646C650020284C6566740028
:103E3000202852696768740050726F62653A2046A4
:103E400049585F4D4F554E5445445F50524F42457F
:103E50000A004D616368696E6520547970653A2087
:103E600043617274657369616E0A005A2050726F03
:103E700062652050617374204265640A005A2050C4
:103E8000726F626520506173742042656400203A4D
:103E900020686F6D655F7A5F736166656C790A0093
:103EA000202064657374696E6174696F6E3D00688B
:103EB0006F6D655F7A5F736166656C7900526169E9
:103EC0007365205A20286265666F726520686F6D81
:103ED000696E672920627920003E20686F6D696EE7
:103EE00067206E6F74206E65656465642C20736B4B
:103EF00069700A00446576696174696F6E002553C4
:103F00003A2025730046696E6973686564210A006A
:103F10003A207A3A2000206F662000476F696E676A
:103F200020746F3A20580043570A00206469723A9F
:103F30000020616E676C653A005374617274207280
:103F400061646975733A004D343820506F696E743E
:103F50000025533A2025642F256400506F7369743F
:103F6000696F6E696E67207468652070726F626534
:103F70002E2E2E0A003F4C656773206F66206D6FF2
:103F800076656D656E7420696D706C6175736962BC
:103F90006C652028302D3135292E0A003F20285805
:103FA0002C5929206F7574206F6620626F756E64BE
:103FB000732E0A0050726F6265206F7574206F66F1
:103FC00020626F756E6473003F53616D706C652085
:103FD00073697A65206E6F7420706C6175736962A5
:103FE0006C652028342D3530292E0A004D343820B8
:103FF0005A2D50726F6265205265706561746162FE
:10400000696C69747920546573740A003F285629D5
:104010006572626F7365206C6576656C20696D7082
:104020006C61757369626C652028302D34292E0A05
:1040300000001C1F11111F00000006191803130CAB
:1040400000040E1F041C000000000E1315110E00CA
:10405000001C10181705060500040A0A0A0A1111A7
:104060000E0C12120C00000000001F1511151F008D
:104070000000000000010204040000001C1C0C04ED
:104080000404020100000000000408100000000009
:10409000007C4D61726C696E7C002D2D2D2D2D2DB7
:1040A00000456E636C6F73757265005072696E7453
:1040B0002050617573656400526573756D65003FCE
:1040C00000496E697469616C697A65204545505292
:1040D0004F4D006E6F74696669636174696F6E201D
:1040E000005369646577696E6465722058312052A7
:1040F000656164792E005072696E74696E672E2E48
:104100002E0063616E63656C005072696E742041AD
:10411000626F72746564004469736D6973730055EE
:10412000492041626F72746564004D323500554913
:104130002050617573650050617573696E672E2E2E
:104140002E00726573756D6500454550524F4D20C8
:1041500056657273696F6E204572726F72004545C5
:1041600050524F4D20496E646578204572726F72CF
:1041700000454550524F4D20435243204572726FC7
:10418000720049676E6F7265004F6666004F6E0081
:104190004D38340054656D706572617475726500D8
:1041A00050726568656174202400486F74656E64A0
:1041B00020746F6F20636F6C640050726F6365656D
:1041C0006400536F667420456E6473746F7073007F
:1041D00044697361626C65205374657070657273B5
:1041E000004D34382050726F62652054657374003E
:1041F000473238204F0A4D343820503130004C655A
:1042000076656C20436F726E657273004175746FD2
:1042100020486F6D650050726568656174202420C8
:10422000456E6400507265686561742024204265A3
:104230006400436F6F6C646F776E0020706F7369FA
:1042400074696F6E5F7368696674203D2000206832
:104250006F6D655F6F6666736574203D20003C3C42
:104260003C207365745F617869735F69735F617423
:104270005F686F6D652800203A200A005D203D20B0
:10428000003E20686F6D655F6F66667365745B00E6
:104290002A2A2A205A20484F4D454420574954483D
:1042A0002050524F424520285A5F4D494E5F505290
:1042B0004F42455F555345535F5A5F4D494E5F45E9
:1042C0004E4453544F505F50494E29202A2A2A0AFF
:1042D0003E2070726F62652E6F66667365742E7A0B
:1042E000203D20003E3E3E207365745F6178697317
:1042F0005F69735F61745F686F6D652800576172F5
:104300006E696E673A20486F6D696E672042756D01
:10431000702044697669736F72203C20310A003C3A
:104320003C3C20686F6D65617869732800203A20F5
:104330003E204146544552207365745F617869732D
:104340005F69735F61745F686F6D650A00486F6DC8
:1043500065203220536C6F773A0A004D6F766520E6
:10436000417761793A0A00486F6D652031204661D6
:1043700073743A0A003E3E3E20686F6D656178694D
:104380007328000000A0420000A0420000A04102EB
:1043900002040000A0400000A04000000040FFFF19
:1043A000FF0000000100000001000080005555558D
:1043B000000000400033333300AAAA2A00499224A7
:1043C0000000002000C7711C0099991900D1451701
:1043D00000555515003BB11300244912001111116D
:1043E00000000010000F0F0F00E3380E0043790D9E
:1043F00000CCCC0C00C3300C00E8A20B0064210BF5
:1044000000AAAA0A00703D0A009DD80900427B0953
:104410000092240900DCD3080088880800104208B4
:104420000000000800F0C1070087870700755007EB
:1044300000711C07003EEB0600A1BC060069900657
:104440000066660600703E06006118060017F40557
:104450000074D105005BB00500B2900500627205E2
:10446000005555050078390500B81E0500050505FD
:10447000004EEC040087D40400A1BD040090A70402
:104480000049920400C17D0400EE690400C756048F
:1044900000444404005C320400082104004110047C
:1044A00000000004003FF00300F8E0030026D20300
:1044B00000C3C30300CCB503003AA803000A9B0362
:1044C00000388E0300C08103009F750300D069038C
:1044D00000505E03001D53030034480300913D0368
:1044E000003333030016290300381F030097150318
:1044F00000300C0300030303000BFA020049F10231
:1045000000BAE802005CE002002DD802002DD002C3
:104510000059C80200B0C0020031B90200DAB1028D
:1045200000AAAA0200A0A30200BC9C0200FA950205
:10453000005C8F0200DF88020082820200457C025C
:10454000002776020027700200436A02007C6402A2
:1045500000D05E02003F590200C8530200FFFDFC7C
:10456000FAF8F6F4F2F0EEECEAE9E7E5E3E1E0DE92
:10457000DCDAD9D7D5D4D2D0CFCDCBCAC8C7C5C342
:10458000C2C0BFBDBCBAB9B7B6B4B3B2B0AFADACC0
:10459000AAA9A8A6A5A4A2A1A09E9D9C9A99989715
:1045A00095949392908F8E8D8B8A89888786848349
:1045B0008281807F7E7D7B7A79787776757473725D
:1045C00071706F6E6D6C6B6A696867666564636253
:1045D00061605F5E5D5C5B5A59585857565554533D
:1045E000525150504F4E4D4C4B4A4A49484746460F
:1045F000454443424241403F3E3E3D3C3B3B3A39CD
:10460000383837363535343332323130302F2E2E7C
:104610002D2C2B2B2A29292827272625252423231F
:1046200022212120201F1E1E1D1C1C1B1B1A1919B4
:104630001818171616151514131312121111100F3E
:104640000F0E0E0D0D0C0C0B0A0A090908080707BE
:104650000606050504040303020201000053746109
:104660006E6461726420446576696174696F6E3A44
:1046700020002052616E67653A2000205369676D03
:10468000613A20004D65616E3A20003F2842296161
:104690007564207261746520696D706C61757369F1
:1046A000626C652E0A002062617564207261746517
:1046B0002073657420746F20002053657269616CEB
:1046C0002000204D393220580070617573656400F8
:1046D00052656865617420446F6E65005265686557
:1046E0006174696E672E2E2E0052656865617400D4
:1046F0004865617465722054696D656F7574005307
:10470000656E64204D31303820746F2068656174A7
:10471000206E6F7A7A6C650A004E6F7A7A6C65202B
:104720005061726B656400627574746F6E004C6FDB
:1047300061642046696C616D656E74205400496E39
:10474000736572742066696C616D656E7420616E4C
:10475000642073656E64204D3130380A00726573D1
:10476000756D656400526573756D696E67002049EB
:104770006E76616C69642065787472756465722008
:10478000005072696E742066726F6D204D656469A9
:1047900061004D6F76652025736D6D004D6F7665F8
:1047A00020302E316D6D004D6F766520316D6D00BE
:1047B0004D6F76652031306D6D004D6F766520410F
:1047C000786973004578747275646572004D6F7610
:1047D00065205A004D6F76652059004D6F76652033
:1047E000580050726F62653A3A70726F62655F642A
:1047F0006F776E5F746F5F7A0020547269676765C8
:10480000726564206561726C792E00204E6F207491
:104810007269676765722E002050726F626520664C
:1048200061696C21202D0000000A0B02090C0D0E9D
:104830000807030401000000000000000000000061
:104840000000000000000000000000000000000068
:104850000000001211100000000000000000000025
:1048600000000000000000000000000000205200D6
:104870004D65736820736176656420696E20736C82
:104880006F7420003F556E61626C6520746F2073F9
:10489000617665206D65736820646174612E0A001D
:1048A00020736C6F743D00206D65736865735F6580
:1048B0006E643D004532454E443D00206D65736891
:1048C00020736C6F747320617661696C61626C65D2
:1048D0002E0A003F496E76616C696420736C6F74B8
:1048E0002E0A004D657368206C6F616465642066F4
:1048F000726F6D20736C6F7420003F556E61626C37
:104900006520746F206C6F6164206D65736820642E
:104910006174612E0A0072657365745F6265645F1D
:104920006C6576656C0A0048617264636F646564E7
:104930002044656661756C742053657474696E6794
:1049400073204C6F616465640A00556E6966696521
:104950006420426564204C6576656C696E67003B37
:10496000200020204D363033200020204D343132BD
:1049700020530046696C616D656E742072756E6FB0
:1049800075742073656E736F723A00205500466926
:104990006C616D656E74206C6F61642F756E6C6FE9
:1049A0006164206C656E677468733A0020204D392D
:1049B0003030204B004C696E656172204164766135
:1049C0006E63653A0020204D3835312058005A2D4D
:1049D00050726F6265204F66667365740020204DCB
:1049E00033303420500020204D33303120500050DF
:1049F00049442073657474696E67733A00204600F9
:104A000020480020204D3134352053004D6174651D
:104A10007269616C20686561747570207061726183
:104A20006D65746572733A00206D65736865732EE9
:104A30000A0A00454550524F4D2063616E20686F51
:104A40006C642000416374697665204D657368204D
:104A5000536C6F743A200020204D343230205300C4
:104A600020204D323036205800486F6D65206F662B
:104A7000667365743A0020204D3230352042004183
:104A80006476616E6365643A20423C6D696E5F7363
:104A900065676D656E745F74696D655F75733E20E3
:104AA000533C6D696E5F66656564726174653E2036
:104AB000543C6D696E5F74726176656C5F666565A6
:104AC00064726174653E20583C6D61785F785F6AFE
:104AD00065726B3E20593C6D61785F795F6A6572E3
:104AE0006B3E205A3C6D61785F7A5F6A65726B3EFF
:104AF00020453C6D61785F655F6A65726B3E0020A2
:104B0000204D323034205000416363656C65726122
:104B100074696F6E2028756E6974732F7332293A29
:104B200020503C7072696E745F616363656C3E20F7
:104B3000523C726574726163745F616363656C3E5D
:104B400020543C74726176656C5F616363656C3E92
:104B50000020204D3230312058004D6178696D754C
:104B60006D20416363656C65726174696F6E2028A6
:104B7000756E6974732F7332293A0020204D3230DC
:104B8000332058004D6178696D756D2066656564E8
:104B900072617465732028756E6974732F73293A76
:104BA0000053746570732070657220756E69743A75
:104BB0000020204D32303020530020446973616260
:104BC0006C65640A0046696C616D656E742073657E
:104BD0007474696E67733A0020204D313439204374
:104BE000203B20556E69747320696E2043656C7399
:104BF0006975730A0020286D6D2900202047323125
:104C0000202020203B20556E69747320696E206D32
:104C10006D000000164300001643000048420000EB
:104C20002042AEC7A042CDCCA042A4B0C743008072
:104C3000E143D0070000D007000064000000102707
:104C4000000000002200250028002B002E0031006B
:104C5000340002010000050108010B0100002100E1
:104C6000240027002A002D0030003300010100003D
:104C7000040107010A0105050505070508080808DC
:104C8000020202020A0A08080404040401010101E4
:104C900001010101030303030303030304070707DF
:104CA0000C0C0C0C0C0C0C0C020202020606060684
:104CB000060606060B0B0B0B0B0B0B0B0102102051
:104CC0002008081020401020408002010201080442
:104CD00002010102040810204080804020100804D6
:104CE000020180040201804020100804020108042F
:104CF0000201010204081020408001020408102073
:104D000040804361703A00003701570111241FBEF3
:104D1000CFEFD1E2DEBFCDBF00E00CBF13E0A0E0DB
:104D2000B2E0E4E2F4E403E00BBF02C007900D92AE
:104D3000A835B107D9F726E1A8E5B3E001C01D9277
:104D4000AE31B207E1F716E2C5E8D6E200E006C0F0
:104D500021970109802FFE010F94179DC438D107B8
:104D600080E00807A9F70F94D2850D9400A20C9457
:104D700000002F923F924F925F926F927F928F929C
:104D80009F92AF92BF92CF92DF92EF92FF920F93DA
:104D90001F93CF93DF93CDB7DEB7E5970FB6F894A7
:104DA000DEBF0FBECDBF8DAB209165032CAB21E0E4
:104DB000209365038091EA048D3409F40AC3843595
:104DC00011F40C945438873411F00C94833880918A
:104DD000E8049091E9048B31910509F420C1B4F401
:104DE0008430910534F482309105DCF597FF2DC0B5
:104DF000ECC28531910511F40C9485388A31910506
:104E000009F409C1049709F0E0C2C6C08A329105CD
:104E100009F429C254F48D31910509F41FC10CF431
:104E200019C14E9709F41EC1D0C28B35910509F402
:104E300097C18C35910509F498C18A35910509F01F
:104E4000C4C2109264030C94853880915B0F81304A
:104E500011F00C9485380F94946E0E9477B80C94DE
:104E6000853820915B0F213011F00C94853811E0CA
:104E7000029709F010E00F94946E19821A821B8237
:104E80001C821D821E821F82188682E50E94B068E5
:104E9000882309F44BC00E9429686B017C0120E043
:104EA00030E0A9010F941C96882309F455C0809125
:104EB0000A0690910B06A0910C06B0910D0688A7EA
:104EC00099A7AAA7BBA780910E0690910F06A09163
:104ED0001006B091110688AB99ABAAABBBAB809022
:104EE0008E1090908F10A0909010B09091104090E4
:104EF0009210509093106090941070909510A501AE
:104F0000940168A579A58AA59BA50F941C9681118B
:104F10000C948E38A301920168A979A98AA99BA94A
:104F20000F941C968823C1F00C948E3889E40E945B
:104F3000B068882331F00E94296869837A838B8363
:104F40009C838AE40E94B068882331F00E9429681B
:104F50006D837E838F83988720E030E0A90169818B
:104F60007A818B819C810F941C9681110C9442391B
:104F700020E030E0A9016D817E818F8198850F94BA
:104F80001C9681110C9442390E9446728DE597E07F
:104F90000E942C6C0C94853880E50E94B0688823B0
:104FA00029F00F94E96C6B017C0103C0C12CD12C5A
:104FB000760183E50E94B068882361F00E94296829
:104FC00020E030E04AE754E40F9482960F94939ED9
:104FD0006B017C010F948A648091CF0F811105C011
:104FE00060E083E797E00F9464580F943C77C60E17
:104FF000D71EE81EF91E0F943C77DC01CB018C19FB
:105000009D09AE09BF09B7FD02C00C94853880E048
:105010000E940878F0CF0E942E5C0C94853887E0BF
:105020000E943CB481110C9485388CE0E3E8F2E0F6
:10503000DE01119601900D928A95E1F760E070E033
:1050400080E50F949B6CBE016F5F7F4F0F941555E9
:105050000C9485380F94E23D0C9485380E94394EAB
:105060000C94853820919F103091A0104091A11090
:105070005091A21060910A0670910B0680910C0667
:1050800090910D060F94209DAB01BC0188E50E9414
:10509000678069837A838B839C832091A3103091EE
:1050A000A4104091A5105091A61060910E06709129
:1050B0000F0680911006909111060F94209DAB0170
:1050C000BC0189E50E9467806D837E838F8398870A
:1050D000BE016B5F7F4FCE0101960E9467698823F6
:1050E00011F40C94853880E00E94CF700E944CB57A
:1050F00061E085E40E946758182F01E021E041E05B
:10510000682FCE0101960E94AE726B017C019B015B
:10511000AC010F946DA0811119C049815A816B8136
:105120007C8186E897E00E94836E4D815E816F816D
:10513000788581E897E00E94836EB701A6018CE72D
:1051400097E00E94836E8AE00E94C5760E9433B584
:10515000113011F40E944B690E944FB60C948538AF
:105160008FE0809364030C94853818ED212E12E0B3
:10517000312E0EE1E02E00E1F02EAAE0B6E0B9A754
:10518000A8A78EEFC82E85E0D82E00E010E0F10130
:1051900081911F010E94B068882309F44AC00E94CF
:1051A00029682B013C01133049F0D6012D913D9126
:1051B0004D915C910F941F9D2B013C01E8A5F9A531
:1051C0002081318142815381C301B2010F941F9D1F
:1051D0004B015C012DEB37E346E855EB0F94809FC4
:1051E00087FD0AC02DEB37E346E855E3C501B4015E
:1051F0000F941C961816ECF4133051F440921606D6
:1052000050921706609218067092190601E011C0BC
:10521000A5019401D7016D917D918D919C910F9481
:10522000209DF7016083718382839383812F0F9484
:10523000316A1F5FF4E0EF0EF11C28A539A52C5F41
:105240003F4F39A728A734E0C30ED11C143009F012
:105250009ECF002321F086E196E00F9439680E94EA
:105260004FB60C94853880915B0F813011F00C940F
:10527000853889E40E94B068082F882321F00E94B5
:105280002568E82E01C0E12C8AE40E94B068182F3E
:10529000882321F00E942568F82E01C0F12C0023FC
:1052A00019F086E08E1528F0112349F096E09F153D
:1052B00030F48EE897E00E942C6C0C94853880E1E5
:1052C000EAE0F6E0AEE8B0E101900D928A95E1F7F0
:1052D000002359F08E2D0E94AA6A60938E1070935D
:1052E0008F108093901090939110112359F08F2D6F
:1052F0000E94AA6A60939210709393108093941006
:105300009093951060E080E50E9467588823C1F172
:105310000023D1F020919F103091A0104091A11056
:105320005091A21060918E1070918F10809190100A
:10533000909191100F941F9D60938E1070938F1019
:1053400080939010909391101123D1F02091A3108D
:105350003091A4104091A5105091A6106091921028
:105360007091931080919410909195100F941F9DBF
:105370006093921070939310809394109093951073
:1053800040E050E0BA0186E40E9467806B017C0136
:1053900020E030E0A9010F94809F18164CF420E023
:1053A00030E040E752E4C701B6010F941A9E03C0F3
:1053B00060E070E0CB0169837A838B839C83CE01AC
:1053C00001960E941DC10C9485380F94F6200C9410
:1053D00085388091E8049091E9048937910509F4B2
:1053E000AFC70CF0DCC08135910509F432C60CF072
:1053F0006BC08A31910509F4D5C2A4F584319105B9
:1054000009F453C27CF48131910509F43AC22CF4B9
:10541000029708F4EBC10C945138429709F43EC648
:105420000C9451388731910509F474C294F4853194
:10543000910509F46BC2469711F00C9451380F9402
:1054400034228091CF15877F80628093CF150C9492
:1054500085388831910509F472C2499709F488C2E8
:105460000C9451388F31910509F4B0C37CF48C3120
:10547000910509F4F8C20CF4A3C28D31910509F429
:10548000FAC24E9709F4FEC20C9451388B34910540
:1054900009F447C464F48032910509F454C3C097F9
:1054A00011F00C9451380F946B430C9485388C3464
:1054B000910509F43AC48D34910511F00C945138DA
:1054C0000E9462B80C9485388D36910509F458C451
:1054D0007CF58C35910509F43CC684F4833591053F
:1054E00009F4D4C50CF4CAC58435910509F4D6C5B0
:1054F0008535910509F409C60C9451388A36910511
:1055000009F47CC454F48836910509F412C4893630
:10551000910509F45FC40C9451388B36910509F458
:10552000A6C48C36910511F40C9485380C9451382E
:105530008237910509F4ABC68CF48F36910509F4D6
:10554000B3C40CF49EC48037910511F40C948538D3
:105550008137910509F4EDC40C94513886379105D3
:1055600009F4B1C654F48337910509F497C6853719
:10557000910509F496C60C9451388737910509F4C2
:10558000DCC68837910511F00C94513881E0809386
:10559000860D8093850D0E9426B70C94853881393D
:1055A000A1E09A0711F40C9433360CF07EC08E3CC7
:1055B000910511F40C944833ACF58E3B910509F438
:1055C000FEC4ACF48139910509F4C1C634F48C38B9
:1055D000910509F4D3C40C9451388639910509F426
:1055E0002AC78B39910509F40CC50C9451388B3CB2
:1055F000910509F4EDC754F4883C910509F458C7A6
:10560000893C910509F4BEC70C9451388C3C910536
:1056100011F40C9407338D3C910511F40C9438333C
:105620000C9451388C32E1E09E0711F40C94E43470
:10563000CCF48C3D910511F40C9423343CF4833D5F
:10564000910511F40C9466330C9451388D3D9105FD
:1056500011F40C944A348232914011F40C949F342A
:105660000C9451388F3231E0930711F40C9430369A
:105670006CF48D32B1E09B0711F40C94F9348E3246
:10568000914011F40C94EC350C9451388033F1E0D6
:105690009F0711F40C9479358039914011F00C94E6
:1056A00051380F948A640C948538883F31E0930711
:1056B00011F40C943B370CF055C0853AB1E09B07D0
:1056C00011F40C9443361CF58A39F1E09F0711F46C
:1056D0000C9485386CF48239914011F00C94513857
:1056E0000E9445690E944B690E944FB60C94853810
:1056F0008C39A1E09A0711F40C943836843A914021
:1057000011F00C9451380F94D3410C948538853F97
:10571000E1E09E0711F40C9435377CF48C3A21E0DB
:10572000920711F40C94D936843F914011F00C94F7
:1057300051380E94C8F70C948538863FA1E09A073B
:1057400011F40C943837873F914011F00C94513884
:1057500061E083E50E94675891E089270F94657D99
:105760000C9485388335E3E09E0711F40C94D73709
:10577000DCF48F3322E0920711F40C9458373CF498
:105780008C30924011F40C944B370C94513888357E
:10579000B2E09B0711F40C945B378B35924011F407
:1057A0000C945E370C945138803AF3E09F0709F46B
:1057B000FFC16CF48C3633E0930711F40C948538F8
:1057C0008438934011F40C94DA370C945138873EA6
:1057D000B3E09B0711F40C944338893E934011F0D9
:1057E0000C9451380E947C860C94853880E50E9488
:1057F000B068882329F00F94E96C6B017C0103C029
:10580000C12CD12C760183E50E94B068882361F019
:105810000E94296820E030E04AE754E40F94829621
:105820000F94939E6B017C010F948A648091E6042F
:105830009091E704009721F061E00F94165905C09C
:1058400060E087EB97E00F9464588091E8049091B2
:10585000E904892B19F06FEA77E002C067EA77E084
:1058600020E030E04DE456E282E00E94605B40E0E0
:10587000C701B6010E946C7D80E00F9446590C94DC
:1058800085388091EB0484FF02C00C9455398091D7
:10589000ED0487FF02C00C9455398091EE048370AB
:1058A00011F00C9455390C9472398091CF1583FF07
:1058B00025C082EE97E00E942C6C8091CF1583FF6B
:1058C00017C089E194E10F940D358BE1E9E1F4E132
:1058D000DE01119601900D928A95E1F760E070E08B
:1058E000CE0101960F942D29CE0101960F94123509
:1058F00083ED97E00E942C6C0C9485380E944A72CC
:1059000083EF97E00E942C6C0C9485380F94F3225F
:105910000C948538E091E604F091E70480818823B7
:1059200029F0803209F410823196F8CF60E080913E
:10593000E6049091E7040F9414280C9485380E9493
:105940000B76882321F00F9445220E9429B861E04C
:1059500082E491E40E94EE5A47E151E46DEF77E072
:1059600085E00F94262180E00F9446590C948538E9
:105970008091CF1582FF03C08B7F8093CF150E944B
:105980004DB880E00F94465948EB50E46FE078E062
:1059900084E00F94262161E089E098E00E94EE5AAD
:1059A0000C9485388091CF1583FD02C00C94853806
:1059B00083E50E94B06881110C9481390C9485387C
:1059C00083E40E946268882319F182E298E00E94D1
:1059D0002C6C8091C313882391F0BE016F5F7F4FC1
:1059E00080EC93E10F94D4338E010F5F1F4FD801E9
:1059F0008D918D01882339F00E94C576F8CF88E11A
:105A000098E00E942C6C8AE00E94C5760C94853840
:105A10008091CF1582FF21C081E398E00E942C6C19
:105A20006091CB157091CC158091CD159091CE15CC
:105A30004AE00E94CC768FE20E94C5766091C7153D
:105A40007091C8158091C9159091CA154AE00E94BD
:105A5000CC760E94DC770C94853883E498E00E9431
:105A60002C6C0C9485388091E6049091E7040F9497
:105A7000CA270C9485388091CF158E7F8093CF15DF
:105A80000C9485388091CF1583FD02C00C94853825
:105A90000F94DC208091CF1583FD02C00C948538D3
:105AA0004091E6045091E704BE01645E7F4F80E0C0
:105AB0000F94BE838C01009711F40C9485386C8D83
:105AC0007D8D19821C8222E0AC01CE0101960F94DB
:105AD0004239811102C0F12C14C0CE0101960F94FD
