:100000000C9450130C9481130C9481130C94811351
:100010000C9481130C9481130C9481130C94811310
:100020000C9481130C9481130C9481130C94811300
:100030000C9481130C9481130C9481130C948113F0
:100040000C9481130C945DAC0C9481130C9481136B
:100050000C9481130C9481130C94473F0C94CDB4F1
:100060000C9481130C9478320C946E320C9481139E
:100070000C9481130C9481130C9481130C948113B0
:100080000C9481130C9481130C9481130C948113A0
:100090000C9481130C9481130C9481130C94811390
:1000A0000C9481130C9481130C9481130C94811380
:1000B0000C9481130C9481130C9481130C94811370
:1000C0000C9481130C9481130C9481130C94811360
:1000D0000C9481130C9481130C9481130C94811350
:1000E0000C948113AE32C032D232E332EB321E3383
:1000F000EF321E33F332F7321E33FB32FF3203335B
:100100000C331E33173371B174B163B167B16DB184
:10011000ABB178B17CB182B186B18AB190B194B102
:1001200098B1ABB19EB1A2B1A6B1E7B3ECB3F1B354
:10013000FBB305B47EB40FB417B41FB429B433B401
:100140003DB44CB456B47EB460B46AB474B4084AD6
:10015000D73B3BCE016E84BCBFFDC12F3D6C7431DB
:100160009ABD56833DDA3D00C77F11BED9E4BB4C32
:100170003E916BAAAABE000000803F05A84CCDB2FC
:10018000D44EB93836A9020C50B9918688083CA6DD
:10019000AAAA2ABE000000803F000C9486B10C94ED
:1001A000D2320C94FBB30C9498B10C943DB40C94E3
:1001B00005B40C940C330C94F1B30C94C0320C9431
:1001C00094B10C94ECB30C947CB10C9478B10C9475
:1001D0009EB10C94FB320C94A2B10C9417330C9486
:1001E0006AB40C94EF320C941E330C9433B40C9418
:1001F000A6B10C9403330C947EB40C94E3320C94AB
:100200008AB10C94AE320C9456B40C940FB40C9486
:10021000EB320C944CB40C9463B10C9467B10C9415
:10022000F3320C94F7320C94F6BC0C94FF320C941D
:1002300082B10C94E7B30C94ABB10C9490B10C94D4
:100240004FBD0C9460B40C9474B40C941FB40C9413
:1002500071B10C946DB10C9429B40C9474B10C94DC
:1002600017B44E414E494E495459494E46CDCCCC17
:100270003D0AD7233C17B7D13877CC2B329595E67A
:10028000241FB14F0A000020410000C84200401C5A
:100290004620BCBE4CCA1B0E5AAEC59D74473238B0
:1002A000004C4556454C494E4700434F4D4D554E29
:1002B00049434154494F4E0044525952554E00450E
:1002C00052524F5253004543484F00536C6565707E
:1002D0002E2E2E00202864697361626C65642900EB
:1002E0004D424C2041646A7573746D656E74205A7A
:1002F000002028656E61626C6564290A004D657393
:100300006820426564204C6576656C696E670050B4
:10031000726F62653A200A004D616368696E6520FC
:10032000547970653A2043617274657369616E0A2D
:10033000005261697365205A20286265666F726594
:1003400020686F6D696E672920627920003E206801
:100350006F6D696E67206E6F74206E65656465648D
:100360002C20736B69700A004D65736820706F698B
:100370006E74206F7574206F662072616E67650AF7
:10038000004D302053746F70004D312053746F70E6
:10039000004E6F204D6F76652E00456E64206669B5
:1003A0006C65206C6973740A00426567696E20662B
:1003B000696C65206C6973740A004E6F206D65640A
:1003C00069610A00726573756D65004469736D69D2
:1003D000737300526573756D696E672053440070C6
:1003E0006175736500526573756D65005061757355
:1003F0006520534400286E6F2066696C65290043B0
:10040000757272656E742066696C653A200053449B
:10041000207072696E74696E67206279746520005D
:100420004E6F74205344207072696E74696E670A4F
:100430000044656C6574696F6E206661696C656403
:100440002C2046696C653A200046696C652064651D
:100450006C657465643A00256979202569642025F6
:1004600069682025696D20256973005072696E7472
:100470002074696D653A2000496E76616C6964206C
:1004800050696E204D6F64650A0044454255473AF5
:10049000004D3131332053005369646577696E64D0
:1004A0006572205831204F46462E002F2F200041E4
:1004B0006363656C65726174696F6E3A20500057B2
:1004C00041524E494E4721204C6F77205A204A65B1
:1004D000726B206D6179206C65616420746F20758A
:1004E0006E77616E746564207061757365732E0A32
:1004F0000020204D61783A200020204D696E3A207E
:1005000000536F667420656E6473746F70733A2065
:100510000046523A0020466C6F773A200050726FC6
:100520007465637465642050696E0A004D424C2006
:1005300041646A757374205A0020643A0020693A55
:100540000020703A00496E76616C696420657874A9
:1005500072756465720A006469730043290A006158
:10056000626C656420286D696E2074656D70200072
:10057000436F6C6420657874727564657320617272
:100580006520004D34323120696E636F727265638D
:100590007420706172616D65746572207573616736
:1005A000650A004F666673657473204170706C69EC
:1005B000656400546F6F206661722066726F6D20F3
:1005C0007265666572656E636520706F696E740A28
:1005D00000454550524F4D204F4B0A002028302DEA
:1005E000313029002076616C7565206F7574206F3D
:1005F000662072616E676500416476616E63652096
:100600004B3D004D383400436F6E74696E75650064
:100610005072696E7420446F6E6500446F6E652081
:100620007072696E74696E672066696C650A004D48
:100630003737004D333100C6025706BF02B802AA51
:1006400002A102554E4B4E4F574E20535441544534
:100650000047434F44455F494E464F004C43445F7B
:1006600050415553455F524553554D450046494C01
:10067000414D454E545F52554E4F55545F434F4E7A
:1006800054494E55450046494C414D454E545F52E4
:10069000554E4F5554004D38373620526573706FA4
:1006A0006E64696E672050524F4D50545F00457222
:1006B000726F722077726974696E6720746F20455B
:1006C0004550524F4D210A0053544F505045442E2F
:1006D00020005072696E7465722073746F7070655B
:1006E000642064756520746F206572726F72732E5A
:1006F0002046697820746865206572726F72206187
:100700006E6420757365204D39393920746F2072FD
:100710006573746172742E202854656D7065726102
:10072000747572652069732072657365742E205329
:1007300065742069742061667465722072657374D3
:10074000617274696E67290A004E6F2043686563A1
:100750006B73756D2077697468206C696E65206EA7
:10076000756D6265722C204C617374204C696E65E6
:100770003A2000636865636B73756D206D69736DF6
:10078000617463682C204C617374204C696E653A07
:1007900020004C696E65204E756D6265722069732C
:1007A000206E6F74204C617374204C696E65204E0E
:1007B000756D6265722B312C204C617374204C690D
:1007C0006E653A20004D313130005344207265612E
:1007D00064206572726F720A002121204B494C4CD3
:1007E0002063617573656420627920746F6F206D7A
:1007F00075636820696E6163746976652074696DDC
:1008000065202D2063757272656E7420636F6D6D47
:10081000616E643A2000627573793A207061757375
:10082000656420666F7220696E7075740A00627567
:1008300073793A2070617573656420666F722075F4
:100840007365720A00627573793A2070726F63651E
:100850007373696E670A004D6564696120496E7340
:10086000657274656400706F7765726F66660050BC
:1008700072696E7465722068616C7465642E206B99
:10088000696C6C28292063616C6C6564210A0065C1
:1008900063686F3A004572726F723A00363726030A
:1008A0003C3D380E2E303E1224221E1A1C180A0718
:1008B000430809070844000124F4D43050C38E20B3
:1008C000C2A24017828B7011127A910D816CD90AE5
:1008D000A861E108C7586607615143061E4B5D05D4
:1008E000C145A7041A411104093D98037139310328
:1008F0004036DB0265339102D4305402802E1D0253
:10090000632CEE01752AC501B028A00110278101D2
:100910008F2564012B244B01E0223401AC211F01FF
:100920008D200D01801FFC00841EED00971DDF004F
:10093000B81CD200E61BC600201BBC00641AB20023
:10094000B219A8000A19A0006A189900D1179100DD
:1009500040178B00B516840031167E00B315790060
:100960003A157300C7146F0058146A00EE1366003E
:100970008813630025135E00C7125B006C125700DA
:1009800015125400C111510070114F0021114B007C
:10099000D61049008D104700461044000210420056
:1009A000C00F4000800F3E00420F3C00060F3B008E
:1009B000CB0E3800930E37005C0E3500270E340046
:1009C000F30D3200C10D3100900D3000600D2E008E
:1009D000320D2D00050D2C00D90C2B00AE0C29007A
:1009E000850C29005C0C2700350C27000E0C260016
:1009F000E80B2400C40B2400A00B23007D0B230074
:100A00005A0B2100390B2100180B2000F80A1F0097
:100A1000D90A1E00BB0A1E009D0A1D00800A1D0087
:100A2000630A1C00470A1B002C0A1B00110A1A004B
:100A3000F7091A00DD091900C4091900AB091900EA
:100A4000920917007B091800630917004C0916006A
:100A500036091600200916000A091500F5081500C8
:100A6000E0081400CC081400B8081400A40814000E
:100A7000900813007D0812006B081300580812003C
:100A80004608120034081100230811001208110052
:100A900001081100F0071000E0071000D007100057
:100AA000C0071000B0070F00A107100091070E004B
:100AB00083070F0074070F0065070E0057070E002D
:100AC00049070E003B070D002E070E0020070D0002
:100AD00013070D0006070D00F9060C00ED060D00CA
:100AE000E0060C00D4060C00C8060C00BC060C0086
:100AF000B0060C00A4060B0099060C008D060B0036
:100B000082060B0077060B006C060B0061060A00DC
:100B100057060B004C060A0042060A0038060A0077
:100B20002E060A0024060A001A060A00100609000A
:100B300007060A00FD050900F4050900EB05090098
:100B4000E2050900D9050900D0050900C70509001B
:100B5000BE050900B5050800AD050800A50509009A
:100B60009C050800940508008C0508008405080011
:100B70007C050800740508006C0507006505080081
:100B80005D050700560508004E05070047050700EC
:100B90004005080038050700310507002A05070051
:100BA000230507001C050600160507000F050700B2
:100BB0000805060002050700FB040600F50407000F
:100BC000EE040600E8040600E2040700DB04060069
:100BD000D5040600CF040600C9040600C3040600BD
:100BE000BD040600B7040600B1040500AC0406000D
:100BF000A6040600A00405009B0406009504050059
:100C0000900406008A04050085040500800406009F
:100C10007A04050075040500700405006B040500E6
:100C200066040500610405005C0405005704050026
:100C3000520405004D040500480405004304050066
:100C40003E0404003A0405003504050030040400A5
:100C50002C04050027040400230405001E040400DE
:100C60001A04040016040500110404000D04040015
:100C7000090405000404040000040400FC0304004B
:100C8000F8030400F4030400F0030400EC03040080
:100C9000E8030400E4030400E0030400DC030400B0
:100CA000D8030400D4030400D0030400CC030400E0
:100CB000C8030300C503030024F404D9201BC40C9B
:100CC0005C0E9804C4095F0265077101F405F90020
:100CD000FB04B30048048700C103690058035500B2
:100CE00003034500BE023A008402310053022A0089
:100CF0002902250004022000E4011C00C80119009B
:100D0000AF01170098011400840113007101100055
:100D10006101100051010E0043010D0036010B006E
:100D20002B010B0020010B00150109000C0109002B
:100D300003010800FB000800F3000800EB000700B7
:100D4000E4000600DE000600D8000600D20006001F
:100D5000CC000500C7000500C2000500BD0004006E
:100D6000B9000400B5000400B1000400AD000400A7
:100D7000A9000400A5000300A20003009F000400D6
:100D80009B000300980003009500020093000300FD
:100D9000900003008D0002008B0003008800020019
:100DA0008600020084000300810002007F00020030
:100DB0007D0002007B000200790002007700010044
:100DC000760002007400020072000100710002004F
:100DD0006F0002006D0001006C0002006A0001005B
:100DE0006900020067000100660001006500010063
:100DF0006400020062000100610001006000010067
:100E00005F0002005D0001005C0001005B0001006A
:100E10005A0001005900010058000100570001006C
:100E2000560001005500010054000100530000006D
:100E30005300010052000100510001005000010068
:100E40004F0001004E0000004E0001004D00010067
:100E50004C0001004B0000004B0001004A00010063
:100E6000490001004800000048000100470001005F
:100E7000460000004600010045000000450001005A
:100E80004400010043000000430001004200000054
:100E9000420001004100000041000100400001004B
:100EA0003F0000003F0001003E0000003E00010046
:100EB0003D0000003D0001003C0000003C0000003F
:100EC0003C0001003B0000003B0001003A00000034
:100ED0003A0001003900000039000100380000002C
:100EE0003800000038000100370000003700010022
:100EF000360000003600000036000100350000001A
:100F0000350000003500010034000000340000000E
:100F10003400010033000000330000003300010002
:100F200032000000320000003200010031000000F9
:100F300031000000310001003000000030000000EE
:100F4000300001002F0000002F0000002F000000E3
:100F50002F0001002E0000002E0000002E000100D6
:100F60002D0000002D0000002D0000002D000100CC
:100F70002C0000002C0000002C0000002C000100C0
:100F80002B0000002B0000002B0000002B000100B4
:100F90002A0000002A0000002A0000002A000100A8
:100FA000290000002900000029000000290000009D
:100FB000290001002800000028000000280000008F
:100FC0002800000028000100270000002700000082
:100FD0002700000027000000270001002600000075
:100FE0002600000026000000260000002600010068
:100FF000250000002500000025000000250000005D
:10100000250000002500010024000000240000004D
:101010002400000024000000240001002300000040
:101020002300000023000000230000002300000034
:101030002300000023000100220000002200000025
:101040002200000022000000220000002200010017
:10105000210000002100000021000000210000000C
:1010600021000000210000002100010020000000FC
:1010700020000000200000002000000020000000F0
:101080002000000020000000200001001F000000E0
:101090001F0000001F0000001F0000001F000000D4
:1010A0001F0000001F0001001E0000001E000000C5
:1010B0001E0000001E000000232C0000B8220000CB
:1010C000561800003A0F0000B8080000B1040000F4
:1010D000710200003E0100000042656400453100DD
:1010E000626564002C2073797374656D2073746F6E
:1010F0007070656421204865617465725F49443A87
:101100002000205049445F4245445F4445425547D2
:10111000203A20496E707574200020645465726D09
:10112000200020695465726D200020705465726D36
:101130002000204F75747075742000205049445F62
:101140004445425547200048656174696E672046F2
:1011500061696C65640048656174696E67206661E9
:10116000696C6564004D3131322053687574646F69
:10117000776E00202D20496E76616C696420657859
:10118000747275646572206E756D62657220210AD5
:1011900000544845524D414C2052554E41574159FB
:1011A00000546865726D616C2052756E617761796B
:1011B000004572723A204D415854454D50004D4102
:1011C0005854454D502074726967676572656400B4
:1011D0004572723A204D494E54454D50004D494E8E
:1011E00054454D50207472696767657265640020CC
:1011F0002F002042403A0020403A0020573A004D4C
:101200003130362050007C3C3E5E2B3D3F2F5B5DF5
:101210003B2C2A225C00667265736800646F696EFD
:1012200067004E6F7720002020506C616E6E6572F3
:1012300042756666657242797465733A200020468D
:10124000726565204D656D6F72793A2000436F6D50
:1012500070696C65643A204F6374203138203230F5
:1012600032300A00204C61737420557064617465DB
:10127000643A20323032302D30392D3239207C2002
:10128000417574686F723A20286D6F6F70686C6F6B
:101290002C205369646577696E6465722058312922
:1012A0000A00322E302E370A004D61726C696E00D2
:1012B00020536F6674776172652052657365740A96
:1012C00000205761746368646F67205265736574AA
:1012D0000A002042726F776E206F7574205265731A
:1012E00065740A002045787465726E616C205265E1
:1012F0007365740A00506F77657255700A004D323D
:1013000034004D3233202573006175746F25632ED0
:1013100067004732385859004D313030310065721E
:10132000726F722077726974696E6720746F2066BD
:10133000696C650A00446F6E6520736176696E673B
:101340002066696C652E0A004D323900656E647343
:10135000746F7073206869743A200070012C0190DA
:10136000012701B0012201C0011D01F00118011087
:1013700002130130020E016002090190020401C053
:1013800002FF000003FA004003F5008003F000D0E4
:1013900003EB002004E6007004E100E004DC004000
:1013A00005D700C005D2004006CD00D006C8008099
:1013B00007C3003008BE00F008B900C009B400B08F
:1013C0000AAF00B00BAA00D00CA500000EA0005080
:1013D0000F9B00C01096005012910000148C00C0AA
:1013E000158700B0178200B0197D00D01B7800006F
:1013F0001E730040206E0090226900F024640040BB
:10140000275F0090295A00E02B5500102E50002035
:10141000304B0010324600E033410090353C001064
:1014200037370070383200A0392D00B03A2800A0BC
:101430003B2300603C1E00103D1900903D1400103D
:101440003E0F00703E0A00C03E0500003F00004015
:101450003FFBFF803FF6FFC03FF1FF656E71756592
:101460007565696E672022006F6B00526573656E4B
:10147000643A200042656420436F6F6C696E672E8A
:101480002E2E004265642048656174696E672E2EB9
:101490002E0023646566696E652044454641554CBF
:1014A000545F004B6420004B6920004B70200050BB
:1014B0004944204175746F74756E652066696E6964
:1014C00073686564212050757420746865206C61B0
:1014D0007374204B702C204B6920616E64204B6428
:1014E00020636F6E7374616E74732066726F6D200B
:1014F00062656C6F7720696E746F20436F6E6669EA
:101500006775726174696F6E2E680A0050494420D5
:101510004175746F74756E65206661696C656421D0
:101520002074696D656F75740A000A20436C6173DD
:1015300073696320504944200A00204B643A20001C
:10154000204B693A2000204B703A20000A204E6F51
:10155000206F76657273686F6F740A002054753A55
:101560002000204B753A2000206D61783A20002041
:101570006D696E3A200020643A2000206269617330
:101580003A2000504944204175746F74756E65208F
:1015900073746172740A00504944204175746F7409
:1015A000756E65206661696C6564212054656D7097
:1015B0006572617475726520746F6F206869676801
:1015C0000A00504944204175746F74756E6500506F
:1015D0004944204175746F74756E65206661696C4D
:1015E0006564212042616420657874727564657257
:1015F000206E756D6265720A005049442044656230
:1016000075672000486F6D696E67204661696C657B
:1016100064006F70656E0054524947474552454417
:10162000007A5F6D696E00795F6D696E00785F6D3D
:10163000696E005265706F7274696E6720656E64C2
:1016400073746F70207374617475730A0000009670
:1016500043000096430000C8430000000000000063
:101660000000000000FFFDFCFAF8F6F4F2F0EEECEA
:10167000EAE9E7E5E3E1E0DEDCDAD9D7D5D4D2D098
:10168000CFCDCBCAC8C7C5C3C2C0BFBDBCBAB9B72E
:10169000B6B4B3B2B0AFADACAAA9A8A6A5A4A2A196
:1016A000A09E9D9C9A99989795949392908F8E8DD9
:1016B0008B8A8988878684838281807F7E7D7B7AFE
:1016C000797877767574737271706F6E6D6C6B6A02
:1016D000696867666564636261605F5E5D5C5B5AF2
:1016E0005958585756555453525150504F4E4D4CCF
:1016F0004B4A4A4948474646454443424241403F97
:101700003E3E3D3C3B3B3A3938383736353534334D
:1017100032323130302F2E2E2D2C2B2B2A292928F6
:10172000272726252524232322212120201F1E1E92
:101730001D1C1C1B1B1A1919181817161615151421
:10174000131312121111100F0F0E0E0D0D0C0C0BA6
:101750000A0A090908080707060605050404030321
:101760000202010000206D61783A00206D696E3A36
:101770000041786973200053657474696E67732043
:1017800053746F7265640053657474696E67732077
:1017900053746F7265642028002E2E2E280020209E
:1017A00063757272656E745F706F736974696F6E62
:1017B0003D00203A2073796E635F706C616E5F70DC
:1017C0006F736974696F6E0A003E2000646F5F6218
:1017D0006C6F636B696E675F6D6F76655F746F00CA
:1017E0003E3E3E005D002C2000646F5F686F6D69B7
:1017F0006E675F6D6F76650020706F736974696FD7
:101800006E5F7368696674203D200020686F6D65A7
:101810005F6F6666736574203D20003C3C3C20731E
:1018200065745F617869735F69735F61745F686F26
:101830006D652800203A200A005D203D20003E20F2
:10184000686F6D655F6F66667365745B003E3E3EF4
:10185000207365745F617869735F69735F61745F3A
:10186000686F6D6528005761726E696E673A20482F
:101870006F6D696E672042756D702044697669737B
:101880006F72203C20310A003C3C3C20686F6D6543
:10189000617869732800203A203E20414654455221
:1018A000207365745F617869735F69735F61745FEA
:1018B000686F6D650A00486F6D65203220536C6F4C
:1018C000773A0A004D6F766520417761793A0A00D0
:1018D000486F6D65203120466173743A0A003E3EC0
:1018E0003E20686F6D656178697328000000A04232
:1018F0000000A0420000A0410202040000A040003D
:1019000000A04000000040FFFFFF000000010000B9
:1019100000010000800055555500000040003333A1
:101920003300AAAA2A004992240000002000C771AF
:101930001C0099991900D1451700555515003BB168
:1019400013002449120011111100000010000F0FA4
:101950000F00E3380E0043790D00CCCC0C00C330EF
:101960000C00E8A20B0064210B00AAAA0A00703D3B
:101970000A009DD80900427B090092240900DCD3AB
:101980000800888808001042080000000800F0C124
:1019900007008787070075500700711C07003EEBA2
:1019A0000600A1BC06006990060066660600703E4F
:1019B00006006118060017F4050074D105005BB03D
:1019C0000500B29005006272050055550500783992
:1019D0000500B81E0500050505004EEC040087D47F
:1019E0000400A1BD040090A7040049920400C17D39
:1019F0000400EE690400C7560400444404005C324D
:101A000004000821040041100400000004003FF01D
:101A10000300F8E0030026D20300C3C30300CCB5E3
:101A200003003AA803000A9B0300388E0300C0811C
:101A300003009F750300D0690300505E03001D532F
:101A4000030034480300913D03003333030016299B
:101A50000300381F030097150300300C0300030335
:101A600003000BFA020049F10200BAE802005CE050
:101A700002002DD802002DD0020059C80200B0C0CB
:101A8000020031B90200DAB10200AAAA0200A0A342
:101A90000200BC9C0200FA9502005C8F0200DF8805
:101AA000020082820200457C020027760200277035
:101AB0000200436A02007C640200D05E02003F59CB
:101AC0000200C853020020746F6F206C6F6E672095
:101AD000657874727573696F6E2070726576656E65
:101AE0007465640A0020636F6C6420657874727595
:101AF00073696F6E2070726576656E7465640A0036
:101B0000654953522072756E6E696E67206174204C
:101B10003E2031306B487A2E0A004D6F726520747A
:101B200068616E2032207374657073207065722056
:101B300065495352206C6F6F7020657865637574CA
:101B400065642E0A00416363656C65726174696F38
:101B50006E206C696D697465642E0A00203A202E2F
:101B60002E2E4E6F77204F4E0A00203A204C65767D
:101B7000656C696E67204F46460A00203A202E2E7B
:101B80002E4E6F77204F46460A00203A204C65764D
:101B9000656C696E67204F4E0A0072657365745FED
:101BA0006265645F6C6576656C0A000A4D656173F9
:101BB0007572656420706F696E74733A0A003378C9
:101BC00033206D6573682E205A206F6666736574C6
:101BD0003A20002F2F616374696F6E3A006E6F7444
:101BE000696669636174696F6E2000626567696E1A
:101BF00000656E640070726F6D70745F0073686F63
:101C00007700486F74656E6420746F6F20636F6C2B
:101C1000640A00466164652048656967687420004D
:101C20004661696C656420746F20656E61626C65E5
:101C300020426564204C6576656C696E670A004DCC
:101C400065736820426564204C6576656C2064612C
:101C500074613A0A00496E76616C6964206D65733F
:101C6000682E0A00206E6F7420656E74657265645C
:101C70002E0A00206F6620004D424C20473239204A
:101C8000706F696E7420004A206F7574206F662033
:101C900072616E67652028302D0049206F757420B1
:101CA0006F662072616E67652028302D004D657368
:101CB000682070726F62696E6720646F6E652E0AAD
:101CC000005374617274206D6573682070726F6266
:101CD000696E672077697468202247323920533152
:101CE000222066697273742E0A004732380A47321E
:101CF0003920533200686173206E6F206461746113
:101D00002E0A004D65736820426564204C65766537
:101D10006C696E67200053206F7574206F662072A7
:101D2000616E67652028302D35292E0A0020536901
:101D30007A653A200043616E6E6F74206F70656E35
:101D40002073756264697220005344206361726479
:101D5000206F6B0A006F70656E526F6F7420666142
:101D6000696C65640A00766F6C756D652E696E69C5
:101D700074206661696C65640A004E6F20534420CC
:101D8000636172640A006F70656E206661696C65DC
:101D9000642C2046696C653A200046696C652073A6
:101DA000656C65637465640A0046696C65206F70D4
:101DB000656E65643A2000454E4420535542524FAB
:101DC0005554494E450A002220706F73002220703E
:101DD0006172656E743A2200535542524F55544910
:101DE0004E452043414C4C207461726765743A2221
:101DF0000053756263616C6C204F766572666C6F20
:101E000077004578636565646564206D617820536B
:101E10005542524F5554494E452064657074683A96
:101E2000310A0057726974696E6720746F206669A1
:101E30006C653A20003F2842296175642072617404
:101E40006520696D706C61757369626C652E0A003E
:101E500020626175642072617465207365742074FA
:101E60006F20002053657269616C2000204D39326B
:101E700020580050757267654D6F7265005061752E
:101E800073656400627574746F6E004C6F616420DA
:101E900046696C616D656E74205400496E7365729D
:101EA000742066696C616D656E7420616E64207368
:101EB000656E64204D3130380A00726573756D654A
:101EC0006400526573756D696E670052656865617F
:101ED0007420446F6E6500526568656174696E6751
:101EE0002E2E2E0052656865617400486561746528
:101EF000722054696D656F75740053656E64204D72
:101F000031303820746F2068656174206E6F7A7A82
:101F10006C650A004E6F7A7A6C65205061726B6551
:101F200064007061757365640050617573650020AD
:101F3000496E76616C696420657874727564657247
:101F400020004361703A007D007D7D2C776F726BBD
:101F50003A7B6D696E3A7B783A007D2C6D61783AF8
:101F60007B783A002C7A3A002C793A0061726561EC
:101F70003A7B66756C6C3A7B6D696E3A7B783A0099
:101F80004348414D4245525F54454D50455241549E
:101F900055524500424142595354455050494E47CD
:101FA0000041524353004D4F54494F4E5F4D4F44F3
:101FB000455300544845524D414C5F50524F544593
:101FC0004354494F4E004C4F4E475F46494C454E97
:101FD000414D45004155544F5245504F52545F5367
:101FE000445F5354415455530053444341524400B9
:101FF00050524F4D50545F535550504F525400451E
:102000004D455247454E43595F504152534552004A
:10201000434153455F4C494748545F425249474802
:10202000544E45535300544F47474C455F4C494726
:1020300048545300534F4654574152455F504F57F1
:102040004552004255494C445F50455243454E5419
:10205000004C4556454C494E475F44415441005A57
:102060005F50524F4245004155544F4C4556454CE8
:10207000005052494E545F4A4F420050524F47520F
:10208000455353004155544F5245504F52545F549D
:10209000454D5000564F4C554D455452494300450F
:1020A0004550524F4D0042494E4152595F46494CAE
:1020B000455F5452414E53464552005345524941A3
:1020C0004C5F584F4E5F584F4646004649524D5759
:1020D0004152455F4E414D453A4D61726C696E20EB
:1020E000322E302E3720284F637420313820323082
:1020F00032302030373A35323A30382920534F5574
:102100005243455F434F44455F55524C3A6874749F
:1021100070733A2F2F6769746875622E636F6D2F25
:102120004D61726C696E4669726D776172652F4D93
:1021300061726C696E2050524F544F434F4C5F5642
:10214000455253494F4E3A312E30204D4143484974
:102150004E455F545950453A5369646577696E64DA
:1021600065722058312045585452554445525F43BA
:102170004F554E543A3120555549443A3835653417
:10218000393866302D633663332D343864352D3954
:102190006633362D65383833323264393063623114
:1021A0000A0047322F4733206261642070617261F8
:1021B0006D65746572730A002062797465733B20E3
:1021C00063726320004E6F20454550524F4D2E0ADA
:1021D00000454550524F4D206461746173697A65C2
:1021E000206572726F722E0A00454550524F4D2085
:1021F00056657273696F6E204572726F7200454545
:1022000050524F4D20496E646578204572726F724E
:1022100000454550524F4D20435243204572726F46
:1022200072002073746F7265642073657474696ED4
:102230006773207265747269657665642028002072
:102240002863616C63756C6174656429210A0020E0
:10225000213D2000454550524F4D20435243206DB3
:1022600069736D61746368202D202873746F7265C3
:1022700064292000496E6465783A2000204D61721F
:102280006C696E3D563831290A00454550524F4D14
:102290002076657273696F6E206D69736D6174630A
:1022A000682028454550524F4D3D0020453A0020BA
:1022B0005A3A0020593A0020520048617264636F14
:1022C0006465642044656661756C7420536574743C
:1022D000696E6773204C6F616465640A003B20007F
:1022E00020204D363033200020550046696C616D4A
:1022F000656E74206C6F61642F756E6C6F61642005
:102300006C656E677468733A0020204D3930302058
:102310004B004C696E65617220416476616E636545
:102320003A0020204D33303420500020204D3330EF
:10233000312050005049442073657474696E67738E
:102340003A002020473239205334205A00204A00D6
:10235000202047323920533320490020204D343289
:10236000302053004D65736820426564204C6576CB
:10237000656C696E673A0020204D32303620580077
:10238000486F6D65206F66667365743A0020204D56
:10239000323035204200416476616E6365643A20D4
:1023A000423C6D696E5F7365676D656E745F7469DD
:1023B0006D655F75733E20533C6D696E5F66656544
:1023C00064726174653E20543C6D696E5F74726125
:1023D00076656C5F66656564726174653E20583C25
:1023E0006D61785F785F6A65726B3E20593C6D6104
:1023F000785F795F6A65726B3E205A3C6D61785FE9
:102400007A5F6A65726B3E20453C6D61785F655FFF
:102410006A65726B3E0020204D32303420500041FE
:102420006363656C65726174696F6E2028756E698F
:1024300074732F7332293A20503C7072696E745F46
:10244000616363656C3E20523C72657472616374B3
:102450005F616363656C3E20543C74726176656CA9
:102460005F616363656C3E0020204D32303120583F
:10247000004D6178696D756D20416363656C6572AF
:102480006174696F6E2028756E6974732F733229B9
:102490003A0020450020590020204D32303320588A
:1024A000004D6178696D756D206665656472617453
:1024B00065732028756E6974732F73293A005374FD
:1024C0006570732070657220756E69743A002044DF
:1024D0000020204D32303020530020446973616267
:1024E0006C65640A0046696C616D656E7420736585
:1024F0007474696E67733A0020286D6D290020207E
:10250000473231202020203B20556E6974732069AA
:102510006E206D6D00000016430000164300004859
:102520004200002042AEC7A042CDCCA042A4B0C71A
:10253000430080E143D0070000D0070000640000A2
:10254000001027000000002100240027002A002D91
:10255000003000330001010000040107010A0100FE
:10256000002200250028002B002E0031003400023C
:10257000010000050108010B0100002000230026D6
:102580000029002C002F003200000100000301068A
:1025900001090105050505070508080808020202EA
:1025A000020A0A08080404040401010101010101EE
:1025B000010303030303030303040707070C0C0CC5
:1025C0000C0C0C0C0C02020202060606060606069D
:1025D000060B0B0B0B0B0B0B0B010210202008083A
:1025E0001020401020408002010201080402010175
:1025F000020408102040808040201008040201805E
:1026000004020180402010080402010804020101B4
:1026100002040810204080010204081020408000BD
:10262000000A0B02090C0D0E08070304010000004C
:10263000000000000000000000000000000000009A
:102640000000000000000000000000121110000057
:10265000000000000000000000000000000000007A
:102660000000000000486F6D6520257325732573F9
:102670002046697273740020436F756E7420583A57
:10268000003C3C3C00220A00556E6B6E6F776E205A
:10269000636F6D6D616E643A202200004FBDF6BC21
:1026A00011241FBECFEFD1E2DEBFCDBF00E00CBFD3
:1026B00012E0A0E0B2E0ECE9F5E901E00BBF02C0F6
:1026C00007900D92AE3AB107D9F723E1AEEAB2E036
:1026D00001C01D92A932B207E1F713E1CFE4D3E1C3
:1026E00000E006C021970109802FFE010E941FC74C
:1026F000CE34D10780E00807A9F70E945BB60C949E
:10270000BCCA0C9400002F923F924F925F926F923E
:102710007F928F929F92AF92BF92CF92DF92EF9271
:10272000FF920F931F93CF93DF93CDB7DEB7EC9754
:102730000FB6F894DEBF0FBECDBF8BAF2091BA02AB
:1027400028AFFF24F394F092BA028091130E8D34D7
:1027500009F494C2843511F40C946624873411F082
:102760000C94B2242091110E3091120E2B313105B0
:1027700009F489C09CF42430310534F42230310549
:10278000D4F537FF2CC076C22430310509F441C09E
:102790002531310511F40C94B4246CC22A32310570
:1027A00009F4A2C164F42C31310509F48BC02D3138
:1027B000310509F05FC20E9415890C94B4242B35B1
:1027C000310509F40EC12C35310509F40FC12A3544
:1027D000310509F04FC21092B9020C94B4248091D3
:1027E000BE05813011F00C94B4240E9416920E9410
:1027F000016D0C94B4248091BE05813011F00C94CD
:10280000B4242230310509F080E00E942A9A0C9409
:10281000B42480E50E942284882329F00E9407972F
:102820006B017C0103C0C12CD12C760183E50E9491
:102830002284882361F00E94A28320E030E04AE7EE
:1028400054E40E9401C30E94A7C86B017C010E944E
:1028500048658BEC92E00E9499860E94C1B4C60E36
:10286000D71EE81EF91E0E94C1B4DC01CB018C19F1
:102870009D09AE09BF09B7FD02C00C94B42480E0E5
:102880000E947A2DF0CF0E9433B281110C94B424AF
:102890008CE0EAE5F2E0DE01119601900D928A9556
:1028A000E1F780E50E942284882321F00E946A8358
:1028B000862F01C080E0BE016F5F7F4F0E94B85439
:1028C0000C94B4249091230D2DE932E03DA72CA760
:1028D00081E0292F207295FF80E08EA7222331F01E
:1028E00060EE77E1CE018C960E9431988091230DA5
:1028F00085FF67C088E193E00E94162B8FE093E08C
:102900000E94162B8DEF92E00E94162B8091210ED3
:10291000882309F44FC081EF92E00E94162B80E0DB
:1029200090E0A0E8BFE38C8F9D8FAE8FBF8FBE017C
:10293000645E7F4F82E29EE00E949E2869837A83D4
:102940008B839C83CE0101960E948DB2BC0180EEE8
:1029500092E00E94392B20E030E0A90160911F1322
:102960007091201380912113909122130E949BC299
:10297000882321F18AE29EE00E94052A6C8F7D8FD8
:102980008E8F9F8FBE01645E7F4F82E29EE00E9429
:102990009E2869837A838B839C83CE0101960E9453
:1029A0008DB2BC0186E997E10E94392B89E20E9431
:1029B0000F2B04C084ED92E00E94162B8AE00E9447
:1029C0000F2B8091B2068770873011F00C94CA24C7
:1029D00060E08FE40E944F9881110C94BD240C9408
:1029E000CA248FE08093B9020C94B4241BE8212EF2
:1029F00012E0312E06EAE02E06E0F02E22E23EE062
:102A000038AB2FA785E1C82E8EE0D82E00E010E06D
:102A1000D1018D911D010E942284882309F44BC0AD
:102A20000E94A2832B013C01133049F0F601208162
:102A30003181428153810E9433C72B013C01AFA5F4
:102A4000B8A92D913D914D915C91C301B2010E94B5
:102A500033C74B015C012DEB37E346E855EB0E9491
:102A600094C987FD0AC02DEB37E346E855E3C5015D
:102A7000B4010E949BC21816F4F4133051F4409232
:102A80002E0E50922F0E6092300E7092310E01E099
:102A900012C0A5019401F701608171818281938147
:102AA0000E9434C7D7016D937D938D939C931397A8
:102AB000812F0E94F46B1F5FB4E0EB0EF11CEFA5B9
:102AC000F8A93496F8ABEFA7F4E0CF0ED11C143080
:102AD00009F09ECF002321F08EE29EE00E9459650E
:102AE0000E949C720C94B4248091BE05813011F038
:102AF0000C94B42489E40E942284F82E882321F0C7
:102B00000E949E83182F01C010E08AE40E94228454
:102B1000082F882319F00E949E8301C080E0FF20C7
:102B200011F0133020F4002341F0833030F088E6B8
:102B300093E00E94162B0C94B42490E1E2E2FEE0B4
:102B4000A3EBB6E001900D929A95E1F7FF2091F08A
:102B500024E01202F0011124E35DFE4E4081518118
:102B6000628173814093B3065093B4066093B506B7
:102B70007093B606002391F034E08302F001112433
:102B8000EF5DFE4E80819181A281B3818093B70673
:102B90009093B806A093B906B093BA0640E050E00F
:102BA000BA0186E40E9464556B017C0120E030E0AC
:102BB000A9010E9494C918165CF420E030E040E7B7
:102BC00052E4C701B6010E942EC86B017C0103C00C
:102BD000C12CD12C760180904C0290904D02A09097
:102BE0004E02B0904F0220E030E0A901C701B601CB
:102BF0000E949BC2882341F0C0924C02D0924D02A9
:102C0000E0924E02F0924F0200914A0210914B0264
:102C100084E690E090934B0280934A02C090520267
:102C2000D0905302E0905402F090550280E090E082
:102C3000A0E8BFE38093520290935302A093540202
:102C4000B09355020E94016D80924C0290924D0209
:102C5000A0924E02B0924F0210934B0200934A0290
:102C6000C0925202D0925302E0925402F092550266
:102C70000C94B4240E9416B60C94B4240091110E46
:102C80001091120E0637110509F401C70CF0CDC0E2
:102C90000C34110509F46FC40CF059C00931110549
:102CA00009F482C234F50431110509F413C28CF41D
:102CB0000131110509F4FAC134F40230110508F4A8
:102CC000AEC10C9463240231110509F4CAC50C94F9
:102CD00063240631110509F432C20CF42CC2073109
:102CE000110509F436C20831110509F447C20C94E4
:102CF00063240E31110509F4D7C2B4F40B31110568
:102D000009F477C20CF467C20C31110509F4C4C28E
:102D10000D31110511F00C946324809152128E7FB5
:102D2000809352120C94B4240032110509F41DC38F
:102D30000CF45EC30A32110509F404C40B34110506
:102D400011F00C9463240E946A540C94B4240A3643
:102D5000110509F46FC4CCF50435110509F481C5DA
:102D6000FCF40135110509F460C54CF40D3411056E
:102D700011F00C9463240E94A3540C94B4240235E3
:102D8000110509F466C50335110511F00C9463248F
:102D90008091B9028F7E80628093B9020C94B42432
:102DA0000C35110509F4B9C534F40535110509F4DC
:102DB0008FC50C9463240836110509F4E0C3093665
:102DC000110509F423C40C9463240F36110509F48A
:102DD00076C48CF40C36110511F40C94B4240CF464
:102DE0004FC40D36110509F4EAC30E36110509F476
:102DF00053C40C9463240237110509F42FC65CF404
:102E00000037110511F40C94B4240137110509F4AD
:102E10009AC40C9463240337110509F426C60537B8
:102E2000110509F425C60C9463240F3281E01807BC
:102E300011F40C94C8210CF065C00B3C110509F489
:102E400019C754F50639110509F46DC684F408371D
:102E5000110509F459C60CF454C60937110509F4D3
:102E60005BC60C38110509F493C40C9463240E3B23
:102E7000110509F4AEC434F40B39110509F4ADC4DD
:102E80000C946324083C110509F48AC6093C110519
:102E900009F4CDC60C9463240C3D110511F40C9477
:102EA000551F84F40D3C110509F411C70CF401C73A
:102EB0000E3C110509F41EC7033D110509F438C77E
:102EC0000C9463240232A1E01A0711F40C941D2023
:102ED00064F40D3D110511F40C947C1F023E1105A4
:102EE00011F40C94D11F0C9463240D32E1E01E0701
:102EF00011F40C9492200E32114011F40C948421A0
:102F00000C946324073F21E0120711F40C94022370
:102F10000CF041C0053A81E0180711F40C94CE2161
:102F2000ECF40039A1E01A0711F40C94CB213CF425
:102F30000033114011F40C9411210C9463240A39CC
:102F4000F1E01F0711F40C94B424043A114011F07D
:102F50000C9463240E9448870C94B424043F31E00D
:102F6000130711F40C94FC223CF40C3A114011F4B8
:102F70000C949E220C946324053FA1E01A0711F4DF
:102F80000C94FF22063F114011F00C9463240E9420
:102F90001FAD0C94B4240B35E2E01E0711F40C9421
:102FA0002B23ECF40C3022E0120711F40C941B23B9
:102FB0003CF4083F114011F40C940A230C94632450
:102FC0000F3392E0190711F40C94282308351240AE
:102FD00011F00C9463240E943A930C94B424003AA8
:102FE000B3E01B0709F4F6C16CF40C36F3E01F07DD
:102FF00011F40C94B4240438134011F40C94A42359
:103000000C946324073E33E0130711F40C940D2451
:10301000093E134011F40C9419240C94632480E5A8
:103020000E942284882329F00E9407976B017C016B
:1030300003C0C12CD12C760183E50E942284882311
:1030400061F00E94A28320E030E04AE754E40E944D
:1030500001C30E94A7C86B017C010E944865809152
:103060000F0E9091100E892B41F00E94502B8091F1
:103070000F0E9091100E0E94592D8091110E90917B
:10308000120E892B19F069E873E002C061E873E061
:1030900020E030E047E056E082E00E94798640E0A0
:1030A000C701B6010E94F8310C94B42480910B0E34
:1030B00084FF02C00C94952680910D0E87FF02C0FC
:1030C0000C94952680910E0E837011F00C94952629
:1030D0000C94B2268091521283FF25C089EA93E0B6
:1030E0000E94162B8091521283FF17C083EB90E150
:1030F0000E946E4B8BE1E3EBF0E1DE011196019053
:103100000D928A95E1F760E070E0CE0101960E9491
:103110000991CE0101960E94734B8AE993E00E94C7
:10312000162B0C94B4240E94502B8AEB93E00E943F
:10313000162B0C94B4240E947D8C0C94B4240E9411
:10314000058B80915212877F8062809352120C947B
:10315000B424E0910F0EF091100E8081882329F0A5
:10316000803209F410823196F8CF60E080910F0E22
:103170009091100E0E945F8B0C94B4240E94BF2A81
:10318000882321F00E94758C0E946A5461E084ECCF
:1031900093E00E9407864BEC53E063ED73E085E01B
:1031A0000E942DB60C94B4248091521282FF03C069
:1031B0008B7F809352120E948E5445EE53E06CEE4A
:1031C00073E084E00E942DB661E08FED93E00E94F1
:1031D00007860C94B4248091521283FD02C00C9493
:1031E000B42483E50E94228481110C94C0260C949F
:1031F000B42483E40E94D983882319F18FEF93E0EC
:103200000E94162B80915D10882391F0BE016F5FA4
:103210007F4F8AE590E10E94354A8E010F5F1F4F74
:10322000D8018D918D01882339F00E940F2BF8CFA2
:1032300085EF93E00E94162B8AE00E940F2B0C94DE
:10324000B4248091521282FF21C08EE094E00E944B
:10325000162B60914E1270914F12809150129091E6
:1032600051124AE00E94D62B8FE20E940F2B6091F0
:103270004A1270914B1280914C1290914D124AE07B
:103280000E94D62B0E94532D0C94B42480E294E02B
:103290000E94162B0C94B42480910F0E9091100E66
:1032A0000E94168B0C94B4248091521283FD02C0AC
:1032B0000C94B4240E94FCB58091521283FD02C08C
:1032C0000C94B42440910F0E5091100EBE01645E18
:1032D0007F4F80E00E9400AA8C01009711F40C94AB
:1032E000B4246C8D7D8D19821C8222E0AC01CE014C
:1032F00001960E94A34F811102C0F12C14C0CE018F
:1033000001960E946EA98823C1F361E0CE01019667
:103310000E94194A009789F325EEFC0120831C8244
:103320000E94CD8DF82ECE0101960E94734BB801FC
:10333000FF2089F089E494E00E94392B8AE00E9402
:103340000F2B10924E1210924F1210925012109298
:1033500051120C94B42481E394E00E94392B8AE248
:103360009DE10E94162B0C94B4248091521282FD90
:103370000E9448658091521283FD02C00C94B424CF
:1033800060E080E50E944F98182F682F80910F0E03
:103390009091100E0E945F8B83E50E942284882307
:1033A00081F00E946A83AB01BC0140934E1250939E
:1033B0004F1260935012709351128AE590E10E946F
:1033C000F38F0E94758C11110C94B4240E946A54DE
:1033D0000C94B42420910F0E3091100E9091521243
:1033E000926090935212C9010E94168B0C94B424DF
:1033F0000E941B547B018C0120E831E541E050E044
:103400000E94A2C6C9016DE671E00E940BC74B0184
:103410005C01C801B70120E13EE040E050E00E94BD
:10342000A2C6CA01B90128E130E040E050E00E94A4
:10343000A2C6762E672EC62ED72EBCE32B2E312C9D
:10344000412C512CC801B701A20191010E94A2C6D2
:10345000F62EE72ECA01B901A20191010E94A2C66F
:10346000CB018E010F5F1F4F8114910499F0EF92F1
:10347000FF927F936F936F927F92BF92AF929F92D2
:103480008F9287E594E09F938F931F930F930E94F1
:103490006CC213C0A114B104B1F0EF92FF927F93FC
:1034A0006F936F927F92BF92AF928BE594E09F9360
:1034B0008F931F930F930E946CC20FB6F894DEBFD8
:1034C0000FBECDBF30C0CD2879F0EF92FF927F9331
:1034D0006F936F927F928FE594E09F938F931F93EA
:1034E0000F930E946CC2E9CF892B69F0EF92FF9293
:1034F0007F936F9383E694E09F938F931F930F9333
:103500000E946CC2DACFEF92FF9287E694E09F931D
:103510008F931F930F930E946CC20F900F900F9088
:103520000F900F900F90C8010E94A9860E94502B07
:10353000B8018BE694E00E94392B8AE00E940F2BA1
:103540000C94B4246DE070E080E50E942B938C0114
:1035500097FF02C00C94B424E82E60E089E40E9436
:103560004F9881110C94D126802F0E9436B681117C
:1035700035C50C94D1260E948E540C94B4248091AD
:10358000230D83FF02C00C94B4240E94C79287FFCE
:1035900002C00C94B42483E50E942284882359F04D
:1035A0000E94A2830E94A0C8CB010E94945061E0B7
:1035B00080E00E947F3F0E9410BD0C94B424809153
:1035C000230D83FF02C00C94B4240E94C792082FDD
:1035D00087FF02C00C94B42483E50E942284F82E55
:1035E00081110C94082782E50E94228481110C9499
:1035F000082710E00E9410BD112311F40C94B4248C
:103600006F2D802F0E942C510C94B4240E94C792DD
:10361000182F87FD0AC088E694E10E94162B812F9F
:103620000E94BA508AE00E940F2B28AD2093BA0264
:103630000C94852880E50E9486B281110C94B424F4
:1036400081E40E94D983882321F06091EB06062F44
:1036500002C00FEF10E083E50E942284882349F026
:103660000E946A838B016F3F710519F010F00FEF14
:1036700010E00093EB0680E00E94A4500C94B42468
:1036800080E50E9486B281110C94B4241092EB065E
:103690000E94A4500C94B4248EE40E9422848823B7
:1036A00011F40C94B4240E946A836093850670938D
:1036B000860680938706909388060C94B42483E54D
:1036C0000E94D983882329F083E50E9486B28093E3
:1036D000230D0E94502B8AE894E00E94162B8091C3
:1036E000230D882369F1A7E3EA2EA6E0FA2E00E075
:1036F00010E020E08091230D90E0A0E0B0E0002EEB
:1037000004C0B695A795979587950A94D2F780FF40
:103710000EC0DD24D394D20E222319F08CE20E9435
:103720000F2BF701859194910E94162B2D2D0F5F81
:103730001F4F32E0E30EF11C06301105D9F67CCDA7
:103740008BE698E077CD83E50E942284882381F080
:103750000E947A83282F30E02D33310524F48093A2
:1037600000020C94B4248CE3809300020C94B424E3
:103770000E94502B4091000250E060E070E081E92F
:1037800094E00E94432C8AE00E940F2B0C94B424F6
:103790008091230D83FF02C00C94B42483E50E9422
:1037A0002284882311F40C94B4240E94A2830E94E2
:1037B000A0C86C3871050CF48B011093EA030093D8
:1037C000E9030E94953F61E080E00E947F3F0C94F6
:1037D000B4240E94815B0C94B42483E50E9422846B
:1037E000882311F40C94B4240E947A83182F90E05B
:1037F000CD970CF01CE31093B2020E94C1B46B0190
:103800007C01212F30E0A8EEB3E00E94EEC6C60E88
:10381000D71EE81EF91EC092AE02D092AF02E0920F
:10382000B002F092B1020C94B4240E94CD3F0E94E9
:10383000A3540E9408670E94CD2A68EE73E080E0DE
:1038400090E00E947F2A88E994E00E9499860C9477
:10385000B4248091B9028F7D80618093B9020C9469
:10386000B42483E50E9422848823F1F00E94C1B42D
:103870006093F9037093FA038093FB039093FC0326
:103880000E94A28320E030E04AE754E40E9401C392
:103890000E94A7C860930102709302028093030202
:1038A000909304020C94B42480910B0E84FF02C008
:1038B0000C94162780910D0E87FF02C00C941627DA
:1038C00080910E0E837011F00C9416270C944827EB
:1038D00083E50E94D983882311F40C94B4240E94B8
:1038E000C1B46093F9037093FA038093FB03909340
:1038F000FC030E94A28320E030E04AE754E40E94E7
:1039000001C30E94A7C86093B3027093B40280936E
:10391000B5029093B6020C94B4240E94C79287FF1C
:1039200002C00C94B42490910B0E94FD04C09091AD
:103930000D0E97FF0AC0EBE8CE2EE2E0DE2EF4E299
:10394000EF2EFDE0FF2E10E00AC090910E0E937056
:1039500091F7682F81E00E94F0920C94B424D60174
:103960008D916D010E942284882309F46DC013306B
:1039700009F063C00E94A2834B015C0120E030E0AB
:1039800040EA51E40E949BC287FF4EC0A50194010A
:103990006091440D7091450D8091460D9091470DB9
:1039A0000E942EC82B013C019B01AC016091E706EF
:1039B0007091E8068091E9069091EA060E9401C3A1
:1039C0006093E7067093E8068093E9069093EA0611
:1039D000A30192016091540D7091550D8091560D87
:1039E0009091570D0E9401C36093540D7093550D33
:1039F0008093560D9093570D6091D3067091D40625
:103A00008091D5069091D6060E94A0C2A301920192
:103A10000E9401C30E94A7C86093D3067093D40686
:103A20008093D5069093D6068092440D9092450DD2
:103A3000A092460DB092470D07C00E94A283F701E5
:103A4000648B758B868B978B1F5FF4E0EF0EF11CF8
:103A5000143009F084CF0E942C6486C70E94DCAB2E
:103A600089E091E10E9417B57FC70E944E9F7CC7F5
:103A700080910F0E9091100E009709F475C7DC012C
:103A80002C91222309F470C70E94A9866DC700916A
:103A90000F0E1091100E94E0F12C40E0915021F1A6
:103AA000F8018081282F2B7F213421F421812133BB
:103AB000D9F407C08035C1F4818180538A3048F041
:103AC00013C0813421F0853421F441E002C0FF2489
:103AD000F39498012E5F3F4F89012F5F3F4FF8010C
:103AE00080818032C9F3DACF41110E94502BFF2030
:103AF00021F08BEA94E00E94162BC8010E94592DF8
:103B000033C70E94E05330C781E08093290480933B
:103B100028040E94025428C71092290410922804F5
:103B20000E94025421C782E40E94D983882351F065
:103B30008091B7029091B802892B31F00E947A836C
:103B4000182F03C010E001C01FEF85E50E94D98344
:103B5000882351F08091B7029091B802892B31F0FF
:103B60000E947A83082F03C000E001C00FEF82E5B6
:103B70000E94D983882349F08091B7029091B802BE
:103B8000892B29F00E947A8303C080E001C08FEF67
:103B900089830A831B83CE0101960E94B584E4C603
:103BA0000E94C792182F87FDDFC60091DE1284E4C1
:103BB0000E942284882311F40C944B270E94A28334
:103BC0006B017C0120E030E0A9010E949BC28823A8
:103BD00041F124E01202F0011124E652FD4EC082B0
:103BE000D182E282F38220E030E0A9016091DA1212
:103BF0007091DB128091DC129091DD120E949BC2C9
:103C000081110CC080E090E0A0EEBFE38093DA1257
:103C10009093DB12A093DC12B093DD1201E00C94C0
:103C20004B2780E08093DE120E94A7689DC60E9409
:103C3000C79287FD99C67BE8E72E72E0F72E04E273
:103C40001DE0D7018D917D010E94D983882359F011
:103C50000E94A2830E94A7C8F801608371838283B7
:103C600093830E94E5630C5F1F4FFDE004331F0741
:103C700041F77AC60E94C79287FD76C66BE8E62EAA
:103C800062E0F62E04E21DE0D7018D917D010E94D5
:103C9000D983882339F00E94A283F80164A375A315
:103CA00086A397A30C5F1F4FFDE004331F0761F746
:103CB0005BC680910C0E87FF02C00C945127809147
:103CC0000D0E8E7011F00C9451270C949727809153
:103CD0000B0E827111F00C94BF2780910D0E8C7821
:103CE00011F00C94BF2780910E0E837011F00C948C
:103CF000BF273AC65CE2E52E54E0F52E10E088E5D9
:103D0000810F0E94D983882359F00E94A283D70192
:103D10006D937D938D939C931397812F0E94F46BE9
:103D20001F5FB4E0EB0EF11C133049F70C947015D3
:103D3000C0903502D0903602E0903702F090380201
:103D40008091390290913A02A0913B02B0913C02DD
:103D50008FA798ABA9ABBAAB4090150E5090160E3A
:103D60006090170E7090180EA301920160913102BD
:103D70007091320280913302909134020E9434C7D4
:103D80006C8F7D8F8E8F9F8F8090190E90901A0E62
:103D9000A0901B0EB0901C0EA5019401C701B601A6
:103DA0000E9434C768A379A38AA39BA3C0901D0E69
:103DB000D0901E0EE0901F0EF090200EA7019601ED
:103DC0006FA578A989A99AA90E9434C76CA37DA37D
:103DD0008EA39FA38091410290914202A091430241
:103DE000B09144028FA798ABA9ABBAAB80914502C2
:103DF00090914602A0914702B09148028BAB9CABD8
:103E0000ADABBEABA301920160913D0270913E0249
:103E100080913F02909140020E9434C769837A8367
:103E20008B839C832FA538A949A95AA9C501B40140
:103E30000E9434C76D837E838F8398872BA93CA90A
:103E40004DA95EA9C701B6010E9434C769877A8768
:103E50008B879C870E94502B81E095E00E94162B57
:103E600083E50E94D983882321F00E948E8380936A
:103E7000490280914902882319F085EB92E002C043
:103E800087EC90E20E94162B42E752E269EF74E061
:103E9000CE014C960E94F38640E050E061EF74E062
:103EA000CE0101960E94F3865FC583E50E942284BD
:103EB000882331F00E949E8390934B0280934A02A4
:103EC00080910B0E90910C0EA0910D0EB0910E0EE4
:103ED000892B8A2B8B2B09F047C560914A02709180
:103EE0004B0281E195E00E947D2C85E20E940F2B20
:103EF0008AE00E940F2B38C50E94C792F82E87FDDA
:103F000033C583E50E9422840F2D0F2C000C110B6A
:103F1000882361F10E949E83F801EE0FFF1FE05B92
:103F2000FD4F91838083000F111F000F111FD801D7
:103F3000AE5ABD4F7D01BC01990F880B990B0E94B1
:103F4000A2C22AE037ED43E25CE30E9401C3F8011C
:103F5000ED53F94F20813181428153810E9401C389
:103F6000F7016083718382839383FEC40E94502B88
:103F700085E40E940F2B80E38F0D0E940F2BF80128
:103F8000EE0FFF1FE05BFD4F6081718185E195E0E1
:103F90000E947D2C85E20E940F2B8AE00E940F2B4D
:103FA000E3C480E50E94D983882309F4DDC460E07E
:103FB00070E080E50E942B93F82E6FEF7FEF83E592
:103FC0000E942B938C010196039708F0CDC4F7FC57
:103FD000CBC48F2D0E9436B6882339F00E944C2B1B
:103FE0008DE195E00E94162BBFC40E94486560E0F9
:103FF0008F2D0E9482B30F3FFFEF1F0731F001307A
:10400000110571F000E010E00DC08F2D0E942AB361
:1040100031E020E0892B09F030E0032F122F02C09D
:1040200001E010E08F2D0E942AB38017910709F458
:104030009BC480E00E947A2DF5CF8AE50E942284FD
:10404000811106C083E50E942284882309F44DC0B3
:104050000E94A28320E030E040E050EC0E949BC22E
:1040600087FF02C00C943D280E94A28320E030E02C
:1040700040E050E40E9494C9181614F40C943628B9
:104080000E94A2836B017C0184E00E944D6C81112F
:104090002CC02091400D3091410D4091420D509126
:1040A000430DC701B6010E9401C30E94A0C8209120
:1040B000C1023091C202260F371F3093C2022093F3
:1040C000C1022091AB033091AC03620F731F709358
:1040D000AC036093AB030E94C1B46093F903709387
:1040E000FA038093FB039093FC0380910D0E87FFEE
:1040F00002C00C94442880910E0E837009F0C4C74E
:104100000E94502B4091B2125091B3126091B412A0
:104110007091B5128CE295E00E94FF2C8AE00E941B
:104120000F2B22C485E40E9486B2811173C080E502
:104130000E94D983882351F00E94A2836093430E8A
:104140007093440E8093450E9093460E89E40E942E
:10415000D983882381F00E94A2832CEA35EC47E2C0
:104160005EE30E9401C36093470E7093480E8093F4
:10417000490E90934A0E84E40E94D983882381F0EB
:104180000E94A2832CEA35EC47E25EE30E942EC82F
:1041900060934B0E70934C0E80934D0E90934E0E89
:1041A0000E94502B4091430E5091440E6091450E59
:1041B0007091460E81E495E00E94FF2C2CEA35ECCC
:1041C00047E25EE36091470E7091480E8091490E80
:1041D00090914A0E0E942EC8AB01BC018DE395E080
:1041E0000E94FF2C2CEA35EC47E25EE360914B0E17
:1041F00070914C0E80914D0E90914E0E0E9401C315
:10420000AB01BC0189E395E00E94FF2C8AE00E948B
:104210000F2BAAC30E944C2B85E495E00E94162B1D
:10422000A3C380E50E94D983882351F00E94A28312
:104230006093EC037093ED038093EE039093EF0390
:1042400089E40E94D983882381F00E94A2832CEA0A
:1042500035EC47E25EE30E9401C36093F003709384
:10426000F1038093F2039093F30384E40E94D983D3
:10427000882381F00E94A2832CEA35EC47E25EE3BA
:104280000E942EC86093F4037093F5038093F603A5
:104290009093F7030E94502B4091EC035091ED0353
:1042A0006091EE037091EF0381E495E00E94FF2C92
:1042B0002CEA35EC47E25EE36091F0037091F10384
:1042C0008091F2039091F3030E942EC8AB01BC01D0
:1042D0008DE395E00E94FF2C2CEA35EC47E25EE38B
:1042E0006091F4037091F5038091F6039091F703C8
:1042F0000E9401C3AB01BC0189E395E00E94FF2C41
:104300008AE00E940F2B30C383E50E94D983182FC7
:10431000882371F00E94A2830E94A0C87093570264
:104320006093560221E0672B09F020E02093FC0601
:1043300080E50E94D983882359F02091560230915C
:104340005702232B11F00E948E838093FC060CC32E
:1043500011110AC30E94502B80E795E00E94162B92
:104360008091FC06882319F084E196E102C087E57C
:1043700095E00E94162B60915602709157028FE5CE
:1043800095E00E947D2C8BE595E00E94162BECC2F7
:104390000E947B55E9C20E944865E6C288E50E94FA
:1043A000D983D82E89E40E94D983C82E882321F08E
:1043B0000E949E83A82E28C0DD2011F10E94A283B6
:1043C0002091150E3091160E4091170E5091180E37
:1043D0000E9433C720E030E040E251E40E9433C73E
:1043E00020E030E04CE852E40E9434C721EA3EE08D
:1043F0004AEE5BE30E9401C30E94A0C8633018F03C
:10440000AA24AA9401C0A62E89E50E94D983F82E79
:104410008AE40E94D983182F882321F00E949E836A
:10442000B82E28C0FF2011F10E94A2832091190EFE
:1044300030911A0E40911B0E50911C0E0E9433C7F2
:1044400020E030E040E251E40E9433C720E030E059
:104450004CE852E40E9434C721EA3EE04AEE5BE3B6
:104460000E9401C30E94A0C8633018F0BB24BA9414
:1044700001C0B62E8AE50E94D983E82E811105C0BD
:1044800081E50E94D983082F01C000E0C11001C05E
:1044900010E0212F30E0D11001C0F12C2F0D311D83
:1044A0002130310521F4E11009C0011107C00E943B
:1044B0004C2B83E895E00E94162B56C2A7FC02C045
:1044C000B7FE07C00E944C2B88E693E00E94162B93
:1044D0004BC20E94A283EA2CAA0CFF08AB2DBB0C96
:1044E000BB0B002391F0F701EE0FFF1FEE0DFF1D38
:1044F000EA0FFB1FEE0FFF1FEE0FFF1FEA54FD4EEA
:10450000208131814281538103C020E030E0A90144
:104510008701000F111F0E0D1F1D0A0F1B1F000F1B
:10452000111F000F111F0A541D4E0E9434C7D801DD
:104530006D937D938D939C93139716C20E9433B213
:10454000811112C209E516E1E2E2FEE0F8ABEFA745
:104550009E012F5F3F4F190147E0C42E49E1D42E41
:104560007901F8016591759185919491AFA5B8A9EC
:104570008D909D90AD90BD90B8ABAFA7A501940173
:104580000E9433C72B013C01F70160837183828352
:10459000938320E030E040EA51EC0E9494C987FD0B
:1045A0000AC020E030E040EA51E4C301B2010E94B9
:1045B0009BC218162CF4F601849118160CF46BC5E6
:1045C000D7018D909D90AD90BD907D0120E030E0B1
:1045D00040EA51ECC501B4010E9494C987FD66C54B
:1045E00020E030E040EA51E4C501B4010E949BC2E2
:1045F00018160CF062C55AC50E944C5EB5C10E94E7
:104600006AAEB2C161E083E50E944F988F250E9497
:1046100078AEAAC181E08093A5120E9485A1109274
:10462000A512882309F4A0C10E94502B81ED95E0CA
:104630000E94162B99C18091521282FF04C080649F
:104640008093521291C183FF8FC10E94FCB58CC12F
:104650000E94179789C10E94C792082F87FD84C1C5
:1046600085E50E94D9838823B1F1E02E002E000C4D
:10467000FF080E94A2834B015C0120E030E0A90109
:104680000E9494C987FF04C0B7FAB094B7F8B094F9
:10469000C70123E0880F991F2A95E1F79C01265551
:1046A0003D4E7901D9018D929D92AD92BC921397A6
:1046B00020E030E048E453E4C501B4010E9494C90D
:1046C00018164CF480E090E0A8E4B3E4F70180838E
:1046D0009183A283B3838CE40E94D983882309F455
:1046E00043C1002E000C110B0E94A2836B017C01C0
:1046F00020E030E0A9010E9494C987FF04C0F7FAC6
:10470000F094F7F8F09420E030E048E453E4C70177
:10471000B6010E9494C9980193E0220F331F9A9525
:10472000E1F7F901E655FD4E18162CF0C482D5824A
:10473000E682F78219C180E090E0A8E4B3E48483C4
:104740009583A683B78310C1A090FD06B090FE06A6
:10475000C090FF06D09000078BE40E94228488233B
:1047600039F10E94A2837B018C0120E030E0A90195
:104770000E9494C987FD0AC020E030E040E251E485
:10478000B701C8010E949BC21816A4F48FE30E94CF
:104790000F2B8BE40E940F2B84EE95E00E94162BCA
:1047A0008CED95E00E94162B8AE29DE10E94162B6B
:1047B000750186019701A801B501C6010E949BC23F
:1047C000882361F00E944865C701D8018093FD06E7
:1047D0009093FE06A093FF06B093000780910B0E06
:1047E00090910C0EA0910D0EB0910E0E892B8A2B7C
:1047F0008B2B09F0B9C00E94502B4091FD065091BF
:10480000FE066091FF067091000788EF95E00E9418
:10481000FF2C8AE00E940F2BA7C081E08093BE0589
:1048200060E083E50E944F9881119EC00E94A45DC4
:104830009BC00E941B546B017C016D337105810587
:10484000910520F083E396E00E94F7A08FE296E0C6
:104850000E94F7A08BE196E00E94162B2DE3C21672
:10486000D104E104F10440F119828FEF8A831B82A5
:10487000CE0101960E94B58481E08093C30220E0BE
:1048800030E047E056E060E176E082E00E94798621
:1048900040E060E375E780E090E00E94F8318091AD
:1048A000C302882349F019821A821B82CE01019625
:1048B0000E94B5841092C30283E096E090933A047C
:1048C0008093390451C00E9416B64EC00091110E5B
:1048D0001091120EF02E9091230D29E93EE13A83BA
:1048E000298381E0292F207295FF80E08B8322238A
:1048F00031F060EE77E1CE0101960E94319880910F
:10490000230D85FF0AC0B801772789E997E10E9446
:104910007D2C87E892E20E94162B0E94C1B460931E
:10492000F9037093FA038093FB039093FC03FF2039
:10493000A1F00E94502B84E50E940F2BB80177272D
:10494000072E000C880B990B0E94612C80E20E94BC
:104950000F2B85E495E00E94162BCE0101960E9454
:1049600024B602C00E9416B63BAD311102C00E94AF
:10497000945D88AD8093BA02C8C38091230D85FFF2
:1049800004C08DE493E00E94162BCE018C960E9409
:1049900024B6EACF0E9448659091210E9AAF80E03C
:1049A0000E9402870E94C1B46093F9037093FA03D6
:1049B0008093FB039093FC0380914C0290914D02F5
:1049C000A0914E02B0914F028093BD029093BE021F
:1049D000A093BF02B093C00280914A0290914B0213
:1049E0009093BC028093BB0284E690E090934B02CC
:1049F00080934A0281E0809329040E9402548AE550
:104A00000E94D983082F88E50E94D983182F89E551
:104A10000E94D983181386C1011711F0312E83C16A
:104A20003324339411E031E03FAB82E50E942284CD
:104A3000882369F00E94A2836B017C0120E030E0B2
:104A4000A9010E949BC2882309F463C006C0C12C3F
:104A5000D12C90EAE92E90E4F92E111103C03320F5
:104A600009F432C18091230D85FF09C0B701A60169
:104A700081E393E00E94FF2C8AE00E940F2B20E04C
:104A800030E0A901C701B6010E9434C7962EA72EB7
:104A9000B82EC92ED0902A0EE0902B0EF0902C0E3E
:104AA00000912D0E2D2D3E2D4F2D502F0E949BC27B
:104AB00087FD03C0D92C75010C2D80E090E0A0EAA1
:104AC000B1E48C8F9D8FAE8FBF8F20E030E048EC3B
:104AD00053E46D2D7E2D8F2D902F0E949BC287FF5A
:104AE00005C04D2D3E2D2F2D902F04C040E030E00D
:104AF00028EC93E4C42ED32EE22EF92EC982DA825A
:104B0000EB82FC82BE01645E7F4FCE0101960E9463
:104B1000E470112309F4D3C0332009F4CDC01092FE
:104B2000220E1092230E1092240E1092250E109237
:104B3000260E1092270E1092280E1092290E0E9417
:104B40002C71E7E0F9E184918CAFEDE4F6E1C590DA
:104B5000D590E590F490E1E5F6E185909590A590EB
:104B6000B490A7019601C501B4010E949BC287FFC2
:104B700005C0A7019601C501B40104C0A5019401B7
:104B8000C701B6010E942EC82B013C01E0EFF8E1FD
:104B900085919591A591B4918FA798ABA9ABBAAB2C
:104BA000ECEEF8E185919591A591B4918BAB9CAB1E
:104BB000ADABBEAB9C01AD016FA578A989A99AA93F
:104BC0000E9494C9181634F42BA89CA999AF0DA97A
:104BD0001EA905C02FA4A8A9A9AF09A91AA9A301B4
:104BE0009201C301B2010E9401C320E030E040E81D
:104BF0005FE30E9434C70E94E2C9222D39ADA801AB
:104C00000E9401C368A779A78AA79BA7E8E0F9E1FA
:104C1000149120E030E040EC5FE3C501B4010E9454
:104C200001C34B015C01612F110F770B880B990BAE
:104C30000E94A2C29B01AC01C501B4010E9401C344
:104C400069837A838B839C8320E030E040EC5FE3D0
:104C5000C701B6010E9401C36B017C01BCAD6B2F83
:104C6000BB0F770B880B990B0E94A2C29B01AC0172
:104C7000C701B6010E9401C36C8F7D8F8E8F9F8FFD
:104C8000AE01485D5F4FBE016F5F7F4FCE014C9616
:104C90000E94C2700E940D541092220E1092230E98
:104CA0001092240E1092250E1092260E1092270EAE
:104CB0001092280E1092290E80E00E943A71332043
:104CC00019F081E00E943A71EFA9EE2319F082E019
:104CD0000E943A710E942C718091280480932904CB
:104CE0008AAD0E9402878091BD029091BE02A09180
:104CF000BF02B091C00280934C0290934D02A093EA
:104D00004E02B0934F028091BB029091BC029093EF
:104D10004B0280934A020E949C72CE018C960E94A4
:104D200024B622CE382E0FAB80CE88E50E94D983E0
:104D300081115F9889E50E94D98381118A988AE55B
:104D40000E94D983882331F080910801817080937B
:104D50000601479885E40E94D983882309F404CE8C
:104D6000129802CE81E993E00E9499865F988A9812
:104D70008091080181708093060147981298F4CDC4
:104D80000E946A83AB01BC0140934E1250934F12B4
:104D900060935012709351128AE590E10E94F38F54
:104DA000E3CD8DE40E9422848823A9F00E947A83B7
:104DB000813039F020F0823049F462E003C060E0D5
:104DC00001C061E0802F0E9482B305C088E794E0B3
:104DD0000E94162BC9CD83E50E942284882309F402
:104DE000C3CD0E947A83F82EF9E0EF1203C08093BE
:104DF000EB06BACD61E0802F0E9482B36F2D802F29
:104E00000E9453B36F2D70E0802F0E94BEB3ACCDD3
:104E10000E94A2830E94A0C8CB010E94945061E02E
:104E200081E00E947F3F11E00C94FA1A0E944865CD
:104E300088E50E94D983882331F05F9A80912B0402
:104E40008E7F80932B0489E50E94D983882331F0DB
:104E50008A9A80912B048D7F80932B048AE50E948F
:104E6000D983882361F080910801809581708093B7
:104E70000601479A80912B048B7F80932B0485E455
:104E80000E94D983882309F46FCD0E94A32A6CCD98
:104E90000E94086769CD602F83E50E944F980C94AB
:104EA000121E83E50E942284882391F00E94A2832F
:104EB0006093580D7093590D80935A0D90935B0D2C
:104EC0006093600D7093610D8093620D9093630DFC
:104ED00080E50E942284882351F00E94A28360937F
:104EE000580D7093590D80935A0D90935B0D82E588
:104EF0000E942284882351F00E94A28360935C0D5B
:104F000070935D0D80935E0D90935F0D84E50E941C
:104F10002284882309F428CD0E94A2836093600D27
:104F20007093610D8093620D9093630D1DCD409140
:104F3000580D5091590D60915A0D70915B0D8FEA8B
:104F400094E00E94FF2C40915C0D50915D0D6091AA
:104F50005E0D70915F0D87EB92E20E94FF2C4091F5
:104F6000600D5091610D6091620D7091630D88E943
:104F70009EE10E94FF2C8AE00E940F2BF5CC82E478
:104F80000E94D983882351F00E9407976093340DC3
:104F90007093350D8093360D9093370D83E50E9405
:104FA000D983882351F00E94A2836093640D70938B
:104FB000650D8093660D9093670D84E50E94D983FB
:104FC000882351F00E94A2836093680D7093690D4D
:104FD00080936A0D90936B0D88E50E94D983882396
:104FE00051F00E94A2836093DB067093DC068093ED
:104FF000DD069093DE0689E50E94D983882351F06F
:105000000E94A2836093DF067093E0068093E1061E
:105010009093E2068AE50E94D9838823B1F00E942A
:10502000A2836093E3067093E4068093E506909371
:10503000E6062DEC3CEC4CEC5DE30E949BC218169E
:1050400024F08FEB94E00E94162B85E40E94D98314
:10505000882309F489CC0E94A2836093E7067093A9
:10506000E8068093E9069093EA067ECCC12CD12C09
:10507000E12C90E4F92E0C944420C12CD12CE12C8D
:1050800080ECF82E0C94442082E50E94D983811193
:105090000C94802069CCB7FAB094B7F8B094D701DB
:1050A0008D929D92AD92BC9213978ACA0E944C2B0E
:1050B00083EB95E00E94162B57CC0C5F1F4FBFEF80
:1050C000CB1ADB0AE6E105361E0709F04ACA3CE2C4
:1050D000E32E34E0F32E10E0F10181919191A19142
:1050E000B1911F01F70181939193A193B1937F0136
:1050F000812F0E94F46B1F5F133071F70E949C7226
:1051000083EA95E00E9499862FCCEC960FB6F8942E
:10511000DEBF0FBECDBFDF91CF911F910F91FF90EA
:10512000EF90DF90CF90BF90AF909F908F907F9047
:105130006F905F904F903F902F9008952F923F92E5
:105140004F925F926F927F928F929F92AF92BF9297
:10515000CF92DF92EF92FF920F931F93CF93DF9343
:10516000CDB7DEB762970FB6F894DEBF0FBECDBFE6
:10517000788B6F87DC018D909D90AD90BC901397DC
:1051800014962D913D914D915C9117972D833E83FF
:105190004F83588720E030E040E251E4C501B4017C
:1051A0000E9433C721EA3EE04AEE5BE30E9401C35E
:1051B0000E94A0C8161614F461E002C067FD60E00A
:1051C000E62E660FFF08F701EE0FFF1FEE0FFF1F21
:1051D000E35DFE4E408051806280738087010F5FE7
:1051E0001F4F20E030E040E251E46D817E818F81ED
:1051F00098850E9433C721EA3EE04AEE5BE30E94B5
:1052000001C30E94A0C8161614F461E002C067FD35
:1052100060E0E62F660FFF0BFA8BE98BEE0FFF1FA6
:10522000EE0FFF1FE35DFE4E2081318142815381ED
:1052300029833A834B835C8329883A883FEF231A7A
:10524000330AB701660F771FAB014E0D5F1D5A87FA
:105250004987FA0189899A89E80FF91FEE0FFF1F24
:10526000EE0FFF1FEA54FD4EC080D180E280F38034
:10527000F801EE0FFF1FEE0FFF1FE35DFE4EA301CF
:10528000920160817181828193810E9433C76B8713
:105290007C878D879E87A3019201C501B4010E947E
:1052A00033C72B013C01C801880F991F080F191F34
:1052B000A989BA89A00FB11FAA0FBB1FAA0FBB1FD4
:1052C000AA54BD4EA70196016D917D918D919C913F
:1052D0000E9433C72B853C854D855E850E942EC874
:1052E000A30192010E9401C3A70196010E9434C745
:1052F0006B017C01E985FA85E20DF31DEE0FFF1FBE
:10530000EE0FFF1FEA54FD4E80809180A280B38093
:10531000020D131DF801EE0FFF1FEE0FFF1FEA54E1
:10532000FD4EA501940160817181828193810E946B
:1053300033C72B853C854D855E850E942EC8A30111
:1053400092010E9401C3A50194010E9434C7A701E4
:1053500096010E9433C74B015C01F101EE0FFF1F64
:10536000EE0FFF1FE35DFE4E29813A814B815C8188
:1053700060817181828193810E9433C79B01AC015E
:10538000C501B4010E942EC84B015C0129813A81FC
:105390004B815C816D817E818F8198850E9433C7AE
:1053A0009B01AC01C501B4010E9401C3A701960194
:1053B0000E9434C7EF85F889208131814281538171
:1053C0000E9401C32091B2123091B3124091B412E5
:1053D0005091B5120E9434C762960FB6F894DEBFA2
:1053E0000FBECDBFDF91CF911F910F91FF90EF9036
:1053F000DF90CF90BF90AF909F908F907F906F90F5
:105400005F904F903F902F9008958F929F92AF9210
:10541000BF92CF92DF92EF92FF92CF93DF93EC0196
:1054200080901F1390902013A0902113B09022130E
:1054300020E030E0A901C501B4010E949BC288238D
:1054400009F44AC0C880D980EA80FB80A701960190
:10545000C501B4010E949BC218160CF042C02091F5
:105460001713309118134091191350911A13C70153
:10547000B6010E949BC2882331F1C0921713D092CB
:105480001813E0921913F0921A1320911B13309104
:105490001C1340911D1350911E13688179818A81DC
:1054A0009B810E9401C39B01AC0160E070E080E839
:1054B0009FE30E9433C760930602709307028093B4
:1054C0000802909309026091060270910702809190
:1054D00008029091090208C060E070E080E89FE354
:1054E00003C060E070E0CB01DF91CF91FF90EF90BF
:1054F000DF90CF90BF90AF909F908F900895CF9204
:10550000DF92EF92FF926B017C0183E3C816D10416
:10551000E104F10470F082E3C81AD108E108F1084F
:1055200062E370E080E090E00E9487B40E942B4428
:10553000ECCFC701B6010E9487B4FF90EF90DF90D7
:10554000CF900C942B44129A08955F9A80912B046B
:105550008E7F80932B048A9A80912B048D7F809379
:105560002B04809108018095817080930601479AF1
:1055700080912B048B7F80932B040C94A32A909111
:10558000521293FB882780F993FF06C081E0909127
:105590005D10911101C080E008951092EB0680E04B
:1055A0000C94A4508F929F92AF92BF92CF92DF92B1
:1055B000EF92FF920F93CF93DF931F92CDB7DEB799
:1055C0005C016B017A014901F501808191810E94A2
:1055D0007CC68983002311F0F6018083BE016F5FD2
:1055E0007F4FC4010E94C4ABF50180819181019677
:1055F00091838083FFEFCF1ADF0A81E0E81AF10878
:1056000019F780E00F90DF91CF910F91FF90EF900D
:10561000DF90CF90BF90AF909F908F900895909122
:10562000C00095FFFCCF8093C6000895CF93DF9311
:10563000FC018491EF012196882321F00E940F2B19
:10564000FE01F7CFDF91CF910895811103C087EC60
:1056500090E202C085EB92E00E94162B8AE00C9447
:105660000F2BCF93C62F0E94162B8C2FCF910C940B
:105670000F2B0F931F93CF93DF938B010E94162B59
:10568000E8018991882319F00E940F2BFACFDF914E
:10569000CF911F910F91089585E998E00C94162BF6
:1056A0008FE898E00C94162BC42F0E94CD3F0E94E7
:1056B0004C2B8FE698E00E94162B61E086E698E07E
:1056C0000E94078689EE93E030E6019729F0232FA8
:1056D0002A950000E9F7F9CFF89489EE93E038EEC7
:1056E000019729F0232F2A950000E9F7F9CF0E94AE
:1056F000CD3FCC2319F00E94A52A02C00E94A32A04
:10570000A895FECF7F928F929F92AF92BF92CF9239
:10571000DF92EF92FF920F931F93CF93DF931F922D
:10572000CDB7DEB77C0159018B016B01C40ED51ECC
:105730000C151D0559F1F70180809180F8017190D9
:105740008F017982C4010E947CC6781691F0672D82
:10575000C4010E9484C6C4010E947CC69981891735
:1057600041F00E94502B8EEA96E00E94162B81E0B9
:105770000EC0BE016F5F7F4FC5010E94C4ABF70131
:1057800080819181019691838083D2CF80E00F90B8
:10579000DF91CF911F910F91FF90EF90DF90CF900D
:1057A000BF90AF909F908F907F9008958F929F921F
:1057B000AF92BF92EF92FF920F931F93CF93DF931D
:1057C000CDB7DEB7A0970FB6F894DEBF0FBECDBF42
:1057D000611571058105910591F100E0842E912CF0
:1057E000A12CB12C102FEE24E394F12CEC0EFD1E15
:1057F000E00EF11C07FDFA94A50194010E94A2C6D7
:10580000F7016083B901CA010F5F61157105810558
:10581000910541F71F3F31F1E1E0F0E0EC0FFD1F92
:10582000E10FF11D17FDFA9580818A3010F097E3A2
:1058300001C090E3890F0E940F2B1150EBCF80E342
:10584000A0960FB6F894DEBF0FBECDBFDF91CF910B
:105850001F910F91FF90EF90BF90AF909F908F900E
:105860000C940F2BA0960FB6F894DEBF0FBECDBFE1
:10587000DF91CF911F910F91FF90EF90BF90AF906C
:105880009F908F900895CF92DF92EF92FF926A01DE
:105890007B010E94162B4AE0C701B601FF90EF90F2
:1058A000DF90CF900C94D62BCF93DF93EB010E9427
:1058B000162BBE0180E090E04AE0DF91CF910C947E
:1058C000D62BCF92DF92EF92FF926B017C0197FF74
:1058D0000BC08DE20E940F2BF094E094D094C09402
:1058E000C11CD11CE11CF11C4AE0C701B601FF90AC
:1058F000EF90DF90CF900C94D62BCF93DF93EB01FA
:105900000E94162BBE01DD0F880B990BDF91CF9102
:105910000C94612C8F929F92AF92BF92CF92DF92A4
:10592000EF92FF92CF936B017C01B42E20E030E028
:10593000A9010E949BC287FF07C08DE20E940F2B26
:10594000F7FAF094F7F8F094C0E060E070E080E0DF
:105950009FE3CB1541F02DEC3CEC4CEC5DE30E9459
:1059600001C3CF5FF6CF9B01AC01C701B6010E9416
:1059700034C76B017C010E94A7C84B015C014AE05F
:105980000E94D62BCC2389F1C501B4010E94A0C28C
:105990009B01AC01C701B6010E9433C76B017C01BA
:1059A0008EE20E940F2B20E030E040E251E4C7017C
:1059B000B6010E9401C34B015C010E94A0C86B01AB
:1059C000770FEE08FF08C701B6010E94612CC701DE
:1059D000B6010E94A2C29B01AC01C501B4010E94A4
:1059E00033C76B017C01C150F1F6CF91FF90EF906E
:1059F000DF90CF90BF90AF909F908F900895CF92FF
:105A0000DF92EF92FF926A017B010E94162B42E027
:105A1000C701B601FF90EF90DF90CF900C948A2CD5
:105A2000CF92DF92EF92FF920F931F93CF93DF936A
:105A30006C017B01EA01C901009711F00E94162B4D
:105A4000F60140815181628173818EE694E20E9469
:105A5000FF2CF701408151816281738185E994E2D5
:105A60000E94FF2C488159816A817B818AE493E2FC
:105A70000E94FF2C0115110559F0C801DF91CF914B
:105A80001F910F91FF90EF90DF90CF900C94162B09
:105A90008AE0DF91CF911F910F91FF90EF90DF90FF
:105AA000CF900C940F2B8DE00E940F2B8AE00C946A
:105AB0000F2BCF93DF93EC018991882319F00E947B
:105AC0000F2BFACFDF91CF910C94532D80910106CB
:105AD00090910206981759F0E92FF0E0EF5FF94F27
