:100000000C949D260C94CE260C94CE260C94CE26D1
:100010000C94CE260C94CE260C94CE260C94CE2690
:100020000C94CE260C94CE260C94CE260C94CE2680
:100030000C94CE260C94CE260C94CE260C94CE2670
:100040000C94CE260D94547B0C94CE260C94CE2684
:100050000C94CE260C94CE260D94641B0D94094866
:100060000C94CE260C94467E0C943C7E0C94CE26AA
:100070000C94CE260C94CE260C94CE260C94CE2630
:100080000C94CE260C94CE260C94CE260C94CE2620
:100090000C94CE260C94CE260C94CE260C94CE2610
:1000A0000C94CE260C94CE260C94CE260C94CE2600
:1000B0000C94CE260C94CE260C94CE260C94CE26F0
:1000C0000C94CE260C94CE260C94CE260C94CE26E0
:1000D0000C94CE260C94CE260C94CE260C94CE26D0
:1000E0000C94CE26D751DE5191529953E754F054D7
:1000F00000557C7E8E7EA07EB17EB97EEC7EBD7E7C
:10010000EC7EC17EC57EEC7EC97ECD7ED17EDA7E60
:10011000EC7EE57E0FE6F2E5F5E512E6F8E5FBE5B7
:10012000FEE50AE601E61DE604E607E63B024301BA
:100130006F02C1016F0119025B02A901E10109020D
:10014000F302F101D30239021902650105024F02DF
:1001500003024102CD028702BB01A502CF01310299
:10016000CB02E701CD016B01D7028901A5026D0128
:1001700061028F01084AD73B3BCE016E84BCBFFDB4
:10018000C12F3D6C74319ABD56833DDA3D00C77F67
:1001900011BED9E4BB4C3E916BAAAABE0000008000
:1001A0003F05A84CCDB2D44EB93836A9020C50B98F
:1001B000918688083CA6AAAA2ABE000000803F07B4
:1001C000634236B79BD8A71A39685618AEBAAB55F2
:1001D0008C1D3CB7CC5763BD6DEDFD753EF61772B7
:1001E00031BF000000803F08000000BE9224491289
:1001F0003EABAAAA2ABECDCCCC4C3E00000080BEAD
:10020000ABAAAAAA3E00000000BF000000803F0089
:1002100000000000084178D3BB4387D1133D190E7D
:100220003CC3BD4282AD2B3E68EC8276BED98FE1E5
:10023000A93E4C80EFFFBE01C4FF7F3F00000000DD
:1002400000000C94A8DF0C949C7F0D9438340C941F
:1002500099E20C94B7910D947B920C944FE60C9418
:1002600030910D94B9340C947B900D941B050C9433
:100270003FDC0D940F370D94BF470C94EB850C9425
:10028000AB910D9471740D943F700C94C4E40D9473
:10029000BE080C9437EC0D9495340C94148E0D9488
:1002A0007F070C943DD50C940F970C949CDF0D9414
:1002B000063A0C944B910C944DE60C9412E60C9477
:1002C00024940C94D6D20D947A340D9469700C94C5
:1002D000C4DF0C9438D50D9444710D9467710D945E
:1002E00036700C94FBE50C94B97E0D94D1740D948A
:1002F00000530C9421910C94A07E0D9486340C94A0
:1003000000980D9419370D948B340D9497060C9426
:10031000E4900D945D710C9499910C94CD7E0D94A4
:100320007B710C9418970C94E73C0C9443980C94B4
:1003300004E60D94EA330C9405DD0C94909D0C9426
:100340003BEC0D94CF060C9447970D943E050C940E
:10035000EFDF0D9447700C94FEE50C94A0DF0C9435
:10036000D2E50C94A4DF0C94B17E0D94C0370D94AB
:1003700061920C94DE510D940C710C94758D0C945B
:1003800012910D9432700D943F090C9405A10C94B8
:1003900017800D9428630C94BC8D0D943A710D94C4
:1003A00016710C94DCD30D9441090C94ACDF0D94C0
:1003B00074340C94EB840D949E470D94AB470C94CD
:1003C0000D930D944D700C94919F0C9472910D941B
:1003D00030710D943E0A0C94D0DF0C9455E60D94C8
:1003E00014370D945B700C940AE60C943D900C94B9
:1003F0008E8D0C949F910C9414DE0D9490340C947B
:1004000003910D9472370D94EE700D946D700C94F1
:100410003C910D9451700D9474050C94468E0D947E
:10042000BC630C9414900C9400970C94438D0C9422
:100430004E960D9476700C941A800D940B3B0C9490
:10044000F8E50C94D0E40D947B0B0C9442EC0C94E6
:10045000C17E0D94EF620C9451E60C94DA7E0C94FC
:1004600053E60D941E710C94C3910C94E57E0C948C
:10047000A98D0D9463700D943C700D946E340C94A2
:10048000F2E50D94F3700C94EC7E0D94245C0C94C6
:10049000EA5B0C9433DD0C94F0540D948A0A0D94AD
:1004A00071700C9463910D941E370C9491D60C943A
:1004B000B0DF0C9452960D9443700C940DD40C94B0
:1004C00007E60D9471710C94FB8D0C941DE60C9451
:1004D0005C900C94A5910C94E9DF0C948E7E0D94A5
:1004E0002E700C946CD60C9421E80D94B9370D94B1
:1004F000DA470C948D910D9429340C9431DD0D94D0
:1005000030340C947C7E0C94B8DF0C9400550D9420
:1005100002710C9401E60D9472740C9418DD0C9425
:1005200036E60C94C97E0C94C57E0C9462DA0C9469
:10053000D7510D94355C0C9481910D949A340D949F
:10054000395C0C94CF8D0C9454960D9485710C9459
:10055000F5E50C9414800C945C8D0D94891A0C9420
:1005600035900C9499530C94358D0C942D8E0C94DD
:10057000B37F0C94CDD60C941FE60C940FE60C942C
:10058000D17E0D94350D0D9443090C94BD7E0D94D0
:1005900080340D94BF380D9426710D94F8700C942E
:1005A000E3DF0D94CF5B0D945F700C94CA7F0D94C4
:1005B00053710C9491520C9450960C94B1910C94EC
:1005C000BCDF0C94E88D0C94BD910C94DB7F0D94F2
:1005D000205C0C94C0DF0C9487910D94AE080C94B1
:1005E000B4DF0C945A910D9455700C9442D50C9430
:1005F000E7540D9474470C9493910D9462084E4106
:100600004E494E495459494E46CDCCCC3D0AD7238C
:100610003C17B7D13877CC2B329595E6241FB14FD4
:100620000A000020410000C84200401C4620BCBE19
:100630004CCA1B0E5AAEC59D7400407A10F35A0086
:10064000A0724E18090010A5D4E80000E8764817FB
:100650000000E40B54020000CA9A3B000000E1F5E0
:1006600005000080969800000040420F000000A0A6
:100670008601000000102700000000E803000000D1
:10068000006400000000000A0000000000010000FB
:100690000000002C76D888DC674F0823DFC1DFAE6E
:1006A00059E1B1B796E5E3E453C63AE65199769637
:1006B000E8E6C28426EB898C9B62ED407C6FFCEF00
:1006C000BC9C9F40F2BAA56FA5F490055A2AF75C2E
:1006D000936B6CF9676DC11BFCE0E40D47FEF520E0
:1006E000E6B500D0ED902E030094357705008084A8
:1006F0001E080000204E0A000000C80C33333333BC
:100700000F986E12831141EF8D2114893BE6551627
:10071000CFFEE6DB18D1844B381BF77C1D901DA45F
:10072000BBE424203284725E228100C9F124ECA152
:10073000E53D274C4556454C494E4700434F4D4DEE
:10074000554E49434154494F4E0044525952554E1B
:10075000004552524F5253004543484F0047322FF5
:1007600047332062616420706172616D65746572E7
:10077000730A00536C6565702E2E2E00205A3A20A5
:100780000020593A200042656420583A20004D6507
:10079000736820706F696E74206F7574206F6620A7
:1007A00072616E67650A004D302053746F70004DA2
:1007B000312053746F7000436C69636B20746F2039
:1007C000526573756D652E2E2E004E6F204D6F761F
:1007D000652E00456E642066696C65206C697374D3
:1007E0000A00426567696E2066696C65206C6973F2
:1007F000740A004E6F206D656469610A005265736A
:10080000756D696E672053440070617573650050A3
:100810006175736520534400286E6F2066696C65AE
:10082000290043757272656E742066696C653A20A2
:10083000005344207072696E74696E672062797427
:100840006520004E6F74205344207072696E746985
:100850006E670A0044656C6574696F6E2066616935
:100860006C65642C2046696C653A200046696C65AD
:100870002064656C657465643A0025697920256992
:1008800064202569682025696D20256973005072F0
:10089000696E742074696D653A2000452025530007
:1008A00044454255473A004D3131332053004265AB
:1008B0006420436F6F6C696E672E2E2E0042656454
:1008C0002048656174696E672E2E2E005369646539
:1008D00077696E646572205831204F46462E002F8E
:1008E0002F20004D31343520533C696E6465783ECD
:1008F000206F7574206F662072616E6765202830E6
:100900002D31290A00416363656C65726174696FFA
:100910006E3A2050003F4A206F7574206F66207237
:10092000616E67652028302E303120746F20302EA4
:1009300033290A0020204D61783A200020204D699B
:100940006E3A2000536F667420656E6473746F7026
:10095000733A200046523A0020466C6F773A2000E6
:1009600020643A0020693A0020703A0064697300FC
:1009700043290A0061626C656420286D696E2074E9
:10098000656D702000436F6C6420657874727564C7
:10099000657320617265200046696C616D656E74D7
:1009A0002072756E6F75742064697374616E63650F
:1009B00020286D6D293A200046696C616D656E7462
:1009C0002072756E6F757420004D34323120696E5F
:1009D000636F727265637420706172616D657465B6
:1009E000722075736167650A004F6666736574737C
:1009F000204170706C696564004572723A20546FD2
:100A00006F206661722100546F6F206661722066EC
:100A1000726F6D207265666572656E636520706FBA
:100A2000696E740A00454550524F4D204F4B0A00E5
:100A30002028302D313029002076616C7565206FBB
:100A40007574206F662072616E676500416476611F
:100A50006E6365204B3D005072696E7420446F6E6A
:100A60006500446F6E65207072696E74696E6720F0
:100A700066696C650A004D3737004D333100580701
:100A8000801451074A073C073307446F6E652E0AEE
:100A9000003F496E76616C69642073746F726167A0
:100AA0006520736C6F742E0A3F5573652030207477
:100AB0006F20004732392050322066696E697368B2
:100AC00065642E0A005859206F7574736964652037
:100AD0007072696E7461626C6520726164697573AD
:100AE0002E0A003F4572726F7220696E2042757344
:100AF000696E6573732043617264206D65617375FF
:100B000072656D656E742E0A004D616E75616C6C58
:100B1000792070726F62696E6720756E72656163AD
:100B20006861626C6520706F696E74732E0A005084
:100B3000726F62696E672061726F756E6420280043
:100B40004D65736820696E76616C69646174656473
:100B50002E2050726F62696E67206D6573682E0A71
:100B6000004D657368207A65726F65642E0A0044D3
:100B7000656661756C742073746F7261676520734C
:100B80006C6F7420302073656C65637465642E0A25
:100B9000004C6F6164696E6720746573745F706187
:100BA000747465726E2076616C7565732E0A0A0026
:100BB000496E76616C696420746573745F706174EA
:100BC0007465726E2076616C75652E20282D31203B
:100BD000746F2032290A0A004C6F636174696F6E6A
:100BE0007320696E76616C6964617465642E0A0AAB
:100BF00000456E74697265204D65736820696E7674
:100C0000616C6964617465642E0A0A004D65616EE9
:100C1000204D657368204865696768743A20002331
:100C2000206F662073616D706C65733A20000A4D09
:100C3000657368206F6E6C79207061727469616C85
:100C40006C7920706F70756C617465642E0A0A008F
:100C500050726F62696E6720506F696E74000A503F
:100C6000726F62696E67206D65736820706F696E60
:100C700074200020616E642074616B652061206DBA
:100C80006561737572656D656E742E0A006D6D20F9
:100C9000746869636B2E0A00427573696E657373BD
:100CA0002043617264206973200052656D6F766520
:100CB0002026204D6561737572652042656400527F
:100CC000656D6F7665207368696D00506C61636552
:100CD000207368696D20756E646572206E6F7A7A14
:100CE0006C65004D65736820506F696E74204D65AA
:100CF0006173757265642061743A20000A4D6573F2
:100D000068206F6E6C79207061727469616C6C79A7
:100D100020706F70756C617465642E0A00506C6190
:100D20006365205368696D2026204D656173757277
:100D300065004D6F76696E6720746F206E657874FC
:100D4000004D6573682045646974696E672053744B
:100D50006F7070656400446F6E65204564697469E6
:100D60006E67204D6573680A00446F6E65204564A8
:100D70006974696E67204D6573680046696E652009
:100D800054756E696E67204D6573680028582C593C
:100D900029206F757473696465207072696E74615F
:100DA000626C65207261646975732E0A004F666615
:100DB000736574206F7574206F6620626F756E6442
:100DC000732E20283020746F2031306D6D290A0A6F
:100DD00000496E76616C6964206D61702074797071
:100DE000652E0A0A003F2846296164652068656906
:100DF00067687420666F7220426564204C65766572
:100E00006C20436F7272656374696F6E206E6F74CD
:100E100020706C61757369626C652E0A0A003F432D
:100E2000616E277420616374697661746520616EF8
:100E300064206465616374697661746520617420FF
:100E40007468652073616D652074696D652E0A0A8A
:100E500000426F7468205820262059206C6F63610F
:100E600074696F6E73206D75737420626520737082
:100E7000656369666965642E0A0A003F496E76619A
:100E80006C696420677269642073697A6520284AF6
:100E900029207370656369666965642028322D397D
:100EA000292E0A0A003F285029686173652076615F
:100EB0006C756520696E76616C69642028302D360A
:100EC000292E0A0A003F2856296572626F73652031
:100ED0006C6576656C20696D706C61757369626CA8
:100EE000652028302D34292E0A0A003F2852296512
:100EF0007065746974696F6E20636F756E742069B4
:100F00006E76616C69642028312B292E0A0A004410
:100F10006F696E6720473239002C2079315F693D57
:100F2000002C2078693D00206F7574206F66206268
:100F30006F756E647320696E207A5F636F7272657D
:100F40006374696F6E5F666F725F795F6F6E5F76F5
:100F50006572746963616C5F6D6573685F6C696EFF
:100F600065287279303D0078690079315F69002F1A
:100F70002F616374696F6E3A0073746172740062FA
:100F80006567696E00656E640070726F6D70745F86
:100F90000073686F770044697361626C6552756EA7
:100FA0006F75740050757267654D6F726500486F9C
:100FB00074656E6420746F6F20636F6C640A004701
:100FC00032362048656174696E67204E6F7A7A6C9C
:100FD00065004732362048656174696E6720426556
:100FE000640057616974696E6720666F7220686576
:100FF000617475702E0A004669786564204C656ED0
:10100000677468205072696D6500446F6E6520508A
:1010100072696D696E67004D616E75616C207072EA
:10102000696D696E672E2E2E004732362043616E41
:1010300063656C6564004C656176696E6720473254
:1010400036003F53706563696669656420582C59A2
:1010500020636F6F7264696E617465206F757420B0
:101060006F6620626F756E64732E0A003F285229E6
:1010700065706561742076616C7565206E6F742093
:10108000706C61757369626C653B206D757374205B
:101090006265206174206C6561737420312E0A00D2
:1010A0003F537065636966696564206E6F7A7A6C18
:1010B000652074656D7065726174757265206E6F00
:1010C0007420706C61757369626C652E0A003F5301
:1010D00070656369666965642066696C616D656EDB
:1010E000742073697A65206E6F7420706C617573FB
:1010F00069626C652E0A003F5370656369666965B5
:1011000064207072696D65206C656E677468206E0E
:101110006F7420706C61757369626C652E0A003F94
:10112000537065636966696564206E6F7A7A6C6571
:101130002073697A65206E6F7420706C61757369B5
:10114000626C652E0A003F52657472616374696F48
:101150006E204D756C7469706C696572206D757365
:1011600074206265207370656369666965642E0A20
:10117000003F5370656369666965642052657472E7
:10118000616374696F6E204D756C7469706C69650C
:1011900072206E6F7420706C61757369626C652E5D
:1011A0000A003F537065636966696564206C617904
:1011B000657220686569676874206E6F7420706C52
:1011C00061757369626C652E0A0043292E0A003F1F
:1011D000537065636966696564206265642074653F
:1011E0006D7065726174757265206E6F7420706CBD
:1011F00061757369626C65202834302D0047323682
:10120000207374617274696E672E2E2E0A006563F6
:10121000686F3A004572726F723A003F3F3F205943
:10122000696B65732120204E414E20696E206765F1
:10123000745F7A5F636F7272656374696F6E2800A2
:1012400029203D200020726177206765745F7A5FF6
:10125000636F7272656374696F6E2800203A202E86
:101260002E2E4E6F77204F4E0A00203A204C657686
:10127000656C696E67204F46460A00203A202E2E84
:101280002E4E6F77204F46460A00203A204C657656
:10129000656C696E67204F4E0A0020204D34323154
:1012A000204900202047323920493939390A006164
:1012B00063746976650A002053797374656D2076CE
:1012C000312E303120002020207C0A004E414E007B
:1012D00020202E20202000207C004C43443A0A008D
:1012E0004353563A0A0020666F7220003A0A0A00F9
:1012F0000A42656420546F706F677261706879206C
:101300005265706F72740020446973637265706116
:101310006E63793A00326E642050726F6265205AB3
:101320003A00534C4F57003173742050726F62650E
:10133000205A3A00464153540050726F62653A3A5F
:1013400072756E5F7A5F70726F62650050726F6265
:10135000696E67204661696C65640A0050726F624D
:10136000696E67204661696C656400506F736974CB
:10137000696F6E204E6F7420526561636861626CA4
:10138000650A005F72656C6174697665290A0050B0
:10139000726F62653A3A70726F62655F61745F7016
:1013A0006F696E740050726F746563746564205069
:1013B000696E0A005A5F6D6F76655F636F6D700AC4
:1013C000003E3E3E207365745F617869735F6E65B1
:1013D0007665725F686F6D656428003C3C3C2073E5
:1013E00065745F617869735F6E657665725F686F5B
:1013F0006D656428005072696E7465722073746F35
:10140000707065642064756520746F206572726FFA
:1014100072732E2046697820746865206572726F39
:101420007220616E6420757365204D3939392074DE
:101430006F20726573746172742E202854656D700C
:101440006572617475726520697320726573657465
:101450002E20536574206974206166746572207251
:10146000657374617274696E67290A00554E4B4E3C
:101470004F574E2053544154450047434F44455F16
:10148000494E464F004C43445F50415553455F52CF
:101490004553554D450046494C414D454E545F52CC
:1014A000554E4F55545F434F4E54494E5545004697
:1014B000494C414D454E545F52554E4F5554004D89
:1014C00038373620526573706F6E64696E672050CE
:1014D000524F4D50545F004572726F72207772699F
:1014E00074696E6720746F20454550524F4D210A34
:1014F0000053544F505045442E20004E6F204368F7
:1015000065636B73756D2077697468206C696E65AF
:10151000206E756D6265722C204C617374204C696D
:101520006E653A2000636865636B73756D206D6945
:10153000736D617463682C204C617374204C696E08
:10154000653A20004C696E65204E756D62657220AB
:101550006973206E6F74204C617374204C696E65E2
:10156000204E756D6265722B312C204C6173742096
:101570004C696E653A20004D313130005344207281
:10158000656164206572726F720A002121204B49E7
:101590004C4C20636175736564206279204B494C23
:1015A0004C20627574746F6E2F70696E0A00212171
:1015B000204B494C4C20636175736564206279202F
:1015C000746F6F206D75636820696E6163746976EE
:1015D000652074696D65202D2063757272656E7467
:1015E00020636F6D6D616E643A2000627573793AA5
:1015F0002070617573656420666F7220696E707506
:10160000740A00627573793A20706175736564209D
:10161000666F7220757365720A00627573793A207D
:1016200070726F63657373696E670A004D656469F4
:10163000612052656D6F766564004D656469612057
:10164000496E736572746564004D363030002066F3
:10165000696C616D656E745F72756E6F7574200074
:1016600066696C616D656E745F72756E6F757420FE
:10167000540046696C616D656E7452756E6F757459
:10168000205400506C656173652052657365740069
:101690005052494E5445522048414C54454400252F
:1016A000533A20255300706F7765726F6666004B62
:1016B000494C4C45442E20005072696E746572206E
:1016C00068616C7465642E206B696C6C28292063DA
:1016D000616C6C6564210A000000000001020404D2
:1016E0000000001C1C0C04040402010000000000A7
:1016F0000408100000000000456E636C6F73757283
:10170000650052756E6F75742044697374206D6D39
:10171000004C6F6164206D6D00556E6C6F616420CC
:101720006D6D0046696C2E204469612E004520696C
:101730006E206D6DC2B3004D3330332055312045DE
:101740002569205325690050726F62652059204F2A
:1017500066667365740050726F62652058204F662C
:101760006673657400452073746570732F6D6D002A
:101770005A2053746570732F6D6D00592053746532
:1017800070732F6D6D00582053746570732F6D6DDD
:1017900000496E6974004D3432380050726F6265D2
:1017A000204F666673657473004A756E6374696F63
:1017B0006E2044657600416363656C65726174698F
:1017C0006F6E0056656C6F636974790053657420A1
:1017D000486F6D65204F666673657473004E65785B
:1017E0007420506F696E74004E657874004732390A
:1017F00020503420523939392054004732380A47B2
:101800003239205031004D6F74696F6E00473238A5
:10181000004F6666205072696E7465722042616383
:101820006B75700047323920532D31004F7574703D
:10183000757420666F722043535600473239205426
:1018400031004F757470757420666F7220486F7325
:1018500074004732392054300045646974204D6566
:101860007368004D616E75616C6C79204275696CAE
:1018700064204D6573680047323920493939390A87
:10188000473239205032204220543000372E205326
:1018900061766520426564204D65736800362E20B0
:1018A00046696E652054756E6520416C6C00352E5E
:1018B0002056616C6964617465204D6573680034FD
:1018C0002E2046696E652054756E6520416C6C0053
:1018D000332E2056616C6964617465204D657368B0
:1018E00000322E20536D6172742046696C6C2D6934
:1018F0006E0047323920503320543000312E2042C0
:1019000075696C6420436F6C64204D657368004694
:1019100061646520486569676874004F7574707507
:10192000742055424C20496E666F0047323920576B
:101930000055424C20546F6F6C73004F7574707576
:1019400074204D657368204D6170004D657368208B
:1019500053746F72616765004D65736820456469F3
:101960007400537465702D42792D53746570205541
:10197000424C0041637469766174652055424C00A5
:10198000473239204100446561637469766174654A
:101990002055424C004732392044002568753A25CD
:1019A000303268750025303268753A2530326875F6
:1019B0000020202020202020002E2E2E2800486FDE
:1019C0006D696E67204661696C6564006F70656E55
:1019D000005452494747455245440066696C616D61
:1019E000656E74007A5F6D696E00795F6D696E0077
:1019F000785F6D696E005265706F7274696E6720F2
:101A0000656E6473746F70207374617475730A000B
:101A1000203A2073796E635F706C616E5F706F73D4
:101A20006974696F6E0A00646F5F626C6F636B69E3
:101A30006E675F6D6F76655F746F00486F6D6520D0
:101A4000257325732573204669727374005D002C1D
:101A50002000646F5F686F6D696E675F6D6F76659C
:101A60000050726F6265204F66667365742058007F
:101A70003F5A206F7574206F662072616E67652013
:101A800028003F59206F7574206F662072616E6761
:101A90006520282D003F58206F7574206F662072D6
:101AA000616E676520282D00656E717565756569C5
:101AB0006E672022006F6B00526573656E643A207A
:101AC0000023646566696E652044454641554C5463
:101AD0005F004B6420004B6920004B702000504990
:101AE00044204175746F74756E652066696E697304
:101AF000686564212050757420746865206C61737A
:101B000074204B702C204B6920616E64204B642044
:101B1000636F6E7374616E74732066726F6D206292
:101B2000656C6F7720696E746F20436F6E666967AE
:101B300075726174696F6E2E680A005049442041C5
:101B400075746F74756E65206661696C65642120BB
:101B500074696D656F75740A000A20436C61737354
:101B6000696320504944200A00204B643A20002039
:101B70004B693A2000204B703A20000A204E6F201B
:101B80006F76657273686F6F740A002054753A201F
:101B900000204B753A2000206D61783A2000206DBE
:101BA000696E3A200020643A200020626961733A2D
:101BB0002000504944204175746F74756E65207320
:101BC000746172740A00504944204175746F7475D1
:101BD0006E65206661696C6564212054656D706571
:101BE00072617475726520746F6F20686967680A26
:101BF00000504944204175746F74756E65005049FA
:101C000044204175746F74756E65206661696C65FA
:101C10006421204261642065787472756465722065
:101C20006E756D6265720A007C4D61726C696E7CC6
:101C3000002D2D2D2D2D2D00A10000006900A200EA
:101C400000006300B00000000900C1000000410076
:101C5000C20000004100C30000004100C4000000B9
:101C60004100C50000004100C60000004145C7001A
:101C700000004300C80000004500C9000000450006
:101C8000CD0000004900D10000004E00D50000004A
:101C90004F00D60000004F00D70000007800DC00A5
:101CA00000005500DD0000005900E0000000610068
:101CB000E10000006100E20000006100E3000000BC
:101CC0006100E40000006100E50000006100E60042
:101CD00000006165E70000006300E80000006500A7
:101CE000E90000006500EA0000006500EB0000006C
:101CF0006500EC0000006900ED0000006900EE00E6
:101D000000006900EF0000006900F10000006E00B3
:101D1000F20000006F00F30000006F00F40000000C
:101D20006F00F50000006F00F60000006F00F80083
:101D300000006F00F90000007500FA000000750057
:101D4000FB0000007500FC0000007500FD000000B5
:101D50007900FF0000007900040100004100050146
:101D6000000061000601000043000701000063005D
:101D70000C01000043000D01000063000E01000093
:101D800044000F010000640011010000640019010B
:101D9000000065001A01000045001B0100006500FD
:101DA0001F01000067003001000049003101000000
:101DB0006900410100004C00420100006C00430139
:101DC00000004E00440100006E00480100006E005B
:101DD0005801000052005901000072005A01000031
:101DE00053005B01000073005F010000730060019D
:101DF00000005300610100007300650100007400E1
:101E00006F01000075007C0100007A007D01000078
:101E10005A007E0100007A00920100006600E30291
:101E200000007800222000002E001E2100005078C3
:101E300022210000544D902100003C2D92210000F1
:101E40002D3EB02100000300BB21000004003C2215
:101E500000007E00482200007E3D60220000213DFF
:101E6000612200003D00642200003C3D652200002C
:101E70003E3DF12300000700A03000003D0021F3AB
:101E800001000200C2F401000500A2000000EC0005
:101E9000B0000000DF00E4000000E100F6000000F8
:101EA000EF00F7000000FD00FC000000F500E30279
:101EB0000000EB0087030000A5008F030000F40082
:101EC00098030000F2009E030000E300A30300005B
:101ED000F600A9030000F400AC030000E000AD032D
:101EE0000000E300B1030000E000B2030000E200E4
:101EF000B5030000E300B8030000F200BC030000DB
:101F0000E400BE030000E300C0030000F700C103CB
:101F10000000E600C3030000E500902100007F0000
:101F2000922100007E001A220000E8001E2200001C
:101F3000F30088250000FF0002300000A1000C30F3
:101F40000000A2000D300000A3009B300000DE0066
:101F50009C300000DF00A03000003D00A1300000F8
:101F6000A700A2300000B100A3300000A800A430F8
:101F70000000B200A5300000A900A6300000B300A8
:101F8000A7300000AA00A8300000B400A93000006B
:101F9000AB00AA300000B500AB300000B600AC309A
:101FA0000000B6DEAD300000B700AE300000B7DE96
:101FB000AF300000B800B0300000B8DEB130000033
:101FC000B900B2300000B9DEB3300000BA00B4305E
:101FD0000000BADEB5300000BB00B6300000BBDE4A
:101FE000B7300000BC00B8300000BCDEB9300000E3
:101FF000BD00BA300000BDDEBB300000BE00BC300A
:102000000000BEDEBD300000BF00BE300000BFDEFD
:10201000BF300000C000C0300000C0DEC130000092
:10202000C100C2300000C1DEC3300000AF00C430C8
:102030000000C200C5300000C2DEC6300000C30090
:10204000C7300000C3DEC8300000C400C930000043
:10205000C4DECA300000C500CB300000C600CC3062
:102060000000C700CD300000C800CE300000C9001D
:10207000CF300000CA00D0300000CADED1300000EE
:10208000CADFD2300000CB00D3300000CBDED4302A
:102090000000CBDFD5300000CC00D6300000CCDE15
:1020A000D7300000CCDFD8300000CD00D9300000A0
:1020B000CDDEDA300000CDDFDB300000CE00DC30DA
:1020C0000000CEDEDD300000CEDFDE300000CF00CD
:1020D000DF300000D000E0300000D100E13000002F
:1020E000D200E2300000D300E3300000AC00E43066
:1020F0000000D400E5300000AD00E6300000D5005F
:10210000E7300000AE00E8300000D600E930000003
:10211000D700EA300000D800EB300000D900EC30E6
:102120000000DA00ED300000DB00EF300000DC00E2
:10213000F2300000A600F3300000DD00F4300000B3
:10214000B3DEF7300000DCDEFA300000A6DEFB3044
:102150000000A500FC300000B000FD300000A4002D
:10216000074E0000FB0086510000FC0043530000B6
:10217000FA0064FF0000A40065FF0000A50066FFF0
:102180000000A60067FF0000A70068FF0000A8008D
:1021900069FF0000A9006AFF0000AA006BFF0000B1
:1021A000AB006CFF0000AC006DFF0000AD006EFFE7
:1021B0000000AE006FFF0000AF0070FF0000B00035
:1021C00071FF0000B10072FF0000B20073FF000059
:1021D000B30074FF0000B40075FF0000B50076FF87
:1021E0000000B60077FF0000B70078FF0000B800DD
:1021F00079FF0000B9007AFF0000BA007BFF000001
:10220000BB007CFF0000BC007DFF0000BD007EFF26
:102210000000BE007FFF0000BF0080FF0000C00084
:1022200081FF0000C10082FF0000C20083FF0000A8
:10223000C30084FF0000C40085FF0000C50086FFC6
:102240000000C60087FF0000C70088FF0000C8002C
:1022500089FF0000C9008AFF0000CA008BFF000050
:10226000CB008CFF0000CC008DFF0000CD008EFF66
:102270000000CE008FFF0000CF0090FF0000D000D4
:1022800091FF0000D10092FF0000D20093FF0000F8
:10229000D30094FF0000D40095FF0000D50096FF06
:1022A0000000D60097FF0000D70098FF0000D8007C
:1022B00099FF0000D9009AFF0000DA009BFF0000A0
:1022C000DB009CFF0000DC009DFF0000DD009EFFA6
:1022D0000000DE009FFF0000DF00E5FF00005C0063
:1022E000001C1F11111F00000006191803130C0019
:1022F000040E1F041C000000000E1315110E000038
:102300001C10181705060500040A0A0A0A11110E06
:102310000C12120C00000000001F1511151F000008
:102320000600000701000500070100070600000085
:10233000070005002F232A23252320230000803FA8
:10234000ABAA4A42ABAAC84200001643ABAA474315
:10235000565579430080954325532025692F2569DB
:10236000002020443D002020423D004C5346205296
:102370006573756C747320413D00726F746174698C
:102380006F6E206D61747269783A0A0061667465D7
:102390007220726F746174696F6E203D205B005D06
:1023A0002020202D2D2D3E20006265666F72652055
:1023B000726F746174696F6E203D205B005D0A006E
:1023C00062656420706C616E65206E6F726D616C09
:1023D000203D205B00436F756C64206E6F7420633A
:1023E0006F6D706C657465204C5346210020202071
:1023F00066696E616C203E3E3E2D2D2D3E200020F4
:102400002020636F7272656374696F6E3A200029D1
:102410002020206D656173757265643A2000292063
:1024200020206C6F676963616C3A20280054696CE6
:1024300074696E67206D65736820706F696E7420B3
:10244000003F4572726F722070726F62696E672012
:10245000706F696E742E2041626F7274696E6720AE
:102460006F7065726174696F6E2E0A002553203398
:102470002F330054696C74696E67206D6573682032
:1024800028332F33290A00255320322F3300546973
:102490006C74696E67206D6573682028322F33294C
:1024A0000A00436F727265637465645F5A3D00543D
:1024B000696C74696E6720506F696E7400255320D3
:1024C000312F330054696C74696E67206D657368D1
:1024D0002028312F33290A00646F6E650A00496E87
:1024E00073756666696369656E7420646174610AF8
:1024F000004578747261706F6C6174696E67206DED
:102500006573682E2E2E002C79693D002C78315F82
:10251000693D00206F7574206F6620626F756E6470
:102520007320696E207A5F636F7272656374696F7E
:102530006E5F666F725F785F6F6E5F686F72697AE9
:102540006F6E74616C5F6D6573685F6C696E652832
:102550007278303D0078315F6900796900414253FB
:1025600000504C4100496E666F2053637265656E82
:1025700000473239204A2569004C6576656C204D4C
:10258000657368005369646520506F696E747300E9
:1025900047726964204D657368204C6576656C6987
:1025A0006E6700332D506F696E74204C6576656CD4
:1025B000696E6700473239204A300047323920506F
:1025C00033205220432E2569004D616E75616C20C9
:1025D00046696C6C2D696E0046696C6C2D696E20C5
:1025E000416D6F756E74004D65736820696E76611C
:1025F0006C6964617465642E0A00496E76616C6969
:102600006461746520436C6F73657374004732397D
:10261000204900496E76616C696461746520416C83
:102620006C00436F6E74696E756520426564204D61
:102630006573680047323920503120430046696C89
:102640006C2D696E204D657368004275696C64205D
:10265000437573746F6D204D657368004732380A97
:102660004D3139302049310A4D3130392049310A54
:102670004732392050310A4D3130342053300A4D21
:10268000313430205330004275696C64204D6573DD
:102690006820282429004732380A4D313930204932
:1026A000300A4D3130392049300A47323920503113
:1026B0000A4D3130342053300A4D313430205330FC
:1026C0000047323920256325690A4D313137200012
:1026D0004D657368202569204C6F61646564004D09
:1026E000657368202569205361766564004C6F61CD
:1026F0006420426564204D657368004D656D6F729E
:102700007920536C6F74004E6F2053746F72616741
:1027100065004732392050342058257320592573DD
:102720002052256900202D2D2D2D2D00486F6D691B
:102730006E672058595A0061255D2550726F626599
:10274000205A204F666673657400416476616E633B
:1027500065642053657474696E677300436F6E74AB
:10276000696E756500554E4C4F41442046494C41B9
:102770004D454E540046494C414D454E542043482A
:10278000414E474500436F6E6669677572617469B3
:102790006F6E00526573746F726520446566617573
:1027A0006C7473004C6F61642053657474696E6758
:1027B000730053746F72652053657474696E677328
:1027C0000050726568656174202420436F6E660056
:1027D00052756E6F75742053656E736F72004D374E
:1027E000303220542564004D3630302042302054A1
:1027F0002564004D373032203B2564004D373031A1
:1028000020542564005075726765206D6F726500F5
:10281000524553554D45204F5054494F4E533A0061
:102820005052494E54205041555345440020204EAB
:102830006F7A7A6C653A20004368616E676520465E
:10284000696C616D656E74005072656865617420B5
:10285000437573746F6D004368616E6765204D65E5
:10286000646961004D3231004D3630302042300015
:10287000486F7374205374617274004E6F204D65FD
:1028800064696100526573756D65205072696E747C
:102890000054756E650053746F70205072696E74C9
:1028A000005061757365205072696E7400506172DA
:1028B0006B696E672E2E2E000000576169742066CA
:1028C0006F720066696C616D656E74206368616E1D
:1028D000676500746F207374617274005761697466
:1028E00020666F720066696C616D656E7420756E2E
:1028F0006C6F616400004E6F7A7A6C652068656168
:1029000074696E6700506C656173652077616974E6
:102910002E2E2E0000507265737320627574746FD2
:102920006E00746F2068656174206E6F7A7A6C65D2
:102930000000496E736572742066696C616D656E26
:102940007400616E642070726573732062757474B4
:102950006F6E00746F20636F6E74696E75650057DB
:1029600061697420666F720066696C616D656E7472
:10297000206C6F616400005072657373204275743F
:10298000746F6E00746F20726573756D6520707260
:10299000696E7400005761697420666F72207072EE
:1029A000696E7400746F20726573756D652E2E2EBE
:1029B00000005761697420666F720066696C616D12
:1029C000656E74207075726765000050494420413F
:1029D00075746F74756E65202A005049442D44202B
:1029E0002A005049442D49202A005049442D5020A6
:1029F0002A0020022046616374002002204D617885
:102A0000002002204D696E004175746F74656D7011
:102A1000005654726176204D696E00566D696E00E5
:102A2000566D6178204500566D6178205A00566DCC
:102A30006178205900566D6178205800416D6178A9
:102A4000204500416D6178205A00416D6178205920
:102A500000416D6178205800412D54726176656C9B
:102A600000412D5265747261637400416363656C4B
:102A700000496E76616C696420657874727564656E
:102A8000720A0020746F6F206C6F6E672065787417
:102A9000727573696F6E2070726576656E746564A9
:102AA0000A0020636F6C6420657874727573696FB7
:102AB0006E2070726576656E7465640A003C3C3CFD
:102AC00000220A00556E6B6E6F776E20636F6D6D1E
:102AD000616E643A20220020453A0020593A006590
:102AE0004953522072756E6E696E67206174203E84
:102AF0002031306B487A2E0A004D6F726520746861
:102B0000616E203220737465707320706572206569
:102B1000495352206C6F6F702065786563757465DA
:102B2000642E0A00416363656C65726174696F6E3F
:102B3000206C696D697465642E0A00DB0FC93F451E
:102B4000BCDA3F8FB30240FCF0274056946140FE50
:102B50004B9B4084A5D840E0231841346A5641E895
:102B600059974164DBD5416E271742B4B75542CE21
:102B70001A9742C8AED542B5885A43D40684BFA638
:102B80005FA7BF7443E0BF10B11AC01C2C58C0E847
:102B9000F697C0B849D6C04E4E17C124D355C18050
:102BA0002497C1A0B5D5C1121A17C244AE55C27838
:102BB0001797C26CACD5C267885AC35072656865F6
:102BC0006174202400416476616E6365204B004689
:102BD000616E205370656564004D61696E00436FDE
:102BE0006F6C646F776E00426162797374657020F8
:102BF0005A00466C6F77005A2056616C7565004725
:102C000032380A4D313930205325690A4D31303977
:102C1000205325690A47323920503100426564202B
:102C200054656D7000486F74656E642054656D70F6
:102C3000004732392050362043202D00486569670F
:102C4000687420416D6F756E740041646A757374A9
:102C5000204D657368204865696768740046696E31
:102C6000652054756E6520436C6F736573740047FF
:102C700032392050342054004732380A4732362047
:102C800043205020482569204225690056616C691F
:102C90006461746520437573746F6D204D6573684E
:102CA000004732380A47323620432050204931004D
:102CB00056616C6964617465204D657368202824D1
:102CC00029004732380A4732362043205020493005
:102CD0000024F4D43050C38E20C2A24017828B70DF
:102CE00011127A910D816CD90AA861E108C7586662
:102CF00007615143061E4B5D05C145A7041A4111EA
:102D000004093D9803713931034036DB0265339184
:102D100002D4305402802E1D02632CEE01752AC5A8
:102D200001B028A001102781018F2564012B244BBD
:102D300001E0223401AC211F018D200D01801FFC18
:102D400000841EED00971DDF00B81CD200E61BC6F4
:102D500000201BBC00641AB200B219A8000A19A016
:102D6000006A189900D117910040178B00B516849E
:102D70000031167E00B31579003A157300C7146F41
:102D80000058146A00EE1366008813630025135E72
:102D900000C7125B006C12570015125400C111518C
:102DA0000070114F0021114B00D61049008D1047C3
:102DB000004610440002104200C00F4000800F3E49
:102DC00000420F3C00060F3B00CB0E3800930E373D
:102DD000005C0E3500270E3400F30D3200C10D31BA
:102DE00000900D3000600D2E00320D2D00050D2CD1
:102DF00000D90C2B00AE0C2900850C29005C0C2797
:102E000000350C27000E0C2600E80B2400C40B2410
:102E100000A00B23007D0B23005A0B2100390B214E
:102E200000180B2000F80A1F00D90A1E00BB0A1E5A
:102E3000009D0A1D00800A1D00630A1C00470A1B32
:102E4000002C0A1B00110A1A00F7091A00DD0919E3
:102E500000C4091900AB091900920917007B091871
:102E600000630917004C09160036091600200916E0
:102E7000000A091500F5081500E0081400CC081434
:102E800000B8081400A4081400900813007D08126C
:102E9000006B08130058081200460812003408118D
:102EA00000230811001208110001081100F007109A
:102EB00000E0071000D0071000C0071000B0070F97
:102EC00000A107100091070E0083070F0074070F81
:102ED0000065070E0057070E0049070E003B070D5F
:102EE000002E070E0020070D0013070D0006070D2A
:102EF00000F9060C00ED060D00E0060C00D4060CEF
:102F000000C8060C00BC060C00B0060C00A4060BA2
:102F10000099060C008D060B0082060B0077060B4D
:102F2000006C060B0061060A0057060B004C060AEF
:102F30000042060A0038060A002E060A0024060A85
:102F4000001A060A001006090007060A00FD050916
:102F500000F4050900EB050900E2050900D905099F
:102F600000D0050900C7050900BE050900B5050820
:102F700000AD050800A50509009C0508009405089A
:102F8000008C050800840508007C0508007405080D
:102F9000006C050700650508005D0507005605087B
:102FA000004E0507004705070040050800380507E3
:102FB00000310507002A050700230507001C050648
:102FC00000160507000F05070008050600020507A3
:102FD00000FB040600F5040700EE040600E8040602
:102FE00000E2040700DB040600D5040600CF040657
:102FF00000C9040600C3040600BD040600B70406A9
:1030000000B1040500AC040600A6040600A00405F7
:10301000009B04060095040500900406008A040540
:103020000085040500800406007A04050075040587
:1030300000700405006B04050066040500610405CA
:10304000005C04050057040500520405004D04050A
:103050000048040500430405003E0404003A04054A
:103060000035040500300404002C04050027040486
:1030700000230405001E0404001A040400160405BD
:1030800000110404000D04040009040500040404F4
:103090000000040400FC030400F8030400F403042B
:1030A00000F0030400EC030400E8030400E403045C
:1030B00000E0030400DC030400D8030400D403048C
:1030C00000D0030400CC030400C8030300C50303BD
:1030D0000024F404D9201BC40C5C0E9804C4095FBE
:1030E0000265077101F405F900FB04B30048048789
:1030F00000C10369005803550003034500BE023AAE
:10310000008402310053022A002902250004022013
:1031100000E4011C00C8011900AF01170098011458
:103120000084011300710110006101100051010EB3
:103130000043010D0036010B002B010B0020010B99
:1031400000150109000C01090003010800FB00083B
:1031500000F3000800EB000700E4000600DE0006B4
:1031600000D8000600D2000600CC000500C700050C
:1031700000C2000500BD000400B9000400B5000451
:1031800000B1000400AD000400A9000400A5000384
:1031900000A20003009F0004009B000300980003AE
:1031A000009500020093000300900003008D0002D0
:1031B000008B0003008800020086000200840003E8
:1031C00000810002007F0002007D0002007B0002FF
:1031D000007900020077000100760002007400020E
:1031E0000072000100710002006F0002006D00011A
:1031F000006C0002006A0001006900020067000123
:103200000066000100650001006400020062000128
:103210000061000100600001005F0002005D00012C
:10322000005C0001005B0001005A00010059000130
:103230000058000100570001005600010055000130
:10324000005400010053000000530001005200012F
:103250000051000100500001004F0001004E00002D
:10326000004E0001004D0001004C0001004B000029
:10327000004B0001004A0001004900010048000025
:103280000048000100470001004600000046000120
:10329000004500000045000100440001004300001B
:1032A0000043000100420000004200010041000014
:1032B0000041000100400001003F0000003F00010C
:1032C000003E0000003E0001003D0000003D000106
:1032D000003C0000003C0000003C0001003B0000FE
:1032E000003B0001003A0000003A000100390000F4
:1032F00000390001003800000038000000380001EB
:1033000000370000003700010036000000360000E2
:1033100000360001003500000035000000350001D6
:1033200000340000003400000034000100330000CD
:1033300000330000003300010032000000320000C2
:1033400000320001003100000031000000310001B6
:10335000003000000030000000300001002F0000AD
:10336000002F0000002F0000002F0001002E0000A1
:10337000002E0000002E0001002D0000002D000096
:10338000002D0000002D0001002C0000002C00008A
:10339000002C0000002C0001002B0000002B00007E
:1033A000002B0000002B0001002A0000002A000072
:1033B000002A0000002A0001002900000029000066
:1033C0000029000000290000002900010028000059
:1033D000002800000028000000280000002800014C
:1033E0000027000000270000002700000027000041
:1033F0000027000100260000002600000026000033
:103400000026000000260001002500000025000025
:103410000025000000250000002500000025000117
:10342000002400000024000000240000002400000C
:1034300000240001002300000023000000230000FE
:1034400000230000002300000023000000230001EF
:1034500000220000002200000022000000220000E4
:1034600000220000002200010021000000210000D5
:1034700000210000002100000021000000210000C8
:1034800000210001002000000020000000200000BA
:1034900000200000002000000020000000200000AC
:1034A00000200001001F0000001F0000001F00009E
:1034B000001F0000001F0000001F0000001F00018F
:1034C000001E0000001E0000001E0000001E000084
:1034D00000232C0000B8220000561800003A0F000C
:1034E00000B8080000B1040000710200003E0100B5
:1034F000004D313036205000453100626564002CAB
:103500002073797374656D2073746F7070656421B6
:10351000204865617465725F49443A2000486561DE
:1035200074696E67204661696C6564004865617402
:10353000696E67206661696C6564004D31313220C7
:1035400053687574646F776E00202D20496E766124
:103550006C6964206578747275646572206E756D2F
:1035600062657220210A00544845524D414C205258
:10357000554E4157415900546865726D616C205237
:10358000756E61776179004572723A204D415854E9
:10359000454D50004D415854454D50207472696757
:1035A0006765726564004572723A204D494E544514
:1035B0004D50004D494E54454D5020747269676717
:1035C0006572656400202F002042403A0020403A96
:1035D0000000202063757272656E745F706F73698E
:1035E00074696F6E3D0050726F62653A3A646F5F46
:1035F0007A5F726169736528006465706C6F793AEF
:103600002000203A2050726F62653A3A7365745F09
:103610006465706C6F7965640A00206D61783A00AA
:10362000206D696E3A0041786973200053657474A7
:10363000696E67732053746F7265640020627974D9
:1036400065733B20637263200053657474696E6711
:10365000732053746F7265642028004E6F204545B7
:1036600050524F4D2E0A00454550524F4D20646137
:10367000746173697A65206572726F722E0A003FF9
:103680004D65736820746F6F2062696720666F7282
:1036900020454550524F4D2E0A0055424C20726530
:1036A0007365740A00206C6F616465642066726FD4
:1036B0006D2073746F726167652E0A004D657368C3
:1036C00020003F43616E277420656E61626C652047
:1036D0000020696E697469616C697A65642E0A0AF2
:1036E000002073746F7265642073657474696E670B
:1036F00073207265747269657665642028002028DD
:1037000063616C63756C6174656429210A00202112
:103710003D2000454550524F4D20435243206D6996
:10372000736D61746368202D202873746F726564F3
:10373000292000496E6465783A2000444947495081
:103740004F5453204C6F616465640A0044494749F3
:10375000504F5453204C6F6164696E670A00204DCE
:1037600061726C696E3D563832290A0045455052E7
:103770004F4D2076657273696F6E206D69736D6150
:103780007463682028454550524F4D3D0000009617
:1037900043000096430000C8430000000000000002
:1037A000000000000043616E63656C004F666600B8
:1037B0004F6E004D38340054656D706572617475DC
:1037C0007265005374617274205072696E740043A4
:1037D000616E6E6F7420656E7465722073756264BD
:1037E00069723A2000052E2E00486F74656E6420C1
:1037F000746F6F20636F6C640050726F63656564F3
:1038000000536F667420456E6473746F7073004468
:10381000697361626C6520537465707065727300C2
:103820004D34382050726F626520546573740047C0
:103830003238204F0A4D343820503130004C6576F4
:10384000656C20436F726E657273004175746F20F2
:10385000486F6D650050726568656174202420456D
:103860006E6400507265686561742024204265644E
:103870000020573A007C3C3E5E2B3D3F2F5B5D3B7A
:103880002C2A225C0070012C0190012701B001223A
:1038900001C0011D01F00118011002130130020ED8
:1038A000016002090190020401C002FF000003FA56
:1038B000004003F5008003F000D003EB002004E695
:1038C000007004E100E004DC004005D700C005D230
:1038D000004006CD00D006C8008007C3003008BEF7
:1038E00000F008B900C009B400B00AAF00B00BAADC
:1038F00000D00CA500000EA000500F9B00C0109639
:10390000005012910000148C00C0158700B017827F
:1039100000B0197D00D01B7800001E730040206E9F
:103920000090226900F024640040275F0090295A2B
:1039300000E02B5500102E500020304B0010324676
:1039400000E033410090353C0010373700703832CA
:1039500000A0392D00B03A2800A03B2300603C1E97
:1039600000103D1900903D1400103E0F00703E0AFB
:1039700000C03E0500003F0000403FFBFF803FF6D7
:10398000FFC03FF1FF68747470733A2F2F6D61723E
:103990006C696E66772E6F72670020322E302E377C
:1039A0002E32002020506C616E6E65724275666624
:1039B000657242797465733A20002046726565200D
:1039C0004D656D6F72793A2000436F6D70696C655B
:1039D000643A204F637420323720323032300A008C
:1039E000204C61737420557064617465643A2032B0
:1039F0003032302D31302D3135207C2041757468C6
:103A00006F723A20286D6F6F70686C6F2C2053694D
:103A1000646577696E646572205831290A00322E18
:103A2000302E372E320A004D61726C696E002053C1
:103A30006F6674776172652052657365740A002041
:103A40005761746368646F672052657365740A0018
:103A50002042726F776E206F7574205265736574A3
:103A60000A002045787465726E616C20526573653A
:103A7000740A00506F77657255700A006175746F33
:103A800025632E67004732385859004D31303031A8
:103A9000006572726F722077726974696E67207444
:103AA0006F2066696C650A00446F6E6520736176ED
:103AB000696E672066696C652E0A004D32390025F3
:103AC0005320256320256320256320256300656E30
:103AD0006473746F7073206869743A20003F4545C1
:103AE00050524F4D2073746F72616765206E6F7412
:103AF00020617661696C61626C652E0A00466164C2
:103B000065204865696768742000426564204C65DB
:103B100076656C696E6720004661696C6564207427
:103B20006F20656E61626C6520426564204C65762D
:103B3000656C696E670A00496E76616C6964206D18
:103B40006573682E0A0076616C69640A53746F723B
:103B500061676520736C6F743A20004D657368204F
:103B6000697320003F496E76616C69642073746FDD
:103B70007261676520736C6F742E0A003E3E3E00D2
:103B8000202864697361626C6564290A0055424C9F
:103B90002041646A7573746D656E74205A005A20F2
:103BA000466164653A20002028656E61626C656438
:103BB000290A0041626F76650053616D65205A20C5
:103BC00061730042656C6F77004175746F204265C8
:103BD00064204C6576656C696E673A2055424C00EE
:103BE000204E6F7A7A6C65290A00202620002D432A
:103BF000656E746572002D46726F6E74002D4261A1
:103C0000636B002028416C69676E65642057697496
:103C1000680020284D6964646C650020284C656646
:103C20007400202852696768740050726F62653AA8
:103C3000204649585F4D4F554E5445445F50524FB2
:103C400042450A004D616368696E6520547970656C
:103C50003A2043617274657369616E0A005A20509C
:103C6000726F62652050617374204265640A005A65
:103C70002050726F62652050617374204265640049
:103C8000203A20686F6D655F7A5F736166656C7955
:103C90000A00202064657374696E6174696F6E3DFB
:103CA00000686F6D655F7A5F736166656C7900525D
:103CB00061697365205A20286265666F72652068A5
:103CC0006F6D696E672920627920003E20686F6DF4
:103CD000696E67206E6F74206E65656465642C2064
:103CE000736B69700A00446576696174696F6E0070
:103CF00025533A2025730046696E6973686564210F
:103D00000A003A207A3A2000206F662000476F6947
:103D10006E6720746F3A20580043570A0020646988
:103D2000723A0020616E676C653A00537461727478
:103D3000207261646975733A004D343820506F69A0
:103D40006E740025533A2025642F256400506F734C
:103D50006974696F6E696E67207468652070726F30
:103D600062652E2E2E0A003F4C656773206F662019
:103D70006D6F76656D656E7420696D706C617573BD
:103D800069626C652028302D3135292E0A003F20CC
:103D900028582C5929206F7574206F6620626F7522
:103DA0006E64732E0A0050726F6265206F75742006
:103DB0006F6620626F756E6473003F53616D706C47
:103DC000652073697A65206E6F7420706C617573FD
:103DD00069626C652028342D3530292E0A004D3457
:103DE00038205A2D50726F6265205265706561747B
:103DF0006162696C69747920546573740A003F28A4
:103E000056296572626F7365206C6576656C2069F2
:103E10006D706C61757369626C652028302D342972
:103E20002E0A0020706F736974696F6E5F73686922
:103E30006674203D200020686F6D655F6F66667355
:103E40006574203D20003C3C3C207365745F6178C4
:103E500069735F69735F61745F686F6D65280020C7
:103E60003A200A005D203D20003E20686F6D655FAE
:103E70006F66667365745B002A2A2A205A20484FB1
:103E80004D454420574954482050524F4245202820
:103E90005A5F4D494E5F50524F42455F555345530F
:103EA0005F5A5F4D494E5F454E4453544F505F50EB
:103EB000494E29202A2A2A0A3E2070726F62652EF6
:103EC0006F66667365742E7A203D20003E3E3E206C
:103ED0007365745F617869735F69735F61745F684C
:103EE0006F6D6528005761726E696E673A20486F82
:103EF0006D696E672042756D702044697669736FD5
:103F000072203C20310A003C3C3C20686F6D6561AA
:103F10007869732800203A203E20414654455220BB
:103F20007365745F617869735F69735F61745F68FB
:103F30006F6D650A00486F6D65203220536C6F7796
:103F40003A0A004D6F766520417761793A0A004858
:103F50006F6D65203120466173743A0A003E3E3E23
:103F600020686F6D656178697328000000A04200C9
:103F700000A0420000A0410202040000A040000096
:103F8000A04000000040FFFFFF0000000100000013
:103F900001000080005555550000004000333333C8
:103FA00000AAAA2A004992240000002000C7711C20
:103FB0000099991900D1451700555515003BB113CB
:103FC000002449120011111100000010000F0F0F02
:103FD00000E3380E0043790D00CCCC0C00C3300C4C
:103FE00000E8A20B0064210B00AAAA0A00703D0A97
:103FF000009DD80900427B090092240900DCD30807
:1040000000888808001042080000000800F0C1077E
:10401000008787070075500700711C07003EEB06FC
:1040200000A1BC06006990060066660600703E06A8
:10403000006118060017F4050074D105005BB00597
:1040400000B29005006272050055550500783905EB
:1040500000B81E0500050505004EEC040087D404D9
:1040600000A1BD040090A7040049920400C17D0492
:1040700000EE690400C7560400444404005C3204A6
:10408000000821040041100400000004003FF00378
:1040900000F8E0030026D20300C3C30300CCB5033D
:1040A000003AA803000A9B0300388E0300C0810376
:1040B000009F750300D0690300505E03001D530389
:1040C0000034480300913D030033330300162903F5
:1040D00000381F030097150300300C03000303038F
:1040E000000BFA020049F10200BAE802005CE002AB
:1040F000002DD802002DD0020059C80200B0C00225
:104100000031B90200DAB10200AAAA0200A0A3029B
:1041100000BC9C0200FA9502005C8F0200DF88025E
:104120000082820200457C0200277602002770028E
:1041300000436A02007C640200D05E02003F590224
:1041400000C8530200FFFDFCFAF8F6F4F2F0EEECC2
:10415000EAE9E7E5E3E1E0DEDCDAD9D7D5D4D2D08D
:10416000CFCDCBCAC8C7C5C3C2C0BFBDBCBAB9B723
:10417000B6B4B3B2B0AFADACAAA9A8A6A5A4A2A18B
:10418000A09E9D9C9A99989795949392908F8E8DCE
:104190008B8A8988878684838281807F7E7D7B7AF3
:1041A000797877767574737271706F6E6D6C6B6AF7
:1041B000696867666564636261605F5E5D5C5B5AE7
:1041C0005958585756555453525150504F4E4D4CC4
:1041D0004B4A4A4948474646454443424241403F8C
:1041E0003E3E3D3C3B3B3A39383837363535343343
:1041F00032323130302F2E2E2D2C2B2B2A292928EC
:10420000272726252524232322212120201F1E1E87
:104210001D1C1C1B1B1A1919181817161615151416
:10422000131312121111100F0F0E0E0D0D0C0C0B9B
:104230000A0A090908080707060605050404030316
:1042400002020100005072696E742050617573653E
:104250006400526573756D65003F00496E6974694D
:10426000616C697A6520454550524F4D006E6F7400
:10427000696669636174696F6E200053696465776C
:10428000696E6465722058312052656164792E0030
:104290005072696E74696E672E2E2E0063616E63B4
:1042A000656C005072696E742041626F727465644F
:1042B000004469736D6973730055492041626F72E0
:1042C000746564004D323500554920506175736541
:1042D0000050617573696E672E2E2E0072657375BE
:1042E0006D6500454550524F4D2056657273696F9C
:1042F0006E204572726F7200454550524F4D2049F5
:104300006E646578204572726F7200454550524F59
:104310004D20435243204572726F720049676E6FA1
:104320007265005374616E646172642044657669DD
:104330006174696F6E3A20002052616E67653A20A1
:1043400000205369676D613A20004D65616E3A2027
:10435000003F284229617564207261746520696D8F
:10436000706C61757369626C652E0A0020626175FC
:104370006420726174652073657420746F2000205E
:1043800053657269616C2000204D393220580070ED
:1043900061757365640052656865617420446F6E71
:1043A0006500526568656174696E672E2E2E005235
:1043B0006568656174004865617465722054696D53
:1043C000656F75740053656E64204D31303820740C
:1043D0006F2068656174206E6F7A7A6C650A004E92
:1043E0006F7A7A6C65205061726B656400627574D7
:1043F000746F6E004C6F61642046696C616D656E10
:1044000074205400496E736572742066696C616D26
:10441000656E7420616E642073656E64204D31306A
:10442000380A00726573756D656400526573756D49
:10443000696E670020496E76616C696420657874E6
:10444000727564657220005072696E742066726FB6
:104450006D204D65646961004D6F76652025736D33
:104460006D004D6F766520302E316D6D004D6F768D
:104470006520316D6D004D6F76652031306D6D00BA
:104480004D6F766520417869730045787472756464
:104490006572004D6F7665205A004D6F7665205924
:1044A000004D6F766520580050726F62653A3A7021
:1044B000726F62655F646F776E5F746F5F7A002002
:1044C000547269676765726564206561726C792EE4
:1044D00000204E6F20747269676765722E0020504D
:1044E000726F6265206661696C21202D0000000AF0
:1044F0000B02090C0D0E0807030401000000000068
:1045000000000000000000000000000000000000AB
:104510000000000000000000001211100000000068
:10452000000000000000000000000000000000008B
:104530000000002053697A653A200043616E6E6F77
:1045400074206F70656E2073756264697220005309
:104550004420496E6974204661696C0053442063AD
:10456000617264206F6B0A006F70656E526F6F74BA
:10457000206661696C65640A00766F6C756D652EE6
:10458000696E6974206661696C65640A004E6F200B
:10459000534420636172640A004D3234004D32335B
:1045A000202573006F70656E206661696C65642CF0
:1045B0002046696C653A200046696C652073656C1D
:1045C00065637465640A0046696C65206F70656E8A
:1045D00065643A2000454E4420535542524F55548D
:1045E000494E450A002220706F73002220706172CC
:1045F000656E743A2200535542524F5554494E4508
:104600002043414C4C207461726765743A22005318
:10461000756263616C6C204F766572666C6F7700B3
:104620004578636565646564206D61782053554203
:10463000524F5554494E452064657074683A310AAA
:104640000057726974696E6720746F2066696C65C3
:104650003A2000667265736800646F696E67004E89
:104660006F772000204A002052004D657368207348
:104670006176656420696E20736C6F7420003F550D
:104680006E61626C6520746F2073617665206D6564
:10469000736820646174612E0A0020736C6F743D2E
:1046A00000206D65736865735F656E643D0045321B
:1046B000454E443D00206D65736820736C6F7473C4
:1046C00020617661696C61626C652E0A003F496EFB
:1046D00076616C696420736C6F742E0A004D65738B
:1046E00068206C6F616465642066726F6D20736C06
:1046F0006F7420003F556E61626C6520746F206C92
:104700006F6164206D65736820646174612E0A00B6
:1047100072657365745F6265645F6C6576656C0A6B
:104720000048617264636F64656420446566617506
:104730006C742053657474696E6773204C6F616488
:1047400065640A00556E6966696564204265642087
:104750004C6576656C696E67003B200020204D3605
:104760003033200020204D34313220530046696C14
:10477000616D656E742072756E6F75742073656EF1
:10478000736F723A0020550046696C616D656E74F6
:10479000206C6F61642F756E6C6F6164206C656E48
:1047A000677468733A0020204D393030204B004C3C
:1047B000696E65617220416476616E63653A0020BE
:1047C000204D3835312058005A2D50726F626520C7
:1047D0004F66667365740020204D333034205000DE
:1047E00020204D33303120500050494420736574EF
:1047F00074696E67733A0020460020480020204DFF
:104800003134352053004D6174657269616C2068E4
:10481000656174757020706172616D657465727325
:104820003A00206D65736865732E0A0A004545508D
:10483000524F4D2063616E20686F6C6420004163AD
:1048400074697665204D65736820536C6F743A20E7
:104850000020204D34323020530020204D3230369D
:10486000205800486F6D65206F66667365743A0066
:1048700020204D323035204200416476616E636500
:10488000643A20423C6D696E5F7365676D656E7456
:104890005F74696D655F75733E20533C6D696E5F33
:1048A00066656564726174653E20543C6D696E5F37
:1048B00074726176656C5F66656564726174653E8D
:1048C000204A3C6A756E635F6465763E0020204D29
:1048D000323034205000416363656C6572617469E5
:1048E0006F6E2028756E6974732F7332293A2050C9
:1048F0003C7072696E745F616363656C3E20523C0C
:10490000726574726163745F616363656C3E2054A9
:104910003C74726176656C5F616363656C3E002018
:10492000204D3230312058004D6178696D756D2011
:10493000416363656C65726174696F6E2028756E82
:104940006974732F7332293A0020204D323033209E
:1049500058004D6178696D756D206665656472619A
:104960007465732028756E6974732F73293A005328
:10497000746570732070657220756E69743A0020DA
:10498000204D3230302053002044697361626C65E1
:10499000640A0046696C616D656E74207365747499
:1049A000696E67733A0020204D3134392043203B33
:1049B00020556E69747320696E2043656C73697548
:1049C000730A0020286D6D290020204732312020F5
:1049D00020203B20556E69747320696E206D6D0038
:1049E0000000164300001643000048420000204229
:1049F000AEC7A042CDCCA042A4B0C7430080E143E3
:104A0000D0070000D007000064000000102700005D
:104A100000002200250028002B002E003100340069
:104A200002010000050108010B0100002100240023
:104A300027002A002D00300033000101000004018E
:104A400007010A010505050507050808080802020F
:104A500002020A0A08080404040401010101010118
:104A600001010303030303030303040707070C0CFB
:104A70000C0C0C0C0C0C02020202060606060606C2
:104A800006060B0B0B0B0B0B0B0B01021020200867
:104A90000810204010204080020102010804020199
:104AA0000102040810204080804020100804020108
:104AB0008004020180402010080402010804020161
:104AC00001020408102040800102040810204080E8
:104AD0004361703A007D007D7D2C776F726B3A7B6D
:104AE0006D696E3A7B783A007D2C6D61783A7B78FF
:104AF0003A002C7A3A002C793A00617265613A7B6F
:104B000066756C6C3A7B6D696E3A7B783A00434807
:104B1000414D4245525F54454D50455241545552C6
:104B20004500424142595354455050494E47004177
:104B3000524353004D4F54494F4E5F4D4F444553E0
:104B400000544845524D414C5F50524F54454354D8
:104B5000494F4E004C4F4E475F46494C454E414DE4
:104B600045004155544F5245504F52545F53445F96
:104B700053544154555300534443415244005052FE
:104B80004F4D50545F535550504F525400454D4572
:104B90005247454E43595F5041525345520043419D
:104BA00053455F4C494748545F4252494748544E29
:104BB00045535300544F47474C455F4C4947485471
:104BC0005300534F4654574152455F504F5745523B
:104BD000004255494C445F50455243454E54004CA9
:104BE0004556454C494E475F44415441005A5F5039
:104BF000524F4245004155544F4C4556454C00508C
:104C000052494E545F4A4F420050524F475245530B
:104C100053004155544F5245504F52545F54454DE7
:104C20005000564F4C554D45545249430042494E51
:104C30004152595F46494C455F5452414E53464597
:104C4000520053455249414C5F584F4E5F584F46B2
:104C500046004649524D574152455F4E414D453AF7
:104C60004D61726C696E20322E302E372E32202824
:104C70004F637420323720323032302031383A34AA
:104C8000353A34342920534F555243455F434F44FE
:104C9000455F55524C3A68747470733A2F2F6769A8
:104CA000746875622E636F6D2F4D61726C696E460C
:104CB00069726D776172652F4D61726C696E2050FB
:104CC000524F544F434F4C5F56455253494F4E3A03
:104CD000312E30204D414348494E455F545950458F
:104CE0003A5369646577696E64657220583120456E
:104CF000585452554445525F434F554E543A312013
:104D0000555549443A38356534393866302D63365F
:104D100063332D343864352D396633362D65383894
:104D20003332326439306362310A0020436F756E6A
:104D30007420583A00002B01B70111241FBECFEF99
:104D4000D1E2DEBFCDBF00E00CBF13E0A0E0B2E0D7
:104D5000ECE8FAE403E00BBF02C007900D92A8361E
:104D6000B107D9F726E1A8E6B3E001C01D92A2334E
:104D7000B207E1F716E2CCE9D6E200E006C02197DF
:104D80000109802FFE010F9439A0CB39D10780E0B3
:104D90000807A9F70F94DA880D9434A50C94000045
:104DA0002F923F924F925F926F927F928F929F923B
:104DB000AF92BF92CF92DF92EF92FF920F931F9329
:104DC000CF93DF93CDB7DEB7E5970FB6F894DEBF8C
:104DD0000FBECDBF8DAB209175032CAB21E020938E
:104DE000750380916E058D3409F40AC3843511F47E
:104DF0000C94A138873411F00C94D03880916C0554
:104E000090916D058B31910509F420C1B4F4843083
:104E1000910534F482309105DCF597FF2DC0ECC28A
:104E20008531910511F40C94D2388A31910509F439
:104E300009C1049709F0E0C2C6C08A32910509F49D
:104E400029C254F48D31910509F41FC10CF419C124
:104E50004E9709F41EC1D0C28B35910509F497C154
:104E60008C35910509F498C18A35910509F0C4C2C1
:104E7000109274030C94D2388091500F813011F04D
:104E80000C94D2380F9417690E9413A70C94D2384F
:104E90002091500F213011F00C94D23811E002977C
:104EA00009F010E00F94176919821A821B821C8284
:104EB0001D821E821F82188682E50E94F268882366
:104EC00009F44BC00E946B686B017C0120E030E06C
:104ED000A9010F943E99882309F455C080919E053D
:104EE00090919F05A091A005B091A10588A799A7D1
:104EF000AAA7BBA78091A2059091A305A091A405A4
:104F0000B091A50588AB99ABAAABBBAB8090141050
:104F100090901510A0901610B09017104090181097
:104F20005090191060901A1070901B10A5019401F8
:104F300068A579A58AA59BA50F943E9981110C942B
:104F4000DB38A301920168A979A98AA99BA90F94CA
:104F50003E998823C1F00C94DB3889E40E94F26802
:104F6000882331F00E946B6869837A838B839C83EA
:104F70008AE40E94F268882331F00E946B686D8396
:104F80007E838F83988720E030E0A90169817A8150
:104F90008B819C810F943E9981110C948F3920E074
:104FA00030E0A9016D817E818F8198850F943E99B3
:104FB00081110C948F390E94A0728DE597E00E94B8
:104FC000866C0C94D23880E50E94F268882329F020
:104FD0000F946C676B017C0103C0C12CD12C76014E
:104FE00083E50E94F268882361F00E946B6820E0EC
:104FF00030E04AE754E40F94A4990F94C7A16B01E1
:105000007C010F94005480916E0F811105C060E007
:1050100083E797E00F94AD620F94C871C60ED71E58
:10502000E81EF91E0F94C871DC01CB018C199D0993
:10503000AE09BF09B7FD02C00C94D23880E00E94CF
:105040006278F0CF0E94885C0C94D23887E00E948E
:105050002CA281110C94D2388CE0E3E8F2E0DE015E
:10506000119601900D928A95E1F760E070E080E57D
:105070000F941E67BE016F5F7F4F0F945E5F0C94AD
:10508000D2380F948A480C94D2380E94934E0C94D4
:10509000D238209125103091261040912710509140
:1050A000281060919E0570919F058091A0059091B8
:1050B000A1050F9454A0AB01BC0188E50E94BEB5C8
:1050C00069837A838B839C832091291030912A10E5
:1050D00040912B1050912C106091A2057091A30566
:1050E0008091A4059091A5050F9454A0AB01BC013B
:1050F00089E50E94BEB56D837E838F839887BE014C
:105100006B5F7F4FCE0101960E94A969882311F43D
:105110000C94D23880E00E9429710E943CA361E087
:1051200085E40E94C158182F01E021E041E0682F7A
:10513000CE0101960E9408736B017C019B01AC01BA
:105140000F94A1A3811119C049815A816B817C817F
:1051500086E897E00E94DD6E4D815E816F817885E3
:1051600081E897E00E94DD6EB701A6018CE797E029
:105170000E94DD6E8AE00E941F770E9423A31130F7
:1051800011F40E948D690E943FA40C94D2388FE0E4
:10519000809374030C94D23818ED212E12E0312E36
:1051A00004E5E02E0FE0F02EAEE9B5E0B9A7A8A720
:1051B00082E9C82E85E0D82E00E010E0F10181914F
:1051C0001F010E94F268882309F44AC00E946B689C
:1051D0002B013C01133049F0D6012D913D914D91A9
:1051E0005C910F9453A02B013C01E8A5F9A5208107
:1051F000318142815381C301B2010F9453A04B010D
:105200005C012DEB37E346E855EB0F94B4A287FD24
:105210000AC02DEB37E346E855E3C501B4010F940E
:105220003E991816ECF4133051F44092AA055092AE
:10523000AB056092AC057092AD0501E011C0A5010F
:105240009401D7016D917D918D919C910F9454A003
:10525000F7016083718382839383812F0F94A75911
:105260001F5FF4E0EF0EF11C28A539A52C5F3F4F1E
:1052700039A728A734E0C30ED11C143009F09ECF03
:10528000002321F08AEA95E00F94AF570E943FA4D3
:105290000C94D2388091500F813011F00C94D23898
:1052A00089E40E94F268082F882321F00E94676831
:1052B000E82E01C0E12C8AE40E94F268182F8823AE
:1052C00021F00E946768F82E01C0F12C002319F02C
:1052D00086E08E1528F0112349F096E09F1530F4F2
:1052E0008EE897E00E94866C0C94D23880E1EEE95B
:1052F000F5E0A4E1B0E101900D928A95E1F7002379
:1053000059F08E2D0E94046B609314107093151049
:105310008093161090931710112359F08F2D0E942F
:10532000046B609318107093191080931A10909367
:105330001B1060E080E50E94C1588823C1F1002362
:10534000D1F02091251030912610409127105091D6
:105350002810609114107091151080911610909182
:1053600017100F9453A0609314107093151080932E
:105370001610909317101123D1F02091291030911D
:105380002A1040912B1050912C10609118107091A0
:10539000191080911A1090911B100F9453A06093D4
:1053A00018107093191080931A1090931B1040E0FE
:1053B00050E0BA0186E40E94BEB56B017C0120E09A
:1053C00030E0A9010F94B4A218164CF420E030E0AC
:1053D00040E752E4C701B6010F944EA103C060E05C
:1053E00070E0CB0169837A838B839C83CE01019625
:1053F0000E94B9AF0C94D2380F94EB040C94D238BD
:1054000080916C0590916D058937910509F49CC7D1
:105410000CF0DCC08135910509F42FC60CF06BC08F
:105420008A31910509F4D2C2A4F58431910509F4B9
:1054300050C27CF48131910509F437C22CF40297F3
:1054400008F4E8C10C949E38429709F43BC60C94CA
:105450009E388731910509F471C294F48531910524
:1054600009F468C2469711F00C949E380F94747535
:105470008091C415877F80628093C4150C94D238C4
:105480008831910509F46FC2499709F485C20C94DB
:105490009E388F31910509F4ADC37CF48C319105B0
:1054A00009F4F5C20CF4A0C28D31910509F4F7C2DC
:1054B0004E9709F4FBC20C949E388B34910509F485
:1054C00044C464F48032910509F451C3C09711F0CB
:1054D0000C949E380F94134E0C94D2388C34910552
:1054E00009F437C48D34910511F00C949E380E9454
:1054F00052A60C94D2388D36910509F455C47CF52A
:105500008C35910509F43AC684F48335910509F484
:10551000D1C50CF4C7C58435910509F4D3C58535CB
:10552000910509F406C60C949E388A36910509F453
:1055300079C454F48836910509F40FC4893691056D
:1055400009F45CC40C949E388B36910509F4A3C40D
:105550008C36910511F40C94D2380C949E38823715
:10556000910509F498C68CF48F36910509F4B0C4FE
:105570000CF49BC48037910511F40C94D238813718
:10558000910509F4EAC40C949E388637910509F414
:105590009EC654F48337910509F484C68537910576
:1055A00009F483C60C949E388737910509F4C9C65F
:1055B0008837910511F00C949E3881E080937B0D23
:1055C00080937A0D0E9416A50C94D2388139A1E0FF
:1055D0009A0711F40C9436360CF07DC08E3C910580
:1055E00011F40C944B33A4F58E3B910509F4FBC4E4
:1055F000ACF48139910509F4AEC634F48C389105C8
:1056000009F4D0C40C949E388639910509F417C763
:105610008B39910509F409C50C949E388B3C910592
:1056200009F4D8C754F4883C910509F445C7893C6E
:10563000910509F4ACC70C949E388C3C910509F493
:10564000EBC78D3C910511F40C943D330C949E38BE
:105650008C32E1E09E0711F40C94E734CCF48C3DDD
:10566000910511F40C9426343CF4833D910511F41A
:105670000C9469330C949E388D3D910511F40C9473
:105680004D348232914011F40C94A2340C949E3823
:105690008F3231E0930711F40C9433366CF48D3271
:1056A000B1E09B0711F40C94FC348E32914011F45C
:1056B0000C94EF350C949E388033F1E09F0711F481
:1056C0000C947C358039914011F00C949E380F94E5
:1056D00000540C94D238883F31E0930711F40C94B5
:1056E0003E370CF055C0853AB1E09B0711F40C949D
:1056F00046361CF58A39F1E09F0711F40C94D23834
:105700006CF48239914011F00C949E380E948769A4
:105710000E948D690E943FA40C94D2388C39A1E07C
:105720009A0711F40C943B36843A914011F00C9492
:105730009E380F947B4C0C94D238853FE1E09E0755
:1057400011F40C9438377CF48C3A21E0920711F470
:105750000C94DC36843F914011F00C949E380F94E9
:1057600003270C94D238863FA1E09A0711F40C94D9
:105770003B37873F914011F00C949E3861E083E500
:105780000E94C15891E089270F949A7E0C94D238D8
:105790008335E3E09E0711F40C94DA37DCF48F33A1
:1057A00022E0920711F40C945B373CF48C30924069
:1057B00011F40C944E370C949E388835B2E09B0758
:1057C00011F40C945E378B35924011F40C946137D0
:1057D0000C949E38803AF3E09F0709F4FDC16CF405
:1057E0008C3633E0930711F40C94D238843893400C
:1057F00011F40C94DD370C949E38873EB3E09B0780
:1058000011F40C944638893E934011F40C945438AA
:105810000C949E3880E50E94F268882329F00F944A
:105820006C676B017C0103C0C12CD12C760183E530
:105830000E94F268882361F00E946B6820E030E0EB
:105840004AE754E40F94A4990F94C7A16B017C011B
:105850000F94005480916A0590916B05009721F098
:1058600061E00F945F6305C060E087EB97E00F9401
:10587000AD6280916C0590916D05892B19F06FEAEE
:1058800077E002C067EA77E020E030E04CE557E2DD
:1058900082E00E94BA5B40E0C701B6010E94C67D6B
:1058A00080E00F948F630C94D23880916F0584FF51
:1058B00002C00C94A2398091710587FF02C00C943C
:1058C000A23980917205837011F00C94A2390C9466
:1058D000BF398091C41583FF25C082EE97E00E94F6
:1058E000866C8091C41583FF17C08EE094E10F94FD
:1058F000063F8BE1EEE0F4E1DE01119601900D929E
:105900008A95E1F760E070E0CE0101960F9431795D
:10591000CE0101960F94FB4083ED97E00E94866CC8
:105920000C94D2380E94A47283EF97E00E94866C98
:105930000C94D2380F9433760C94D238E0916A05E7
:10594000F0916B058081882329F0803209F4108260
:105950003196F8CF60E080916A0590916B050F94C5
:1059600018780C94D2380E946576882321F00F9421
:1059700085750E9419A661E08CED92E40E94485B57
:1059800041EB52E46DEF77E085E00F941A6E80E012
:105990000F948F630C94D2388091C41582FF03C09A
:1059A0008B7F8093C4150E943DA680E00F948F6387
:1059B00042E552E46FE078E084E00F941A6E61E013
:1059C00089E098E00E94485B0C94D2388091C4151D
:1059D00083FD02C00C94D23883E50E94F2688111E5
:1059E0000C94CE390C94D23883E40E94A4688823A6
:1059F00019F182E298E00E94866C8091B8138823A6
:105A000091F0BE016F5F7F4F85EB93E10F940141F1
:105A10008E010F5F1F4FD8018D918D01882339F0C2
:105A20000E941F77F8CF88E198E00E94866C8AE098
:105A30000E941F770C94D2388091C41582FF21C038
:105A400081E398E00E94866C6091C0157091C11549
:105A50008091C2159091C3154AE00E9426778FE28B
:105A60000E941F776091BC157091BD158091BE1585
:105A70009091BF154AE00E9426770E9436780C94D8
:105A8000D23883E498E00E94866C0C94D2388091DE
:105A90006A0590916B050F94CE770C94D238809163
:105AA000C4158E7F8093C4150C94D2388091C41590
:105AB00083FD02C00C94D2380F94D1048091C41598
:105AC00083FD02C00C94D23840916A0550916B0559
:105AD000BE01645E7F4F80E00F94CF848C010097FD
