:100000000C94C41B0C94F51B0C94F51B0C94F51B61
:100010000C94F51B0C94F51B0C94F51B0C94F51B20
:100020000C94F51B0C94F51B0C94F51B0C94F51B10
:100030000C94F51B0C94F51B0C94F51B0C94F51B00
:100040000C94F51B0C949BEA0C94F51B0C94F51B7B
:100050000C94F51B0C94F51B0C94B7D90D94740AF1
:100060000C94F51B0C941D390C9413390C94F51B4E
:100070000C94F51B0C94F51B0C94F51B0C94F51BC0
:100080000C94F51B0C94F51B0C94F51B0C94F51BB0
:100090000C94F51B0C94F51B0C94F51B0C94F51BA0
:1000A0000C94F51B0C94F51B0C94F51B0C94F51B90
:1000B0000C94F51B0C94F51B0C94F51B0C94F51B80
:1000C0000C94F51B0C94F51B0C94F51B0C94F51B70
:1000D0000C94F51B0C94F51B0C94F51B0C94F51B60
:1000E0000C94F51B53396539773988399039C33900
:1000F0009439C33998399C39C339A039A439A839FE
:10010000B139C339BC3922E1FBE0FEE025E101E170
:1001100004E107E113E10AE120E10DE110E1A901A9
:100120001502030241015F02E3012B021F012F02AE
:100130001D01250109022D010301E3016B018B0162
:1001400027010F02B701ED015D025F0127029B014C
:100150003D02B301F701D101130121020101270280
:1001600073010B015901084AD73B3BCE016E84BC99
:10017000BFFDC12F3D6C74319ABD56833DDA3D0001
:10018000C77F11BED9E4BB4C3E916BAAAABE00004A
:1001900000803F05A84CCDB2D44EB93836A9020C28
:1001A00050B9918688083CA6AAAA2ABE0000008001
:1001B0003F000C94AAB80C9423A10C9465390C94BC
:1001C00065A10C9403C60C945FA10C9447A10C94F8
:1001D000E27C0C942DA00C9434A30C94A46C0C948D
:1001E00013DD0C9498E50C9409DD0C9414820C94A6
:1001F000DD4F0C942FA10C9403E40C9421DE0C949D
:10020000A56C0D94FD090D943E090C9407E10C9426
:1002100088390C947B500D94110A0C94F27C0C9448
:100220005FA00C941B7D0D94E4090C94F4450C9490
:100230003B9F0C944E9F0C94976C0D942C090D943D
:1002400022090C9453A10C94634B0D9430090D9426
:100250004C090C947CB80C940DE10D943A090C9463
:1002600046A00C947B7F0C9435D50C94B5B90C94B6
:100270007F500C940B500C9401A00C94927C0C9425
:10028000A6B80D940D090C9470A30C9405A70C94BA
:1002900057DC0C9431A40C9414A00C94877C0D941E
:1002A000B7120C94DC7C0C9477390C94D67C0C94AB
:1002B00015DE0D941B0A0C9414C60C940F810D943A
:1002C000AC090C9401E40C94759F0C9416CC0C941E
:1002D0004DA10C9494390D9444090C94A8B80C9435
:1002E00004E10C94F77C0D94070A0C94F7450C94E8
:1002F00035A10C94E87C0C945ABD0C9462E70C94E4
:1003000005E40C9441A10C949A7C0D94A3140C94D4
:1003100059A10C9418C60D9448090C9419DE0C943C
:10032000B5DC0C9422E10C946B6C0C943FE20C94C1
:1003300013E10C94767F0D94B6090C9419A40C94D7
:10034000C3390C9401E10C94BAA30C9429DE0C94EB
:1003500086500D9417090C946BA10C94DACF0C9471
:10036000D2670C9414A70D94C6090C9461A30D9444
:1003700093090C9453390C94D59F0C9452A30C946C
:10038000BAB80C9479A30C9496DC0C9400460C94A7
:1003900025A40C949FBB0C943BA10C9435DE0C94CB
:1003A00007E40D94DA090C944DCC0C94E89F0C945E
:1003B000D76C0C94FEE00C9498390C94A4390C94EE
:1003C00096E50C9410E10D9451090C94F44F0C94A3
:1003D0009AE50C94BBB90C9425E10D9498090C9402
:1003E0009FB80C94A79F0C949EE50C942DDE0D9461
:1003F000D0090C94807F0C94FFE30C94A8390C94E2
:1004000022500C9410A10D9409090C9484530C945F
:1004100028E10D9436090C9431DE0C946BA00D94F8
:100420008E090C94FC7C0C94BC6C0D941A090C94F1
:10043000A0390C9443A30C9490390C949C390C94DF
:1004400039DE0D94F3090C948E9F0C9429A10D9420
:10045000250A0C9461BD0D941E090C9411DD0D94B8
:1004600028090C94FBE00C94BC390C946A6D0C9434
:1004700048C70C94B1390C940AE10D94BE090C9450
:10048000FFC50C94AEC50C94717F0C94B9830C9489
:1004900004A10C9420E10C94679F0C949CE50C94AF
:1004A00025DE0C94ED7C0C94D07C0C943DDE0C94F9
:1004B0001DDE0C94A86C0C94E0E30D94A2090D943D
:1004C00011090C94C29F4E414E494E495459494E10
:1004D00046CDCCCC3D0AD7233C17B7D13877CC2BAF
:1004E000329595E6241FB14F0A000020410000C854
:1004F0004200401C4620BCBE4CCA1B0E5AAEC59DD5
:100500007400407A10F35A00A0724E18090010A52A
:10051000D4E80000E87648170000E40B540200001D
:10052000CA9A3B000000E1F50500008096980000A3
:100530000040420F000000A08601000000102700CC
:10054000000000E803000000006400000000000A52
:1005500000000000000100000000002C76D888DCBC
:10056000674F0823DFC1DFAE59E1B1B796E5E3E499
:1005700053C63AE651997696E8E6C28426EB898C12
:100580009B62ED407C6FFCEFBC9C9F40F2BAA56F74
:10059000A5F490055A2AF75C936B6CF9676DC11B43
:1005A000FCE0E40D47FEF520E6B500D0ED902E030B
:1005B00000943577050080841E080000204E0A0054
:1005C0000000C80C333333330F986E12831141EFA0
:1005D0008D2114893BE65516CFFEE6DB18D1844BFE
:1005E000381BF77C1D901DA4BBE424203284725E6E
:1005F000228100C9F124ECA1E53D274C4556454C2C
:10060000494E4700434F4D4D554E49434154494F84
:100610004E0044525952554E004552524F525300CB
:100620004543484F00536C6565702E2E2E002028E0
:1006300064697361626C656429004D424C204164B9
:100640006A7573746D656E74205A002028656E613A
:10065000626C6564290A004D6573682042656420F8
:100660004C6576656C696E670050726F62653A2002
:100670000A004D616368696E6520547970653A209F
:1006800043617274657369616E0A005261697365D2
:10069000205A20286265666F726520686F6D696EEA
:1006A000672920627920003E20686F6D696E67209F
:1006B0006E6F74206E65656465642C20736B697061
:1006C0000A004D65736820706F696E74206F7574D1
:1006D000206F662072616E67650A004D302053748A
:1006E0006F70004D312053746F7000436C69636B01
:1006F00020746F20526573756D652E2E2E004E6F1F
:10070000204D6F76652E00456E642066696C65200D
:100710006C6973740A00426567696E2066696C656E
:10072000206C6973740A004E6F206D656469610AFC
:1007300000526573756D696E672053440070617572
:10074000736500506175736520534400286E6F20F7
:1007500066696C65290043757272656E74206669FE
:100760006C653A20005344207072696E74696E673C
:10077000206279746520004E6F742053442070729B
:10078000696E74696E670A0044656C6574696F6EA2
:10079000206661696C65642C2046696C653A2000AE
:1007A00046696C652064656C657465643A0025690A
:1007B0007920256964202569682025696D202569CF
:1007C00073005072696E742074696D653A2000453B
:1007D0002025530044454255473A004D31313320DE
:1007E00053005369646577696E64657220583120DF
:1007F0004F46462E002F2F20004D31343520533CDC
:10080000696E6465783E206F7574206F6620726132
:100810006E67652028302D31290A00416363656CBD
:1008200065726174696F6E3A2050005741524E49AB
:100830004E4721204C6F77205A204A65726B206DFD
:100840006179206C65616420746F20756E77616ECC
:10085000746564207061757365732E0A0020204DE5
:1008600061783A200020204D696E3A2000536F666F
:100870007420656E6473746F70733A200046523A48
:100880000020466C6F773A20004D424C2041646A4C
:10089000757374205A0020643A0020693A00207071
:1008A0003A00496E76616C6964206578747275648B
:1008B00065720A006469730043290A0061626C650D
:1008C0006420286D696E2074656D702000436F6C24
:1008D00064206578747275646573206172652000A8
:1008E0004D34323120696E636F72726563742070AB
:1008F0006172616D657465722075736167650A0068
:100900004F666673657473204170706C696564002E
:100910004572723A20546F6F206661722100546FE5
:100920006F206661722066726F6D207265666572F7
:10093000656E636520706F696E740A00454550529C
:100940004F4D204F4B0A002028302D3130290020F8
:1009500076616C7565206F7574206F662072616EAC
:10096000676500416476616E6365204B3D0050729F
:10097000696E7420446F6E6500446F6E65207072FE
:10098000696E74696E672066696C650A004D373759
:10099000004D3331002006B509190612060406FB86
:1009A00005554E4B4E4F574E20535441544500472A
:1009B000434F44455F494E464F004C43445F5041CE
:1009C0005553455F524553554D450046494C414DA1
:1009D000454E545F52554E4F55545F434F4E544908
:1009E0004E55450046494C414D454E545F52554E7B
:1009F0004F5554004D38373620526573706F6E6412
:100A0000696E672050524F4D50545F004572726FAF
:100A1000722077726974696E6720746F2045455043
:100A2000524F4D210A0053544F505045442E200040
:100A30005072696E7465722073746F707065642093
:100A400064756520746F206572726F72732E204614
:100A5000697820746865206572726F7220616E64B7
:100A600020757365204D39393920746F2072657394
:100A7000746172742E202854656D7065726174758E
:100A800072652069732072657365742E20536574D6
:100A90002069742061667465722072657374617276
:100AA00074696E67290A004E6F20436865636B7333
:100AB000756D2077697468206C696E65206E756D40
:100AC0006265722C204C617374204C696E653A200B
:100AD00000636865636B73756D206D69736D617418
:100AE00063682C204C617374204C696E653A200059
:100AF0004C696E65204E756D626572206973206E5B
:100B00006F74204C617374204C696E65204E756D56
:100B10006265722B312C204C617374204C696E65B8
:100B20003A20004D31313000534420726561642019
:100B30006572726F720A002121204B494C4C206370
:100B40006175736564206279204B494C4C20627555
:100B500074746F6E2F70696E0A002121204B494C0E
:100B60004C2063617573656420627920746F6F2017
:100B70006D75636820696E61637469766520746958
:100B80006D65202D2063757272656E7420636F6DC4
:100B90006D616E643A2000627573793A20706175F8
:100BA00073656420666F7220696E7075740A0062E6
:100BB0007573793A2070617573656420666F722071
:100BC000757365720A00627573793A2070726F638B
:100BD000657373696E670A004D65646961205265CB
:100BE0006D6F766564004D6564696120496E73655B
:100BF000727465640024F4D43050C38E20C2A240C5
:100C000017828B7011127A910D816CD90AA861E15B
:100C100008C7586607615143061E4B5D05C145A7CD
:100C2000041A411104093D9803713931034036DB40
:100C30000265339102D4305402802E1D02632CEEE3
:100C400001752AC501B028A001102781018F2564F4
:100C5000012B244B01E0223401AC211F018D200D1A
:100C600001801FFC00841EED00971DDF00B81CD220
:100C700000E61BC600201BBC00641AB200B219A813
:100C8000000A19A0006A189900D117910040178B2B
:100C900000B516840031167E00B31579003A15733D
:100CA00000C7146F0058146A00EE136600881363BF
:100CB0000025135E00C7125B006C1257001512541A
:100CC00000C111510070114F0021114B00D6104985
:100CD000008D1047004610440002104200C00F4033
:100CE00000800F3E00420F3C00060F3B00CB0E3849
:100CF00000930E37005C0E3500270E3400F30D32E2
:100D000000C10D3100900D3000600D2E00320D2D10
:100D100000050D2C00D90C2B00AE0C2900850C29E8
:100D2000005C0C2700350C27000E0C2600E80B2475
:100D300000C40B2400A00B23007D0B23005A0B21C1
:100D400000390B2100180B2000F80A1F00D90A1ED9
:100D500000BB0A1E009D0A1D00800A1D00630A1CBC
:100D600000470A1B002C0A1B00110A1A00F7091A77
:100D700000DD091900C4091900AB0919009209170F
:100D8000007B091800630917004C09160036091684
:100D900000200916000A091500F5081500E00814DE
:100DA00000CC081400B8081400A40814009008131C
:100DB000007D0812006B0813005808120046081244
:100DC0000034081100230811001208110001081155
:100DD00000F0071000E0071000D0071000C0071057
:100DE00000B0070F00A107100091070E0083070F46
:100DF0000074070F0065070E0057070E0049070E25
:100E0000003B070D002E070E0020070D0013070DF5
:100E10000006070D00F9060C00ED060D00E0060CBB
:100E200000D4060C00C8060C00BC060C00B0060C72
:100E300000A4060B0099060C008D060B0082060B21
:100E40000077060B006C060B0061060A0057060BC4
:100E5000004C060A0042060A0038060A002E060A5E
:100E60000024060A001A060A001006090007060AEE
:100E700000FD050900F4050900EB050900E205097C
:100E800000D9050900D0050900C7050900BE0509FC
:100E900000B5050800AD050800A50509009C05087A
:100EA00000940508008C050800840508007C0508EE
:100EB00000740508006C050700650508005D05075E
:100EC00000560508004E05070047050700400508C5
:100ED0000038050700310507002A0507002305072C
:100EE000001C050600160507000F0507000805068B
:100EF0000002050700FB040600F5040700EE0406E7
:100F000000E8040600E2040700DB040600D504063E
:100F100000CF040600C9040600C3040600BD040691
:100F200000B7040600B1040500AC040600A60406E0
:100F300000A00405009B040600950405009004062B
:100F4000008A04050085040500800406007A040573
:100F50000075040500700405006B040500660405B7
:100F600000610405005C04050057040500520405F7
:100F7000004D04050048040500430405003E040438
:100F8000003A04050035040500300404002C040573
:100F90000027040400230405001E0404001A0404AE
:100FA0000016040500110404000D040400090405E2
:100FB000000404040000040400FC030400F803041B
:100FC00000F4030400F0030400EC030400E803044D
:100FD00000E4030400E0030400DC030400D803047D
:100FE00000D4030400D0030400CC030400C80303AE
:100FF00000C503030024F404D9201BC40C5C0E9824
:1010000004C4095F0265077101F405F900FB04B32C
:101010000048048700C103690058035500030345D5
:1010200000BE023A008402310053022A0029022540
:101030000004022000E4011C00C8011900AF0117E0
:101040000098011400840113007101100061011067
:101050000051010E0043010D0036010B002B010B66
:101060000020010B00150109000C01090003010813
:1010700000FB000800F3000800EB000700E4000696
:1010800000DE000600D8000600D2000600CC0005F5
:1010900000C7000500C2000500BD000400B900043F
:1010A00000B5000400B1000400AD000400A9000474
:1010B00000A5000300A20003009F0004009B0003A2
:1010C00000980003009500020093000300900003C5
:1010D000008D0002008B00030088000200860002E1
:1010E0000084000300810002007F0002007D0002F6
:1010F000007B000200790002007700010076000208
:10110000007400020072000100710002006F000212
:10111000006D0001006C0002006A0001006900021D
:101120000067000100660001006500010064000224
:10113000006200010061000100600001005F000228
:10114000005D0001005C0001005B0001005A00012D
:10115000005900010058000100570001005600012D
:10116000005500010054000100530000005300012D
:10117000005200010051000100500001004F000129
:10118000004E0000004E0001004D0001004C000127
:10119000004B0000004B0001004A00010049000123
:1011A0000048000000480001004700010046000020
:1011B0000046000100450000004500010044000118
:1011C0000043000000430001004200000042000113
:1011D000004100000041000100400001003F00000C
:1011E000003F0001003E0000003E0001003D000005
:1011F000003D0001003C0000003C0000003C0001FC
:10120000003B0000003B0001003A0000003A0001F2
:1012100000390000003900010038000000380000EB
:1012200000380001003700000037000100360000E0
:1012300000360000003600010035000000350000D7
:1012400000350001003400000034000000340001CB
:1012500000330000003300000033000100320000C2
:1012600000320000003200010031000000310000B7
:1012700000310001003000000030000000300001AB
:10128000002F0000002F0000002F0000002F0001A1
:10129000002E0000002E0000002E0001002D000096
:1012A000002D0000002D0000002D0001002C00008A
:1012B000002C0000002C0000002C0001002B00007E
:1012C000002B0000002B0000002B0001002A000072
:1012D000002A0000002A0000002A00010029000066
:1012E0000029000000290000002900000029000159
:1012F000002800000028000000280000002800004E
:10130000002800010027000000270000002700003F
:101310000027000000270001002600000026000032
:101320000026000000260000002600010025000025
:101330000025000000250000002500000025000019
:10134000002500010024000000240000002400000B
:1013500000240000002400010023000000230000FE
:1013600000230000002300000023000000230000F1
:1013700000230001002200000022000000220000E3
:1013800000220000002200000022000100210000D5
:1013900000210000002100000021000000210000C9
:1013A00000210000002100010020000000200000BA
:1013B00000200000002000000020000000200000AD
:1013C0000020000000200001001F0000001F00009E
:1013D000001F0000001F0000001F0000001F000091
:1013E000001F0001001E0000001E0000001E000083
:1013F000001E000000232C0000B822000056180038
:10140000003A0F0000B8080000B1040000710200AB
:10141000003E010000A10000006900A2000000637E
:1014200000B00000000900C10000004100C200003F
:10143000004100C30000004100C40000004100C59D
:101440000000004100C60000004145C70000004305
:1014500000C80000004500C90000004500CD0000A4
:10146000004900D10000004E00D50000004F00D61A
:101470000000004F00D70000007800DC000000559D
:1014800000DD0000005900E00000006100E1000004
:10149000006100E20000006100E30000006100E480
:1014A0000000006100E50000006100E6000000614E
:1014B00065E70000006300E80000006500E9000047
:1014C000006500EA0000006500EB0000006500EC2C
:1014D0000000006900ED0000006900EE00000069F6
:1014E00000EF0000006900F10000006E00F2000053
:1014F000006F00F30000006F00F40000006F00F5C3
:101500000000006F00F60000006F00F80000006FA0
:1015100000F90000007500FA0000007500FB0000F3
:10152000007500FC0000007500FD0000007900FF60
:101530000000007900040100004100050100006185
:10154000000601000043000701000063000C0100D9
:101550000043000D01000063000E01000044000F75
:101560000100006400110100006400190100006521
:10157000001A01000045001B01000065001F01006A
:10158000006700300100004900310100006900419E
:101590000100004C00420100006C00430100004EBD
:1015A00000440100006E00480100006E0058010078
:1015B0000052005901000072005A01000053005B04
:1015C00001000073005F0100007300600100005320
:1015D000006101000073006501000074006F0100EC
:1015E0000075007C0100007A007D0100005A007E39
:1015F0000100007A00920100006600E3020000781A
:1016000000222000002E001E210000507822210020
:1016100000544D902100003C2D922100002D3EB041
:101620002100000300BB21000004003C2200007EDA
:1016300000482200007E3D60220000213D61220022
:10164000003D00642200003C3D652200003E3DF16B
:101650002300000700A03000003D0021F30100023C
:1016600000C2F401000500A2000000EC00B0000080
:1016700000DF00E4000000E100F6000000EF00F7EA
:10168000000000FD00FC000000F500E3020000EB9C
:101690000087030000A5008F030000F400980300FA
:1016A00000F2009E030000E300A3030000F600A97F
:1016B000030000F400AC030000E000AD030000E311
:1016C00000B1030000E000B2030000E200B5030037
:1016D00000E300B8030000F200BC030000E400BE19
:1016E000030000E300C0030000F700C1030000E6B0
:1016F00000C3030000E500902100007F009221005C
:10170000007E001A220000E8001E220000F300887C
:10171000250000FF0002300000A1000C300000A2F4
:10172000000D300000A3009B300000DE009C300064
:1017300000DF00A03000003D00A1300000A700A2A3
:10174000300000B100A3300000A800A4300000B2B7
:1017500000A5300000A900A6300000B300A73000AB
:1017600000AA00A8300000B400A9300000AB00AA15
:10177000300000B500AB300000B600AC300000B661
:10178000DEAD300000B700AE300000B7DEAF300095
:1017900000B800B0300000B8DEB1300000B900B2CF
:1017A000300000B9DEB3300000BA00B4300000BA37
:1017B000DEB5300000BB00B6300000BBDEB7300045
:1017C00000BC00B8300000BCDEB9300000BD00BA7B
:1017D000300000BDDEBB300000BE00BC300000BEEB
:1017E000DEBD300000BF00BE300000BFDEBF3000F5
:1017F00000C000C0300000C0DEC1300000C100C227
:10180000300000C1DEC3300000AF00C4300000C2B1
:1018100000C5300000C2DEC6300000C300C7300083
:1018200000C3DEC8300000C400C9300000C4DECAF6
:10183000300000C500CB300000C600CC300000C72F
:1018400000CD300000C800CE300000C900CF30000D
:1018500000CA00D0300000CADED1300000CADFD29A
:10186000300000CB00D3300000CBDED4300000CB02
:10187000DFD5300000CC00D6300000CCDED7300001
:1018800000CCDFD8300000CD00D9300000CDDEDA4A
:10189000300000CDDFDB300000CE00DC300000CEB9
:1018A000DEDD300000CEDFDE300000CF00DF3000B4
:1018B00000D000E0300000D100E1300000D200E2B2
:1018C000300000D300E3300000AC00E4300000D46E
:1018D00000E5300000AD00E6300000D500E7300044
:1018E00000AE00E8300000D600E9300000D700EA82
:1018F000300000D800EB300000D900EC300000DAF6
:1019000000ED300000DB00EF300000DC00F23000C2
:1019100000A600F3300000DD00F4300000B3DEF775
:10192000300000DCDEFA300000A6DEFB300000A54F
:1019300000FC300000B000FD300000A400074E00A5
:1019400000FB0086510000FC0043530000FA0064D5
:10195000FF0000A40065FF0000A50066FF0000A6D0
:101960000067FF0000A70068FF0000A80069FF00F3
:1019700000A9006AFF0000AA006BFF0000AB006C2A
:10198000FF0000AC006DFF0000AD006EFF0000AE78
:10199000006FFF0000AF0070FF0000B00071FF009B
:1019A00000B10072FF0000B20073FF0000B30074CA
:1019B000FF0000B40075FF0000B50076FF0000B620
:1019C0000077FF0000B70078FF0000B80079FF0043
:1019D00000B9007AFF0000BA007BFF0000BB007C6A
:1019E000FF0000BC007DFF0000BD007EFF0000BEC8
:1019F000007FFF0000BF0080FF0000C00081FF00EB
:101A000000C10082FF0000C20083FF0000C3008409
:101A1000FF0000C40085FF0000C50086FF0000C66F
:101A20000087FF0000C70088FF0000C80089FF0092
:101A300000C9008AFF0000CA008BFF0000CB008CA9
:101A4000FF0000CC008DFF0000CD008EFF0000CE17
:101A5000008FFF0000CF0090FF0000D00091FF003A
:101A600000D10092FF0000D20093FF0000D3009449
:101A7000FF0000D40095FF0000D50096FF0000D6BF
:101A80000097FF0000D70098FF0000D80099FF00E2
:101A900000D9009AFF0000DA009BFF0000DB009CE9
:101AA000FF0000DC009DFF0000DD009EFF0000DE67
:101AB000009FFF0000DF00E5FF00005C00001C1F2E
:101AC00011111F00000006191803130C00040E1F4B
:101AD000041C000000000E1315110E00001C10184D
:101AE0001705060500040A0A0A0A11110E0C121243
:101AF0000C00000000001F1511151F000000000061
:101B000000010204040000001C1C0C040404020177
:101B1000000000000004081000000000007C4D617F
:101B2000726C696E7C002D2D2D2D2D2D00456E6360
:101B30006C6F73757265004C6F6164206D6D00553C
:101B40006E6C6F6164206D6D0046696C2E20446977
:101B5000612E004520696E206D6DC2B3004D33309B
:101B600033205531204525692053256900504944CB
:101B7000204175746F74756E65202A005049442D9C
:101B800044202A005049442D49202A005049442D20
:101B900050202A0020022046616374002002204D5C
:101BA0006178002002204D696E004175746F746584
:101BB0006D700053657474696E67732053746F722F
:101BC0006564002062797465733B20637263200052
:101BD00053657474696E67732053746F7265642003
:101BE0002800454550524F4D206461746173697AF5
:101BF00065206572726F722E0A002073746F7265B1
:101C0000642073657474696E677320726574726999
:101C100065766564202800202863616C63756C61BB
:101C200074656429210A0020213D20004545505259
:101C30004F4D20435243206D69736D61746368207A
:101C40002D202873746F726564292000496E6465C5
:101C5000783A200044494749504F5453204C6F6113
:101C60006465640A0044494749504F5453204C6FFF
:101C70006164696E670A00204D61726C696E3D5641
:101C80003832290A00454550524F4D20766572730F
:101C9000696F6E206D69736D6174636820284545B6
:101CA00050524F4D3D0072657365745F6265645FAD
:101CB0006C6576656C0A000A4D65617375726564C2
:101CC00020706F696E74733A0A00337833206D6543
:101CD00073682E205A206F66667365743A20002F51
:101CE0002F616374696F6E3A00737461727400627D
:101CF0006567696E00656E640070726F6D70745F09
:101D00000073686F7700486F74656E6420746F6F3E
:101D100020636F6C640A00466164652048656967EA
:101D2000687420004661696C656420746F20656E7C
:101D300061626C6520426564204C6576656C696EF5
:101D4000670A004D65736820426564204C657665BE
:101D50006C20646174613A0A00496E76616C696452
:101D6000206D6573682E0A00206E6F7420656E7496
:101D7000657265642E0A00206F6620004D424C207B
:101D800047323920706F696E7420004A206F757475
:101D9000206F662072616E67652028302D00492013
:101DA0006F7574206F662072616E67652028302D14
:101DB000004D6573682070726F62696E6720646F92
:101DC0006E652E0A005374617274206D657368200D
:101DD00070726F62696E672077697468202247327B
:101DE00039205331222066697273742E0A004732FB
:101DF000380A47323920533200686173206E6F20F1
:101E0000646174612E0A004D657368204265642028
:101E10004C6576656C696E67200053206F75742081
:101E20006F662072616E67652028302D35292E0A75
:101E30000068747470733A2F2F6D61726C696E66EE
:101E4000772E6F72670020322E302E372E32002010
:101E500020506C616E6E657242756666657242797D
:101E60007465733A20002046726565204D656D6F7C
:101E700072793A2000436F6D70696C65643A204F47
:101E8000637420313820323032300A00204C6173C4
:101E90007420557064617465643A20323032302D9C
:101EA00031302D3135207C20417574686F723A20B5
:101EB000286D6F6F70686C6F2C205369646577694B
:101EC0006E646572205831290A00322E302E372E6A
:101ED000320A004D61726C696E0020536F66747730
:101EE0006172652052657365740A002057617463DE
:101EF00068646F672052657365740A002042726FD0
:101F0000776E206F75742052657365740A002045E2
:101F1000787465726E616C2052657365740A005046
:101F20006F77657255700A006175746F25632E674F
:101F3000004732385859004D3130303100657272E7
:101F40006F722077726974696E6720746F2066699A
:101F50006C650A00446F6E6520736176696E672058
:101F600066696C652E0A004D3239002553202563C1
:101F700020256320256320256300656E6473746FDC
:101F80007073206869743A200070012C0190012759
:101F900001B0012201C0011D01F00118011002135E
:101FA0000130020E016002090190020401C002FF2B
:101FB000000003FA004003F5008003F000D003EBBB
:101FC000002004E6007004E100E004DC004005D7D6
:101FD00000C005D2004006CD00D006C8008007C36F
:101FE000003008BE00F008B900C009B400B00AAF64
:101FF00000B00BAA00D00CA500000EA000500F9B53
:1020000000C01096005012910000148C00C015877B
:1020100000B0178200B0197D00D01B7800001E733D
:102020000040206E0090226900F024640040275F89
:102030000090295A00E02B5500102E500020304B04
:102040000010324600E033410090353C0010373735
:102050000070383200A0392D00B03A2800A03B2390
:1020600000603C1E00103D1900903D1400103E0F12
:1020700000703E0A00C03E0500003F0000403FFBEC
:10208000FF803FF6FFC03FF1FF2053697A653A2099
:102090000043616E6E6F74206F70656E20737562A1
:1020A0006469722000534420496E69742046616956
:1020B0006C0053442063617264206F6B0A006F7080
:1020C000656E526F6F74206661696C65640A007694
:1020D0006F6C756D652E696E6974206661696C65DB
:1020E000640A004E6F20534420636172640A004DFD
:1020F0003234004D3233202573006F70656E2066D8
:1021000061696C65642C2046696C653A20004669FB
:102110006C652073656C65637465640A0046696C60
:1021200065206F70656E65643A2000454E4420530B
:102130005542524F5554494E450A002220706F7344
:10214000002220706172656E743A2200535542522B
:102150004F5554494E452043414C4C2074617267A1
:1021600065743A220053756263616C6C204F76652A
:1021700072666C6F77004578636565646564206D91
:10218000617820535542524F5554494E452064655D
:102190007074683A310A0057726974696E67207406
:1021A0006F2066696C653A2000667265736800642A
:1021B0006F696E67004E6F7720007C3C3E5E2B3D62
:1021C0003F2F5B5D3B2C2A225C004261636B004D1C
:1021D0006F74696F6E004D3834004F6666004F6E45
:1021E0000043616E6E6F7420656E74657220737546
:1021F000626469723A2000052E2E00486F74656E85
:102200006420746F6F20636F6C640050726F63653D
:10221000656400536F667420456E6473746F7073E9
:102220000044697361626C652053746570706572F7
:1022300073004661646520486569676874004C6591
:1022400076656C20426564004732380A47323900AF
:102250004175746F20486F6D6500473238002E2E2F
:102260002E2800202063757272656E745F706F7324
:102270006974696F6E3D00203A2073796E635F70F8
:102280006C616E5F706F736974696F6E0A003E20D7
:1022900000646F5F626C6F636B696E675F6D6F7612
:1022A000655F746F003E3E3E005D002C2000646F51
:1022B0005F686F6D696E675F6D6F76650020706F28
:1022C000736974696F6E5F7368696674203D20007E
:1022D00020686F6D655F6F6666736574203D2000D2
:1022E0003C3C3C207365745F617869735F69735F20
:1022F00061745F686F6D652800203A200A005D20D8
:102300003D20003E20686F6D655F6F666673657483
:102310005B003E3E3E207365745F617869735F6960
:10232000735F61745F686F6D6528005761726E69D5
:102330006E673A20486F6D696E672042756D702038
:1023400044697669736F72203C20310A003C3C3C42
:1023500020686F6D65617869732800203A203E20FF
:102360004146544552207365745F617869735F69B3
:10237000735F61745F686F6D650A00486F6D6520FB
:102380003220536C6F773A0A004D6F7665204177A3
:1023900061793A0A00486F6D652031204661737497
:1023A0003A0A003E3E3E20686F6D65617869732889
:1023B000000000A0420000A0420000A04102020470
:1023C0000000A0400000A04000000040FFFFFF0010
:1023D000000001000000010000800055555500007C
:1023E00000400033333300AAAA2A00499224000097
:1023F000002000C7711C0099991900D1451700559C
:102400005515003BB11300244912001111110000B1
:102410000010000F0F0F00E3380E0043790D00CCC1
:10242000CC0C00C3300C00E8A20B0064210B00AA06
:10243000AA0A00703D0A009DD80900427B0900925B
:10244000240900DCD3080088880800104208000036
:10245000000800F0C107008787070075500700716A
:102460001C07003EEB0600A1BC0600699006006652
:10247000660600703E06006118060017F405007439
:10248000D105005BB00500B29005006272050055F1
:1024900055050078390500B81E0500050505004EF4
:1024A000EC040087D40400A1BD040090A7040049F7
:1024B000920400C17D0400EE690400C75604004484
:1024C0004404005C320400082104004110040000B0
:1024D0000004003FF00300F8E0030026D20300C32D
:1024E000C30300CCB503003AA803000A9B030038DD
:1024F0008E0300C08103009F750300D06903005064
:102500005E03001D53030034480300913D03003374
:1025100033030016290300381F030097150300300A
:102520000C0300030303000BFA020049F10200BA96
:10253000E802005CE002002DD802002DD002005914
:10254000C80200B0C0020031B90200DAB10200AA2C
:10255000AA0200A0A30200BC9C0200FA9502005C43
:102560008F0200DF88020082820200457C02002781
:1025700076020027700200436A02007C640200D0E9
:102580005E02003F590200C853020020746F6F20A2
:102590006C6F6E6720657874727573696F6E2070EA
:1025A000726576656E7465640A0020636F6C6420E2
:1025B000657874727573696F6E2070726576656E7A
:1025C0007465640A00654953522072756E6E696EB7
:1025D00067206174203E2031306B487A2E0A004D0E
:1025E0006F7265207468616E203220737465707339
:1025F000207065722065495352206C6F6F702065A2
:10260000786563757465642E0A00416363656C6563
:10261000726174696F6E206C696D697465642E0AED
:1026200000416476616E6365642053657474696EFD
:10263000677300436F6E74696E756500554E4C4F3D
:1026400041442046494C414D454E540046494C4179
:102650004D454E54204348414E47450052657374E2
:102660006F72652044656661756C7473004C6F61B0
:10267000642053657474696E67730053746F726578
:102680002053657474696E67730050726568656184
:1026900074202420436F6E66004D3730322054255D
:1026A00064004D36303020423020542564004D37D0
:1026B0003032203B2564004D3730312054256400F2
:1026C0005075726765206D6F726500524553554DA8
:1026D00045204F5054494F4E533A005052494E54A2
:1026E000205041555345440020204E6F7A7A6C6546
:1026F0003A20003F28422961756420726174652088
:10270000696D706C61757369626C652E0A00206278
:1027100061756420726174652073657420746F2024
:10272000002053657269616C2000204D39322058B9
:10273000007061757365640052656865617420445A
:102740006F6E6500526568656174696E672E2E2E26
:102750000052656865617400486561746572205453
:10276000696D656F75740053656E64204D31303846
:1027700020746F2068656174206E6F7A7A6C650AC8
:10278000004E6F7A7A6C65205061726B65640062EE
:102790007574746F6E0050757267654D6F72650069
:1027A0004C6F61642046696C616D656E74205400E5
:1027B000496E736572742066696C616D656E742014
:1027C000616E642073656E64204D3130380A00728A
:1027D0006573756D656400526573756D696E67002C
:1027E00020496E76616C69642065787472756465E1
:1027F000722000656E7175657565696E67202200CF
:102800006F6B00526573656E643A20004265642008
:10281000436F6F6C696E672E2E2E004265642048F0
:10282000656174696E672E2E2E0023646566696E7D
:10283000652044454641554C545F004B6420004B95
:102840006920004B702000504944204175746F741A
:10285000756E652066696E697368656421205075C0
:102860007420746865206C617374204B702C204B4D
:102870006920616E64204B6420636F6E7374616EB7
:1028800074732066726F6D2062656C6F7720696E5D
:10289000746F20436F6E66696775726174696F6EDD
:1028A0002E680A00504944204175746F74756E6536
:1028B000206661696C6564212074696D656F75744B
:1028C0000A000A20436C61737369632050494420F5
:1028D0000A00204B643A2000204B693A2000204B2C
:1028E000703A20000A204E6F206F76657273686F11
:1028F0006F740A002054753A2000204B753A20006E
:10290000206D61783A2000206D696E3A20002064C5
:102910003A200020626961733A2000504944204106
:1029200075746F74756E652073746172740A0050EB
:102930004944204175746F74756E65206661696CD9
:102940006564212054656D706572617475726520CF
:10295000746F6F20686967680A00504944204175A8
:10296000746F74756E6500504944204175746F74BE
:10297000756E65206661696C656421204261642022
:102980006578747275646572206E756D6265720A21
:102990000054656D706572617475726500414253D3
:1029A00000504C41005072656865617420240041FC
:1029B0006476616E6365204B0046616E20537065DE
:1029C0006564004E6F7A7A6C65004D61696E0050E7
:1029D00072656865617420242042656400507265E8
:1029E00068656174202420456E6400436F6F6C64D9
:1029F0006F776E004261627973746570205A004689
:102A00006C6F7700A1299D295072696E74206672DF
:102A10006F6D204D65646961005072696E7420505D
:102A20006175736564004D6F76652025736D6D006B
:102A30004D6F766520302E316D6D004D6F766520BF
:102A4000316D6D004D6F76652031306D6D004D6FCD
:102A50007665204178697300457874727564657293
:102A6000004D6F7665205A004D6F76652059004DF8
:102A70006F7665205800486F6D6520257325732596
:102A800073204669727374003C3C3C00220A005576
:102A90006E6B6E6F776E20636F6D6D616E643A2042
:102AA00022005369646577696E646572205831202D
:102AB00052656164792E005072696E74696E672E7A
:102AC0002E2E0020453A00205A3A0020593A005252
:102AD0006573756D65003F00496E697469616C6965
:102AE0007A6520454550524F4D006E6F7469666996
:102AF000636174696F6E200063616E63656C005082
:102B000072696E742041626F727465640044697307
:102B10006D6973730055492041626F72746564007A
:102B20004D3235005549205061757365005061750F
:102B300073696E672E2E2E00726573756D65004584
:102B40004550524F4D2056657273696F6E20457225
:102B5000726F7200454550524F4D20496E64657842
:102B6000204572726F7200454550524F4D204352BE
:102B700043204572726F720049676E6F726500483C
:102B80006F6D696E67204661696C6564006F706582
:102B90006E00545249474745524544007A5F6D697B
:102BA0006E00795F6D696E00785F6D696E005265C9
:102BB000706F7274696E6720656E6473746F7020D5
:102BC0007374617475730A002568753A253032682C
:102BD000750025303268753A25303268750020203E
:102BE000202020202000202D20496E76616C696411
:102BF000206578747275646572206E756D62657299
:102C000020210A00544845524D414C2052554E4116
:102C100057415900546865726D616C2052756E6140
:102C2000776179004572723A204D415854454D50B4
:102C3000004D415854454D50207472696767657264
:102C40006564004572723A204D494E54454D50001E
:102C50004D494E54454D50207472696767657265E1
:102C60006400202F002042403A0020403A002057C4
:102C70003A00436F6E66696775726174696F6E00C2
:102C800043616E63656C004368616E6765204669E9
:102C90006C616D656E740050726568656174204387
:102CA0007573746F6D004368616E6765204D656470
:102CB0006961004D3231004D3630302042300048DD
:102CC0006F7374205374617274004E6F204D65648D
:102CD000696100526573756D65205072696E74008C
:102CE00054756E650053746F70205072696E740075
:102CF0005061757365205072696E7400496E666F1D
:102D00002053637265656E00537461727420507253
:102D1000696E74005061726B696E672E2E2E000012
:102D2000005761697420666F720066696C616D6539
:102D30006E74206368616E676500746F20737461E0
:102D40007274005761697420666F720066696C6105
:102D50006D656E7420756E6C6F616400004E6F7AE5
:102D60007A6C652068656174696E6700506C656196
:102D7000736520776169742E2E2E00005072657382
:102D80007320627574746F6E00746F20686561746F
:102D9000206E6F7A7A6C650000496E7365727420DC
:102DA00066696C616D656E7400616E642070726539
:102DB000737320627574746F6E00746F20636F6E2E
:102DC00074696E7565005761697420666F7200667C
:102DD000696C616D656E74206C6F61640000507287
:102DE00065737320427574746F6E00746F20726522
:102DF00073756D65207072696E7400005761697437
:102E000020666F72207072696E7400746F20726534
:102E100073756D652E2E2E00005761697420666FE4
:102E2000720066696C616D656E742070757267659D
:102E3000000056652D4A65726B00565A2D4A657220
:102E40006B0056592D4A65726B0056582D4A6572B3
:102E50006B00452073746570732F6D6D005A20539D
:102E6000746570732F6D6D00592053746570732FE6
:102E70006D6D00582053746570732F6D6D00496E31
:102E80006974004D34323800416363656C6572616A
:102E900074696F6E0056656C6F6369747900536571
:102EA0007420486F6D65204F6666736574730056B5
:102EB00054726176204D696E00566D696E00566DD4
:102EC0006178204500566D6178205A00566D617812
:102ED000205900566D6178205800416D6178204579
:102EE00000416D6178205A00416D617820590041A0
:102EF0006D6178205800412D54726176656C0041F7
:102F00002D5265747261637400416363656C0020C7
:102F1000520048617264636F646564204465666151
:102F2000756C742053657474696E6773204C6F619F
:102F30006465640A003B200020204D3630332000B9
:102F400020550046696C616D656E74206C6F61641C
:102F50002F756E6C6F6164206C656E677468733A70
:102F60000020204D393030204B004C696E65617275
:102F700020416476616E63653A0020204D33303421
:102F800020500020204D3330312050005049442043
:102F900073657474696E67733A00204600204800B8
:102FA00020204D3134352053004D617465726961C4
:102FB0006C2068656174757020706172616D6574F4
:102FC0006572733A002020473239205334205A006A
:102FD000204A002020473239205333204900202046
:102FE0004D3432302053004D6573682042656420B3
:102FF0004C6576656C696E673A0020204D3230363C
:10300000205800486F6D65206F66667365743A00DE
:1030100020204D323035204200416476616E636578
:10302000643A20423C6D696E5F7365676D656E74CE
:103030005F74696D655F75733E20533C6D696E5FAB
:1030400066656564726174653E20543C6D696E5FAF
:1030500074726176656C5F66656564726174653E05
:1030600020583C6D61785F785F6A65726B3E2059CD
:103070003C6D61785F795F6A65726B3E205A3C6D8A
:1030800061785F7A5F6A65726B3E20453C6D61785E
:103090005F655F6A65726B3E0020204D32303420E0
:1030A0005000416363656C65726174696F6E2028BE
:1030B000756E6974732F7332293A20503C707269AF
:1030C0006E745F616363656C3E20523C726574721E
:1030D0006163745F616363656C3E20543C7472612C
:1030E00076656C5F616363656C3E0020204D323015
:1030F000312058004D6178696D756D2041636365BD
:103100006C65726174696F6E2028756E6974732FB7
:103110007332293A0020204D3230332058004D615F
:1031200078696D756D20666565647261746573207C
:1031300028756E6974732F73293A00537465707320
:103140002070657220756E69743A0020440020205A
:103150004D3230302053002044697361626C6564E5
:103160000A0046696C616D656E74207365747469DC
:103170006E67733A0020204D3134392043203B20C4
:10318000556E69747320696E2043656C736975733D
:103190000A0020286D6D2900202047323120202090
:1031A000203B20556E69747320696E206D6D0000A0
:1031B000001643000016430000484200002042AEC3
:1031C000C7A042CDCCA042A4B0C7430080E143D009
:1031D000070000D007000064000000102700000076
:1031E000009643000096430000C843000000000022
:1031F00000000000000000FFFDFCFAF8F6F4F2F019
:10320000EEECEAE9E7E5E3E1E0DEDCDAD9D7D5D4B4
:10321000D2D0CFCDCBCAC8C7C5C3C2C0BFBDBCBA50
:10322000B9B7B6B4B3B2B0AFADACAAA9A8A6A5A4BD
:10323000A2A1A09E9D9C9A99989795949392908F05
:103240008E8D8B8A8988878684838281807F7E7D2C
:103250007B7A797877767574737271706F6E6D6C36
:103260006B6A696867666564636261605F5E5D5C26
:103270005B5A5958585756555453525150504F4E07
:103280004D4C4B4A4A4948474646454443424241D1
:10329000403F3E3E3D3C3B3B3A393838373635358A
:1032A000343332323130302F2E2E2D2C2B2B2A2935
:1032B0002928272726252524232322212120201FD2
:1032C0001E1E1D1C1C1B1B1A191918181716161563
:1032D0001514131312121111100F0F0E0E0D0D0CE9
:1032E0000C0B0A0A09090808070706060505040465
:1032F00003030202010000206D61783A00206D692D
:103300006E3A0041786973200000002200250028F1
:10331000002B002E003100340002010000050108DE
:10332000010B0100002100240027002A002D00309D
:1033300000330001010000040107010A0105050531
:1033400005070508080808020202020A0A0808041C
:10335000040404010101010101010103030303034A
:10336000030303040707070C0C0C0C0C0C0C0C02D9
:1033700002020206060606060606060B0B0B0B0BE0
:103380000B0B0B01021020200808102040102040D9
:103390008002010201080402010102040810204019
:1033A0008080402010080402018004020180402037
:1033B0001008040201080402010102040810204060
:1033C00080010204081020408020436F756E742035
:1033D000583A004D31303620500045310062656466
:1033E000002C2073797374656D2073746F70706531
:1033F0006421204865617465725F49443A20004841
:10340000656174696E67204661696C656400486532
:103410006174696E67206661696C6564004D313165
:10342000322053687574646F776E00004361703AA0
:10343000007D007D7D2C776F726B3A7B6D696E3AF3
:103440007B783A007D2C6D61783A7B783A002C7A53
:103450003A002C793A00617265613A7B66756C6C52
:103460003A7B6D696E3A7B783A004348414D42455C
:10347000525F54454D5045524154555245004241CA
:1034800042595354455050494E470041524353000E
:103490004D4F54494F4E5F4D4F444553005448459E
:1034A000524D414C5F50524F54454354494F4E008A
:1034B0004C4F4E475F46494C454E414D45004155A6
:1034C000544F5245504F52545F53445F53544154EC
:1034D0005553005344434152440050524F4D5054B1
:1034E0005F535550504F525400454D455247454E3D
:1034F00043595F50415253455200434153455F4C3D
:10350000494748545F4252494748544E4553530037
:10351000544F47474C455F4C494748545300534F1D
:103520004654574152455F504F5745520042554906
:103530004C445F50455243454E54004C4556454C13
:10354000494E475F44415441005A5F50524F4245F3
:10355000004155544F4C4556454C005052494E542D
:103560005F4A4F420050524F475245535300415516
:10357000544F5245504F52545F54454D5000564F92
:103580004C554D45545249430042494E4152595FB2
:1035900046494C455F5452414E53464552005345AF
:1035A0005249414C5F584F4E5F584F46460046497E
:1035B000524D574152455F4E414D453A4D61726CF7
:1035C000696E20322E302E372E3220284F63742021
:1035D000313820323032302031383A31353A3430D7
:1035E0002920534F555243455F434F44455F555241
:1035F0004C3A68747470733A2F2F676974687562F7
:103600002E636F6D2F4D61726C696E4669726D77B6
:103610006172652F4D61726C696E2050524F544F2C
:10362000434F4C5F56455253494F4E3A312E30204E
:103630004D414348494E455F545950453A5369649A
:103640006577696E6465722058312045585452552B
:103650004445525F434F554E543A312055554944E5
:103660003A38356534393866302D633663332D3456
:103670003864352D396633362D6538383332326447
:1036800039306362310A0047322F47332062616468
:1036900020706172616D65746572730A00506C65AB
:1036A000617365205265736574005052494E5445EC
:1036B000522048414C5445440025533A202553009C
:1036C000706F7765726F6666004B494C4C45442EAF
:1036D00020005072696E7465722068616C74656454
:1036E0002E206B696C6C28292063616C6C656421E9
:1036F0000A006563686F3A004572726F723A002083
:103700003A202E2E2E4E6F77204F4E0A00203A2060
:103710004C6576656C696E67204F46460A00203A14
:10372000202E2E2E4E6F77204F46460A00203A203C
:103730004C6576656C696E67204F4E0A0000000A82
:103740000B02090C0D0E0807030401000000000025
:103750000000000000000000000000000000000069
:103760000000000000000000001211100000000026
:103770000000000000000000000000000000000049
:103780000000000085014F0111241FBECFEFD1E2E0
:10379000DEBFCDBF00E00CBF13E0A0E0B2E0E8EC7C
:1037A000FAE402E00BBF02C007900D92AA30B10705
:1037B000D9F724E1AAE0B3E001C01D92A93CB20709
:1037C000E1F71BE1C3ECDBE100E006C02197010952
:1037D000802FFE010F94BC21C23CD10780E0080776
:1037E000A9F70F94C60B0D9452250C9400002F924C
:1037F0003F924F925F926F927F928F929F92AF9281
:10380000BF92CF92DF92EF92FF920F931F93CF93CD
:10381000DF93CDB7DEB7EC970FB6F894DEBF0FBEDF
:10382000CDBF8BAF2091160328AFFF24F394F09205
:1038300016038091DB0D8D3409F496C2843511F4A2
:103840000C94322D873411F00C947F2D2091D90DDA
:103850003091DA0D2B31310509F48EC09CF42430FF
:10386000310534F422303105D4F537FF2CC078C24D
:103870002430310509F441C02531310511F40C948F
:10388000812D6EC22A32310509F4A4C164F42C31B1
:10389000310509F48BC02D31310509F061C20E9458
:1038A000F4670C94812D2B35310509F410C12C35AA
:1038B000310509F411C12A35310509F051C21092C0
:1038C00015030C94812D80912906813011F00C9400
:1038D000812D0E9436A70E944E890C94812D8091E3
:1038E0002906813011F00C94812D2230310509F028
:1038F00080E00E9499FD0C94812D80E50E94DF6498
:10390000882329F00E94B8AC6B017C0103C0C12C54
:10391000D12C760183E50E94DF64882361F00E9448
:103920005A6420E030E04AE754E40F94271B0F94D8
:1039300038236B017C010E94BCF28091EC0E811156
:1039400005C060E085E296E00E94D4CB0F94680A3F
:10395000C60ED71EE81EF91E0F94680ADC01CB01C3
:103960008C199D09AE09BF09B7FD02C00C94812DC9
:1039700080E00E94B833F0CF0E94DEC081110C9429
:10398000812D8CE0E7E6F2E0DE01119601900D92C8
:103990008A95E1F760E070E080E50E9410A8BE0122
:1039A0006F5F7F4F0E9490CA0C94812D90915B0DA8
:1039B0002AE532E23DA72CA781E0292F207295FF4E
:1039C00080E08EA7222331F065EA72E2CE018C9668
:1039D0000E94E2AD80915B0D85FF69C082E796E0B1
:1039E0000F94450789E696E00F94450787E596E032
:1039F0000F9445078091C90E882309F451C08BE4C8
:103A000096E00F94450780E090E0A0E8BFE38C8F3C
:103A10009D8FAE8FBF8FBE01645E7F4F8AEC9EE0AC
:103A20000F94400569837A838B839C836BE2CE017C
:103A300001960E9436C8BC018AE396E00F943008D4
:103A400020E030E0A9016091C90F7091CA0F809108
:103A5000CB0F9091CC0F0F94C11A882329F182EDDE
:103A60009EE00F94A7066C8F7D8F8E8F9F8FBE0177
:103A7000645E7F4F8AEC9EE00F94400569837A83F1
:103A80008B839C836BE2CE0101960E9436C8BC01F9
:103A90008FED9BE10F94300889E20E948C3204C0C4
:103AA0008EE296E00F9445078AE00E948C32809166
:103AB000A6068770873011F00C94972D60E08FE494
:103AC0000E9400AE81110C948A2D0C94972D8FE0EA
:103AD000809315030C94812D10EA212E12E0312ED3
:103AE0000AE9E02E06E0F02E2AEC3EE038AB2FA7E4
:103AF0008DEBC82E8EE0D82E00E010E0D1018D9124
:103B00001D010E94DF64882309F44BC00E945A649F
:103B10002B013C01133049F0F601208131814281B3
:103B200053810F94C4212B013C01AFA5B8A92D915D
:103B30003D914D915C91C301B2010F94C4214B01A1
:103B40005C012DEB37E346E855EB0F94252487FD08
:103B50000AC02DEB37E346E855E3C501B4010F94E5
:103B6000C11A1816F4F4133051F44092D60E509244
:103B7000D70E6092D80E7092D90E01E012C0A50146
:103B80009401F70160817181828193810F94C52135
:103B9000D7016D937D938D939C931397812F0E94F2
:103BA00041881F5FB4E0EB0EF11CEFA5F8A9349635
:103BB000F8ABEFA7F4E0CF0ED11C143009F09ECF84
:103BC000002321F086ED9EE00E94CDF20E94E98E56
:103BD0000C94812D80912906813011F00C94812D57
:103BE00089E40E94DF64F82E882321F00E94566445
:103BF000182F01C010E08AE40E94DF64082F882398
:103C000019F00E94566401C080E0FF2011F01330CB
:103C100020F4002341F0833030F082EC96E00F94E2
:103C200045070C94812D90E1EAECFEE0A7EAB6E0AE
:103C300001900D929A95E1F7FF2091F024E0120295
:103C4000F0011124E250FD4E408151816281738167
:103C50004093A7065093A8066093A9067093AA06FE
:103C6000002391F034E08302F0011124EE50FD4E68
:103C700080819181A281B3818093AB069093AC0641
:103C8000A093AD06B093AE0640E050E0BA0186E4E2
:103C90000E9415AE6B017C0120E030E0A9010F9479
:103CA000252418165CF420E030E040E752E4C70118
:103CB000B6010F94BF226B017C0103C0C12CD12C33
:103CC00076018090250290902602A0902702B09065
:103CD000280220E030E0A901C701B6010F94C11A03
:103CE000882341F0C0922502D0922602E09227025A
:103CF000F0922802009123021091240284E690E0C1
:103D00009093240280932302C0902B02D0902C0227
:103D1000E0902D02F0902E0280E090E0A0E8BFE35A
:103D200080932B0290932C02A0932D02B0932E022D
:103D30000E944E898092250290922602A09227022C
:103D4000B09228021093240200932302C0922B0207
:103D5000D0922C02E0922D02F0922E020C94812D32
:103D60000E94BEC00C94812D0091D90D1091DA0DE6
:103D70000737110509F447C70CF0E6C00D341105EB
:103D800009F47BC40CF059C00931110509F4A0C233
:103D900034F50431110509F42FC28CF401311105F9
:103DA00009F416C234F40230110508F4C7C10C94AA
:103DB0002F2D0231110509F4E3C50C942F2D063186
:103DC000110509F44EC20CF448C20731110509F47B
:103DD00052C20831110509F463C20C942F2D0E3123
:103DE000110509F4F7C2B4F40B31110509F497C2B7
:103DF0000CF487C20C31110509F4E4C20D31110530
:103E000011F00C942F2D809123148E7F8093231416
:103E10000C94812D0032110509F43DC30CF47EC3CE
:103E20000B34110509F425C40C34110511F00C9460
:103E30002F2D0E9460C70C94812D0B36110509F4BB
:103E4000BDC40CF043C00535110509F4D0C54CF5CF
:103E50000235110509F484C5D4F40135110511F0BA
:103E60000C942F2D0E9408DA0E9475C70E947CF4E2
:103E70000E94F63168EE73E080E090E00F94210735
:103E800060E082EE97E00E94D4CB0C94812D033544
:103E9000110509F46DC50435110509F471C50C94BB
:103EA0002F2D0836110509F4ECC334F40C35110537
:103EB00009F4C2C50C942F2D0936110509F432C43A
:103EC0000A36110509F442C40C942F2D0037110550
:103ED00011F40C94812D8CF40D36110509F4F8C3FE
:103EE00014F40C94812D0E36110509F470C40F36AC
:103EF000110509F47FC40C942F2D0337110509F423
:103F00003CC68CF40137110509F4B8C40237110519
:103F100011F00C942F2D0E9496BF8DEA92E10E9421
:103F200017FD0C94812D0537110509F429C60637B4
:103F3000110511F00C942F2D0091D70D1091D80D73
:103F400094E0F12C40E043C60F3281E0180711F4F1
:103F50000C94922A0CF065C00B3C110509F480C743
:103F600054F50639110509F4D4C684F4093711054E
:103F700009F454C60CF44AC60C38110509F4A3C45C
:103F80000139110509F451C60C942F2D0E3B110572
:103F900009F4BAC434F40B39110509F4B9C40C940A
:103FA0002F2D083C110509F4F1C6093C110509F44F
:103FB00034C70C942F2D0C3D110511F40C9471286D
:103FC00084F40D3C110509F49EC70CF468C70E3C3F
:103FD000110509F4ABC7033D110509F4C5C70C94DD
:103FE0002F2D0C32A1E01A0711F40C94472964F428
:103FF0000D3D110511F40C9498280232114011F472
:104000000C94ED280C942F2D0D32F1E01F0711F4C4
:104010000C945C290E32114011F40C944E2A0C942D
:104020002F2D073F31E0130711F40C94CC2B0CF02B
:1040300041C0053A91E0190711F40C94982AECF468
:104040000039B1E01B0711F40C94952A3CF40033BD
:10405000114011F40C94DB290C942F2D0A3921E026
:10406000120711F40C94812D043A114011F00C94B4
:104070002F2D0E94A06A0C94812D043F81E0180727
:1040800011F40C94C62B3CF40C3A114011F40C942E
:10409000682B0C942F2D053FB1E01B0711F40C94F5
:1040A000C92B063F114011F00C942F2D0E945DEB9F
:1040B0000C94812D0B35F2E01F0711F40C94F52BB5
:1040C000ECF40C3032E0130711F40C94E52B3CF4C3
:1040D000083F114011F40C94D42B0C942F2D0F3366
:1040E000A2E01A0711F40C94F22B0835124011F0DB
:1040F0000C942F2D0E946DA80C94812D003AE3E0C2
:104100001E0709F4FDC16CF40C3623E0120711F40C
:104110000C94812D0438134011F40C946E2C0C94E3
:104120002F2D073E83E0180711F40C94D72C093E7D
:10413000134011F40C94E52C0C942F2D80E50E9473
:10414000DF64882329F00E94B8AC6B017C0103C0B6
:10415000C12CD12C760183E50E94DF64882361F0B5
:104160000E945A6420E030E04AE754E40F94271B91
:104170000F9438236B017C010E94BCF28091D70D13
:104180009091D80D009721F061E00E9484CC05C089
:1041900060E08BEE96E00E94D4CB8091D90D909197
:1041A000DA0D892B19F063EE76E002C06BED76E054
:1041B00020E030E043E356E282E00E94B26740E054
:1041C000C701B6010E949D380E94FBBF0C94812D4F
:1041D0008091D30D84FF02C00C94672F8091D50D80
:1041E00087FF02C00C94672F8091D60D837011F069
:1041F0000C94672F0C94842F8091231483FF25C087
:1042000086E197E00F9445078091231483FF17C040
:1042100087E592E10E9427768BE1E7E5F2E1DE0196
:10422000119601900D928A95E1F760E070E0CE0161
:1042300001960E94CA71CE0101960E94D27787E052
:1042400097E00F9445070C94812D0F94470887E25F
:1042500097E00F9445070C94812D0E94CC6E0C942E
:10426000812D0E940D6E80912314877F8062809340
:1042700023140C94812DE091D70DF091D80D8081FD
:10428000882329F0803209F410823196F8CF60E05B
:104290008091D70D9091D80D0E94B1700C94812D12
:1042A0000E94D231882321F00E941E6E0E9424C7F2
:1042B00061E088E39BE20E9440674DE05BE261E3DE
:1042C00077E085E00E94D5C00E94FBBF0C94812D51
:1042D0008091231482FF03C08B7F809323140E945C
:1042E00060C70E94FBBF4FEC5AE263E477E084E0D2
:1042F0000E94D5C061E08DE397E00E9440670C9476
:10430000812D8091231483FD02C00C94812D83E5BF
:104310000E94DF6481110C94932F0C94812D83E40F
:104320000E949164882319F186E597E00F94450770
:1043300080910112882391F0BE016F5F7F4F8EEF55
:1043400091E10E94D8778E010F5F1F4FD8018D91A8
:104350008D01882339F00E948C32F8CF8CE497E0ED
:104360000F9445078AE00E948C320C94812D809135
:10437000231482FF21C085E697E00F9445076091E2
:104380001F147091201480912114909122144AE0FE
:104390000E9493328FE20E948C3260911B147091C4
:1043A0001C1480911D1490911E144AE00E949332B7
:1043B0000E9491330C94812D87E797E00F94450775
:1043C0000C94812D8091D70D9091D80D0E9467702B
:1043D0000C94812D8091231483FD02C00C94812DB7
:1043E0000E94A4C08091231483FD02C00C94812DEF
:1043F0004091D70D5091D80DBE01645E7F4F80E093
:104400000F94BE0A8C01009711F40C94812D6C8DD1
:104410007D8D19821C8222E0AC01CE0101960E94A2
:10442000967B811102C0F12C14C0CE0101960E942E
:104430004BF78823C1F361E0CE0101960E947A77A1
:10444000009789F325EEFC0120831C820E94977659
:10445000F82ECE0101960E94D277B801FF2089F094
:1044600080EA97E00F9430088AE00E948C32109224
:104470001F141092201410922114109222140C94E4
:10448000812D88E897E00F9430088EE29EE10F942A
:1044900045070C94812D8091231482FD0E94BCF26B
:1044A0008091231483FD02C00C94812D60E080E58F
:1044B0000E9400AE182F682F8091D70D9091D80DD3
:1044C0000E94B17083E50E94DF64882381F00E941E
:1044D0002264AB01BC0140931F14509320146093DD
:1044E0002114709322148EEF91E10E9438740E947F
:1044F0001E6E11110C94812D0E9424C70C94812DE5
:104500002091D70D3091D80D909123149260909303
:104510002314C9010E9467700C94812D0E94D5C696
:104520007B018C0120E831E541E050E00F94172138
:10453000C9016DE671E00F9494214B015C01C80143
:10454000B70120E13EE040E050E00F941721CA019E
:10455000B90128E130E040E050E00F941721762EB9
:10456000672EC62ED72EBCE32B2E312C412C512C7E
:10457000C801B701A20191010F941721F62EE72E71
:10458000CA01B901A20191010F941721CB018E013B
:104590000F5F1F4F8114910499F0EF92FF927F9368
:1045A0006F936F927F92BF92AF929F928F928EEA9B
:1045B00097E09F938F931F930F930F94591A13C0F3
:1045C000A114B104B1F0EF92FF927F936F936F92B9
:1045D0007F92BF92AF9282EB97E09F938F931F934E
:1045E0000F930F94591A0FB6F894DEBF0FBECDBFCC
:1045F00030C0CD2879F0EF92FF927F936F936F9246
:104600007F9286EB97E09F938F931F930F930F9466
:10461000591AE9CF892B69F0EF92FF927F936F933C
:104620008AEB97E09F938F931F930F930F94591AE0
:10463000DACFEF92FF928EEB97E09F938F931F93C9
:104640000F930F94591A0F900F900F900F900F9097
:104650000F9060E0C8010E9484CC0F944708B80115
:1046600082EC97E00F9430088AE00E948C320C9420
:10467000812D0E9424C70C94812D0E9475C70C9433
:10468000812D80915B0D83FF02C00C94812D0E94CF
:10469000E7A787FF02C00C94812D89E40E94DF64A4
:1046A000882311F40C94A42F0E94326490E0181611
:1046B000190614F481E090E026E0289FF001299F7C
:1046C000F00D1124EB56F04F808191810C94AE2FA8
:1046D00080915B0D83FF02C00C94812D0E94E7A79F
:1046E000F82E87FF02C00C94812D89E40E94DF64BC
:1046F000082F882311F40C94B72F0E94326490E0A5
:104700001816190614F481E090E026E0289FF001C5
:10471000299FF00D1124EB56F04F8081918110E01C
:104720000C94C72F0E94E7A7182F87FD0AC080E0CE
:1047300098E20F944507812F0E94F8D58AE00E94E5
:104740008C32F8ADF09316030C948B3180E50E9407
:1047500035C181110C94812D81E40E9491648823DC
:1047600029F06091E306062F10E002C00FEF10E081
:1047700089E40E94DF64882399F00E94326490E00B
:104780001816190614F481E090E026E0289FF00145
:10479000299FF00D1124EB56F04F0481158108C0BC
:1047A00083E50E94DF64882319F00E9422648B0154
:1047B000B80180E00E94ECFC0C94812D80E50E9401
:1047C00035C160E070E00E94ECFC0C94812D8EE419
:1047D0000E94DF64882311F40C94812D0E942264CE
:1047E0006093600E7093610E8093620E9093630EDF
:1047F0000C94812D83E50E949164882329F083E540
:104800000E9435C180935B0D0F94470884ED97E0BB
:104810000F94450780915B0D882369F1A5E9EA2E85
:10482000A9E0FA2E00E010E020E080915B0D90E01E
:10483000A0E0B0E0002E04C0B695A79597958795A7
:104840000A94D2F780FF0EC0DD24D394D20E222327
:1048500019F08CE20E948C32F701859194910F94AB
:1048600045072D2D0F5F1F4F32E0E30EF11C063080
:104870001105D9F677CD85EC96E372CD83E50E94DC
:10488000DF64882381F00E943264282F30E02D33CA
:10489000310524F4809300020C94812D8CE38093E5
:1048A00000020C94812D0F9447084091000250E0C3
:1048B00060E070E08BED97E00F9454078AE00E946F
:1048C0008C320C94812D80915B0D83FF02C00C947F
:1048D000812D89E40E94DF64882311F40C94103048
:1048E0000E94326490E01816190614F481E090E0FA
:1048F00026E0289FF001299FF00D1124EB56F04F80
:10490000628173810C941A300E9429B40C94812D19
:1049100083E50E94DF64882311F40C94812D0E94AA
:104920003264182F90E0CD970CF01CE310930E0327
:104930000F94680A6B017C01212F30E0A8EEB3E0F0
:104940000F946B21C60ED71EE81EF91EC0920A03F3
:10495000D0920B03E0920C03F0920D030C94812D86
:10496000809115038F7D8061809315030C94812DB8
:10497000809115038F7E8062809315030C94812DA6
:1049800083E50E94DF648823F1F00F94680A609346
:104990007B0F70937C0F80937D0F90937E0F0E940E
:1049A0005A6420E030E04AE754E40F94271B0F9448
:1049B0003823609301027093020280930302909364
:1049C00004020C94812D8091D30D84FF02C00C94BD
:1049D00029308091D50D87FF02C00C942930809139
:1049E000D60D837011F00C9429300C945B3083E564
:1049F0000E949164882311F40C94812D0F94680A0D
:104A000060937B0F70937C0F80937D0F90937E0F4C
:104A10000E945A6420E030E04AE754E40F94271BD8
:104A20000F94382360930F03709310038093110346
:104A3000909312030C94812D0E94E7A787FF02C078
:104A40000C94812D9091D30D94FD04C09091D50DBF
:104A500097FF0AC0E0EACE2EE2E0DE2EFCE5EF2E64
:104A6000FDE0FF2E10E00AC09091D60D937091F7F3
:104A7000682F81E00E9423A80C94812DD6018D918E
:104A80006D010E94DF64882309F46DC0133009F0C2
:104A900063C00E945A644B015C0120E030E040EAB0
:104AA00051E40F94C11A87FF4EC0A5019401609193
:104AB0007C0D70917D0D80917E0D90917F0D0F94F6
:104AC000BF222B013C019B01AC016091DB06709180
:104AD000DC068091DD069091DE060F94271B609323
:104AE000DB067093DC068093DD069093DE06A3015F
:104AF000920160918C0D70918D0D80918E0D909131
:104B00008F0D0F94271B60938C0D70938D0D8093E8
:104B10008E0D90938F0D6091C7067091C80680919D
:104B2000C9069091CA060F94C61AA30192010F9468
:104B3000271B0F9438236093C7067093C806809391
:104B4000C9069093CA0680927C0D90927D0DA0922A
:104B50007E0DB0927F0D07C00E945A64F701648BEE
:104B6000758B868B978B1F5FF4E0EF0EF11C143072
:104B700009F084CF0E94AEF1C4C70F94BD02C1C733
:104B80008091D70D9091D80D009741F0DC012C91C8
:104B9000222321F060E00E9484CCB3C70E94FBBFB7
:104BA000B0C7F8018081282F2B7F213499F0803500
:104BB000E9F4818180538A30C8F498012E5F3F4F19
:104BC00089012F5F3F4FF80180818032C9F39150F6
:104BD00041F70CC02181213349F4813421F085341F
:104BE00061F741E0EACFFF24F394E7CF41110F943E
:104BF0004708FF2021F085EF97E00F944507C80193
:104C00000E9497337EC70E949AC67BC781E080933B
:104C10005404809353040E94BCC673C7109254047A
:104C2000109253040E94BCC66CC760E070E083E53C
:104C30000E945EA8823038F00F94430889EF97E015
:104C40000F9445075EC78C01112788E40E94DF643A
:104C50008823E1F00E9456648A3A910544F00E944C
:104C600056648530914034F40E94566405C08AEA47
:104C700090E002C084E091E026E0209FF001219FB7
:104C8000F00D1124EB56F04F9183808382E40E9453
:104C9000DF648823D9F00E945664059744F00E948F
:104CA00056648D38910534F40E94566405C085E041
:104CB00090E002C08CE890E026E0209FF001219F68
:104CC000F00D1124EB56F04F9383828386E40E940B
:104CD000DF64882309F415C70E94566497FD09C054
:104CE0000E9456648F3F910509F034F40E94566487
:104CF00005C080E090E002C08FEF90E026E0209FAA
:104D0000F001219FF00D1124EB56F04F9583848321
:104D1000F8C682E40E949164882351F080911303C5
:104D200090911403892B31F00E943264182F03C034
:104D300010E001C01FEF85E50E949164882351F0C7
:104D40008091130390911403892B31F00E943264F7
:104D5000082F03C000E001C00FEF82E50E949164BC
:104D6000882349F08091130390911403892B29F033
:104D70000E94326403C080E001C08FEF89830A8300
:104D80001B83CE0101960E94EE65BBC60E94E7A779
:104D9000182F87FDB6C60091D10F84E40E94DF640E
:104DA000882311F40C945E300E945A646B017C01DC
:104DB00020E030E0A9010F94C11A882341F124E0DA
:104DC0001202F0011124E353F04FC082D182E2823B
:104DD000F38220E030E0A9016091CD0F7091CE0FF9
:104DE0008091CF0F9091D00F0F94C11A81110CC0F8
:104DF00080E090E0A0EEBFE38093CD0F9093CE0FC4
:104E0000A093CF0FB093D00F01E00C945E3080E000
:104E10008093D10F0E94B98374C60E94E7A787FDD3
:104E200070C670EAE72E72E0F72E0CE51DE0D701A0
:104E30008D917D010E949164882359F00E945A64EB
:104E40000F943823F80160837183828393830E94D7
:104E500067F10C5F1F4FFDE00C361F0741F751C68D
:104E60000E94E7A787FD4DC660EAE62E62E0F62EB7
:104E70000CE51DE0D7018D917D010E94916488238E
:104E800039F00E945A64F80164A375A386A397A31E
:104E90000C5F1F4FFDE00C361F0761F732C6809193
:104EA000D40D87FF02C00C9464308091D50D8E70B4
:104EB00011F00C9464304091900D5091910D6091DF
:104EC000920D7091930D8BE198E00F9472074091D1
:104ED000940D5091950D6091960D7091970D8FE006
:104EE0009FE20F9472074091980D5091990D609137
:104EF0009A0D70919B0D8DEA97E20F9472078AE0EC
:104F00000E948C32FEC58091D30D827111F00C94F9
:104F1000AA308091D50D8C7811F00C94AA30809134
:104F2000D60D837011F00C94AA30EBC557E5E52E31
:104F300054E0F52E10E088E5810F0E9491648823EB
:104F400059F00E945A64D7016D937D938D939C9381
:104F50001397812F0E9441881F5FB4E0EB0EF11C74
:104F6000133049F70C94E61DC0904E02D0904F02CA
:104F7000E0905002F09051028091520290915302C1
:104F8000A0915402B09155028FA798ABA9ABBAABD0
:104F90004090BD0E5090BE0E6090BF0E7090C00E3F
:104FA000A301920160914A0270914B0280914C02E0
:104FB00090914D020F94C5216C8F7D8F8E8F9F8FA6
:104FC0008090C10E9090C20EA090C30EB090C40EFF
:104FD000A5019401C701B6010F94C52168A379A367
:104FE0008AA39BA3C090C50ED090C60EE090C70EBA
:104FF000F090C80EA70196016FA578A989A99AA972
:105000000F94C5216CA37DA38EA39FA380915A0208
:1050100090915B02A0915C02B0915D028FA798AB6A
:10502000A9ABBAAB80915E0290915F02A091600241
:10503000B09161028BAB9CABADABBEABA301920157
:1050400060915602709157028091580290915902D6
:105050000F94C52169837A838B839C832FA538A9FC
:1050600049A95AA9C501B4010F94C5216D837E8356
:105070008F8398872BA93CA94DA95EA9C701B601CA
:105080000F94C52169877A878B879C870F9447087F
:105090008DE698E00F94450783E50E94916488238C
:1050A00021F00E9446648093480280914802882340
:1050B00019F08FE096E002C08AEA95E30F94450765
:1050C00044EE5BE265E678E0CE014C960F94C607AD
:1050D00040E050E06DE578E0CE0101960F94C60700
:1050E00010C583E50E94DF64882331F00E94566476
:1050F00090932402809323028091D30D9091D40D3C
:10510000A091D50DB091D60D892B8A2B8B2B09F050
:10511000F8C460912302709124028DE798E00F9407
:105120001B0885E20E948C328AE00E948C32E9C41E
:105130000E94E7A7F82E87FDE4C483E50E94DF64A0
:105140000F2D0F2C000C110B882361F10E94566467
:10515000F801EE0FFF1FE75DFD4F91838083000F85
:10516000111F000F111FD801A55DBD4F7D01BC01AE
:10517000990F880B990B0F94C81A2AE037ED43E278
:105180005CE30F94271BF801E954F94F208131812A
:10519000428153810F94271BF701608371838283BF
:1051A0009383AFC40F94470885E40E948C3280E358
:1051B0008F0D0E948C32F801EE0FFF1FE75DFD4F4F
:1051C0006081718181E898E00F941B0885E20E945C
:1051D0008C328AE00E948C3294C48AE50E94DF649B
:1051E000811105C083E50E94DF64882391F10E944C
:1051F0005A6420E030E040E050EC0F94C11A87FF81
:1052000002C00C9428310E945A6420E030E040E053
:1052100050E40F942524181614F40C9421310E94A4
:105220005A646B017C0184E00E949A88811111C04C
:105230002091780D3091790D40917A0D50917B0D30
:10524000C701B6010F94271B0F943123CB010F9494
:1052500021058091D50D87FF02C00C942F318091DC
:10526000D60D837011F00C942F310F9447084091A4
:10527000A10F5091A20F6091A30F7091A40F89E824
:1052800098E00F9472078AE00E948C323AC464E07E
:1052900071E083E50E9410A88C0168EE73E080E560
:1052A0000E9410A88938F3E19F0710F088E893E185
:1052B000B8010E949DCB25C485E40E9435C18111AF
:1052C00073C080E50E949164882351F00E945A6463
:1052D0006093E70F7093E80F8093E90F9093EA0FC4
:1052E00089E40E949164882381F00E945A642CEA28
:1052F00035EC47E25EE30F94271B6093EB0F70934E
:10530000EC0F8093ED0F9093EE0F84E40E94916474
:10531000882381F00E945A642CEA35EC47E25EE370
:105320000F94BF226093EF0F7093F00F8093F10FF3
:105330009093F20F0F9447084091E70F5091E80FB8
:105340006091E90F7091EA0F8EE998E00F9472076F
:105350002CEA35EC47E25EE36091EB0F7091EC0FC5
:105360008091ED0F9091EE0F0F94BF22AB01BC0125
:105370008AE998E00F9472072CEA35EC47E25EE385
:105380006091EF0F7091F00F8091F10F9091F20FFB
:105390000F94271BAB01BC0186E998E00F947207BC
:1053A0008AE00E948C32ADC30F94430882EA98E0F1
:1053B0000F944507A6C380E50E949164882351F0AD
:1053C0000E945A6460936E0F70936F0F8093700FFA
:1053D0009093710F89E40E949164882381F00E9468
:1053E0005A642CEA35EC47E25EE30F94271B609386
:1053F000720F7093730F8093740F9093750F84E402
:105400000E949164882381F00E945A642CEA35EC52
:1054100047E25EE30F94BF226093760F7093770F9D
:105420008093780F9093790F0F94470840916E0FF7
:1054300050916F0F6091700F7091710F8EE998E02D
:105440000F9472072CEA35EC47E25EE36091720F2D
:105450007091730F8091740F9091750F0F94BF220C
:10546000AB01BC018AE998E00F9472072CEA35EC95
:1054700047E25EE36091760F7091770F8091780F2D
:105480009091790F0F94271BAB01BC0186E998E03E
:105490000F9472078AE00E948C3233C383E50E9426
:1054A0009164182F882371F00E945A640F9431235D
:1054B0007093300260932F0221E0672B09F020E007
:1054C0002093F40680E50E949164882359F020918E
:1054D0002F0230913002232B11F00E9446648093FA
:1054E000F4060FC311110DC30F9447088DEC98E01B
:1054F0000F9445078091F406882319F085E09DE21A
:1055000002C084EB98E00F94450760912F027091E0
:1055100030028CEB98E00F941B0888EB98E00F9416
:105520004507EFC20E942CAEECC20E94BCF2E9C259
:1055300088E50E949164D82E89E40E949164C82E67
:10554000882321F00E945664A82E28C0DD2011F186
:105550000E945A642091BD0E3091BE0E4091BF0E44
:105560005091C00E0F94C42120E030E040E251E49D
:105570000F94C42120E030E04CE852E40F94C521A0
:1055800021EA3EE04AEE5BE30F94271B0F943123A0
:10559000633018F0AA24AA9401C0A62E89E50E94BF
:1055A0009164F82E8AE40E949164182F882321F0D8
:1055B0000E945664B82E28C0FF2011F10E945A6440
:1055C0002091C10E3091C20E4091C30E5091C40E75
:1055D0000F94C42120E030E040E251E40F94C42154
:1055E00020E030E04CE852E40F94C52121EA3EE08F
:1055F0004AEE5BE30F94271B0F943123633018F0BE
:10560000BB24BA9401C0B62E8AE50E949164E82EAC
:10561000811105C081E50E949164082F01C000E05E
:10562000C11001C010E0212F30E0D11001C0F12CD9
:105630002F0D311D2130310521F4E11009C0011178
:1056400007C00F94430880EE98E00F94450759C2B5
:10565000A7FC02C0B7FE07C00F94430882EC96E097
:105660000F9445074EC20E945A64EA2CAA0CFF0808
:10567000AB2DBB0CBB0B002391F0F701EE0FFF1F0E
:10568000EE0DFF1DEA0FFB1FEE0FFF1FEE0FFF1FBA
:10569000EB55F04F208131814281538103C020E0DE
:1056A00030E0A9018701000F111F0E0D1F1D0A0F09
:1056B0001B1F000F111F000F111F0B55104F0F94D0
:1056C000C521D8016D937D938D939C93139719C237
:1056D0000E94DEC0811115C20BEE11E3EAECFEE080
:1056E000F8ABEFA79E012F5F3F4F19014CECC42E82
:1056F00043E2D42E7901F8016591759185919491D9
:10570000AFA5B8A98D909D90AD90BD90B8ABAFA757
:10571000A50194010F94C4212B013C01F701608382
:1057200071838283938320E030E040EA51EC0F9450
:10573000252487FD0AC020E030E040EA51E4C3019F
:10574000B2010F94C11A18162CF4F60184911816A0
:105750000CF48CC5D7018D909D90AD90BD907D01CE
:1057600020E030E040EA51ECC501B4010F9425245B
:1057700087FD87C520E030E040EA51E4C501B4016F
:105780000F94C11A18160CF090C57BC50E940C5FCF
:10579000B8C10E94C8ECB5C161E083E50E9400AECB
:1057A0008F250E94D6ECADC181E08093880F0E94C6
:1057B000D5581092880F882309F4A3C10F94470885
:1057C0008CE399E00F9445079CC18091231482FFDC
:1057D00004C080648093231494C183FF92C10E940B
:1057E000A4C08FC10E94C8AC8CC10E94E7A7082F3B
:1057F00087FD87C185E50E9491648823B1F1E02E81
:10580000002E000CFF080E945A644B015C0120E04E
:1058100030E0A9010F94252487FF04C0B7FAB094A3
:10582000B7F8B094C70123E0880F991F2A95E1F7D4
:105830009C012357304F7901D9018D929D92AD92F1
:10584000BC92139720E030E048E453E4C501B40172
:105850000F94252418164CF480E090E0A8E4B3E4FB
:10586000F70180839183A283B3838CE40E949164C7
:10587000882309F446C1002E000C110B0E945A64C3
:105880006B017C0120E030E0A9010F94252487FF03
:1058900004C0F7FAF094F7F8F09420E030E048E420
:1058A00053E4C701B6010F942524980193E0220F19
:1058B000331F9A95E1F7F901E357F04F18162CF0D2
:1058C000C482D582E682F7821CC180E090E0A8E421
:1058D000B3E484839583A683B78313C1A090F506B0
:1058E000B090F606C090F706D090F8068BE40E94C0
:1058F000DF64882339F10E945A647B018C0120E027
:1059000030E0A9010F94252487FD0AC020E030E093
:1059100040E251E4B701C8010F94C11A1816A4F46B
:105920008FE30E948C328BE40E948C328FE499E0EA
:105930000F94450787E499E00F9445078EE29EE1B6
:105940000F944507750186019701A801B501C601AD
:105950000F94C11A882361F00E94BCF2C701D801DC
:105960008093F5069093F606A093F706B093F80699
:105970008091D30D9091D40DA091D50DB091D60DFD
:10598000892B8A2B8B2B09F0BCC00F9447084091C0
:10599000F5065091F6066091F7067091F80683E6D9
:1059A00099E00F9472078AE00E948C32AAC081E0CD
:1059B000809329061092150F60E083E50E9400AEE7
:1059C00081119FC00E9469B69CC00E94D5C66B0120
:1059D0007C016D3371058105910520F081E999E025
:1059E0000F9466048DE899E00F94660489E799E0C6
:1059F0000F9445072DE3C216D104E104F10440F1F0
:105A000019828FEF8A831B82CE0101960E94EE6578
:105A100081E080931D0320E030E043E356E26EE630
:105A200079E082E00E94B26740E060E477E78BE1D2
:105A300090E00E949D3880911D03882349F01982CF
:105A40001A821B82CE0101960E94EE6510921D0300
:105A500086ED91E2909365048093640452C00E94A5
:105A6000BEC04FC00091D90D1091DA0D90915B0D21
:105A70002EEA37E23A83298381E0292F207295FFAD
:105A800080E08B83222331F065EA72E2CE01019639
:105A90000E94E2AD80915B0D85FF0CC0602F002E4F
:105AA000000C770B8EE592E20F941B0888E198E0DA
:105AB0000F9445070F94680A60937B0F70937C0FD7
:105AC00080937D0F90937E0F0023A1F00F944708E1
:105AD00084E50E948C32B8017727072E000C880BD2
